:020000040800F2
:1000000000400020CD380008E5060008E70600089B
:1000100000000000000000000000000000000000E0
:10002000000000000000000000000000E9060008D9
:100030000000000000000000EB060008ED060008CC
:100040001D3900081D3900081D3900081D39000838
:100050001D3900081D3900081D3900081D39000828
:100060001D3900081D3900081D3900081D39000818
:100070001D3900081D3900081D3900081D39000808
:100080001D3900081D3900081D3900081D390008F8
:100090001D3900081D3900081D3900081D390008E8
:1000A0001D3900081D3900081D3900081D390008D8
:1000B0001D3900081D3900081D390008F506000823
:1000C000002934D00123002210B488422CD301240B
:1000D0002407A14204D2814202D209011B01F8E7A0
:1000E000E400A14204D2814202D249005B00F8E759
:1000F000884201D3401A1A434C08A04202D3001B85
:100100005C0822438C08A04202D3001B9C082243B7
:10011000CC08A04202D3001BDC082243002803D0F5
:100120001B0901D00909E3E7101C10BC704701B599
:10013000002000F00BF802BD0029F8D003B5FFF74E
:10014000C1FF0EBC4243891A1847C0467047C046DB
:1001500010B5064C2378002B07D1054B002B02D09D
:10016000044800E000BF0123237010BDDC00002024
:100170000000000078390008044B10B5002B03D0B4
:100180000349044800E000BF10BDC0460000000065
:10019000E00000207839000830B589B01422002131
:1001A00003A803F0E1FB184B59698020C00201430A
:1001B00059615A6902400192019A5A698021890263
:1001C0000A435A615B690B400293029B0F4C104D2E
:1001D00000222100280002F07FF9039401230493F8
:1001E00000240594069403A9280002F097F88023C0
:1001F0009B00039304940594902003A9C00502F08A
:100200008DF809B030BDC04600100240041C00004B
:100210000004004810B50D4C0D4B23600D4B63607E
:100220000023A3600122E26023616361A361E361B3
:100230002362200001F0B6FF0021200002F018F830
:100240000021200002F040F810BDC0461C0600202E
:10025000005400400E09002010B598B03022002153
:100260000CA803F081FB1022002107A803F07CFBFF
:100270001C220021684603F077FB22230B93213BCD
:100280000E9313930F330F9300240BA801F0F2FA8F
:1002900007230793043B089309940A94012107A8B4
:1002A00001F0D4FD044B009304940694684601F0D9
:1002B0006FFE18B010BDC0462000020010B501F05E
:1002C0003DFFFFF7C9FFFFF767FFFFF7A3FF00F050
:1002D0000FF880214901044802F004F9FA20800057
:1002E00001F04EFFF5E7C0460004004870470000EB
:1002F00010B500221149124802F055F9002811D119
:1003000010490F4802F06BF900280ED10E490C4835
:1003100003F0D4FA00280BD1094802F069F900284B
:1003200009D110BDFFF7E2FFEAE7FFF7DFFFEDE7D6
:10033000FFF7DCFFF0E7FFF7D9FFF2E7000000204E
:10034000680600207800002050000020022804D019
:1003500005D8002800D0022070470120FCE70220C9
:10036000FAE710B5FFF778FF10BD000000B583B0C5
:1003700002680C4B9A4201D003B000BD0A4AD16911
:10038000802000040143D161D36903400193019BA4
:10039000002200211F2002F0ADF81F2002F0DAF841
:1003A000EAE7C046005C00400010024010B50100C2
:1003B0009C239B00C058403B9C46614402F042F99C
:1003C00010BD10B503009C22920080584A019B1872
:1003D0003D33FF331A6802F067F910BD10B5030012
:1003E0009C22920080584A019B18DA6B02F0AEF909
:1003F00010BD10B59C239B00C05802F069FA10BDD7
:1004000070B504008368022B09D19C25AD00012141
:10041000605902F03FFA605902F00DFA70BDFFF723
:1004200065FFF2E710B504009C239B00C05802F062
:1004300035FAA369002B04D0024A136906210B4345
:10044000136110BD00ED00E010B504008369002BBE
:1004500005D19C239B00E05802F02CFA10BD044A01
:10046000136906218B431361FFF77BFFF1E7C04659
:1004700000ED00E070B5040013489C239B00C450BD
:100480005033E050114B036008234360063B836008
:10049000036100238361C361036200F05BFD0028F8
:1004A0000FD1B025AD00182300220021605901F0C2
:1004B000B1F9605958230022802101F0ABF90020E6
:1004C00070BDFFF713FFECE72C090020005C004033
:1004D00010B5B0239B00C05800F0A6FDFFF736FF13
:1004E00010BD10B5B0239B00C05800F0B4FDFFF75D
:1004F0002DFF10BD10B514001A00B0239B00C0588A
:10050000230000F0D5FDFFF721FF10BD10B5B0238B
:100510009B00C05801F004F9FFF718FF10BD10B59B
:10052000B0239B00C05801F03AF9FFF70FFF10BD50
:10053000B0239B00C3584AB2002A07DB7F22114038
:1005400049015B182B33FF33187870477F22114025
:1005500049015B182A331878F7E710B5B0239B00E0
:10056000C05800F08FFDFFF7F1FE10BD10B5B024AC
:10057000A400005900F0FFFDFFF7E8FE10BD10B524
:10058000B024A400005900F0D0FDFFF7DFFE10BD3D
:1005900000487047F80000207047000012230B80CD
:1005A000004870471C00002004230B80004870475F
:1005B0003000002030B500230AE05D0037344C5590
:1005C00000015C0001340C19002525700133DBB2F9
:1005D000934206D2040F092CEFD85D0030344C55FD
:1005E000EEE730BD70B50B4B18680B4B1D680B4B1D
:1005F0001B68C018002800D170BD094CA11C08223E
:10060000FFF7D8FF2100123104222800FFF7D2FFA4
:10061000F2E7C046ACF7FF1FB0F7FF1FB4F7FF1FAC
:100620003400002010B51A230B80FFF7DBFF0148D0
:1006300010BDC0463400002010B50A00002805D1C6
:100640000549064802F0BFFC034810BD02490348B3
:1006500002F0B9FCF8E7C046A00B00209039000872
:1006600010B50A00034C2100034802F0ACFC200046
:1006700010BDC046A00B0020B039000810B50A001C
:10068000002805D10549064802F09DFC034810BD2D
:100690000249034802F097FCF8E7C046A00B00208F
:1006A000C439000810B50A00002805D105490648DC
:1006B00002F089FC034810BD0249034802F083FCA4
:1006C000F8E7C046A00B0020D03900080020704792
:1006D00000207047002070470020704700207047BE
:1006E000002070477047FEE77047704710B501F073
:1006F00035FD10BD10B5024800F036FF10BDC046F4
:100700002C09002082B00A4B99690122114399619A
:1007100099690A400092009ADA69802149050A43E2
:10072000DA61DB690B400193019B02B07047C04660
:100730000010024010B588B004001422002103A864
:1007400003F012F92268134B9A4201D008B010BD91
:10075000114C62698021C9020A43626163690B40DE
:100760000193019BC0230393AE3B0493113B05937C
:1007700003220692079303A9084801F0CFFDE2691E
:10078000802189030A43E261E3690B400293029BE3
:10079000DCE7C0460054004000100240000400485E
:1007A0004022835A02490B439BB283520020704778
:1007B00080BFFFFF4022835A02490B408352002032
:1007C0007047C0467F40000084B010B5039104928A
:1007D0000593402201238352002383520432835223
:1007E0000C328352FFF7DCFF002010BC08BC04B0C1
:1007F00018470000F0B503000D78AD0045192A88B0
:10080000B2480240C87802285AD00AD8002853D0EB
:10081000012804D18020C0000243002009E001200B
:1008200007E0032804D1C020C0000243002000E0FC
:100830000120A74C224392B22A800A7896009E1982
:1008400035882DB2A34F3D402A4392B21443A4B23F
:1008500034800A7B002A00D08BE04A78002A3CD002
:1008600050229C5A1C190A78D20012198024E400E4
:10087000A4466244CC886408640014800A7892001C
:100880009A181488640606D514883D002540924CB9
:100890002C43A4B21480CA78012A13D00A7892009B
:1008A0009B181A888D490A4020214A4092B28849F3
:1008B0000A4392B21A8048E08024A4002243B8E799
:1008C0000020B6E70A7892009B181A8883491140E5
:1008D0007F4A0A4392B21A8037E050255C5B1C19AC
:1008E0000A78D20012197E4CA4466244CC8864086F
:1008F000640014805C5B1C190A78D2001219794CD0
:10090000A44662440C69002C20D11488764D254001
:10091000764C2C4314800A7892009A181488640448
:1009200006D514886B4D2540714C2C43A4B214801D
:100930000A7892009B1819886E4A1140C0229201D1
:100940005140634A0A4392B21A80F0BD3E2C06D849
:100950006508E40700D50135AD021580DBE76509C0
:10096000E40600D1013DAD02ADB2604C25431580D7
:10097000D1E70A7892009A181488564D25405E4CAB
:100980002C43A4B2148050255C5B1C190A78D20059
:1009900012198024E400A44662440C8964086400AF
:1009A00014805C5B1C190A78D20012194C4CA446C6
:1009B00062444C896408640014804A78002A3AD161
:1009C0000A7892009A181488640406D51488414D58
:1009D0002540474C2C43A4B214800A7892009A1800
:1009E0001488640606D514883A4D25403A4C2C43A9
:1009F000A4B214800A7892009A181488354D2540C4
:100A0000354C2C43A4B214800C78A4001C19228805
:100A1000384D1540C02292016A402D4D2A4392B2B2
:100A200022800A7892009B181A882C490A402A438F
:100A300092B21A8089E70A7892009A18148864049E
:100A400006D51488234D2540294C2C43A4B214808C
:100A50000A7892009A181488640606D514881D4DE9
:100A600025401D4C2C43A4B214800A7892009A1899
:100A70001488184D25401E4C2C43A4B21480CA780B
:100A8000012A17D00C78A4001C192288134D2A4083
:100A900020256A4092B20E4D2A4392B222800A78F3
:100AA00092009B181A8813491140094A0A4392B2CE
:100AB0001A804AE70A7892009A181488074D254050
:100AC000034C2C43A4B21480E9E7C0468F89FFFF92
:100AD0008080FFFF8F8FFFFFC080FFFFBF8FFFFF72
:100AE0000404000006040000FF83FFFF0080FFFFF6
:100AF00080C0FFFF8FBFFFFF8081FFFF4B78002B7F
:100B00000ED00B789B00C01803880C4A13401022AB
:100B100053409BB20A4A13439BB2038000207047A4
:100B20000B789B00C0180288064B1A4080235B019B
:100B30005A40034B13439BB20380EFE7BF8FFFFF85
:100B40008080FFFF8FBFFFFF10B50B7B002B3AD1DA
:100B50004B78002B1DD00B789B00C3181A885206C7
:100B600006D51A88194C1440194A224392B21A80A9
:100B7000CB78012B27D00B789B00C0180388154A2F
:100B80001340202253409BB2134A13439BB203806D
:100B900019E00B789B00C3181A88520406D51A88EE
:100BA0000A4C14400D4A224392B21A800B789B00E3
:100BB000C01802880A4B1A40C0239B015A40064BBA
:100BC00013439BB20380002010BDC0468F8FFFFFF0
:100BD000C080FFFFBF8FFFFF8080FFFF80C0FFFF4F
:100BE0008FBFFFFF40230122C252433200218152B6
:100BF000413AC25200207047002902D14C23802282
:100C0000C2520020704700005822835A02490B4309
:100C10009BB28352002070470080FFFF4423C05ADC
:100C200080B270470020704710B501335B08101880
:100C30008022D20094466044002B08D00C784A7879
:100C400012022243028002300231013BF4E710BD60
:100C500070B505000C00497801292BD0A2692369E1
:100C60009A4200D8D9E0D21AA261227B002A00D091
:100C7000EAE05032A95A69182278D2005218A049E5
:100C80008C466244002B00D0CBE013889D4919406C
:100C90009D4B0B431380207880002D182A889B4B96
:100CA0001A40C0239B015A40994B13439BB22B809F
:100CB000002070BDA26923699A421DD9D21AA2618F
:100CC000227B002A1CD02278900028180088400639
:100CD00065D5002939D15031695A6918D2005218A6
:100CE00087498C466244002B1CD1118885480840F6
:100CF00085490143118031E00023A3611300DFE740
:100D00009EB2E288330061692800FFF78DFF50230F
:100D1000EA5AAA182378DB009B187E4A944663445B
:100D20001E802EE03E2B06D85908D80700D5013189
:100D30008902118012E05909D80600D101398902CF
:100D400089B271480143118008E05021695A69183D
:100D5000D20052186A498C466244138062899BB261
:100D600061692800FFF760FF6378002B48D1237882
:100D70009B00EB181A8868491140684A0A4392B2EE
:100D80001A80207880002D182B88654A1340302265
:100D900053409BB25E4A13439BB22B8088E70029E5
:100DA00023D15031695A6918D200521859498C46DA
:100DB0006244002B06D11188524808405249014331
:100DC00011801BE03E2B06D85908D80700D5013109
:100DD0008902118012E05909D80600D1013989022F
:100DE00089B249480143118008E05021695A6918C5
:100DF000D200521847498C46624413802289AEE7DC
:100E0000012BBED123789B00EB181A884249114070
:100E1000444A0A4392B21A80B3E70023A361130045
:100E200023E73E2B06D85908DB0700D5013189029C
:100E3000118030E75909DB0600D10139890289B2F6
:100E4000314B1943118026E7002910D15022A95AAD
:100E500069182278D20052182E498C466244002B21
:100E60001AD1118827480840274901431180627828
:100E7000002A37D15032A95A69182278D200521864
:100E80001F498C466244002B19D113881D49194013
:100E90001D4B0B431380FEE63E2B06D85908D8079E
:100EA00000D5013189021180E1E75909D80600D146
:100EB0000139890289B2144801431180D7E73E2BDA
:100EC00006D85908DB0700D5013189021180E2E616
:100ED0005909DB0600D10139890289B20A4B19434D
:100EE0001180D8E6012A00D0D5E64F32A95A6918F8
:100EF0002278D200521802498C4662441380CAE616
:100F000006040000FF83FFFF0080FFFF8FBFFFFF8D
:100F10008080FFFF020400008F8FFFFFC080FFFF73
:100F2000BF8FFFFF80C0FFFF10B55C081018802244
:100F3000D20094466044002C07D0028802300A7028
:100F4000120A4A700231013CF5E7DB0701D503883C
:100F50000B7010BD30B587B0041E61D0314BC35C3F
:100F6000002B1ED02F4B0322E2542068FFF722FCF7
:100F70000023606883421BD25A01A2181100293154
:100F80000120087001390B70D38610002B3000212E
:100F900001709163D1639A1C520111510133DBB28C
:100FA000E7E78A239B000022C254FFF7DFF9D9E765
:100FB000002215E05301E3181D002A35FF350021FA
:100FC0002970013D2A70033529700D3529603D33A4
:100FD000FF33196013000A335B0119510132D2B299
:100FE0009042E7D8230010336A4623CB23C203CBB9
:100FF00003C26168A268E3682068FFF7E5FB242369
:101000000022E254074B0132E254E369012B02D083
:10101000002007B030BD200000F015FC0020F8E7EC
:101020000120F6E72902000070B504008A239B0026
:10103000C35C012B0DD08A25AD0001234355006808
:10104000FFF7E2FD2068FFF7ABFB002363550020AC
:1010500070BD0220FCE770B504008A239B00C35CCE
:10106000012B0DD08A25AD00012343550068FFF701
:10107000A1FB2068FFF7B6FD00236355002070BD7B
:101080000220FCE770B504008A239B00C35C012B9F
:101090000CD08A25AD00012343552333C154006889
:1010A000FFF7AAFD00236355002070BD0220FCE776
:1010B00070B504000D0049B2002926DB0720284046
:1010C000400101002931FF31611820182A30FF301A
:1010D00000260670072005400D700A61CB704A7823
:1010E000002A00D0CD81022B1AD08A239B00E35C1A
:1010F000012B18D08A25AD00012363552068FFF726
:1011000079FB00236355002070BD07202840400173
:101110000100283161182018293001260670D9E70E
:1011200000230B71E1E70220EEE770B507250D40C3
:101130006C0121002931FF314118041926003D3688
:10114000FF3632602A000A3252018350821800238F
:10115000536022002A32FF3213702934FF34257085
:10116000002D04D10068FFF773FD002070BD0068FA
:10117000FFF76EFDF9E770B507250D406C01210002
:10118000283141180419E263AA1C520183508218C5
:10119000002353602300293301221A70283425705C
:1011A000002D04D10068FFF753FD002070BD0068DA
:1011B000FFF74EFDF9E70000F0B5C64600B50400A4
:1011C000A0E00388D34A1A40D34B13439BB2038059
:1011D00021685023CB5A2822A25CD2009B185B18AE
:1011E000CE4A944663441B889B059B0D6364E26B67
:1011F00094466344E36300212000FFF7EFF82423C3
:10120000E35C002B00D17DE0236C002B00D079E063
:101210002422A35C802149420B43DBB2CC312068FD
:1012200043520023A3546DE05023C35A942252002A
:10123000A25CD2009B181B18B94A944663441B88D1
:101240009B059B0D22002932FF32D3618C2189003E
:101250006118D288FFF768FE22681388B1490B40F5
:1012600080210B439BB213802000FFF79FF849E0D9
:101270003E2A06D85108D20700D5013189021980CB
:101280009AE05109D20600D10139890289B2A24AF5
:101290001143198090E0AE00801903889FB21BB201
:1012A000002B00DA94E03B062CD523689C4666446C
:1012B0003388984A1A40984B13439BB23380206876
:1012C0005023C35A690161180A0028321278D200EB
:1012D0009B181B18914A944663441A889205920DF4
:1012E000AB1C5B01E0184260C86B84466244CA6371
:1012F0001B59002B00D02AE10D0028352978200049
:10130000FFF76CF820684423C35A1BB2002B00DBA4
:1013100025E14423C35A99B20F221D001540134200
:10132000B9D1CB0600D44CE7028893B2120500D5A0
:101330007AE71BB2002BE5DA03887A4A1340802251
:1013400013439BB2038020685023C35A9422520057
:10135000A25CD2009B181B18714A944663441B88F8
:101360009B059B0D22002932FF32D361002B0FD049
:10137000516900290CD01500D288FFF7D5FD6B69A3
:10138000EA69944663446B6100212000FFF719F875
:10139000236850229A5A9B18614A9446634422005B
:1013A0002932FF321269002A00D061E71A885E49AB
:1013B0001140594A0A431A8021680A885B4B1A4037
:1013C000C0239B015A405A4B13439BB20B8099E7B1
:1013D0000388544A1340802213439BB203806B015D
:1013E000E3183533FF331B78002B20D120685033AE
:1013F000C35A6A01A2182932FF321278D2009B1810
:101400001B18474A944663441B889B059A0D9046D7
:10141000002B35D06B01E3181A002F32FF321288EF
:101420003D33FF3319684346FFF77EFD28E020680F
:101430006B01E3182933FF331B789A008218128856
:1014400052044CD55022825ADB00D3181B18334A61
:10145000944663441B889B059A0D9046002B31D11E
:101460006B01E3182933FF331A78920023689C46F6
:10147000624413882F4919402F4B0B439BB21380B2
:1014800040462B000A335B01E1184A6842444A6037
:10149000690161183D31FF310A6842440A601B59F5
:1014A000002B06D0690161183931FF310968884283
:1014B00044D26B01E3182933FF3319782000FEF77B
:1014C00080FFF0E66B01E3181A003132FF32128818
:1014D0003D33FF3319684346FFF726FDC0E750222E
:1014E000825ADB00D3181B180D4A944663441B88AC
:1014F0009B059A0D9046002BB2D06B01E3181A00A1
:101500003332FF3212883D33FF3319684346FFF709
:101510000BFDA5E70F8FFFFF0080FFFF0204000017
:10152000060400008F0F0000FF83FFFF8FBFFFFF47
:101530008080FFFF8F8FFFFFC080FFFF6901611870
:101540002931FF3109782000FFF7EFFDABE66D018F
:101550006519283529782000FFF70DFED2E6002016
:1015600080BCB846F0BDC04670B504000068FFF707
:1015700055FB030400D57EE02068FFF74FFB4305D1
:1015800000D57CE02068FFF749FB430405D52168BE
:1015900044228B5A5B4803408B522068FFF73EFB86
:1015A000830405D5216844228B5A574803408B5247
:1015B0002068FFF733FBC30418D521684023CA5ABB
:1015C00004208243CA522168CA5A04308243CA5254
:1015D00098239B00E35C012B5FD02000FEF734FFD3
:1015E000216844228B5A494803408B522068FFF7F8
:1015F00015FB03055AD42068FFF710FB030629D515
:10160000216844228B5A802083438B5298239B006D
:10161000E35C002B00D066E02168043A8B5A04207A
:1016200003439BB28B5221688B5A082003439BB221
:101630008B5298239B003F3AE25454232268D25A9B
:101640009208183B134099229200A35001212000D8
:1016500000F00EF92068FFF7E1FA830547D420680F
:10166000FFF7DCFAC30505D5216844228B5A2848C8
:1016700003408B5270BD2000FFF79EFD7CE7216880
:1016800044228B5A234803408B522000FEF7B8FEB9
:1016900000212000FFF7F6FC74E798239B0000224E
:1016A000E2540021200000F0E3F896E72168402290
:1016B0008B5A082003439BB28B5220684421435A23
:1016C000154D2B40435221688B5A042003439BB293
:1016D0008B522068FFF7A2FAC30400D58BE72000E5
:1016E000FEF7A0FE87E72000FEF79CFEB2E7216828
:1016F00044228B5A094803408B522000FEF779FEA2
:10170000ADE7C046FFBFFFFFFFDFFFFFFFEFFFFFBB
:10171000FFFEFFFFFFFBFFFFFFF7FFFFFFFDFFFFE8
:1017200070B5040007250D4043689D4233D84BB285
:10173000002B20DB4B0119002931FF314118C31860
:101740002A33FF3300221A7001238B700D708A2315
:101750009B00E35C012B20D08A239B000122E254F2
:101760002068FFF7CBF9002D0ED08A239B000022C2
:10177000E254002070BD6B01190028314118C318D4
:10178000293301221A70DFE78C239B00E1182068BF
:10179000FFF748FAE9E70120ECE70220EAE770B535
:1017A00004000B000F220A4041688A422ED85AB228
:1017B000002A20DB07221A40520111002931FF3193
:1017C000411882182A32FF320020107000228A70DD
:1017D000073213400B708A239B00E35C012B17D068
:1017E0008A25AD00012363552068FFF7ADF900237A
:1017F0006355002070BD07221A40520111002831A4
:1018000041188218293201201070DFE70120F1E72A
:101810000220EFE710B50C060AD507242140490144
:1018200028314118002A08D10A73CB80002010BD4E
:1018300049012931FF314118F4E701220A730B8174
:101840001B0C4B81F2E701689A239B000122C250D6
:10185000083B0022C25454328B5A012003439BB2EE
:101860008B528B5A022003439BB28B52002070474D
:101870007047000070B582B0041E00D17FE203689B
:10188000DB072BD5B34B5A680C231340042B1DD018
:10189000B04B5A680C231340082B0ED06368012B01
:1018A00041D0002B56D1AB4B1A68AB490A401A60A5
:1018B0001A68AA490A401A603BE0A64B5B68C0223E
:1018C00052021340802252029342E7D1A14B1B687F
:1018D0009B0303D56368002B00D153E223689B0769
:1018E00077D59C4B5B680C221A4262D0994B5A68A0
:1018F0000C231340082B53D0E368002B00D18AE05F
:10190000944A136801210B43136000F033FC050077
:10191000904B1B689B0775D400F02CFC401B0228E1
:10192000F6D903202CE28B4A116880235B020B431B
:1019300013606368002B25D000F01CFC0500854B6C
:101940001B689B03CAD400F015FC401B6428F6D921
:10195000032015E2052B09D07E4B1A687E490A4008
:101960001A601A687D490A401A60E2E7794B1968E3
:101970008022D2020A431A601968802252020A4366
:101980001A60D6E700F0F6FB0500724B1B689B035C
:10199000A4D500F0EFFB401B6428F6D90320EFE14B
:1019A0006C4B5B68C02252021340802212029342A9
:1019B000A2D1684B1B689B0703D5E368012B00D0BD
:1019C000E2E164490B68F82293432269D200134391
:1019D0000B6023681B0744D5E369002B2ED05D4ABA
:1019E000536A01210B43536200F0C4FB0500594BBD
:1019F0005B6A9B0735D400F0BDFB401B0228F6D97B
:101A00000320BDE153490B68F82293432269D200B9
:101A100013430B60DDE74F4A136801218B431360CA
:101A200000F0A8FB05004B4B1B689B07D1D500F0CD
:101A3000A1FB401B0228F6D90320A1E1454A536AC5
:101A400001218B43536200F095FB0500414B5B6A1B
:101A50009B0706D500F08EFB401B0228F6D9032019
:101A60008EE123685B0700D480E03A4BDB69DB0042
:101A70001DD4384AD169802040050143D161D36922
:101A800003400193019B0125354B1B68DB0510D5F5
:101A9000A368012B21D0002B36D12E4B1A6A0121CD
:101AA0008A431A621A6A03318A431A621AE00025CD
:101AB000EAE72B4A116880235B000B43136000F0B8
:101AC00059FB0600264B1B68DB05E1D400F052FBF6
:101AD000801B6428F6D9032052E11E4A136A0121B3
:101AE0000B431362A368002B24D000F043FB0600D5
:101AF000184B1B6A9B0737D400F03CFB801B194B2B
:101B00009842F5D903203BE1052B09D0114B1A6A05
:101B100001218A431A621A6A03318A431A62E1E791
:101B20000C4B1A6A04210A431A621A6A03390A43DF
:101B30001A62D7E700F01EFB0600064B1B6A9B07E4
:101B400012D500F017FB801B064B9842F5D90320F5
:101B500016E1C04600100240FFFFFEFFFFFFFBFF43
:101B60000070004088130000012D39D02368DB0687
:101B700010D56369012B39D0053357D1894A536B8E
:101B800004218B435363536BF4318B43A169C90028
:101B90000B43536323689B066ED5824B5A680C2314
:101BA00013400C2B60D07F4B5A680C231340082B3A
:101BB00053D0236A002B7ED07A4A516B80235B027C
:101BC0000B43536300F0D6FA0500764B5B6BDB03E7
:101BD00052D400F0CFFA401B0228F6D90320CFE000
:101BE000704AD36970490B40D361BFE76D4B5A6BA4
:101BF00004210A435A635A6B03390A435A6300F0BB
:101C0000B9FA0500674B5B6B9B0706D400F0B2FA8C
:101C1000401B0228F6D90320B2E062494B6BF82240
:101C20009343A269D20013434B63B3E75D4B5A6BF6
:101C300004210A435A635A6B03398A435A6300F0FA
:101C400099FA0500574B5B6B9B07A3D500F092FAFE
:101C5000401B0228F6D9032092E0524B5B68C02259
:101C6000520213409342A4D14E4B5B6BDB0303D56E
:101C7000236A012B00D089E0636A002B00D187E042
:101C8000484A51680C220A40082A60D0022B25D00D
:101C9000444A136845490B40136000F06BFA040096
:101CA000404B1B689B0150D500F064FA001B0228D2
:101CB000F6D9032064E03B4A536B3D490B40536324
:101CC00000F058FA0500374B5B6BDB03D4D500F00E
:101CD00051FA401B0228F6D9032051E0314A13681B
:101CE00032490B40136000F045FA05002D4B1B688C
:101CF0009B0106D500F03EFA401B0228F6D90320CE
:101D00003EE0284BDA6A0F218A43216B0A43DA62EC
:101D10005A6828490A40E16AA06A01430A435A60A6
:101D20001968802252040A431A6000F023FA040062
:101D30001C4B1B689B0106D400F01CFA001B0228F8
:101D4000F6D903201CE000201AE0002018E0012B47
:101D500020D0144B5A68D96AC0235B021340A06A92
:101D6000834219D10F230B40216B8B4216D1F023F4
:101D70009B031A40E36A9A4212D1002000E001203E
:101D800002B070BD0120FBE70120F9E70120F7E771
:101D90000020F5E70120F3E70120F1E70120EFE75C
:101DA0000120EDE700100240FFFFFFEFFFFFFFFE05
:101DB000FFFFFEFFFF7FC2FF10B588B004AA1E4BD5
:101DC00013CB13C21B6813606A461C4B13CB13C2A0
:101DD0001B6813601A4B5A680C231340082B04D05D
:101DE0000C2B26D1174808B010BD910C0F231940B9
:101DF00004A8445C1249C96A0B406946C95CC02307
:101E00005B021A4080235B029A4208D0C0235B0227
:101E10009A4209D00C48FEF753F96043E3E70A48B9
:101E2000FEF74EF96043DEE70648FEF749F96043E6
:101E3000D9E70548D7E7C046403A0008543A0008B9
:101E400000100240006CDC0200127A0070B5040041
:101E50000D00002800D186E0474B1A68012313408B
:101E60008B420AD244490B68012293432B430B60F7
:101E70000B681A40AA4200D077E023689A070ED573
:101E80005B0705D53D4A5168E023DB000B435360F7
:101E90003A4A5368F0218B43A1680B43536023688F
:101EA000DB0735D56368012B09D0022B24D0032B27
:101EB00028D0324A1268920705D4012052E02F4AF6
:101EC0001268920353D52D494A6803208243134375
:101ED0004B6000F04FF90600284B5B680C221A405B
:101EE00063689B009A4213D000F044F9801B244B96
:101EF0009842F1D9032035E0204A12689201E2D4D9
:101F000001202FE01D4A526BD203DCD4012029E0CE
:101F1000194B1A6801231340AB4209D916490B68C3
:101F2000012293432B430B600B681A40AA4220D135
:101F300023685B0706D5114A536812490B40E168D4
:101F40000B435360FFF738FF0C4B5A6812090F23FD
:101F500013400D4AD35CD8400C4B1860002000F0B1
:101F6000C5F8002070BD0120FCE70120FAE7012040
:101F7000F8E70120F6E7C0460020024000100240CA
:101F800088130000FFF8FFFF683A00087400002083
:101F900070B582B004000368DB0337D54C4BDB69B6
:101FA000DB0067D44A4AD169802040050143D161F2
:101FB000D36903400193019B0125464B1B68DB0558
:101FC0005AD5434B1A6AC0239B00110019401A428C
:101FD00013D0626813408B420FD03D4B186A3E4AC3
:101FE00002401E6A8021490231431962196A3B4E40
:101FF000314019621A62C30752D4354A136A36490E
:102000000B4061680B431362012D58D02368DB0736
:1020100006D52F4A136B03218B43A1680B4313632F
:1020200023689B0706D52A4A136B2D490B40E168AC
:102030000B43136323689B0606D5254A136B1021B7
:102040008B4321690B43136323689B0306D5204A06
:10205000136B80218B43A1690B43136323685B05DA
:1020600032D51B4A136B40218B4361690B431363C9
:1020700000202AE00025A0E7164A116880235B00B3
:102080000B43136000F076F80600124B1B68DB056B
:1020900097D400F06FF8801B6428F6D9032014E071
:1020A00000F068F806000A4B1B6A9B07A5D400F0F5
:1020B00061F8801B0B4B9842F5D9032005E0D369EA
:1020C00009490B40D361A1E7002002B070BDC046B2
:1020D0000010024000700040FFFCFFFFFFFFFEFF0A
:1020E000FFFFFCFF88130000FFFFFFEF10B50400A7
:1020F0000F4B1978FA208000FDF7E2FF01000D4B2D
:102100001868FDF7DDFF00F031FA00280DD1032C2F
:1021100001D901200AE0013000222100404200F0F4
:10212000E9F9054B1C60002000E0012010BDC0460D
:102130006C000020740000207000002010B5064ADA
:10214000136810210B4313600020FFF7CFFFFEF749
:10215000D9FA002010BDC04600200240034A116891
:10216000034B1B785B1813607047C046A00D00201E
:102170006C000020014B18687047C046A00D00207D
:1021800070B50400FFF7F6FF0500631C02D0044B96
:102190001B78E418FFF7EEFF401BA042FAD370BD96
:1021A0006C00002010B5041E59D04123C35C002BE5
:1021B00043D041232422E2542268136801218B4337
:1021C00013602268274B61680B4013612268936893
:1021D00025490B409360E368012B34D022688423A7
:1021E0001B02A1680B439360E368022B32D0226884
:1021F00051681E4B0B4353602268D3681A490B4049
:10220000D360236962691343A269120221681343F0
:10221000CB602268E369216A0B431360226813686C
:1022200001210B4313600023636441221F31A15439
:1022300023630132A354002010BD40330022C25456
:10224000FEF778FAB5E7226880231B02A1680B43EA
:102250009360C9E72368802212015A60C7E7012012
:10226000EAE7C046FFFFFFF0FF7FFFFF00800002AC
:10227000F0B54123C35C202B20D12033C35C012B5C
:102280001ED04024012202554125242343550668CF
:10229000336893433360066833680A4F3B403360CA
:1022A000066833681943316001680B6813430B609B
:1022B00020234355002303550020F0BD0220FCE7F6
:1022C0000220FAE7FFEFFFFFF0B54123C35C202BAC
:1022D0001ED12033C35C012B1CD0402401220255A7
:1022E00041252423435506683368934333600668C9
:1022F0003368094F3B4009021943316001680B689C
:1023000013430B6020234355002303550020F0BDE9
:102310000220FCE70220FAE7FFF0FFFFF0B5D64607
:102320004F464646C0B582B0002338E0042600E0A0
:102330000026A64034003C43023292005F4E945186
:102340005F4A14684A46D24326004D46AE434D6864
:10235000ED0302D54D462C432600594C2660646897
:10236000260016404D68AD0302D54D462C4326008D
:10237000534C6660A468260016404D68ED0202D5F5
:102380004D462C4326004E4CA660E46822404D6822
:10239000AD0201D54A462243494CE26001330C6844
:1023A0002200DA4000D182E001229A402500154047
:1023B000A9461442F2D04C68022C01D0122C0ED146
:1023C000DC080834A400275807261E40B6000F2555
:1023D000B540AF430D69B5402E003E43265004681A
:1023E000A4465E000324A2462700B740B846FF4338
:1023F00065464446A543AC464C68554625402C00EE
:10240000B44065462C4304604C68651E012D03D919
:10241000112C01D0122C13D184683C40A446CC6806
:10242000B44065462C4384604468944322004C6861
:102430002409A446012465462C409C401443446072
:10244000C26817408A68B2403A43C2604A68D20004
:10245000A4D51C4CA66901221643A661A46922409A
:102460000192019A9A08941CA400144EA7590326BD
:102470001E40B4000F26A640B7439026F605B04292
:1024800000D155E7104EB0420BD0104EB0420AD0EA
:102490000F4EB04209D00F4EB04200D146E705269C
:1024A00047E7012645E7022643E7032641E702B056
:1024B000E0BCBA46B146A846F0BDC04600000140A7
:1024C00000040140001002400004004800080048D9
:1024D000000C004800100048002A01D081617047BC
:1024E0008162FCE74369194202D0090481617047A7
:1024F0008161FCE770B5002811DB8308134EC033FF
:102500009B009D5903242040C000FF2214008440FA
:10251000A54389010A4082402A439A5170BD0F2386
:102520000340083B9B0806339B00094A94466344DA
:102530005C6803221040C000FC3215008540AC43AB
:1025400089010A40824022435A60E7E700E100E047
:1025500000ED00E0002805DB1F2318401E3B8340F0
:10256000014A13607047C04600E100E00138802353
:102570005B0498420FD2094A50600948036A1B0263
:102580001B0AC02109060B43036200239360073333
:102590001360002070470120FCE7C04610E000E017
:1025A00000ED00E0704710B5002816D0AD239B0069
:1025B000C358002B03D0AD239B000024C450002936
:1025C00002D0AC239B00C150A7239B000121C15422
:1025D0000270FDF74FFF002010BD0220FCE700292C
:1025E00004D0AD239B00C150002070470220FCE7BF
:1025F00010B5FDF76DFF002010BD10B50400AD2330
:102600009B00C3585B68017998472000FDF769FF7C
:10261000002010BD10B5AD239B00C358002B06D081
:102620001B689847002800D110BD0220FCE702205B
:10263000FAE710B5AD239B00C3585B6898470020AC
:1026400010BD000070B50400AA239B00C518280027
:1026500000F064F9A5239B000122E250114BE25ADD
:10266000163BE2501033E15C1F230B40012B0FD0CF
:10267000022B12D0002B05D07F2399432000FDF7B9
:1026800045FF03E02900200000F02CFB002070BD76
:102690002900200000F05CFBF8E72900200000F092
:1026A0008AFBF3E7AE02000070B505000C001100D4
:1026B000002C38D1A5239B00C358032B03D0052B36
:1026C00028D020003DE002005532FF32D368126965
:1026D00093420DD99B1A5530FF30C3609A4205D9F9
:1026E0009AB2280000F0B3FC20002AE092B2F8E78A
:1026F000AD239B00C3581B69002B04D0A722920076
:10270000825C032A04D0280000F0A9FC200018E015
:102710009847F8E7A5239B000022C2500021FDF74F
:10272000F5FE20000DE0AD239B00C3589B69002BF4
:1027300008D0A7229200825C032A05D12100984785
:10274000002070BD0220FCE70220FAE7F8B5050082
:102750000C001100002C5BD1A5239B00C358022B59
:102760000ED0042B01D0002B03D180212800FDF7CF
:10277000CDFEA8239B00EB5C012B43D02000F8BDCD
:10278000026A466AB24220D8C76931003800FDF7B4
:10279000D3FC002906D1BE4204D8A6239B00EB58E7
:1027A0009F421ED3AD239B00EB58DB68002B04D067
:1027B000A7229200AA5C032A21D080212800FDF7DD
:1027C000A5FE280000F057FCD3E7921B026292B2EC
:1027D00000F024FC0023002200212800FDF7CFFE9A
:1027E000C7E70022280000F019FCA6239B00002266
:1027F000EA50002300212800FDF7C1FEB9E72800B8
:102800009847DAE7A8239B000022EA542000B6E7A5
:10281000AD239B00C3585B69002B08D0A722920010
:10282000825C032A05D1210098470020A7E70220F7
:10283000A5E70220A3E770B5040040230022002191
:10284000FDF758FE0125AC235B00E55040260C3314
:10285000E650253BFF3B002280212000FDF74AFE89
:10286000A5616662A7239B00E5540023A522920080
:10287000A35063601032A350AE239B00E358002B9B
:1028800006D0AD239B00E3585B68002120009847E9
:10289000002070BD0174002070470000A7239B003A
:1028A000C15C034A81540422C25400207047C046D0
:1028B0009D020000A7239B00C35C042B01D00020D5
:1028C0007047024BC25C013BC254F8E79D02000016
:1028D00010B5A7239B00C35C032B01D0002010BDC3
:1028E000AD239B00C358DB69002BF7D09847F5E771
:1028F000030000201A78002A03D00130C0B201334F
:10290000F8E7704710B54B88012B00D010BDA92304
:102910009B000122C25000F0A2FBF7E70B78037086
:102920004B7843708B78CA7812029B1843800B79DE
:102930004A7912029B1883808B79CA7912029B18FC
:10294000C380704710B504008021FDF7DFFD002132
:102950002000FDF7DBFD10BD30B583B005000C0095
:102960006B460022DA8049880B0A072B00D9C0E0A9
:102970009B006A4AD3589F46AC239B00C3581B68F0
:10298000007C6A46911D98476B4606331B88002BD6
:1029900003D0E288002A00D0B0E0E388002B00D109
:1029A000B8E003B030BD037C002B09D1AD239B0000
:1029B000C3589B6A6A46901D984702234370E3E719
:1029C000AD239B00C358DB6A6A46901D98470223DB
:1029D0004370D9E7C9B205295DD88900504B5B58CF
:1029E0009F46AC239B00C3585B68002B04D0007C3F
:1029F0006A46911D9847C7E72100FFF7A3FFD0E77C
:102A0000AC239B00C3589B68002B04D0007C6A4613
:102A1000911D9847B8E72100FFF794FFC1E7AC2369
:102A20009B00C358DB68002B04D0007C6A46911DD4
:102A30009847A9E72100FFF785FFB2E7AC239B0089
:102A4000C3581B69002B04D0007C6A46911D98472F
:102A50009AE72100FFF776FFA3E7AC239B00C3585A
:102A60005B69002B04D0007C6A46911D98478BE778
:102A70002100FFF767FF94E7AC239B00C3589B69D5
:102A8000002B04D0007C6A46911D98477CE721000A
:102A9000FFF758FF85E7AD239B00C3589B6B002BC6
:102AA00003D06A46063298476EE72100FFF74AFFD7
:102AB00077E7037C002B07D1AD239B00C3585B6BEA
:102AC0006A46901D98475FE72100FFF73BFF68E7E4
:102AD000037C002B09D1AD239B00C3581B6B6A46B6
:102AE000901D9847072343704EE72100FFF72AFF08
:102AF00057E721002800FFF725FF52E7191C9342F2
:102B000000D9111C8AB26B46D9800100280000F060
:102B100077FA42E7280000F0A2FA42E7783A000884
:102B2000983A000870B504008B88002B23D1CB881D
:102B3000002B20D14B887F2B1DD87F251D40A7233C
:102B40009B00C35C032B0ED00D4BC5542900FDF731
:102B500004FD200000F083FA002D07D0A7239B007E
:102B60000222E2540AE0FFF7EDFE07E0A7239B00F4
:102B70000122E25402E02000FFF7E4FE70BDC046EF
:102B80009E02000070B504000D0089782A4B197070
:102B900001290FD8A7239B00C35C022B0ED0032B67
:102BA00023D02900FFF7CEFE234B19782000FFF732
:102BB00040FD02E02900FFF7C5FE70BD002911D0DD
:102BC0004160A7239B000322C254FFF723FD022884
:102BD00003D0200000F043FAEFE729002000FFF7C0
:102BE000B1FEEAE700F03BFAE7E7002911D04368BD
:102BF00099421ED0D9B2FFF71CFD0F4B19786160C6
:102C00002000FFF707FD02280ED0200000F027FA71
:102C1000D3E7A7239B000222C2544160FFF709FDBE
:102C2000200000F01CFAC8E729002000FFF78AFE08
:102C3000C3E700F014FAC0E71805002010B5CB88F0
:102C4000012B0BD1A7239B00C35C022B09D9032BBB
:102C500009D1011D012200F0D3F901E0FFF772FE56
:102C600010BD002B02D1FFF76DFEF9E70023836052
:102C700001000831012200F0C3F9F1E710B5A723E4
:102C80009B00C35C013B022B14D8CB88022B0ED1D6
:102C90000123C360A9239B00C358002B01D0032349
:102CA000C36001000C31022200F0AAF910BDFFF749
:102CB00049FEFBE7FFF746FEF8E710B5A7239B00A8
:102CC000C35C013B022B0AD84B88012B00D010BDFE
:102CD000A9239B000022C25000F0C1F9F7E7FFF7DB
:102CE00031FEF4E710B50A7860231340202B06D09C
:102CF000402B04D0002B09D0FFF724FE04E0AD23C5
:102D00009B00C3589B689847002010BD4B78092B47
:102D100018D89B000D4AD3589F46FFF71DFEF3E7D6
:102D2000FFF700FFF0E7FFF72DFFEDE7FFF786FF66
:102D3000EAE7FFF7A3FFE7E7FFF7E4FDE4E7FFF7C4
:102D4000BCFFE1E7FFF7FEFDDEE7C046B03A000852
:102D500070B505000C000A7860231340202B07D0C3
:102D6000402B05D0002B03D0FFF7ECFD002070BDF9
:102D7000A7239B00EB5C013B022B17D82379012B87
:102D80000FD8AD239B00EB589B6821002800984783
:102D9000E388002BEAD10028E8D1280000F05FF991
:102DA000E4E721002800FFF7CDFDDFE72100280040
:102DB000FFF7C8FDDAE770B5050088880A790B7857
:102DC00060241C40202C08D0402C06D0002C0DD0B4
:102DD0002800FFF7B7FD002406E0AD239B00EB5869
:102DE0009B68280098470024200070BD202C0AD042
:102DF0004E78012E3ED0032E0DD0002E64D0280038
:102E0000FFF7A0FDF0E7AD239B00EB589B6828007F
:102E100098470400E8E7A7239B00EB5C022B05D052
:102E2000032B14D02800FFF78DFDDDE7002A01D029
:102E3000802A03D12800FFF785FDD5E7110028007F
:102E4000FDF764FB80212800FDF760FBCCE74B8891
:102E5000002B06D1002A04D0802A02D0CB88002B78
:102E600003D0280000F0FBF8BEE711002800FDF7B2
:102E70004DFBF6E7A7239B00EB5C022B05D0032B51
:102E800014D02800FFF75EFDAEE7002A01D0802AAB
:102E900003D12800FFF756FDA6E711002800FDF733
:102EA00035FB80212800FDF731FB9DE74B88002B87
:102EB0009AD1530603D1280000F0D1F894E711000D
:102EC0002800FDF72CFBF6E7A7239B00EB5C022B09
:102ED00006D0032B29D02800FFF734FD340083E708
:102EE000002A01D0802A12D1030615D47F210A407E
:102EF0009100891889005131FF316918043100238C
:102F00000B600222280000F07BF834006CE72800F8
:102F1000FFF718FD340067E77F210A409100891808
:102F20008900103169180431E9E744B2030622D45C
:102F30000F20104083001B189B00EB185933FF3300
:102F40001B68002B25D0002C28DB7F2313409C001E
:102F5000E418A4005134FF342C190434002A01D0A1
:102F6000802A24D10023236002222100280000F0BF
:102F700047F8340038E70F20104083001B189B00EF
:102F8000EB189B69002BDED12800FFF7DBFC340037
:102F90002AE72800FFF7D6FC340025E77F231340FB
:102FA0009C00E418A40010342C190434D6E7110056
:102FB0002800FDF7BDFA002802D001232360D3E7E3
:102FC00000232360D0E770B504000D001600002830
:102FD00015D0FFF78DFC01304000308028700323AE
:102FE0006B70013B08E001345A1CD2B2E854023342
:102FF000DBB2AA180021117020780028F3D170BD2F
:1030000010B51300A522920002248450C36103620C
:103010000A000021FDF7AAFA002010BD10B5130028
:103020000A000021FDF7A2FA002010BD10B5130020
:10303000A522920003248450393AFF3A8350043287
:1030400083500A000021FDF79AFA002010BD10B548
:1030500013000A000021FDF792FA002010BD10B500
:10306000A5239B000422C250002300220021FDF76B
:103070007DFA002010BD10B5A5239B000522C2508B
:10308000002300220021FDF77AFA002010BD000085
:103090001B23038000487047B400002000207047C5
:1030A00000207047002070470020704700207047C4
:1030B000002070470A23038000487047D00000209A
:1030C000AE239B00C3588322D2009A5C0A2A12D0F6
:1030D0000A218322D2009954083A0E2098540022E3
:1030E0000E481A540E481A540E481A540E481954D1
:1030F0000E495A54704702218322D200995400226B
:103100008220C0001A5405481A5405481A5405482C
:103110001A540548195405495A54EBE711040000A4
:103120001204000013040000140400001504000041
:10313000AE239B00C3588322D200995C8A1ED2B270
:10314000012A05D9052903D0062901D0092915D15D
:1031500002218322D200995400228220C0001A54F6
:1031600007481A5407481A5407481A54074819546C
:1031700007495A5415395A5006495A507047C046A3
:1031800011040000120400001304000014040000E5
:10319000150400000404000010B5062909D8AF2367
:1031A0009B00C3581868044C2100FFF70CFF200057
:1031B00010BD0020FCE7C0461C05002010B504002F
:1031C000AE239B00C358194A00219954184A127D16
:1031D00052070DD506318322D2009954002215489A
:1031E0001A5415481A5415481A54154A995410BDC2
:1031F00008218322D200995400220E481A540E4806
:103200001A540E481A540E4A99542000FFF7F5F943
:10321000AF239B00E3589B689847BFF34F8F094B40
:10322000094ADA60BFF34F8FC046FDE7190400007A
:10323000B400002011040000120400001304000078
:103240001404000000ED00E00400FA0510B582B09F
:10325000AE239B00C4586133FF33E35C042B05D0DD
:10326000072B00D172E0002002B010BD8023DB00EC
:10327000E158002956D12378002B03D1354AA258B2
:10328000012A3CD0212B1CD0412B2CD1314BE358AF
:10329000052B28D16378A27812029B18E2781204D9
:1032A0009B18227912069B188122D200A3504D3A16
:1032B000FF3A8258D2681800904700281FD0022099
:1032C000D2E7244AA258052ADED16378A2781202F6
:1032D0009B18E27812049B18227912069B1881220F
:1032E000D200A3500BE000231A4AA350043AA35083
:1032F0006A4613700133D3806946FFF723FB00232E
:10330000144AA350043AA35003228321C9006254F3
:10331000114963541149635411496354114BE254E8
:103320000020A1E70129EAD9023989028123DB00C3
:10333000E358C918AF239B00C3581B69054AA2581C
:10334000200098470028DAD002208DE7FFF736FFEB
:10335000002089E7040400001104000012040000AA
:10336000130400001404000070B50500AE239B0098
:10337000C458CB88002B65D08323DB00E35C022B91
:1033800001D0092B56D148888023DB00E050CA8841
:10339000334BE25000281BD1032A17D90222832382
:1033A000DB00E25400232F4963542F4963542F4913
:1033B00063542F4962542370213363702033A37008
:1033C000032221002800FFF71BFE48E00922E6E760
:1033D00001281ED909218323DB00E1540023214E5B
:1033E000A355214EA355214EA355214BE15402383C
:1033F00080020C3BE358C018AF239B00EB585B697D
:10340000210098470100164BE25A2800FFF7F8FD0B
:1034100025E00F228323DB00E254002311482354CC
:103420001148235411482354114BE2542800FFF74C
:1034300089FA14E000230A4AA350043AA350FFF784
:1034400081FA0CE002228323DB00E25400230549C9
:1034500063540549635405496354054BE25470BDF8
:103460000404000011040000120400001304000012
:103470001404000070B50500AE239B00C4586133EE
:10348000FF33E35C032B09D0062B46D08223DB00FD
:10349000E11806222800FFF7B3FD70BD324BE35858
:1034A000002B2CD004228323DB00E25400232F497D
:1034B00063542F4963542F4963542F4BE254143BF8
:1034C000E358002B02D12378412B0CD0AF239B0073
:1034D000EB589B698222D200A2188121C900605852
:1034E00001219847D2E7AF239B00C3589B698222F2
:1034F000D200A2180B39605800219847C6E7052270
:103500008323DB00E25400231849635418496354B1
:1035100018496354184BE254B8E7184BE35C012B8D
:1035200013D0002BB2D1164B1B7D5B07AED5022208
:103530008323DB00E25400230C4963540C49635499
:103540000C4963540C4BE254A0E706338322D200AB
:10355000A354064A0121A154002205496254054999
:103560006254054AA35491E70404000011040000CA
:1035700012040000130400001404000019040000E9
:10358000B400002010B5AE239B00C1586133FF3357
:103590009C4661440122FFF733FD10BD10B5AE23F8
:1035A0009B00C358CA88002A1AD08322D2009A5C92
:1035B000022A01D0052A10D14C888022D2009C50CA
:1035C000CA8814495A5003218324E4001955124C27
:1035D00019551900FFF72AFD18E0FFF7B3F915E0B8
:1035E0008322D2009A5C052A01D0022A0FD10B4A0D
:1035F000012199540531013A9954002208481A547E
:1036000008481A5408481A54034A995410BDFFF741
:1036100099F9FBE7040400001404000019040000F9
:1036200011040000120400001304000070B504002F
:10363000AE239B00C3588322D200985C821ED2B274
:10364000012A05D9052803D0062801D0092815D15B
:1036500002208322D200985400228225ED005A5580
:103660000E4D5A550E4D5A550E4D5A550E4D585534
:103670000E481A5415381A500D481A500D4B5B7DE0
:10368000DB0606D52000FEF7B8FF2000FEF7B0FFEE
:1036900070BD4888FEF774FDFAE7C04611040000CB
:1036A00012040000130400001404000015040000BC
:1036B00004040000B400002070B582B06B46002204
:1036C000DA80AE239B00C6580B78603215001D408F
:1036D0001A4227D0202D77D14D78062D1ED8AB0069
:1036E0003C4AD3589F46FFF759FF00256FE0FFF78C
:1036F0003BFE00256BE0FFF7BDFE002567E0FFF70E
:10370000DFFC002563E0FFF73DFF00255FE0FFF7EA
:103710000FFD00255BE0FFF789FF58E0FFF712F986
:10372000022554E04C780A2C33D00CD8002C17D04A
:10373000062C45D14B881B0A212B21D000220021C9
:10374000FFF75EFC43E00B2C3AD18D78002D33D18E
:10375000A7239B00C35C032B2AD11F4BF55036E0F7
:10376000A7239B00C35C032B03D0FFF7EBF80225D4
:103770002DE002226B46991DFFF742FC250026E052
:10378000CB881A1C092B00D9092292B21349123195
:10379000D6E7A7239B00C35C032B03D0FFF7D2F827
:1037A000022514E00C4BF1180122FFF729FC0EE072
:1037B000FFF7C8F802250AE0FFF7C4F8022506E083
:1037C000FFF7C0F8022502E0FFF7BCF80225280049
:1037D00002B070BDD83A00080C040000B40000200C
:1037E00070B50400AE218900435800228020C0003B
:1037F0001A500D481A5002208325ED005855083DF7
:103800005A550A4A98546358002B0BD0AF239B009B
:10381000E3589B689847593DFF3D6059FCF7BCFE53
:1038200000236351002070BD040400001404000054
:1038300010B504001848FCF7ABFEAE239B00E05027
:10384000002824D00023154A8350043A802109051A
:103850008150083A8350124A8350124A83540222FC
:103860008321C9004254083943540F4943540F4936
:1038700043540F4943540F4942540F4A8354AF23D2
:103880009B00E3585B689847002802D110BD0220D6
:10389000FCE70220FAE7C0461C0400000C0400000C
:1038A00004040000190400001104000012040000C8
:1038B000130400001404000015040000002902D0C5
:1038C000AF239B00C1500020704700000D48854683
:1038D0000D480E490E4A002302E0D458C450043368
:1038E000C4188C42F9D30B4A0B4C002301E013603F
:1038F0000432A242FBD3FEF755FE00F011F8FCF7AC
:10390000DDFCFEE70040002000000020DC0000207D
:10391000FC3A0008DC000020A40D0020FEE70000B7
:1039200070B500260C4D0D4C641BA410A64209D1A5
:10393000002600F021F80A4D0A4C641BA410A64290
:1039400005D170BDB300EB5898470136EEE7B300E0
:10395000EB5898470136F2E7F43A0008F43A0008C9
:10396000F43A0008F83A000803008218934200D1A4
:10397000704719700133F9E7F8B5C046F8BC08BCC8
:103980009E467047F8B5C046F8BC08BC9E467047D6
:1039900053544D333220446F776E4C6F6164204630
:1039A00069726D776172652055706461746500009D
:1039B00053544D6963726F656C656374726F6E69A1
:1039C0006373000044465520436F6E6669670000CC
:1039D00044465520496E7465726661636500000057
:1039E00040496E7465726E616C20466C617368202C
:1039F00020202F307830383030303030302F303396
:103A00002A3031364B612C30312A3031364B672C1D
:103A100030312A3036344B672C30372A3132384B2C
:103A2000672C30342A3031364B672C30312A30360F
:103A3000344B672C30372A3132384B670000000096
:103A400002030405060708090A0B0C0D0E0F1010DF
:103A5000000000000102030405060708090A0B0C18
:103A60000D0E0F100000000000000000000000001C
:103A70000102030406070809F22A00087829000851
:103A8000A6290008D4290008F22A0008F22A000812
:103A9000B22A0008D02A0008E2290008002A0008FB
:103AA0001E2A00083C2A00085A2A0008782A000822
:103AB000322D00083E2D0008442D0008382D000846
:103AC000442D0008202D00081A2D0008442D000860
:103AD0002C2D0008262D000816370008E6360008B1
:103AE000EE360008F6360008FE36000806370008F5
:043AF0000E37000885
:043AF400790100084C
:043AF8005101000870
:103AFC009D050008A90500086106000839060008A4
:103B0C00250600087D060008A50600081201000223
:103B1C0000000040830411DF0002010203010000D9
:103B2C00040309041A030000000000000000000058
:103B3C000000000000000000000000000000000079
:103B4C00E0390008CD060008D1060008D5060008AB
:103B5C00D9060008DD060008E10600080100000097
:103B6C000400000000127A0031380008E137000828
:103B7C00B93600084D320008A13000089D3000080D
:103B8C00B1300008A5300008A9300008AD3000089D
:103B9C00913000089130000891300008B5300008D1
:103BAC009931000809021B00010102C0320904000E
:103BBC000000FE01020609210BFF0000041A01009F
:0C3BCC000A06000200000040010000009A
:04000005080038CDEA
:00000001FF
