:020000040800F2
:1000000000000120F120000831040008330400083A
:100010003504000837040008390400080000000017
:100020000000000000000000000000003B04000889
:100030003D040008000000003F04000841040008DF
:100040004121000841210008412100084121000808
:1000500041210008412100084121000841210008F8
:1000600041210008412100084121000841210008E8
:1000700041210008412100084121000841210008D8
:1000800041210008412100084121000841210008C8
:1000900041210008412100084121000841210008B8
:1000A00041210008412100084121000841210008A8
:1000B000412100080000000000000000412100086C
:1000C000412100080000000000000000412100085C
:1000D000000000004121000841210008000000004C
:1000E000412100084121000800000000000000003C
:1000F0000000000000000000000000000000000000
:100100000000000000000000000000004121000885
:10011000000000000000000041210008412100080B
:100120004121000841210008412100084121000827
:100130004121000800000000000000000000000055
:100140004121000841210008412100084121000807
:1001500041210008412100084121000841210008F7
:100160004121000841210008412100080000000051
:1001700041210008412100080000000000000000AB
:100180004121000841210008412100080000000031
:1001900053B94AB9002908BF00281CBF4FF0FF31EE
:1001A0004FF0FF3000F00CB8ADF1080C6DE904CE53
:1001B00001F0F4FFDDF804E0DDE9022304B070474C
:1001C000704700BF10B5054C227832B9044B13B10B
:1001D0000448AFF300800123237010BD10000020FD
:1001E000000000004824000808B5034B1BB1034978
:1001F0000348AFF3008008BD000000001400002099
:100200004824000870B588B0002403940494059431
:1002100006940794224BDA6C42F00402DA64DA6C3A
:1002200002F004020092009ADA6C42F00102DA64F1
:10023000DA6C02F001020192019ADA6C42F00202D9
:10024000DA64DB6C03F002030293029B2246F02186
:100250004FF0904001F052FC124D224608212846F2
:1002600001F04CFCF02303930126049605940694B8
:1002700003A94FF0904001F081FB082303930496FB
:100280000594069403A9284601F078FB10230393F4
:100290000494059603A9284601F070FB08B070BDD0
:1002A000001002400004004808B50948094B0360EB
:1002B0004FF4E133436000238360C36003610C2289
:1002C00042618361C3610362436200F0DBFB08BDEE
:1002D000900000200044004008B50E480E4B03601B
:1002E0004FF482734360002383604FF47062C260F6
:1002F000036143614FF4007282611822C26103629C
:10030000436283620722C26203630823436301F0EE
:10031000A5FD08BD2C0000200030014070B5ACB038
:10032000442200211BA801F031FF002416941794E9
:10033000189419941A945422214601A801F026FF1A
:1003400001F0E2FB194AD2F8903023F01803C2F80A
:10035000903014231B9301251D9521952294602331
:100360002393022625962695279510232893072365
:1003700029932A962B961BA800F0B6FC0F23169300
:1003800003231793189419941A94294616A800F079
:10039000EBFF01960A9401A801F074F94FF4007084
:1003A00001F0C2FB01F0E2FA2CB070BD0010024077
:1003B00010B582B000F0C0FBFFF7B0FFFFF722FFDF
:1003C000FFF772FFFFF788FF0024ADF806402246D2
:1003D00010214FF0904001F091FB012220214FF0BD
:1003E000904001F08BFB224640214FF0904001F0FD
:1003F00085FB224680214FF0904001F07FFB4FF4B7
:100400007A7000F0BBFB002220214FF0904001F0F9
:1004100075FB01231A460DF10601044801F076FD33
:10042000BDF806300A33ADF80630E8E72C000020AE
:100430007047FEE7FEE7FEE7FEE77047704770474C
:1004400008B500F089FB08BD82B00A4B1A6E42F075
:1004500001021A661A6E02F001020092009A9A6D69
:1004600042F080529A659B6D03F080530193019B8B
:1004700002B070470010024000B589B0002303931A
:1004800004930593069307930268144B9A4202D093
:1004900009B05DF804FB03F560431A6E42F4805224
:1004A0001A661A6E02F480520192019ADA6C42F0D6
:1004B0000102DA64DB6C03F001030293029B41F258
:1004C0000203039302230493032306930523079354
:1004D00003A94FF0904001F051FAD9E700300140F4
:1004E00030B589B0002303930493059306930793D3
:1004F00002681A4B9A4201D009B030BD03F5E633C9
:100500009A6D42F400329A659A6D02F400320192BB
:10051000019ADA6C42F00102DA64DB6C03F0010349
:100520000293029B0423039302250495032406945B
:100530000723079303A94FF0904001F01FFA4FF4EF
:10054000004303930495002305930694079403A99D
:100550004FF0904001F012FACEE700BF0044004097
:10056000F8B504460168836802691343426913437E
:10057000C269134308689F4A024013430B60226814
:10058000536823F44053E1680B435360A169226828
:10059000994B9A4201D0236A1943936823F430633C
:1005A0000B4393602368954A93421CD0944A93422C
:1005B0002DD0914A934243D010258F4A934260D068
:1005C000E369B3F5004F00F0C680082D00F25D81AD
:1005D000DFE815F01E0133013D015B0148015B01BD
:1005E0005B015B01520102F55842D2F8882002F00B
:1005F0000302032A09D8DFE802F0020438060125C5
:10060000DBE70425D9E70825D7E71025D5E702F56C
:10061000E632D2F8882002F00C020C2A0ED8DFE86D
:1006200002F0070D0D0D090D0D0D260D0D0D0B0022
:100630000025C2E70425C0E70825BEE71025BCE772
:1006400002F5C832D2F8882002F44062B2F5006F99
:100650000FD005D87AB1B2F5806F0ED10425ACE782
:10066000B2F5406F0BD10825A7E70225A5E70225C3
:10067000A3E70225A1E700259FE710259DE71025A8
:100680009BE7082D00F20481DFE815F00C00020161
:1006900027000201240002010201020109004FF4B7
:1006A000004004E000F014FF002800F0F3806268CE
:1006B00002EB4203834200F2EF80B0EB023F00F214
:1006C000ED80082D44D8DFE805F00A431F432A4394
:1006D0004343380000F0AEFAE6E74A48E7E700F0A7
:1006E000F7FE0023070E060262685008301847F133
:1006F0000001FFF74DFDA0F54072434B9A4200F216
:10070000CF802368D86093E0560800252B463F48E9
:100710000021801941F10001FFF73AFDEBE700F0FD
:1007200089FA0025070E0602626850082B46301829
:1007300047F10001FFF72CFDDDE7500800252B46AF
:1007400010F500002CBF01210021FFF721FDD2E7A9
:1007500001250020CFE7082D49D8DFE805F0051E68
:100760002948344848483F0000F0B2FE6268530808
:1007700003EB4003B3FBF2F39BB2A3F110014FF67E
:10078000EF72914200F28E809AB222F00F02C3F310
:10079000420313432268D3604AE000F0ABFE626874
:1007A000530803EB4003B3FBF2F39BB20025E4E7ED
:1007B0006268530803F1F47303F59043B3FBF2F35B
:1007C0009BB20025D9E700F035FA6268530803EBC5
:1007D0004003B3FBF2F39BB20025CEE762685308F7
:1007E00003F58033B3FBF2F39BB20025C5E7012587
:1007F0000023C2E7F369FFEF0080004000380140AA
:10080000004400400024F400FFFC0F00000024F42A
:1008100000F05EFE626800EB5203B3FBF2F39BB2A2
:10082000A3F110014FF6EF7291423DD82268D360D8
:100830000023236663662846F8BD00F05BFE62680D
:1008400000EB5203B3FBF2F39BB20025E8E76268CA
:10085000530803F5740303F51053B3FBF2F39BB293
:100860000025DDE700F0E6F9626800EB5203B3FB18
:10087000F2F39BB20025D3E76268530803F5004307
:10088000B3FBF2F39BB20025CAE701250023C7E7BB
:100890000125CDE70025CBE70125C9E70125C7E7FD
:1008A0000125C5E70125C3E70125C1E7436A13F028
:1008B000010F06D00268536823F40033816A0B43AA
:1008C0005360436A13F0020F06D00268536823F4A2
:1008D0008033C16A0B435360436A13F0040F06D0A0
:1008E0000268536823F48023016B0B435360436A0F
:1008F00013F0080F06D00268536823F40043416BDD
:100900000B435360436A13F0100F06D002689368DC
:1009100023F48053816B0B439360436A13F0200FE1
:1009200006D00268936823F40053C16B0B439360B5
:10093000436A13F0400F0AD00268536823F480130F
:10094000016C0B435360036CB3F5801F0BD0436AFB
:1009500013F0800F06D00268536823F40023816CE3
:100960000B43536070470268536823F4C003416C23
:100970000B435360EBE72DE9F84305460F46164657
:100980009946DDF820802C68E46937EA04030CBF3F
:1009900001240024B4423CD1B8F1FF3FF3D000F071
:1009A000E7F8A0EB0900404521D8B8F1000F1ED0B0
:1009B0002B681A6812F0040FE5D0DA6912F4006FA0
:1009C000E1D04FF400621A622A68136823F4D073EE
:1009D00013602A68936823F00103936020236B67F8
:1009E000AB67EB67002385F87030032012E02A68BC
:1009F000136823F4D07313602A68936823F001030B
:100A0000936020236B67AB67002385F87030032069
:100A100000E00020BDE8F88330B583B00446002331
:100A2000C36700F0A5F8054623681B6813F0080F9C
:100A30000CD123681B6813F0040F15D120236367C2
:100A4000A367002084F8700003B030BD6FF07E43D0
:100A50000093034600224FF400112046FFF78BFF5E
:100A60000028E6D00320EFE76FF07E4300932B468B
:100A700000224FF480012046FFF77DFF0028DDD0E3
:100A80000320E1E768B310B50446436F03B32423A2
:100A900063672268136823F0010313602046FFF7A1
:100AA0005FFD012813D0636ABBB92268536823F441
:100AB000904353602268936823F02A03936022686E
:100AC000136843F0010313602046FFF7A5FF10BD34
:100AD00080F87030FFF704FDD9E72046FFF7E6FE07
:100AE000E3E7012070470000104B1B680BB90120A1
:100AF000704710B504464FF47A70B0FBF3F30C4A1C
:100B00001068B0FBF3F001F09DF868B90F2C01D923
:100B100001200AE0002221464FF0FF3001F05EF88C
:100B2000044B1C60002000E0012010BD00000020EC
:100B3000080000200400002010B5032001F03CF85C
:100B40000020FFF7D1FF10B10124204610BD04465C
:100B5000FFF77AFCF9E70000034A136803490968C4
:100B60000B441360704700BF1001002000000020FC
:100B7000014B1868704700BF1001002038B50446CB
:100B8000FFF7F6FF0546B4F1FF3F02D0044B1B68A8
:100B90001C44FFF7EDFF401BA042FAD338BD00BF55
:100BA0000000002030B583B00446204B9B6D13F04D
:100BB000805F0BD000F0B0FFB0F5007F17D0802C25
:100BC0001FD82DD0702C2DD000211BE0174DAB6D00
:100BD00043F08053AB65AB6D03F080530193019BF1
:100BE00000F09AFFAB6D23F08053AB65E4E7802CF7
:100BF00003D9A02C03D9022104E0002102E0012145
:100C000000E003210A4A136823F007030B43136033
:100C1000136803F007038B4206D1002003B030BDF8
:100C20000221EFE70121EDE70120F7E70010024084
:100C300000200240284A9368D26802F0030213F0B1
:100C40000C030AD00C2B06D0042B1FD0082B20D06D
:100C50000020024610E0012AF6D11F4A126812F065
:100C6000080F0CD11C4AD2F89420C2F303221B496E
:100C700051F8222043B100200C2B0DD07047164AAA
:100C80001268C2F30312F2E71046F5E71448002297
:100C9000F2E714480022EFE70F4BDB6803F0030391
:100CA000022B16D0032B00D10E4A0B4BD868C0F391
:100CB00002100130D968C1F3062102FB01F2B2FB38
:100CC000F0F2D868C0F3416001304000B2FBF0F0B0
:100CD000D4E7034AE9E700BF001002407824000887
:100CE0000024F40000127A00002800F02783F0B5F9
:100CF00083B00446AE4B9D6805F00C05DE6806F037
:100D00000306036813F0100F5AD0E5B10C2D18D06C
:100D1000A369002B00F0BB80A54A136843F00103D0
:100D20001360FFF725FF0746A14B1B6813F0020F66
:100D300040F09A80FFF71CFFC01B0228F4D9032063
:100D400007E3012EE4D19A4B1B6813F0020F03D086
:100D5000A369002B00F0F482206A954B1B6813F006
:100D6000080F5BD0924B1B6803F0F00398425CD8ED
:100D70008F4B1A6842F008021A601A6822F0F002DB
:100D8000216A0A431A605A6822F47F42E16942EA02
:100D900001225A60002D60D0FFF74CFF844B9B6806
:100DA000C3F30313834AD35C03F01F03D840824B81
:100DB0001860824B1868FFF797FE002840F0C98240
:100DC000236813F0010F00F08180082D75D00C2DE1
:100DD00071D06368B3F5803F00F09780B3F5A02F22
:100DE00000F09980724B1A6822F480321A601A68F7
:100DF00022F480221A606368002B00F09980FFF7CC
:100E0000B7FE07466A4B1B6813F4003F5ED1FFF73D
:100E1000AFFEC01B6428F5D903209AE2644BD3F8D7
:100E200094301B0903F0F003A0E7FFF7BBFE002896
:100E300040F088825E4B1A6842F008021A601A6815
:100E400022F0F002216A0A431A605A6822F47F42B3
:100E5000E16942EA01225A609EE7206AFFF7A2FE9A
:100E6000002899D0012074E2514B1A6842F0080220
:100E70001A601A6822F0F002216A0A431A605A685E
:100E800022F47F42E16942EA01225A6098E7484A27
:100E9000136823F001031360FFF76AFE0746444B13
:100EA0001B6813F0020F8BD0FFF762FEC01B0228F5
:100EB000F5D903204DE2032E8BD13D4B1B6813F473
:100EC000003F03D06368002B00F03E82236813F0DC
:100ED000020F4FD0042D3CD00C2D38D0E368002BEE
:100EE00077D0334A136843F480731360FFF740FEF2
:100EF00006462F4B1B6813F4806F61D1FFF738FE55
:100F0000801B0228F5D9032023E2294A136843F401
:100F1000803313606FE703F18043A3F53C331A6815
:100F200042F480221A601A6842F480321A6062E742
:100F3000FFF71EFE07461E4B1B6813F4003FC5D08B
:100F4000FFF716FEC01B6428F5D9032001E2022E2C
:100F5000C4D1174B1B6813F4806F03D0E368002BD8
:100F600000F0F481124A536823F0F853216943EAF0
:100F700001635360236813F0080F55D06369002B99
:100F80003BD00B4AD2F8943043F00103C2F89430BE
:100F9000FFF7EEFD0646064BD3F8943013F0020F30
:100FA00042D1FFF7E5FD801B0228F4D90320D0E1F0
:100FB0000010024060240008080000200400002007
:100FC000B44A536823F0F853216943EA016353603C
:100FD000D0E7B04A136823F480731360FFF7C8FDAD
:100FE0000646AC4B1B6813F4806FC3D0FFF7C0FDFF
:100FF000801B0228F5D90320ABE1A64AD2F8943031
:1010000023F00103C2F89430FFF7B2FD0646A14B6E
:10101000D3F8943013F0020F06D0FFF7A9FD801B20
:101020000228F4D9032094E1236813F0040F7AD046
:10103000984B9B6D13F0805F36D1964B9A6D42F0C2
:1010400080529A659B6D03F080530193019B0126AA
:10105000914B1B6813F4807F28D0A368012B39D0F3
:10106000052B3FD08B4BD3F8902022F00102C3F820
:101070009020D3F8902022F00402C3F89020A368B7
:10108000002B3DD0FFF774FD0746824BD3F890301C
:1010900013F0020F46D1FFF76BFDC01B41F28833FE
:1010A0009842F2D9032054E10026D1E77A4A136826
:1010B00043F480731360FFF75BFD0746764B1B68B4
:1010C00013F4807FC9D1FFF753FDC01B0228F5D967
:1010D00003203EE16F4AD2F8903043F00103C2F89A
:1010E0009030CCE76B4BD3F8902042F00402C3F869
:1010F0009020D3F8902042F00102C3F89020BEE780
:10110000FFF736FD0746634BD3F8903013F0020F1C
:1011100008D0FFF72DFDC01B41F288339842F2D969
:10112000032016E1E6B9236813F0200F35D0636A77
:10113000E3B1584AD2F8983043F00103C2F898302E
:10114000FFF716FD0646534BD3F8983013F0020F05
:1011500023D1FFF70DFD801B0228F4D90320F8E00E
:101160004C4A936D23F080539365DCE7494AD2F8EB
:10117000983023F00103C2F89830FFF7F9FC0646D7
:10118000444BD3F8983013F0020F06D0FFF7F0FC71
:10119000801B0228F4D90320DBE0A36A002B00F0B7
:1011A000D780022B27D00C2D00F0D780394B1A683E
:1011B00022F080721A601B6813F0006F04D1354A68
:1011C000D36823F00303D360324AD36823F08873D3
:1011D00023F48033D360FFF7CBFC04462D4B1B6810
:1011E00013F0007F00F0A880FFF7C2FC001B02286C
:1011F000F4D90320ADE0274BDB6803F00301E26A7A
:10120000914209D00C2D00F0A680224B1B6813F0F0
:10121000806F2BD001209CE003F07002216B01391C
:10122000B2EB011FEED103F4FE42616BB2EB012F72
:10123000E8D103F07842A16BB2EBC16FE2D103F4C5
:10124000C001E26B5208013AB1EB425FDAD103F020
:10125000C063226C5208013AB3EB426FD2D10D4BFE
:101260001B6813F0007F4DD0002072E0094A13681C
:1012700023F080731360FFF77BFC0546054B1B686A
:1012800013F0007F0AD0FFF773FC401B0228F5D94A
:1012900003205EE00010024000700040304AD36836
:1012A00030491940E36A206B013843EA0013606B50
:1012B00043EA0023E06B4008013843EA4053206CC6
:1012C0004008013843EA4063A06B43EAC0630B4324
:1012D000D360136843F080731360D36843F0807366
:1012E000D360FFF745FC04461D4B1B6813F0007FDD
:1012F00006D1FFF73DFC001B0228F5D9032028E0AA
:10130000002026E0164B1A6842F080721A60DA68F4
:1013100042F08072DA60FFF72BFC0446104B1B682A
:1013200013F0007F06D1FFF723FC031B022BF5D936
:1013300003200EE000200CE000200AE001207047AE
:10134000012006E0012004E0012002E0012000E08D
:10135000002003B0F0BD0120FBE70120F9E700BF4A
:10136000001002408C809D01002800F0988070B52C
:101370000C4605464E4B1B6803F007038B420BD20D
:101380004B4A136823F007030B431360136803F001
:1013900007038B4240F085802B6813F0010F39D092
:1013A0006B68032B09D0022B26D063BB414A12681D
:1013B00012F0020F06D1012070E03E4A126812F0CE
:1013C000007F70D03B498A6822F0030213438B6090
:1013D000FFF7CEFB0646374B9B6803F00C036A68A9
:1013E000B3EB820F16D0FFF7C3FB801B41F28833AB
:1013F0009842F0D9032051E02E4A126812F4003FBF
:10140000E0D101204AE02B4A126812F4806FD9D152
:10141000012043E02B6813F0020F06D0254A9368A1
:1014200023F0F003A9680B439360214B1B6803F082
:101430000703A3420AD91E4A136823F00703234374
:101440001360136803F00703A3422ED12B6813F037
:10145000040F06D0174A936823F4E063E9680B434E
:1014600093602B6813F0080F07D0124A936823F497
:101470006053296943EAC1039360FFF7DBFB0D4B1F
:101480009B68C3F303130C4AD35C03F01F03D840DB
:101490000A4B18600A4B1868FFF726FB70BD012045
:1014A00070470120FAE70120F8E70120F6E700BFC6
:1014B00000200240001002406024000808000020C4
:1014C00004000020014B1868704700BF080000208E
:1014D00008B5FFF7F7FF054B9B68C3F30223044AE7
:1014E000D35C03F01F03D84008BD00BF00100240CA
:1014F0007024000808B5FFF7E5FF054B9B68C3F3B0
:10150000C223044AD35C03F01F03D84008BD00BFC8
:101510000010024070240008F8B504460F46584BEE
:10152000DB6813F0030F18D0554BDB6803F003039F
:101530000268934202D001252846F8BD002A00F037
:101540009D804F4BDB68C3F3021301334268934223
:1015500001D00125F0E7002509E00368022B56D0F1
:10156000032B5BD0012B41D00125002DE4D1444A4F
:10157000136823F080631360FFF7FAFA0646404BC6
:101580001B6813F0006F05D0FFF7F2FA831B022BE4
:10159000F5D90325002DCFD1002F4DD138490B6946
:1015A00023F0784323F4FE43A068E268D20642EABF
:1015B000002213430B61324A136843F080631360C7
:1015C000FFF7D6FA06462E4B1B6813F0006F05D1C5
:1015D000FFF7CEFA831B022BF5D90325002DABD1E3
:1015E000274A1369A1690B431361A5E7244A1268CE
:1015F00012F0020F1ED02248C26822F07302616806
:10160000013943EA01131343C3600025ADE71C4AC7
:10161000126812F4806FEED10125A6E7184A12680D
:1016200012F4003FE7D1164A126812F4802FE2D17B
:1016300001259AE7012598E7012F0FD0104802698C
:1016400022F0C06222F4FE42A16863695B08013B9C
:101650005B0643EA012313430361ACE708480269D0
:1016600022F4C00222F4FE42A16823695B08013B18
:101670005B0543EA0123134303619CE701255BE714
:10168000001002402DE9F04182B00446036813F4D3
:10169000006F25D0C36BB3F5000F06D0B3F5400F34
:1016A00012D04BB1012637461CE0AE4AD36843F452
:1016B0008033D360002708E000210430FFF72CFFBF
:1016C000074610B106460DE00027A64AD2F888303A
:1016D00023F44003E16B0B43C2F88830002601E09D
:1016E00000263746236813F4003F6BD09D4B9B6D5B
:1016F00013F0805F4CD19B4B9A6D42F080529A65FB
:101700009B6D03F080530193019B4FF00108964AB3
:10171000136843F480731360FFF72AFA0546924B6F
:101720001B6813F4807F05D1FFF722FA401B0228C3
:10173000F5D90327002F40D18A4BD3F8903013F40A
:10174000407315D0226D9A4212D0864AD2F890305A
:1017500023F44073D2F8901041F48031C2F8901015
:10176000D2F8901021F48031C2F89010C2F8903075
:1017700013F0010F0FD1002F40F0C980794AD2F841
:10178000903023F44073216D0B43C2F8903015E084
:101790004FF00008BBE7FFF7EBF90546714BD3F8B4
:1017A000903013F0020FE6D1FFF7E2F9401B41F24F
:1017B00088339842F2D90327DDE73E46B8F1000F9F
:1017C00040F0A780236813F0010F08D0654AD2F8D3
:1017D000883023F00303216A0B43C2F88830236862
:1017E00013F0020F08D05F4AD2F8883023F00C03C0
:1017F000616A0B43C2F88830236813F0200F08D0C9
:10180000584AD2F8883023F44063A16A0B43C2F8E7
:101810008830236813F4007F08D0524AD2F8883009
:1018200023F44023616B0B43C2F88830236813F420
:10183000806F08D04B4AD2F8883023F44013A16B54
:101840000B43C2F88830236813F0400F08D0454A94
:10185000D2F8883023F44053E16A0B43C2F8883051
:10186000236813F4807F08D03E4AD2F8883023F4EE
:101870004033216B0B43C2F88830236813F4005FB8
:101880000FD0384AD2F8883023F04063216C0B43E4
:10189000C2F88830236CB3F1006F40D0B3F1806F91
:1018A00042D0236813F4802F0FD02E4AD2F888300C
:1018B00023F04063616C0B43C2F88830636CB3F172
:1018C000006F39D0B3F1806F3BD0236813F4804FA1
:1018D0000CD0244AD2F8883023F04053A16C0B433B
:1018E000C2F88830A36CB3F1805F32D0236813F460
:1018F000004F08D01B4AD2F8883023F08043E16CB7
:101900000B43C2F88830304602B0BDE8F0813E4655
:1019100054E7144A936D23F08053936552E7D368DC
:1019200043F48013D360BCE70121201DFFF7F4FDD1
:101930000028B6D00646B4E7D36843F48013D360DA
:10194000C3E70121201DFFF7E7FD0028BDD00646B3
:10195000BBE70221201DFFF7DFFD0028C6D00646A9
:10196000C4E700BF0010024000700040024A136844
:1019700043F004031360704700100240F0B482B0DB
:1019800000226FE0856807EA050CCD68B54045EA9E
:101990000C058560456825EA04044D68C5F300150B
:1019A000954025434560C46827408C68B4403C435B
:1019B000C4604C6814F0805F53D04C4C256E45F0E9
:1019C00001052566246E04F001040194019C95082C
:1019D000AE1C474C54F8267002F00304A6000F24F6
:1019E000B44027EA0407B0F1904F78D0414CA042B0
:1019F00077D004F58064A0426FD00724B4403C4304
:101A000002353B4E46F825403B4C2568DC4325EA31
:101A100003064F6817F4803F01D043EA0506364DB0
:101A20002E606D6804EA05064F6817F4003F01D088
:101A300043EA0506304D6E60AD6804EA05064F685E
:101A400017F4801F01D043EA05062B4DAE60ED6808
:101A50002C404E6816F4001F01D043EA0504264BC3
:101A6000DC6001320B6833FA02F43CD0012494406C
:101A70002340F6D04D68022D01D0122D10D1D6088A
:101A8000083650F826C002F00705AF000F25BD400C
:101A90002CEA050C0D69BD4045EA0C0540F82650BE
:101AA000D0F800C056000325B540EF432CEA050CE2
:101AB0004D6805F00305B54045EA0C0505604D6825
:101AC00005F1FF3CBCF1010F7FF65CAF112D3FF437
:101AD00059AF122D7FF467AF54E702248EE700243C
:101AE0008CE701248AE702B0F0BC70470010024086
:101AF0000000014000040048000401400AB1816177
:101B00007047816270470000024A136843F4807393
:101B10001360704700700040024B186800F4C0600A
:101B2000704700BF00700040B0F5007F0FD01F4B22
:101B30001B6803F4C063B3F5806F34D01B4A13688D
:101B400023F4C06343F48063136000207047174B95
:101B50001B6803F4C063B3F5007F20D0134A1368F9
:101B600023F4C06343F400731360114B1A683223EB
:101B700003FB02F30F4AA2FB03239B0C013300E09B
:101B8000013B0A4A526912F4806F01D0002BF7D151
:101B9000064B5B6913F4806F03D10020704700206F
:101BA0007047032070470020704700BF007000405E
:101BB0000800002083DE1B43074AD36823F4E06358
:101BC0001B041B0C000200F4E060034343F0BF63FE
:101BD00043F40033D360704700ED00E030B4174B9E
:101BE000DB68C3F30223C3F10704042C28BF0424D9
:101BF0001D1D062D18D9033B4FF0FF3505FA04F4DF
:101C000021EA0401994005FA03F322EA0303194388
:101C100000280BDB0901C9B200F1604000F561400A
:101C200080F8001330BC70470023E5E700F00F0098
:101C30000901C9B2024B1954F4E700BF00ED00E0FE
:101C400014ED00E00138B0F1807F0AD2064B5860F5
:101C5000064AF02182F823100020986007221A60BB
:101C600070470120704700BF10E000E000ED00E089
:101C70000F49D1F8883043F47003C1F888300D4B18
:101C80001A6842F001021A60002098601A6822F077
:101C9000A85222F410221A604FF48052DA601A68B7
:101CA00022F480221A6098614FF000638B607047C5
:101CB00000ED00E0001002402DE9F04106468846A4
:101CC00017461D463468A46838EA04030CBF012493
:101CD0000024BC4237D0B5F1FF3FF3D0FEF748FFF8
:101CE000069BC01AA84201D2002DEBD1326853687E
:101CF00023F0E00353607368B3F5827F0BD0B36ABF
:101D0000B3F5005F14D0012386F85D30002386F818
:101D10005C30032018E0B368B3F5004F02D0B3F590
:101D2000806FECD13268136823F040031360E6E75C
:101D30003268136823F4005313603268136843F465
:101D400000531360DFE70020BDE8F0812DE9F84380
:101D500081460E461746984602E0B8F1FF3F0CD187
:101D6000D9F80050AC683440BC4243D0B6F5C06FDF
:101D7000F3D1002FF1D12B7BEFE7FEF7F9FE089BA3
:101D8000C01A404502D2B8F1000FE9D1D9F80020BD
:101D9000536823F0E0035360D9F80430B3F5827F31
:101DA0000CD0D9F82830B3F5005F16D0012389F89C
:101DB0005D30002389F85C3003201CE0D9F808303E
:101DC000B3F5004F02D0B3F5806FEAD1D9F8002007
:101DD000136823F040031360E3E7D9F80020136889
:101DE00023F400531360D9F80020136843F4005320
:101DF0001360DBE70020BDE8F88370B582B00446CD
:101E00000D46164600920B4600224FF4C051FFF7D4
:101E10009DFFB0B900962B46002280212046FFF797
:101E20004BFFA8B900962B4600224FF4C061204614
:101E3000FFF78CFF50B1236E43F02003236603208D
:101E400004E0236E43F020032366032002B070BD3C
:101E5000236E43F0200323660320F7E7002853D0C6
:101E600010B504460023836290F85D30002B40D00B
:101E7000022384F85D302268136823F04003136066
:101E8000E368B3F5E06F39D90022B3F5706F04D081
:101E9000B3F5E06F01D00021A162216B21B9B3F548
:101EA000E06F2ED9022323636368A1680B43216985
:101EB0000B4361690B43A16901F400710B43E169B4
:101EC0000B43216A0B43A06A216803430B60638BB9
:101ED00003F00403616A0B43616B0B43E1680B433E
:101EE000216813434B6000202066012384F85D3095
:101EF00010BD80F85C30FEF7BFFAB9E74FF48052AE
:101F0000C3E701232363CFE7012070472DE9F043A6
:101F100083B01D4690F85C30012B00F0E68004464B
:101F200088469146012380F85C30FEF721FE074683
:101F300094F85D60F6B2012E40F0C480B8F1000F55
:101F400000F0C180B9F1000F00F0BD80032384F8D8
:101F50005D3000232366C4F83880A4F83C90A4F8D0
:101F60003E902364A4F84430A4F846302365E3642B
:101F7000A368B3F5004F1DD023681A6812F0400F14
:101F800003D11A6842F040021A60E368B3F5E06FCB
:101F900036D9636813B1B9F1010F1DD1A26B236863
:101FA0001288DA60A36B0233A363E38F013B9BB219
:101FB000E38711E02268136843F480431360DBE792
:101FC000FEF7D6FDC01BA84203D3B5F1FF3F40F09A
:101FD0008480002D00F08380E28F92B2002A5CD0D2
:101FE00023689A6812F0020FEAD0A26B1288DA60B6
:101FF000A36B0233A363E38F013B9BB2E387EBE761
:10200000636813B1B9F1010F30D1E38F9BB2012B9B
:102010000BD9A26B23681288DA60A36B0233A36327
:10202000E38F023B9BB2E38720E0A26B2368127828
:102030001A73A36B0133A363E38F013B9BB2E38766
:1020400014E0A36B1B781373A36B0133A363E38FBB
:10205000013B9BB2E38709E0FEF78AFDC01BA84263
:1020600002D3B5F1FF3F3CD1002D3CD0E28F92B2BC
:102070009AB12268936813F0020FEDD0E38F9BB200
:10208000012BDED9A36B1B88D360A36B0233A36340
:10209000E38F023B9BB2E387E8E73A4629462046B6
:1020A000FFF7ABFE08B120232366A36833B9019381
:1020B0002368DA6801929B680193019B236E13B930
:1020C000002600E00226012384F85D30002384F816
:1020D0005C30304603B0BDE8F0830326F3E7032607
:1020E000F1E70326EFE70326EDE70226F1E700001C
:1020F000DFF834D0002103E00C4B5B58435004312F
:102100000B480C4B42189A42F6D30B4A02E00023CC
:1021100042F8043B094B9A42F9D3FFF7A9FD00F0BE
:1021200011F8FEF745F9FEE700000120C024000881
:1021300000000020100000201000002014010020EA
:10214000FEE7000070B50D4D0D4C641BA410002679
:10215000A64209D10B4D0C4C00F076F9641BA4107B
:102160000026A64205D170BD55F8043B98470136BC
:10217000EEE755F8043B98470136F2E7B024000833
:10218000B0240008B0240008B42400080244034628
:10219000934200D1704703F8011BF9E72DE9F04F96
:1021A000099E8A468E46154604461946002B40F085
:1021B000CA805245B2FA82F747D94FB1C7F1200819
:1021C0000AFA07F320FA08F8BD4048EA030EBC40BB
:1021D0004FEA15491FFA85F8BEFBF9FB220C09FBF3
:1021E0001BE30BFB08FC42EA034AD44529D915EB53
:1021F0000A0A0BF1FF3004D2D44502D9ABF1020038
:10220000AA44AAEB0C0AA4B2BAFBF9F309FB13AA7D
:1022100003FB08F844EA0A44A04514D92C1903F139
:10222000FF3203D2A04501D99A1E2C44A4EB080426
:1022300042EA00401EB1FC40002334607360BDE8F8
:10224000F08F5846DDE71A46F0E702B9FFDE9FBB84
:10225000AAEB020301214FEA154CAAB2B3FBFCFE24
:10226000200C0CFB1E330EFB02F840EA034398459A
:1022700065D9EB180EF1FF3004D2984502D9AEF1C2
:1022800002002B44A3EB0803A4B2B3FBFCFE0CFB3F
:102290001E330EFB02F244EA0344A24251D92C1928
:1022A0000EF1FF3304D2A24202D9AEF102032C4454
:1022B000A41A43EA0040BDE7C7F120082AFA08F94A
:1022C000BD4020FA08F80AFA07F348EA03024FEA89
:1022D000154CABB2B9FBFCFE110C0CFB1E900EFBB7
:1022E00003F841EA0040804504FA07F423D928188E
:1022F0000EF1FF3104D2804502D9AEF1020128442B
:10230000A0EB080092B2B0FBFCFE0CFB1E000EFB23
:1023100003F842EA004398450FD9EB180EF1FF325B
:1023200004D2984502D9AEF102022B44A3EB080374
:1023300042EA01418FE77146E2E77246F6E77046EE
:10234000A0E77346B4E7534505D90EB1C6E9000AC4
:102350000021084673E7B3FA83F8B8F1000F10D1F3
:10236000534501D382420AD8841A6AEB0303012041
:102370009E46002E65D0C6E9004E00215FE740462C
:10238000F7E7C8F1200903FA08F322FA09F71F4317
:1023900020FA09F40AFA08F32AFA09F51C434FEA6D
:1023A000174A02FA08FC00FA08FEB5FBFAF2BBB2C3
:1023B0000AFB1250250C02FB03F145EA0045A94235
:1023C0003BD97D1902F1FF3003D2A94201D9901EF9
:1023D0003D446D1AA4B2B5FBFAF20AFB1255534301
:1023E00044EA05418B422AD9791802F1FF3403D21D
:1023F0008B4201D9941E394444EA0040A0FB0C45AD
:10240000C91AA94223462A4602D306D1A64504D2B8
:10241000B4EB0C0365EB0702013896B1BEEB030485
:1024200061EB020E0EFA09F924FA08F349EA0303F4
:102430002EFA08F1C6E900319FE71046C9E71446B5
:10244000DAE73146FBE60000F8B500BFF8BC08BC8F
:102450009E467047F8B500BFF8BC08BC9E46704762
:102460000000000000000000010203040607080944
:102470000000000001020304A0860100400D0300DB
:10248000801A060000350C0040420F0080841E00B8
:1024900000093D0000127A000024F40000366E01AD
:0824A0000048E801006CDC02B9
:0824A800F4FCFF7F01000000BD
:0824B000E90100080000000032
:0824B800C5010008000000004E
:1024C000010000001000000000093D0000000000B5
:04000005080020F1DE
:00000001FF
