:020000040800F2
:100000000018002071560008D11A0008D31A000801
:1000100000000000000000000000000000000000E0
:10002000000000000000000000000000D51A0008D9
:100030000000000000000000D71A0008D91A0008CC
:10004000F1560008F1560008F1560008F156000874
:10005000F1560008F1560008F1560008E11A0008B0
:10006000F1560008F1560008F1560008F156000854
:10007000F1560008F91A0008F1560008F156000878
:10008000F15600080000000000000000F1560008D2
:1000900000000000F1560008F1560008F156000873
:1000A00000000000F1560008F1560008F156000863
:1000B000F156000800000000F1560008091B000876
:1000C000002934D00123002210B488422CD301240B
:1000D0002407A14204D2814202D209011B01F8E7A0
:1000E000E400A14204D2814202D249005B00F8E759
:1000F000884201D3401A1A434C08A04202D3001B85
:100100005C0822438C08A04202D3001B9C082243B7
:10011000CC08A04202D3001BDC082243002803D0F5
:100120001B0901D00909E3E7101C10BC704701B599
:10013000002000F00BF802BD0029F8D003B5FFF74E
:10014000C1FF0EBC4243891A1847C0467047C046DB
:1001500010B5064C2378002B07D1054B002B02D09D
:10016000044800E000BF0123237010BD24010020DB
:10017000000000004C570008044B10B5002B03D0C2
:100180000349044800E000BF10BDC0460000000065
:10019000280100204C57000830B589B00822002102
:1001A00006A805F0CBFA184B59698020C00201431C
:1001B00059615A6902400192019A5A698021890263
:1001C0000A435A615B690B400293029B80235B00E8
:1001D00003930E4D04950124059403A90C4803F0E4
:1001E000A3FA6023039304950594902003A9C00506
:1001F00003F09AFA00220021072003F0EBFB07200E
:1002000003F018FC09B030BD0010024000002110BE
:100210000004004810B50848084B036040234360C1
:100220003F3383608033C360002303614361836194
:1002300005F0BCF910BDC046B803002000280040FE
:1002400030B587B01022002102A805F077FA082205
:100250000021684605F072FA0D4C0E4B2360002514
:100260006560A560E56025616561A561200003F01A
:1002700033FD80235B01029302A9200003F052FDAD
:10028000009501956946200003F0BEFD07B030BD22
:10029000D8030020002C014084B070B50490059173
:1002A00006920793189C002C24D00C2C35D0012CDE
:1002B00050D0022C6BD0032C00D185E0042C00D14F
:1002C0009FE0052C00D1B9E0062C00D1D3E0072C2B
:1002D00000D1EDE0082C00D107E1092C00D121E18B
:1002E0000A2C00D13BE10B2C00D155E170BC08BCBD
:1002F00004B018479025ED050121280003F0E4FA29
:100300000221280003F0E0FA0421280003F0DCFABF
:100310000821280003F0D8FAC7E79025ED0504A9C5
:10032000280003F001FA0EA9280003F0FDF90221CC
:10033000280003F0C9FA0821280003F0C5FA0122B9
:100340000121280003F032FB00220421280003F0E1
:100350002DFBACE79025ED0504A9280003F0E4F996
:100360000EA9280003F0E0F90221280003F0ACFAFE
:100370000821280003F0A8FA00220121280003F038
:1003800015FB01220421280003F010FB91E79025C2
:10039000ED0509A9280003F0C7F913A9280003F007
:1003A000C3F90121280003F08FFA0421280003F08B
:1003B0008BFA01220221280003F0F8FA002208211A
:1003C000280003F0F3FA76E79025ED0509A9280047
:1003D00003F0AAF913A9280003F0A6F901212800C7
:1003E00003F072FA0421280003F06EFA00220221C1
:1003F000280003F0DBFA01220821280003F0D6FAD6
:100400005CE79025ED0504A9280003F08DF913A9F8
:10041000280003F089F90221280003F055FA04218D
:10042000280003F051FA01220121280003F0BEFA4E
:1004300000220821280003F0B9FA42E79025ED05D3
:1004400004A9280003F070F913A9280003F06CF93F
:100450000221280003F038FA0421280003F034FABE
:1004600000220121280003F0A1FA0122082128001E
:1004700003F09CFA28E79025ED0504A9280003F075
:1004800053F909A9280003F04FF90421280003F0CB
:100490001BFA0821280003F017FA01220121280085
:1004A00003F084FA00220221280003F07FFA0EE70D
:1004B0009025ED0504A9280003F036F909A92800C4
:1004C00003F032F90421280003F0FEF90821280086
:1004D00003F0FAF900220121280003F067FA012253
:1004E0000221280003F062FAF4E69025ED0509A93F
:1004F000280003F019F90EA9280003F015F90121CD
:10050000280003F0E1F90821280003F0DDF90122B9
:100510000221280003F04AFA00220421280003F0F7
:1005200045FADAE69025ED0509A9280003F0FCF864
:100530000EA9280003F0F8F80121280003F0C4F9FF
:100540000821280003F0C0F900220221280003F04E
:100550002DFA01220421280003F028FAC0E6902594
:10056000ED050EA9280003F0DFF813A9280003F019
:10057000DBF80121280003F0A7F90221280003F08D
:10058000A3F901220421280003F010FA0022082117
:10059000280003F00BFAA6E69024E4050EA920003B
:1005A00003F0C2F813A9200003F0BEF801212000D7
:1005B00003F08AF90221200003F086F900220421C9
:1005C000200003F0F3F901220821200003F0EEF9E6
:1005D0008CE6000084B0F0B5DE4657464E464546F0
:1005E000E0B595B01E901F9120922193329C002C73
:1005F00016D0012C37D0022C00D169E2032C01D196
:1006000000F09EFC042C01D100F0FFFE15B03CBCB4
:1006100090469946A246AB46F0BC08BC04B01847C9
:10062000002310932DA80BA90B00020023CA23C39B
:1006300003CA03C328A806A90B00020023CA23C3C8
:1006400003CA03C323A801A90B00020023CA23C3C2
:1006500003CA03C3229B00931E981F99209A219BD3
:10066000FFF71AFEC5E7002310932DA80BA90B0076
:10067000020023CA23C303CA03C328A806A90B0088
:10068000020023CA23C303CA03C323A801A90B0082
:10069000020023CA23C303CA03C3229B00931E98EC
:1006A0001F99209A219BFFF7F7FDEF4B1B68012B49
:1006B000ACD0FA20800003F025F8012310932DA878
:1006C0000BA90B00020023CA23C303CA03C328A833
:1006D00006A90B00020023CA23C303CA03C323A82D
:1006E00001A90B00020023CA23C303CA03C3229B30
:1006F00000931E981F99209A219BFFF7CDFDDA4B9E
:100700001B68012B00D181E7FA20800002F0FAFF7C
:10071000022310932DA80BA90B00020023CA23C3A8
:1007200003CA03C328A806A90B00020023CA23C3D7
:1007300003CA03C323A801A90B00020023CA23C3D1
:1007400003CA03C3229B00931E981F99209A219BE2
:10075000FFF7A2FDC44B1B68012B00D156E7FA201E
:10076000800002F0CFFF032310932DA80BA90B00EC
:10077000020023CA23C303CA03C328A806A90B0087
:10078000020023CA23C303CA03C323A801A90B0081
:10079000020023CA23C303CA03C3229B00931E98EB
:1007A0001F99209A219BFFF777FDAF4B1B68012B08
:1007B00000D12BE7FA20800002F0A4FF042310935D
:1007C0002DA80BA90B00020023CA23C303CA03C32D
:1007D00028A806A90B00020023CA23C303CA03C327
:1007E00023A801A90B00020023CA23C303CA03C321
:1007F000229B00931E981F99209A219BFFF74CFD86
:10080000994B1B68012B00D100E7FA20800002F011
:1008100079FF052310932DA80BA90B00020023CA12
:1008200023C303CA03C328A806A90B00020023CAD6
:1008300023C303CA03C323A801A90B00020023CAD0
:1008400023C303CA03C3229B00931E981F99209AB7
:10085000219BFFF721FD844B1B68012B00D1D5E6BE
:10086000FA20800002F04EFF062310932DA80BA95A
:100870000B00020023CA23C303CA03C328A806A986
:100880000B00020023CA23C303CA03C323A801A980
:100890000B00020023CA23C303CA03C3229B009395
:1008A0001E981F99209A219BFFF7F6FC6E4B1B6840
:1008B000012B00D1AAE6FA20800002F023FF0723D3
:1008C00010932DA80BA90B00020023CA23C303CA4F
:1008D00003C328A806A90B00020023CA23C303CA26
:1008E00003C323A801A90B00020023CA23C303CA20
:1008F00003C3229B00931E981F99209A219BFFF708
:10090000CBFC594B1B68012B00D17FE6FA208000FD
:1009100002F0F8FE082310932DA80BA90B0002008B
:1009200023CA23C303CA03C328A806A90B000200D5
:1009300023CA23C303CA03C323A801A90B000200CF
:1009400023CA23C303CA03C3229B00931E981F9983
:10095000209A219BFFF7A0FC434B1B68012B00D181
:1009600054E6FA20800002F0CDFE092310932DA852
:100970000BA90B00020023CA23C303CA03C328A880
:1009800006A90B00020023CA23C303CA03C323A87A
:1009900001A90B00020023CA23C303CA03C3229B7D
:1009A00000931E981F99209A219BFFF775FC2E4BF0
:1009B0001B68012B00D129E6FA20800002F0A2FE7C
:1009C0000A2310932DA80BA90B00020023CA23C3EE
:1009D00003CA03C328A806A90B00020023CA23C325
:1009E00003CA03C323A801A90B00020023CA23C31F
:1009F00003CA03C3229B00931E981F99209A219B30
:100A0000FFF74AFC184B1B68012B00D1FEE5FA20CA
:100A1000800002F077FE0B2310932DA80BA90B008A
:100A2000020023CA23C303CA03C328A806A90B00D4
:100A3000020023CA23C303CA03C323A801A90B00CE
:100A4000020023CA23C303CA03C3229B00931E9838
:100A50001F99209A219BFFF71FFC034B1B68012B5A
:100A600000D1D3E502E0C04640010020FA2080001A
:100A700002F048FE0C2310932DA80BA90B000200D6
:100A800023CA23C303CA03C328A806A90B00020074
:100A900023CA23C303CA03C323A801A90B0002006E
:100AA00023CA23C303CA03C3229B00931E981F9922
:100AB000209A219BFFF7F0FB044B1B68012B00D110
:100AC000A4E5FA20800002F01DFE94E5400100201C
:100AD000002310932DA80BA90B00020023CA23C3E7
:100AE00003CA03C328A806A90B00020023CA23C314
:100AF00003CA03C323A801A90B00020023CA23C30E
:100B000003CA03C3229B00931E981F99209A219B1E
:100B1000FFF7C2FBF04B1B68012B00D176E5FA20F2
:100B2000400002F0EFFD012310932DA80BA90B004C
:100B3000020023CA23C303CA03C328A806A90B00C3
:100B4000020023CA23C303CA03C323A801A90B00BD
:100B5000020023CA23C303CA03C3229B00931E9827
:100B60001F99209A219BFFF797FBDB4B1B68012BFA
:100B700000D14BE5FA20400002F0C4FD022310939F
:100B80002DA80BA90B00020023CA23C303CA03C369
:100B900028A806A90B00020023CA23C303CA03C363
:100BA00023A801A90B00020023CA23C303CA03C35D
:100BB000229B00931E981F99209A219BFFF76CFBA4
:100BC000C54B1B68012B00D120E5FA20400002F044
:100BD00099FD032310932DA80BA90B00020023CA33
:100BE00023C303CA03C328A806A90B00020023CA13
:100BF00023C303CA03C323A801A90B00020023CA0D
:100C000023C303CA03C3229B00931E981F99209AF3
:100C1000219BFFF741FBB04B1B68012B00D1F5E492
:100C2000FA20400002F06EFD042310932DA80BA9BA
:100C30000B00020023CA23C303CA03C328A806A9C2
:100C40000B00020023CA23C303CA03C323A801A9BC
:100C50000B00020023CA23C303CA03C3229B0093D1
:100C60001E981F99209A219BFFF716FB9A4B1B6831
:100C7000012B00D1CAE4FA20400002F043FD052315
:100C800010932DA80BA90B00020023CA23C303CA8B
:100C900003C328A806A90B00020023CA23C303CA62
:100CA00003C323A801A90B00020023CA23C303CA5C
:100CB00003C3229B00931E981F99209A219BFFF744
:100CC000EBFA854B1B68012B00D19FE4FA20400012
:100CD00002F018FD062310932DA80BA90B000200AB
:100CE00023CA23C303CA03C328A806A90B00020012
:100CF00023CA23C303CA03C323A801A90B0002000C
:100D000023CA23C303CA03C3229B00931E981F99BF
:100D1000209A219BFFF7C0FA6F4B1B68012B00D173
:100D200074E4FA20400002F0EDFC072310932DA894
:100D30000BA90B00020023CA23C303CA03C328A8BC
:100D400006A90B00020023CA23C303CA03C323A8B6
:100D500001A90B00020023CA23C303CA03C3229BB9
:100D600000931E981F99209A219BFFF795FA5A4BE2
:100D70001B68012B00D149E4FA20400002F0C2FCBC
:100D8000082310932DA80BA90B00020023CA23C32C
:100D900003CA03C328A806A90B00020023CA23C361
:100DA00003CA03C323A801A90B00020023CA23C35B
:100DB00003CA03C3229B00931E981F99209A219B6C
:100DC000FFF76AFA444B1B68012B00D11EE4FA209E
:100DD000400002F097FC092310932DA80BA90B00EB
:100DE000020023CA23C303CA03C328A806A90B0011
:100DF000020023CA23C303CA03C323A801A90B000B
:100E0000020023CA23C303CA03C3229B00931E9874
:100E10001F99209A219BFFF73FFA2F4B1B68012B4C
:100E200001D1FFF7F3FBFA20400002F06BFC0A232C
:100E300010932DA80BA90B00020023CA23C303CAD9
:100E400003C328A806A90B00020023CA23C303CAB0
:100E500003C323A801A90B00020023CA23C303CAAA
:100E600003C3229B00931E981F99209A219BFFF792
:100E700013FA194B1B68012B01D1FFF7C7FBFA20AE
:100E8000400002F03FFC0B2310932DA80BA90B0090
:100E9000020023CA23C303CA03C328A806A90B0060
:100EA000020023CA23C303CA03C323A801A90B005A
:100EB000020023CA23C303CA03C3229B00931E98C4
:100EC0001F99209A219BFFF7E7F9034B1B68012B21
:100ED00001D1FFF79BFB01E040010020FA20400018
:100EE00002F010FC0C2310932DA80BA90B0002009C
:100EF00023CA23C303CA03C328A806A90B00020000
:100F000023CA23C303CA03C323A801A90B000200F9
:100F100023CA23C303CA03C3229B00931E981F99AD
:100F2000209A219BFFF7B8F9E74B1B68012B01D1F1
:100F3000FFF76CFBFA20400002F0E4FBFFF75EFBDA
:100F4000002310932DA80BA90B00020023CA23C372
:100F500003CA03C328A806A90B00020023CA23C39F
:100F600003CA03C323A801A90B00020023CA23C399
:100F700003CA03C3229B00931E981F99209A219BAA
:100F8000FFF78AF9002600E00136D04B9E4201DDD2
:100F9000FFF738FB01250C2DF6DC10952DA80BA9C9
:100FA0000B00020083CA83C303CA03C328A806A98F
:100FB0000B00020083CA83C303CA03C323A801A989
:100FC0000B00020083CA83C303CA03C3229B00939E
:100FD0001E981F99209A219BFFF75EF9BA4B1B6858
:100FE000012B01D1FFF712FB0135D4E70B3310932E
:100FF0002DA80BA90B00020013CA13C303CA03C315
:1010000028A806A90B00020013CA13C303CA03C30E
:1010100023A801A90B00020013CA13C303CA03C308
:10102000229B00931E981F99209A219BFFF734F969
:10103000FA20400002F066FBA34B1B68012B00D096
:10104000A1E1FFF7E3FA00239B46A04B9B4500DD9F
:101050009DE10A2310932DAB99460BAB98464A4667
:1010600013CA13C303CA03C328AF06AE33003A0042
:1010700013CA13C303CA03C323AD01AB13932A00DE
:1010800013CA13C303CA03C3229B00931E981F995C
:10109000209A219BFFF700F90123109343464A460B
:1010A00013CA13C303CA03C333003A0013CA13C3DA
:1010B00003CA03C313990B002A0013CA13C303CA3C
:1010C00003C3229B00931E981F99209A219BFFF730
:1010D000E3F87D4B1B68012B01D1FFF797FA012341
:1010E0009C46E344B1E700239B46784B9B4500DDDB
:1010F00051E1022310932DAB99460BAB98464A461B
:1011000013CA13C303CA03C328AF06AE33003A00A1
:1011100013CA13C303CA03C323AD01AB13932A003D
:1011200013CA13C303CA03C3229B00931E981F99BB
:10113000209A219BFFF7B0F80A23109343464A46B2
:1011400013CA13C303CA03C333003A0013CA13C339
:1011500003CA03C313990B002A0013CA13C303CA9B
:1011600003C3229B00931E981F99209A219BFFF78F
:1011700093F8554B1B68012B01D1FFF747FA012368
:101180009C46E344B1E701239C46E3444F4B9B4517
:1011900000DD04E1032310932DAB99460BAB984679
:1011A0004A4613CA13C303CA03C328AF06AE3300AB
:1011B0003A0013CA13C303CA03C323AD01AB13938D
:1011C0002A0013CA13C303CA03C3229B00931E98A9
:1011D0001F99209A219BFFF75FF80923109343463C
:1011E0004A4613CA13C303CA03C333003A0013CADF
:1011F00013C303CA03C313990B002A0013CA13C3F2
:1012000003CA03C3229B00931E981F99209A219B17
:10121000FFF742F82C4B1B68012BB4D1FFF7F6F90E
:1012200000239B46B2E700239B46284B9B4500DDED
:10123000B9E0042310932DAB99460BAB98464A4670
:1012400013CA13C303CA03C328AF06AE33003A0060
:1012500013CA13C303CA03C323AD01AB13932A00FC
:1012600013CA13C303CA03C3229B00931E981F997A
:10127000209A219BFFF710F80823109343464A4613
:1012800013CA13C303CA03C333003A0013CA13C3F8
:1012900003CA03C313990B002A0013CA13C303CA5A
:1012A00003C3229B00931E981F99209A219BFEF74F
:1012B000F3FF054B1B68012B01D1FFF7A7F90123B1
:1012C0009C46E344B1E7C046400100200F270000E0
:1012D00000239B464E4B9B4568DC052310932DABAA
:1012E00099460BAB98464A4613CA13C303CA03C3B5
:1012F00028AF06AE33003A0013CA13C303CA03C3B0
:1013000023AD01AB13932A0013CA13C303CA03C34B
:10131000229B00931E981F99209A219BFEF7BCFFE9
:101320000723109343464A4613CA13C303CA03C391
:1013300033003A0013CA13C303CA03C313990B0043
:101340002A0013CA13C303CA03C3229B00931E9827
:101350001F99209A219BFEF79FFF2E4B1B68012BA4
:1013600001D1FFF753F901239C46E344B2E701237F
:101370009C46E2445346072B01DDFFF747F95346ED
:10138000012B00D132E65346022B00D15BE65346D7
:10139000032B00D1A7E65346042B00D140E7534668
:1013A000052B00D13FE75346062B91D05346072B20
:1013B000DDD1013B10932DA80BA90B00020013CA2D
:1013C00013C303CA03C328A806A90B00020013CA4B
:1013D00013C303CA03C323A801A90B00020013CA45
:1013E00013C303CA03C3229B00931E981F99209A1C
:1013F000219BFEF751FFFA20400002F083F9054BD4
:101400001B68012BB3D1FFF701F901239A46B1E71D
:101410000F27000040010020F0B587B0050001ACA7
:1014200014220021200004F089F9902000220121DB
:10143000C00502F0BBFA80235B00019300266660C2
:101440000127A7602100074802F06EF90197676045
:10145000A660E6602B0007CC07C306CC06C32800B5
:1014600007B0F0BD00040048F0B587B0050001AC3E
:1014700014220021200004F061F9902000220221B2
:10148000C00502F093FA80235B000193002666609A
:101490000127A7602100084802F046F902230193C2
:1014A0006760A660E6602B0007CC07C306CC06C3C6
:1014B000280007B0F0BDC04600040048F0B587B072
:1014C000050001AC14220021200004F037F990201F
:1014D00000220421C00502F069FA80235B00019319
:1014E000002666600127A7602100084802F01CF969
:1014F000042301936760A660E6602B0007CC07C356
:1015000006CC06C3280007B0F0BDC0460004004862
:10151000F0B587B0050001AC14220021200004F0D2
:101520000DF9902000220821C00502F03FFA802327
:101530005B000193002666600127A7602100084830
:1015400002F0F2F8082301936760A660E6602B00C2
:1015500007CC07C306CC06C3280007B0F0BDC046C1
:101560000004004810B598B0302200210CA804F007
:10157000E5F81022002107A804F0E0F81822002165
:1015800001A804F0DBF828230B93273B1393129355
:101590000BA801F03DFC07230793043B08930024AC
:1015A00009940A94012107A801F01EFFC0239B02A1
:1015B000019380239B000293069401A801F0B6FFDB
:1015C00018B010BD10B5A8B002F07AF8FFF7CAFF46
:1015D000FEF7E2FD00F05EF8FEF71CFEFEF730FEBF
:1015E00023A8FFF719FF1EA8FFF73EFF19A8FFF772
:1015F00065FF14A8FFF78CFF1D4B00221A601D4BDE
:101600001B68109314A80BA90B00020013CA13C384
:1016100003CA03C319A806A90B00020013CA13C307
:1016200003CA03C31EA801A90B00020013CA13C3F7
:1016300003CA03C3279B1393009323982499259AE5
:10164000269BFEF7C7FF0A4B1B68012BD7D16420EE
:1016500002F058F8064B00221A60064A136801335C
:101660001360052BCBDD130000221A60C7E7C046CC
:10167000400100200000002080235B00984200D041
:101680007047024B01221A60FAE7C0464001002071
:101690007047000010B500221149124802F0E9FB22
:1016A000002811D110490F4802F0FFFB00280ED18D
:1016B0000E490C4803F080FA00280BD1094802F0CB
:1016C000FDFB002809D110BDFFF7E2FFEAE7FFF7B5
:1016D000DFFFEDE7FFF7DCFFF0E7FFF7D9FFF2E709
:1016E0000400002018040020800000205400002086
:1016F000022804D005D8002800D00220704701201D
:10170000FCE70220FAE710B5FFF72CFF10BD000040
:1017100000B583B002680C4B9A4201D003B000BD03
:101720000A4AD169802000040143D161D369034092
:101730000193019B002200211F2002F04BF91F2082
:1017400002F078F9EAE7C046005C00400010024071
:1017500010B501009C239B00C058403B9C4661444F
:1017600002F0C8FB10BD10B503009C229200805807
:101770004A019B183D33FF331A6802F0EDFB10BDA0
:1017800010B503009C22920080584A019B18DA6B26
:1017900002F034FC10BD10B59C239B00C05802F031
:1017A000EFFC10BD70B504008368022B09D19C25A5
:1017B000AD000121605902F0C5FC605902F093FCB4
:1017C00070BDFFF765FFF2E710B504009C239B0096
:1017D000C05802F0BBFCA369002B04D0024A136975
:1017E00006210B43136110BD00ED00E010B50400AD
:1017F0008369002B05D19C239B00E05802F0B2FCCA
:1018000010BD044A136906218B431361FFF77BFF68
:10181000F1E7C04600ED00E070B5040019489C23D4
:101820009B00C4505033E050174B036008234360C3
:10183000063B8360036100238361C361036200F0A0
:101840003DFE00281BD1B025AD0018230022002149
:10185000605901F0AFFA582300228021605901F04D
:10186000A9FA982300228121605901F0A3FA605956
:10187000D8230022012101F09DFA002070BDFFF75E
:1018800007FFE0E7DC060020005C004010B5B02355
:101890009B00C05800F07CFEFFF72AFF10BD10B57A
:1018A00014001A00B0239B00C058230000F09DFED6
:1018B000FFF71EFF10BD10B5B0239B00C05800F00D
:1018C000D1FEFFF715FF10BD10B5B0239B00C05827
:1018D00001F06EFAFFF70CFF10BD10B5B0239B00AE
:1018E000C05801F0EBF9FFF703FF10BD10B5B023AE
:1018F0009B00C05801F021FAFFF7FAFE10BDB0239B
:101900009B00C3584AB2002A07DB7F2211404901DD
:101910005B182B33FF33187870477F221140490141
:101920005B182A331878F7E710B5B0239B00C0582E
:1019300000F045FEFFF7DCFE10BD10B5B024A4009A
:10194000005900F0EEFEFFF7D3FE10BD10B5B02435
:10195000A400005900F0B8FEFFF7CAFE10BD10B594
:10196000B0239B00C05800F0D5FE10BD0048704762
:10197000440100207047000012230B80004870478C
:101980002000002004230B80004870473400002012
:1019900030B500230AE05D0037344C5500015C008F
:1019A00001340C19002525700133DBB2934206D2B5
:1019B000040F092CEFD85D0030344C55EEE730BDF4
:1019C00070B50B4B18680B4B1D680B4B1B68C01890
:1019D000002800D170BD094CA11C0822FFF7D8FFD8
:1019E0002100123104222800FFF7D2FFF2E7C0469F
:1019F000ACF7FF1FB0F7FF1FB4F7FF1F3800002040
:101A000010B51A230B80FFF7DBFF014810BDC0465D
:101A10003800002010B50A00002805D10549064805
:101A200002F01FFF034810BD0249034802F019FFEE
:101A3000F8E7C046500900206457000810B50A00B6
:101A4000034C2100034802F00CFF200010BDC046EB
:101A5000500900207857000810B50A00002805D169
:101A60000549064802F0FDFE034810BD024903483F
:101A700002F0F7FEF8E7C046500900208C57000836
:101A800010B50A00002805D10549064802F0E9FE14
:101A9000034810BD0249034802F0E3FEF8E7C046E0
:101AA00050090020985700080020704780235B02EF
:101AB0000B6080239B00138000207047002070473C
:101AC00000207047002070470020704700207047BA
:101AD0007047FEE77047704710B501F001FE10BD7A
:101AE00010B5202001F068FF402001F065FF802044
:101AF000400001F061FF10BD10B5024801F0F5FF94
:101B000010BDC046D803002010B5024801F000F80F
:101B100010BDC046DC06002082B00C4B9969012242
:101B20001143996199690A400092009ADA6980210B
:101B300049050A43DA61DB690B400193019B044AC2
:101B4000136810210B43136002B07047001002406D
:101B5000000001400268054B9A4200D07047044AD9
:101B6000116A80231B020B431362F7E70028004031
:101B70000010024000B583B002680C4B9A4201D0BD
:101B800003B000BD0A4A91698020000101439161C0
:101B9000936903400193019B002200210D2001F075
:101BA00019FF0D2001F046FFEAE7C046002C014076
:101BB000001002404022835A02490B439BB28352D9
:101BC0000020704780BFFFFF4022835A02490B402C
:101BD000835200207047C0467F40000084B010B59B
:101BE00003910492059340220123835200238352E0
:101BF000043283520C328352FFF7DCFF002010BC0A
:101C000008BC04B018470000F0B503000D78AD0023
:101C100045192A88B1480240C878022859D00AD804
:101C2000002852D0012804D18020C00002430020A7
:101C300009E0012007E0032804D1C020C0000243CE
:101C4000002000E00120A64C224392B22A800A78AC
:101C500096009E1935882DB2A24F3D402A4392B27C
:101C60001443A4B234800A7B002A00D08AE04A7868
:101C7000002A3BD050229C5A1C190A78D200121913
:101C80008024E400A4466244CC8864086400148084
:101C90000A7892009A181488640606D514883D00C4
:101CA0002540914C2C43A4B21480CA78012A12D04A
:101CB0000A7892009B181A888C490A4020215140CA
:101CC000874A0A4392B21A8048E08024A400224343
:101CD000B9E70020B7E70A7892009B181A88834971
:101CE00011407F4A0A4392B21A8037E050255C5B6C
:101CF0001C190A78D20012197D4CA4466244CC8883
:101D00006408640014805C5B1C190A78D200121904
:101D1000784CA44662440C69002C20D11488764D7E
:101D20002540764C2C4314800A7892009A18148827
:101D3000640406D514886B4D2540714C2C43A4B225
:101D400014800A7892009B1819886E4A1140C022AC
:101D500092015140624A0A4392B21A80F0BD3E2C71
:101D600006D86508E40700D50135AD021580DBE72C
:101D70006509E40600D1013DAD02ADB25F4C2543DB
:101D80001580D1E70A7892009A181488554D25409D
:101D90005D4C2C43A4B2148050255C5B1C190A785E
:101DA000D20012198024E400A44662440C8964081D
:101DB000640014805C5B1C190A78D20012194C4C28
:101DC000A44662444C896408640014804A78002A5E
:101DD0003AD10A7892009A181488640406D51488B7
:101DE000404D2540464C2C43A4B214800A78920002
:101DF0009A181488640606D514883A4D25403A4C42
:101E00002C43A4B214800A7892009A181488354D95
:101E10002540354C2C43A4B214800C78A4001C1926
:101E20002288384D1540C02292016A402C4D2A4329
:101E300092B222800A7892009B181A882B490A4095
:101E40002A4392B21A8089E70A7892009A18148875
:101E5000640406D51488234D2540294C2C43A4B294
:101E600014800A7892009A181488640606D514889B
:101E70001C4D25401C4C2C43A4B214800A789200BF
:101E80009A181488174D25401D4C2C43A4B2148079
:101E9000CA78012A16D00A7892009A181488134D2D
:101EA0002C40202565400E4C2C43A4B214800A78A7
:101EB00092009B181A8813491140094A0A4392B2AA
:101EC0001A804BE70A7892009A181488074D25402B
:101ED000034C2C43A4B21480E9E7C0468F89FFFF6E
:101EE0008080FFFF8F8FFFFFC080FFFFBF8FFFFF4E
:101EF0000404000006040000FF83FFFF0080FFFFD2
:101F000080C0FFFF8FBFFFFF8081FFFF10B50B7BFD
:101F1000002B33D14B78002B18D00B789B00C318C3
:101F20001A88520606D51A884E4C14404E4A22434F
:101F300092B21A800B789B00C01803884B4A1A4053
:101F40004B4B13439BB20380002010BD0B789B00CA
:101F5000C3181A88520406D51A88424C1440454AC0
:101F6000224392B21A800B789B00C0180388424A21
:101F70001A403F4B13439BB20380E5E74B78002B9D
:101F800037D10B789B00C3181A88520406D51A88DB
:101F9000344C1440374A224392B21A800B789B008B
:101FA000C3181A88520606D51A882E4C14402E4A99
:101FB000224392B21A800B789B00C3181A88294CCE
:101FC0001440294A224392B21A800C78A4000419C2
:101FD0002388294A1340264A13439BB223800B7857
:101FE0009B00C018038821490B401A4392B202801B
:101FF000AAE70B789B00C3181A88520406D51A88E2
:10200000184C14401B4A224392B21A800B789B0052
:10201000C3181A88520606D51A88124C1440124A60
:10202000224392B21A800B789B00C3181A880D4C79
:102030001440104A224392B21A800C78A40004196A
:1020400023880A4A13400A4A13439BB223800B7821
:102050009B00C018038808490B401A4392B20280C3
:1020600072E7C0468F8FFFFFC080FFFFBF8FFFFF6B
:102070008080FFFF80C0FFFF8FBFFFFF4B78002BEA
:102080000DD00B789B00C01803880C4A1340102217
:102090005A400B4B13439BB20380002070470B78D0
:1020A0009B00C0180288074B1A4080235B015A40EE
:1020B000034B13439BB20380EFE7C046BF8FFFFF84
:1020C0008080FFFF8FBFFFFF10B50B7B002B39D146
:1020D0004B78002B1CD00B789B00C3181A88520633
:1020E00006D51A88184C1440184A224392B21A8016
:1020F000CB78012B26D00B789B00C0180388144A9C
:10210000134020225A40134B13439BB2038019E023
:102110000B789B00C3181A88520406D51A880A4CFB
:1021200014400D4A224392B21A800B789B00C018CB
:1021300002880A4B1A40C0239B015A40054B1343A7
:102140009BB20380002010BD8F8FFFFFC080FFFF78
:10215000BF8FFFFF8080FFFF80C0FFFF8FBFFFFFAB
:10216000002902D14C238022C25200207047000077
:102170005822835A02490B439BB283520020704776
:102180000080FFFF4423C05A80B270470020704790
:1021900010B501335B0810188022D20094466044C9
:1021A000002B08D00C784A781202224302800230B9
:1021B0000231013BF4E710BD70B505000C00497811
:1021C00001292BD0A26923699A4200D8D8E0D21AFB
:1021D000A261227B002A00D0E9E05032A95A691896
:1021E0002278D2005218A0498C466244002B00D0BD
:1021F000CAE013889D4919409D4B0B4313802078FA
:1022000080002D182A889B4B1A40C0239B015A40FE
:10221000994B13439BB22B80002070BDA2692369A8
:102220009A421DD9D21AA261227B002A1CD02278A0
:10223000900028180088400664D5002939D1503113
:10224000695A6918D200521887498C466244002B9B
:102250001CD111888548084085490143118031E02F
:102260000023A3611300DFE79EB2E28833006169B7
:102270002800FFF78DFF5023EA5AAA182378DB00C5
:102280009B187E4A944663441E802EE03E2B06D85F
:102290005908D80700D501318902118012E0590987
:1022A000D80600D10139890289B2714801431180F1
:1022B00008E05021695A6918D20052186A498C46C0
:1022C0006244138062899BB261692800FFF760FF56
:1022D0006378002B47D123789B00EB181A88684954
:1022E0001140684A0A4392B21A80207880002D1863
:1022F0002B88654A134030225A405F4B13439BB2F0
:102300002B8089E7002923D15031695A6918D200FE
:1023100052185A498C466244002B06D11188534802
:1023200008405349014311801BE03E2B06D8590851
:10233000D80700D501318902118012E05909D80669
:1023400000D10139890289B249480143118008E06E
:102350005021695A6918D200521848498C46624483
:1023600013802289AFE7012BBFD123789B00EB18A4
:102370001A8843491140454A0A4392B21A80B4E789
:102380000023A361130024E73E2B06D85908DB077E
:1023900000D501318902118031E75909DB0600D1EE
:1023A0000139890289B2324B1943118027E700298C
:1023B00010D15022A95A69182278D20052182F49F8
:1023C0008C466244002B1AD11188284808402849BD
:1023D000014311806278002A37D15032A95A691816
:1023E0002278D200521820498C466244002B19D121
:1023F00013881E4919401E4B0B431380FFE63E2BEA
:1024000006D85908D80700D5013189021180E1E7C3
:102410005909D80600D10139890289B2144801430B
:102420001180D7E73E2B06D85908DB0700D50131CC
:1024300089021180E3E65909DB0600D101398902DE
:1024400089B20B4B19431180D9E6012A00D0D6E698
:102450004F32A95A69182278D200521802498C4684
:1024600062441380CBE6C04606040000FF83FFFFF2
:102470000080FFFF8FBFFFFF8080FFFF020400008E
:102480008F8FFFFFC080FFFFBF8FFFFF80C0FFFF68
:1024900010B55C0810188022D20094466044002CCD
:1024A00007D0028802300A70120A4A700231013CD9
:1024B000F5E7DB0701D503880B7010BD30B587B099
:1024C000041E61D0314BC35C002B1ED02F4B032266
:1024D000E2542068FFF778FB0023606883421BD238
:1024E0005A01A218110029310120087001390B701E
:1024F000D38610002B30002101709163D1639A1CA8
:10250000520111510133DBB2E7E78A239B0000221D
:10251000C254FFF7FDF8D9E7002215E05301E31894
:102520001D002A35FF3500212970013D2A70033531
:1025300029700D3529603D33FF33196013000A33CC
:102540005B0119510132D2B29042E7D82300103317
:102550006A4623CB23C203CB03C26168A268E36847
:102560002068FFF73BFB24230022E254074B013293
:10257000E254E369012B02D0002007B030BD2000F7
:1025800000F031FC0020F8E70120F6E72902000006
:1025900070B504008A239B00C35C012B0DD08A25F3
:1025A000AD00012343550068FFF7E2FD2068FFF707
:1025B00001FB00236355002070BD0220FCE770B5CD
:1025C00004008A239B00C35C012B0CD08A25AD003C
:1025D000012343552333C1540068FFF7C1FD002395
:1025E0006355002070BD0220FCE770B504000D00AB
:1025F00049B2002926DB072028404001010029318B
:10260000FF31611820182A30FF300026067007209D
:1026100005400D700A61CB704A78002A00D0CD8148
:10262000022B1AD08A239B00E35C012B18D08A2549
:10263000AD00012363552068FFF7E6FA00236355D8
:10264000002070BD0720284040010100283161189A
:102650002018293001260670D9E700230B71E1E725
:102660000220EEE770B504000A004BB2002B1EDB1F
:1026700007230B405B0119002931FF314118C318B2
:102680002A33FF330020187007231A400A708A2368
:102690009B00E35C012B15D08A25AD000123635517
:1026A0002068FFF733FC00236355002070BD07232B
:1026B0000B405B01190028314118C3182933012050
:1026C0001870E1E70220F1E770B507250D406C01B5
:1026D00021002931FF314118041926003D36FF360B
:1026E00032602A000A32520183508218002353605C
:1026F00022002A32FF3213702934FF342570002D56
:1027000004D10068FFF758FD002070BD0068FFF796
:1027100053FDF9E707230B400A335B01C3185868E0
:10272000704770B507250D406C0121002831411814
:102730000419E263AA1C52018350821800235360DB
:102740002300293301221A7028342570002D04D16A
:102750000068FFF731FD002070BD0068FFF72CFD19
:10276000F9E70000F0B5C64600B504009FE0038815
:10277000D24A1A40D24B13439BB2038021685023A4
:10278000CB5A2822A25CD2009B185B18CD4A9446F3
:1027900063441B889B059B0D6364E26B9446634412
:1027A000E36300212000FEF7EBFF2423E35C002B12
:1027B00000D17CE0236C002B00D078E02422A35CC5
:1027C000802149420B43DBB2CC31206843520023C5
:1027D000A3546CE05023C35A94225200A25CD2004E
:1027E0009B181B18B84A944663441B889B059B0D95
:1027F00022002932FF32D3618C2189006118D288EE
:10280000FFF746FE22681388B0490B4080210B4336
:1028100013802000FEF79CFF49E03E2A06D85108AD
:10282000D20700D501318902198099E05109D206F9
:1028300000D10139890289B2A14A114319808FE080
:10284000AE00801903889FB21BB2002B00DA93E020
:102850003B062CD523689C4666443388974A1A4029
:10286000974B13439BB2338020685023C35A6901AE
:1028700061180A0028321278D2009B181B18914A5E
:10288000944663441A889205920DAB1C5B01E018D4
:102890004260C86B84466244CA631B59002B00D057
:1028A00029E10D00283529782000FEF769FF20680E
:1028B0004423C35A1BB2002B00DB24E14423C35A38
:1028C00099B20F221D0015401342B9D1CB0600D496
:1028D0004DE7028893B2120500D57BE71BB2002BAF
:1028E000E5DA0388794A1340802213430380206885
:1028F0005023C35A94225200A25CD2009B181B188A
:10290000714A944663441B889B059B0D2200293223
:10291000FF32D361002B0FD0516900290CD0150074
:10292000D288FFF7B5FD6B69EA69944663446B6131
:1029300000212000FEF717FF236850229A5A9B18A7
:10294000614A9446634422002932FF321269002A08
:1029500000D062E71A885E491140594A0A431A803A
:1029600021680A885B4B1A40C0239B015A405A4B8E
:1029700013439BB20B809AE70388544A134080228A
:10298000134303806B01E3183533FF331B78002BAF
:1029900020D120685033C35A6A01A2182932FF326D
:1029A0001278D2009B181B18474A944663441B8830
:1029B0009B059A0D9046002B35D06B01E3181A0049
:1029C0002F32FF3212883D33FF3319684346FFF739
:1029D0005FFD28E020686B01E3182933FF331B7883
:1029E0009A008218128852044CD55022825ADB0079
:1029F000D3181B18334A944663441B889B059A0DD1
:102A00009046002B31D16B01E3182933FF331A783C
:102A1000920023689C466244138830491940304B29
:102A20000B439BB2138040462B000A335B01E11835
:102A30004A6842444A60690161183D31FF310A68C1
:102A400042440A601B59002B06D0690161183931D4
:102A5000FF310968884245D26B01E3182933FF33FF
:102A600019782000FEF77FFEF2E66B01E3181A00EA
:102A70003132FF3212883D33FF3319684346FFF786
:102A800007FDC0E75022825ADB00D3181B180E4AFC
:102A9000944663441B889B059A0D9046002BB2D048
:102AA0006B01E3181A003332FF3212883D33FF33D3
:102AB00019684346FFF7ECFCA5E7C0460F8FFFFF00
:102AC0000080FFFF02040000060400008F0F0000DA
:102AD000FF83FFFF8FBFFFFF8080FFFF8F8FFFFF10
:102AE000C080FFFF690161182931FF31097820009A
:102AF000FFF7EAFDACE66D0165192835297820005D
:102B0000FFF70FFED3E6002004BC9046F0BDC046A0
:102B100070B504000068FFF735FB030400D57BE0C7
:102B20002068FFF72FFB430500D579E02068FFF709
:102B300029FB430405D5216844228B5A5848034099
:102B40008B522068FFF71EFB830405D521684422C1
:102B50008B5A544803408B522068FFF713FBC30481
:102B600018D521684023CA5A04208243CA522168DA
:102B7000CA5A04308243CA5298239B00E35C012B5B
:102B80005CD02000FEF732FE216844228B5A464872
:102B900003408B522068FFF7F5FA030557D42068ED
:102BA000FFF7F0FA030626D5216844228B5A8020CD
:102BB00083438B5298239B00E35C002B62D12168F6
:102BC0004033CA5A04200243CA522168CA5A082014
:102BD0000243CA5298239B000122E25454232268E4
:102BE000D25A9208183B134099229200A350012117
:102BF000200000F00BF92068FFF7C4FA830545D4E4
:102C00002068FFF7BFFAC30505D5216844228B5A17
:102C1000264803408B5270BD2000FFF7A3FD7FE7DD
:102C2000216844228B5A224803408B522000FEF731
:102C3000B9FD00212000FFF7C2FC77E798239B0035
:102C40000022E2540021200000F0E0F899E721681A
:102C50004023CA5A08200243CA5220684421425ADB
:102C6000144D2A4042522168CA5A04200243CA52D3
:102C70002068FFF787FAC30400D590E72000FEF72D
:102C8000A3FD8CE72000FEF79FFDB4E721684422F6
:102C90008B5A094803408B522000FEF77CFDAFE7BA
:102CA000FFBFFFFFFFDFFFFFFFEFFFFFFFFEFFFFA5
:102CB000FFFBFFFFFFF7FFFFFFFDFFFF70B5040005
:102CC00007250D4043689D4233D84BB2002B20DBD3
:102CD0004B0119002931FF314118C3182A33FF3342
:102CE00000221A7001238B700D708A239B00E35C15
:102CF000012B20D08A239B000122E2542068FFF799
:102D0000BDF9002D0ED08A239B000022E254002042
:102D100070BD6B01190028314118C31829330122F5
:102D20001A70DFE78C239B00E1182068FFF72EFA6A
:102D3000E9E70120ECE70220EAE770B504000B00A8
:102D40000F220A4041688A422ED85AB2002A20DB5C
:102D500007221A40520111002931FF31411882180F
:102D60002A32FF320020107000228A70073213408E
:102D70000B708A239B00E35C012B17D08A25AD00E2
:102D8000012363552068FFF79FF900236355002056
:102D900070BD07221A4052011100283141188218D3
:102DA000293201201070DFE70120F1E70220EFE770
:102DB0000020704710B50C060AD5072421404901B0
:102DC00028314118002A08D10A73CB80002010BD99
:102DD00049012931FF314118F4E701220A730B81BF
:102DE0001B0C4B81F2E702689A239B000121C15022
:102DF000083B0021C1545423D15A01200143D15230
:102E0000D15A02200143D152002070477047000080
:102E100070B582B0041E00D17FE20368DB072BD5BA
:102E2000B34B5A680C231340042B1DD0B04B5A6887
:102E30000C231340082B0ED06368012B41D0002BCC
:102E400056D1AB4B1A68AB490A401A601A68AA49B6
:102E50000A401A603BE0A64B5B68C0225202134056
:102E6000802252029342E7D1A14B1B689B0303D5FA
:102E70006368002B00D153E223689B0777D59C4BF6
:102E80005B680C221A4262D0994B5A680C2313409B
:102E9000082B53D0E368002B00D18AE0944A1368D2
:102EA00001210B43136000F027FC0500904B1B68C9
:102EB0009B0775D400F020FC401B0228F6D90320A4
:102EC0002CE28B4A116880235B020B43136063681A
:102ED000002B25D000F010FC0500854B1B689B03E0
:102EE000CAD400F009FC401B6428F6D9032015E27F
:102EF000052B09D07E4B1A687E490A401A601A6871
:102F00007D490A401A60E2E7794B19688022D202B3
:102F10000A431A601968802252020A431A60D6E7EF
:102F200000F0EAFB0500724B1B689B03A4D500F080
:102F3000E3FB401B6428F6D90320EFE16C4B5B6890
:102F4000C02252021340802212029342A2D1684B47
:102F50001B689B0703D5E368012B00D0E2E16449BD
:102F60000B68F82293432269D20013430B60236855
:102F70001B0744D5E369002B2ED05D4A536A01211B
:102F80000B43536200F0B8FB0500594B5B6A9B078B
:102F900035D400F0B1FB401B0228F6D90320BDE177
:102FA00053490B68F82293432269D20013430B6004
:102FB000DDE74F4A136801218B43136000F09CFB4F
:102FC00005004B4B1B689B07D1D500F095FB401BC0
:102FD0000228F6D90320A1E1454A536A01218B4317
:102FE000536200F089FB0500414B5B6A9B0706D5E5
:102FF00000F082FB401B0228F6D903208EE12368F3
:103000005B0700D480E03A4BDB69DB001DD4384A13
:10301000D169802040050143D161D3690340019308
:10302000019B0125354B1B68DB0510D5A368012BDF
:1030300021D0002B36D12E4B1A6A01218A431A6205
:103040001A6A03318A431A621AE00025EAE72B4A1A
:10305000116880235B000B43136000F04DFB0600FA
:10306000264B1B68DB05E1D400F046FB801B64287F
:10307000F6D9032052E11E4A136A01210B43136261
:10308000A368002B24D000F037FB0600184B1B6A06
:103090009B0737D400F030FB801B194B9842F5D9C1
:1030A00003203BE1052B09D0114B1A6A01218A4309
:1030B0001A621A6A03318A431A62E1E70C4B1A6AF0
:1030C00004210A431A621A6A03390A431A62D7E7CB
:1030D00000F012FB0600064B1B6A9B0712D500F09E
:1030E0000BFB801B064B9842F5D9032016E1C04626
:1030F00000100240FFFFFEFFFFFFFBFF00700040DB
:1031000088130000012D39D02368DB0610D56369D0
:10311000012B39D0053357D1894A536B04218B4396
:103120005363536BF4318B43A169C9000B43536361
:1031300023689B066ED5824B5A680C2313400C2BD8
:1031400060D07F4B5A680C231340082B53D0236A5E
:10315000002B7ED07A4A516B80235B020B43536372
:1031600000F0CAFA0500764B5B6BDB0352D400F02B
:10317000C3FA401B0228F6D90320CFE0704AD36976
:1031800070490B40D361BFE76D4B5A6B04210A4372
:103190005A635A6B03390A435A6300F0ADFA0500CB
:1031A000674B5B6B9B0706D400F0A6FA401B022816
:1031B000F6D90320B2E062494B6BF8229343A2692F
:1031C000D20013434B63B3E75D4B5A6B04210A43B0
:1031D0005A635A6B03398A435A6300F08DFA05002B
:1031E000574B5B6B9B07A3D500F086FA401B022868
:1031F000F6D9032092E0524B5B68C0225202134082
:103200009342A4D14E4B5B6BDB0303D5236A012BA6
:1032100000D089E0636A002B00D187E0484A5168FA
:103220000C220A40082A60D0022B25D0444A136899
:1032300045490B40136000F05FFA0400404B1B68E7
:103240009B0150D500F058FA001B0228F6D9032044
:1032500064E03B4A536B3D490B40536300F04CFA2A
:103260000500374B5B6BDB03D4D500F045FA401B00
:103270000228F6D9032051E0314A136832490B4045
:10328000136000F039FA05002D4B1B689B0106D531
:1032900000F032FA401B0228F6D903203EE0284B0A
:1032A000DA6A0F218A43216B0A43DA625A68284995
:1032B0000A40E16AA06A01430A435A601968802201
:1032C00052040A431A6000F017FA04001C4B1B68F2
:1032D0009B0106D400F010FA001B0228F6D9032047
:1032E0001CE000201AE0002018E0012B20D0144B35
:1032F0005A68D96AC0235B021340A06A834219D17D
:103300000F230B40216B8B4216D1F0239B031A40F5
:10331000E36A9A4212D1002000E0012002B070BDA1
:103320000120FBE70120F9E70120F7E70020F5E79E
:103330000120F3E70120F1E70120EFE70120EDE7AD
:1033400000100240FFFFFFEFFFFFFFFEFFFFFEFF49
:10335000FF7FC2FF10B588B004AA1E4B13CB13C267
:103360001B6813606A461C4B13CB13C21B681360A7
:103370001A4B5A680C231340082B04D00C2B26D16F
:10338000174808B010BD910C0F23194004A8445CE5
:103390001249C96A0B406946C95CC0235B021A40E6
:1033A00080235B029A4208D0C0235B029A4209D074
:1033B0000C48FCF785FE6043E3E70A48FCF780FE13
:1033C0006043DEE70648FCF77BFE6043D9E705482B
:1033D000D7E7C046CC570008E0570008001002406D
:1033E000006CDC0200127A0070B504000D000028A9
:1033F00000D186E0474B1A68012313408B420AD262
:1034000044490B68012293432B430B600B681A401D
:10341000AA4200D077E023689A070ED55B0705D54E
:103420003D4A5168E023DB000B4353603A4A53683E
:10343000F0218B43A1680B4353602368DB0735D52C
:103440006368012B09D0022B24D0032B28D0324AE9
:103450001268920705D4012052E02F4A12689203A5
:1034600053D52D494A680320824313434B6000F033
:1034700043F90600284B5B680C221A4063689B00E6
:103480009A4213D000F038F9801B244B9842F1D9AE
:10349000032035E0204A12689201E2D401202FE097
:1034A0001D4A526BD203DCD4012029E0194B1A6863
:1034B00001231340AB4209D916490B6801229343FB
:1034C0002B430B600B681A40AA4220D123685B078C
:1034D00006D5114A536812490B40E1680B4353600B
:1034E000FFF738FF0C4B5A6812090F2313400D4A9F
:1034F000D35CD8400C4B1860002000F0B9F80020D5
:1035000070BD0120FCE70120FAE70120F8E7012067
:10351000F6E7C04600200240001002408813000079
:10352000FFF8FFFFF45700087C00002070B582B060
:1035300004000368DB0337D5474BDB69DB005DD450
:10354000454AD169802040050143D161D3690340D8
:103550000193019B0125414B1B68DB0550D53E4B78
:103560001A6AC0239B00110019401A4213D06268E6
:1035700013408B420FD0384B186A394A02401E6AFA
:103580008021490231431962196A364E314019626D
:103590001A62C30748D4304A136A31490B40616844
:1035A0000B431362012D4ED02368DB0706D52A4A50
:1035B000136B03218B43A1680B43136323689B06A2
:1035C00006D5254A136B10218B43E1680B43136327
:1035D00023689B0306D5204A136B80218B436169C6
:1035E0000B43136323685B0532D51B4A136B4021E1
:1035F0008B4321690B43136300202AE00025AAE7CF
:10360000164A116880235B000B43136000F074F8C6
:103610000600124B1B68DB05A1D400F06DF8801B7F
:103620006428F6D9032014E000F066F806000A4B7F
:103630001B6A9B07AFD400F05FF8801B0A4B9842CF
:10364000F5D9032005E0D36908490B40D361ABE706
:10365000002002B070BDC046001002400070004063
:10366000FFFCFFFFFFFFFEFF88130000FFFFFFEFDF
:1036700010B504000F4B1978FA208000FCF720FDEC
:1036800001000D4B1868FCF71BFD00F0DFF9002866
:103690000DD1032C01D901200AE0013000222100C4
:1036A000404200F097F9054B1C60002000E001202B
:1036B00010BDC046740000207C000020780000206F
:1036C00010B5064A136810210B4313600020FFF762
:1036D000CFFFFEF721FA002010BDC04600200240B7
:1036E000034A1168034B1B785B1813607047C04690
:1036F000500B002074000020014B18687047C04632
:10370000500B002070B50400FFF7F6FF0500631CA6
:1037100002D0044B1B78E418FFF7EEFF401BA042D9
:10372000FAD370BD74000020F0B5D6464F46464629
:10373000C0B582B0002371E084683C40A446CC68E8
:10374000B44065462C4384604468944322004C682E
:103750002409A446012465462C409C40144344603F
:10376000C26817408A68B2403A43C2604A68D200D1
:1037700053D5504CA66901221643A661A469224084
:103780000192019A9A08941CA4004B4EA759032455
:103790001C40A4000F26A640B7439026F605B04271
:1037A0007ED0464EB0427DD0454EB04276D0052602
:1037B000A64034003C43023292003F4E9451414AAD
:1037C00014684A46D24326004D46AE434D68ED0389
:1037D00002D54D462C4326003A4C266064682600EC
:1037E00016404D68AD0302D54D462C432600354C9E
:1037F0006660A468260016404D68ED0202D54D466D
:103800002C4326002F4CA660E46822404D68AD0290
:1038100001D54A4622432B4CE26001330C6822005A
:10382000DA4041D001229A4025001540A9461442B1
:10383000F3D04C68022C01D0122C0ED1DC080834D5
:10384000A400275807261E40B6000F25B540AF43F9
:103850000D69B5402E003E4326500468A4465E0024
:103860000324A2462700B740B846FF4365464446B6
:10387000A543AC464C68554625402C00B4406546EF
:103880002C4304604C68651E012D00D854E7112CB0
:1038900000D151E7122C00D062E74DE7022687E7FE
:1038A000002685E7012683E702B01CBC90469946B6
:1038B000A246F0BD00100240000001400004004894
:1038C0000008004800040140F0B5CE46474680B5E8
:1038D0008946002323E00221884601E00021884632
:1038E0004146A140A94240D004685E000325B5408E
:1038F000AC430460DC080834A400275807261E40A7
:10390000B6000F21B1408F4327508468AC438460D8
:10391000446894434460C268AA43C26001334A4683
:10392000DA4037D001229A404C461440A44649461A
:103930001142F3D09F08BC1CA400184D6559032404
:103940001C40A4000F26A64035409021C90588429E
:10395000C4D01349884205D012498842BBD0052102
:103960008846BDE701218846BAE70F4C25686146C5
:103970008D43256065688D436560A5688D43A560AE
:10398000E5688D43E5600549BC1CA4006558B54356
:103990006550A9E70CBC90469946F0BD0000014077
:1039A000000400480008004800040140002A01D03B
:1039B000816170478162FCE710B5054B5B69184275
:1039C00000D110BD024B5861FDF756FEF9E7C04625
:1039D0000004014070B5002811DB8308134EC0338A
:1039E0009B009D5903242040C000FF221400844006
:1039F000A54389010A4082402A439A5170BD0F2392
:103A00000340083B9B0806339B00094A94466344E5
:103A10005C6803221040C000FC3215008540AC43B6
:103A200089010A40824022435A60E7E700E100E052
:103A300000ED00E0002805DB1F2318401E3B8340FB
:103A4000014A13607047C04600E100E0013880235E
:103A50005B0498420FD2094A50600948036A1B026E
:103A60001B0AC02109060B4303620023936007333E
:103A70001360002070470120FCE7C04610E000E022
:103A800000ED00E030B5036A046A0125AC4304622E
:103A90008469EF35AC43120122430A24A3430B434C
:103AA0008261036230BD000030B5036A1024A34375
:103AB00003628469036A054D2C4012032243A0244B
:103AC000A343090119438261016230BDFF0FFFFF6B
:103AD0008368702293430B4307210B438360704735
:103AE0007047704770477047704710B5040003680F
:103AF0001A6992070FD5DA6892070CD50322524251
:103B00001A610123037703689B699B0763D0FFF762
:103B1000E9FF0023237723681A69520712D5DA6870
:103B200052070FD5052252421A61022323772368D8
:103B30009A69C0239B001A4253D02000FFF7D2FF9E
:103B40000023237723681A69120710D5DA68120751
:103B50000DD5092252421A61042323772368DB69B9
:103B60009B0745D02000FFF7BDFF00232377236884
:103B70001A69D20612D5DA68D2060FD5112252423E
:103B80001A61082323772368DA69C0239B001A424D
:103B900035D02000FFF7A6FF0023237723681A699A
:103BA000D20702D5DA68D20730D423681A69120620
:103BB00002D5DA68120630D423681A69520602D593
:103BC000DA68520630D423681A69920602D5DA6898
:103BD000920630D410BDFFF784FF2000FFF783FF6B
:103BE00097E72000FFF77DFF2000FFF77CFFA7E7A6
:103BF0002000FFF776FF2000FFF775FFB5E72000F4
:103C0000FFF76FFF2000FFF76EFFC5E70222524269
:103C10001A612000FFF764FFC7E7812252421A6150
:103C2000200000F024F9C7E7412252421A61200027
:103C3000FFF75AFFC7E7212252421A61200000F025
:103C400015F9C7E703681E4A904206D08022D205C4
:103C5000904202D01B4A904203D1702293434A689B
:103C60001343174A90420FD08022D20590420BD0C6
:103C7000144A904208D0144A904205D0134A904208
:103C800002D0134A904203D1124A1340CA68134328
:103C9000802293434A69134303608B68C3620B68B5
:103CA0008362074B984205D0084B984202D0084BDC
:103CB000984201D10B690363012343617047C046F9
:103CC000002C01400004004000200040004401405E
:103CD00000480140FFFCFFFF70B5041E14D03D23D7
:103CE000C35C002B0AD03D2502236355210001C986
:103CF000FFF7A8FF01236355002070BD3C3300226D
:103D0000C254FDF737FFEEE70120F6E730B58468CF
:103D1000034D2C401B0213430B432343836030BDF0
:103D2000FF00FFFF10B504003C23C35C012B66D0ED
:103D30003C230122C25401330132C2540268936809
:103D40003048034093600B68602B44D024D8402B4C
:103D50004BD00BD9502B0ED1CA6849682068FFF7A9
:103D600091FE50212068FFF7B3FE04E0202B0ED017
:103D700009D9302B0BD03D230122E254013B002214
:103D8000E254002010BD002B01D0102BF3D11900FC
:103D90002068FFF79DFEEEE7702B10D08022920185
:103DA0009342E8D1CB684A6889682068FFF7AEFF84
:103DB000226891688023DB010B439360DBE7CB68CB
:103DC0004A6889682068FFF7A1FF22689368772115
:103DD0000B439360CFE7CA6849682068FFF764FE29
:103DE00060212068FFF774FEC5E7CA68496820684B
:103DF000FFF748FE40212068FFF76AFEBBE702207C
:103E0000C0E7C0468800FFFF30B53C23C35C012BF0
:103E100025D03C230122C25401330132C25403682D
:103E20005A689C687025AA430D682A435A60036843
:103E30000C4A934206D08022D205934202D00A4A0D
:103E4000934204D1802294434A6814439C603D23EA
:103E50000122C254013B0022C254002030BD022086
:103E6000FCE7C046002C014000040040704770474A
:103E7000704710B5002816D0AD239B00C358002B07
:103E800003D0AD239B000024C450002902D0AC23F2
:103E90009B00C150A7239B000121C1540270FDF774
:103EA000BBFC002010BD0220FCE7002904D0AD239C
:103EB0009B00C150002070470220FCE710B5FDF7C1
:103EC000E5FC002010BD10B5AD239B00C358002BAE
:103ED00006D01B689847002800D110BD0220FCE7DF
:103EE0000220FAE710B5AD239B00C3585B689847E2
:103EF000002010BD70B50400AA239B00C51828003F
:103F000000F064F9A5239B000122E250114BE25A14
:103F1000163BE2501033E15C1F230B40012B0FD006
:103F2000022B12D0002B05D07F2399432000FDF7F0
:103F3000D4FC03E02900200000F022FB002070BD2B
:103F40002900200000F052FBF8E72900200000F0D3
:103F500080FBF3E7AE02000070B505000C00110015
:103F6000002C38D1A5239B00C358032B03D0052B6D
:103F700028D020003DE002005532FF32D36812699C
:103F800093420DD99B1A5530FF30C3609A4205D930
:103F90009AB2280000F098FC20002AE092B2F8E7DC
:103FA000AD239B00C3581B69002B04D0A7229200AD
:103FB000825C032A04D0280000F08EFC200018E068
:103FC0009847F8E7A5239B000022C2500021FDF787
:103FD00084FC20000DE0AD239B00C3589B69002B9F
:103FE00008D0A7229200825C032A05D121009847BD
:103FF000002070BD0220FCE70220FAE7F8B50500BA
:104000000C001100002C5BD1A5239B00C358022B90
:104010000ED0042B01D0002B03D180212800FDF706
:104020005CFCA8239B00EB5C012B43D02000F8BD77
:10403000026A466AB24220D8C76931003800FCF7EC
:104040007BF8002906D1BE4204D8A6239B00EB587A
:104050009F421ED3AD239B00EB58DB68002B04D09E
:10406000A7229200AA5C032A21D080212800FDF714
:1040700034FC280000F03CFCD3E7921B026292B2B1
:1040800000F01AFC0023002200212800FDF75EFC4E
:10409000C7E70022280000F00FFCA6239B000022A7
:1040A000EA50002300212800FDF750FCB9E7280062
:1040B0009847DAE7A8239B000022EA542000B6E7DD
:1040C000AD239B00C3585B69002B08D0A722920048
:1040D000825C032A05D1210098470020A7E702202F
:1040E000A5E70220A3E770B50400402300220021C9
:1040F000FDF7D5FB0125AC235B00E55040260C33D2
:10410000E650253BFF3B002280212000FDF7C7FB46
:10411000A5616662A7239B00E5540023A5229200B7
:10412000A35063601032A350AE239B00E358002BD2
:1041300006D0AD239B00E3585B6800212000984720
:10414000002070BD0174002070470000A7239B0071
:10415000C15C034A81540422C25400207047C04607
:104160009D020000A7239B00C35C042B01D000200C
:104170007047024BC25C013BC254F8E79D0200004D
:1041800010B5A7239B00C35C032B01D0002010BDFA
:10419000AD239B00C358DB69002BF7D09847F5E7A8
:1041A000030000201A78002A03D00130C0B2013386
:1041B000F8E7704710B54B88012B00D010BDA9233C
:1041C0009B000122C25000F087FBF7E70B780370D9
:1041D0004B7843708B78CA7812029B1843800B7916
:1041E0004A7912029B1883808B79CA7912029B1834
:1041F000C380704710B504008021FDF76EFB0021DD
:104200002000FDF76AFB10BD30B583B005000C003F
:104210006B460022DA804A88130A072B00D9B6E0E1
:104220009B006549CB589F46AC239B00C3581B6835
:10423000007C6A46911D98476B4606331B88002B0D
:1042400003D0E288002A00D0A6E0E388002B00D14A
:10425000AEE003B030BD037C002B09D1AD239B0041
:10426000C3589B6A6A46901D984702234370E3E750
:10427000AD239B00C358DB6A6A46901D9847022312
:104280004370D9E7D2B2052A5DD892004B4B9B58B8
:104290009F46AC239B00C3585B68002B04D0007C76
:1042A0006A46911D9847C7E72100FFF7A3FFD0E7B3
:1042B000AC239B00C3589B68002B04D0007C6A464B
:1042C000911D9847B8E72100FFF794FFC1E7AC23A1
:1042D0009B00C358DB68002B04D0007C6A46911D0C
:1042E0009847A9E72100FFF785FFB2E7AC239B00C1
:1042F000C3581B69002B04D0007C6A46911D984767
:104300009AE72100FFF776FFA3E7AC239B00C35891
:104310005B69002B04D0007C6A46911D98478BE7AF
:104320002100FFF767FF94E7AC239B00C3589B690C
:10433000002B04D0007C6A46911D98477CE7210041
:10434000FFF758FF85E72100FFF754FF81E7037C63
:10435000002B07D1AD239B00C3585B6B6A46901DB1
:10436000984769E72100FFF745FF72E7037C002BC0
:1043700009D1AD239B00C3581B6B6A46901D98471B
:104380000723437058E72100FFF734FF61E721005E
:104390002800FFF72FFF5CE7191C934200D9111C7E
:1043A0008AB26B46D9800100280000F077FA4CE70A
:1043B000280000F091FA4CE704580008245800083F
:1043C00070B504008B88002B23D1CB88002B20D123
:1043D0004B887F2B1DD87F251D40A7239B00C35CE6
:1043E000032B0ED00D4BC5542900FDF79DFA20007C
:1043F00000F072FA002D07D0A7239B000222E2549E
:104400000AE0FFF7F7FE07E0A7239B000122E25432
:1044100002E02000FFF7EEFE70BDC0469E020000E5
:1044200070B504000D0089782A4B197001290FD846
:10443000A7239B00C35C022B0ED0032B23D02900A3
:10444000FFF7D8FE234B19782000FFF74BFD02E061
:104450002900FFF7CFFE70BD002911D04160A723CE
:104460009B000322C254FFF72EFD022803D0200038
:1044700000F032FAEFE729002000FFF7BBFEEAE781
:1044800000F02AFAE7E7002911D0436899421ED0CC
:10449000D9B2FFF727FD0F4B197861602000FFF7B5
:1044A00012FD02280ED0200000F016FAD3E7A72351
:1044B0009B000222C2544160FFF714FD200000F06F
:1044C0000BFAC8E729002000FFF794FEC3E700F0CD
:1044D00003FAC0E7B403002010B5CB88012B0BD141
:1044E000A7239B00C35C022B09D9032B09D1011D13
:1044F000012200F0D3F901E0FFF77CFE10BD002B94
:1045000002D1FFF777FEF9E700238360010008314D
:10451000012200F0C3F9F1E710B5A7239B00C35CAB
:10452000013B022B14D8CB88022B0ED10123C36090
:10453000A9239B00C358002B01D00323C3600100B3
:104540000C31022200F0AAF910BDFFF753FEFBE781
:10455000FFF750FEF8E710B5A7239B00C35C013BB3
:10456000022B0AD84B88012B00D010BDA9239B0039
:104570000022C25000F0B0F9F7E7FFF73BFEF4E786
:1045800010B50A7860231340202B06D0402B04D0AE
:10459000002B09D0FFF72EFE04E0AD239B00C3588B
:1045A0009B689847002010BD4B78092B18D89B00BA
:1045B0000D4AD3589F46FFF727FEF3E7FFF700FFAA
:1045C000F0E7FFF72DFFEDE7FFF786FFEAE7FFF7DC
:1045D000A3FFE7E7FFF7EEFDE4E7FFF7BCFFE1E746
:1045E000FFF708FEDEE7C0463C58000870B505003E
:1045F0000C000A7860231340202B07D0402B05D0F5
:10460000002B03D0FFF7F6FD002070BDA7239B0011
:10461000EB5C013B022B17D82379012B0FD8AD237C
:104620009B00EB589B68210028009847E388002BEB
:10463000EAD10028E8D1280000F04EF9E4E7210093
:104640002800FFF7D7FDDFE721002800FFF7D2FDA4
:10465000DAE770B5050088880A790B7860241C4079
:10466000202C08D0402C06D0002C0DD02800FFF7BD
:10467000C1FD002406E0AD239B00EB589B68280099
:1046800098470024200070BD202C0AD04E78012EBF
:104690003ED0032E0DD0002E64D02800FFF7AAFDD7
:1046A000F0E7AD239B00EB589B6828009847040077
:1046B000E8E7A7239B00EB5C022B05D0032B14D06B
:1046C0002800FFF797FDDDE7002A01D0802A03D1FB
:1046D0002800FFF78FFDD5E711002800FDF7FDF852
:1046E00080212800FDF7F9F8CCE74B88002B06D194
:1046F000002A04D0802A02D0CB88002B03D02800C7
:1047000000F0EAF8BEE711002800FDF7E6F8F6E74A
:10471000A7239B00EB5C022B05D0032B14D02800B1
:10472000FFF768FDAEE7002A01D0802A03D12800F8
:10473000FFF760FDA6E711002800FDF7CEF8802105
:104740002800FDF7CAF89DE74B88002B9AD1530645
:1047500003D1280000F0C0F894E711002800FDF70D
:10476000C5F8F6E7A7239B00EB5C022B06D0032BD2
:1047700029D02800FFF73EFD340083E7002A01D04E
:10478000802A12D1030615D47F210A40910089188E
:1047900089005131FF316918043100230B60022276
:1047A000280000F07BF834006CE72800FFF722FDBA
:1047B000340067E77F210A40910089188900103191
:1047C00069180431E9E744B2030622D40F201040EF
:1047D00083001B189B00EB185933FF331B68002B19
:1047E00025D0002C28DB7F2313409C00E418A40074
:1047F0005134FF342C190434002A01D0802A24D1EA
:104800000023236002222100280000F047F8340032
:1048100038E70F20104083001B189B00EB189B69A2
:10482000002BDED12800FFF7E5FC34002AE7280042
:10483000FFF7E0FC340025E77F2313409C00E418D9
:10484000A40010342C190434D6E711002800FDF719
:1048500056F8002802D001232360D3E70023236009
:10486000D0E770B504000D001600002815D0FFF742
:1048700097FC013040003080287003236B70013BAF
:1048800008E001345A1CD2B2E8540233DBB2AA1851
:104890000021117020780028F3D170BD10B51300ED
:1048A000A522920002248450C36103620A00002101
:1048B000FDF743F8002010BD10B513000A000021D9
:1048C000FDF73BF8002010BD10B513000A000021D1
:1048D000FDF73CF8002010BD10B5A5239B00042275
:1048E000C250002300220021FDF727F8002010BD50
:1048F00010B5A5239B000522C250002300220021F1
:10490000FDF724F8002010BD2023038000487047E5
:10491000D80000202023038000487047B800002002
:104920002023038000487047040100200A230380ED
:1049300000487047F800002070B50400037C002B8D
:104940001FD18026B600330002220121FCF7A7FF09
:104950000125B6235B00E5503300022281212000AF
:10496000FCF79DFFE5629B208000FCF7FFFFAE2374
:104970009B00E050002816D0200000F067F90020CE
:1049800070BD402302220121FCF789FF0125B623D7
:104990005B00E5502D3BFF3B022281212000FCF70C
:1049A0007EFFE562DFE70220EAE770B5040001213F
:1049B000FCF781FF0025B6235B00E5508121200034
:1049C000FCF779FFE562200000F078F9AE239B0048
:1049D000E058002805D0FCF7CDFFAE239B00002255
:1049E000E250002070BDF0B5C64600B582B00500AB
:1049F0000C00AE239B00C35898466B460022DA8019
:104A00000B78603216001E401A423BD0202E00D098
:104A1000C0E04A78FE2A05D0FF2A20D0FFF7EAFB43
:104A20000226BAE04A88002A02D1CA88012A05D0A3
:104A300021002800FFF7DEFB0226AEE05BB2002B70
:104A4000F6DAAF239B00C3589B699847434618602A
:104A5000012241462800FFF721FF00269DE04A88F9
:104A6000002A09D1CA88002A06D15BB2002B03DBD9
:104A700000F012F9002690E021002800FFF7BAFBB1
:104A800002268AE04F780A2F48D02CD8002F35D044
:104A9000012F79D10979FCF717FF21792800FCF75C
:104AA0000AFFA3880422A256002A4ADB0F221A40DA
:104AB00093009B189B00EB185933FF3300221A60B8
:104AC0002B7C002B59D180339B000232012128001E
:104AD000FCF7E5FEB6235B000122EA5021792800AD
:104AE00000F0B2F959E00B2F4ED1A7239B00C35C15
:104AF000032B22D18B78424653604EE0A7239B00C4
:104B0000C35C032B03D0FFF775FB022645E00222AE
:104B10006B46991DFFF7C2FE3E003EE0A7239B00B7
:104B2000C35C032B03D0FFF765FB022635E041464B
:104B300004310122FFF7B2FE2FE0FFF75BFB0226F4
:104B40002BE00F2213409A00D3189B00EB18002291
:104B50009A612B7C002B09D180339B00023281218A
:104B60002800FCF79CFE0123EB62B7E740230222FA
:104B700081212800FCF793FEF5E740230222012162
:104B80002800FCF78CFEA5E721002800FFF732FB88
:104B9000022602E0FFF72EFB0226300002B004BC22
:104BA0009046F0BD10B500F0AFF8002010BD10B574
:104BB00000F02AF9002010BD002902D0AF239B008D
:104BC000C1500020704770B51300AE229200825889
:104BD0008524A40015591C009D4200D2ABB28D253E
:104BE000AD005659341B54518E24A4000025155590
:104BF000042414720A008121FCF79FFE70BD70B579
:104C00000400AE239B00C558A03BEB5C002B07D1F2
:104C100085239B00EB58002B02D06B7A002B07D02A
:104C200081212000FCF759FE6B7A022B04D070BD65
:104C30000121FCF752FEF3E783239B00EA18EE3BC9
:104C4000FF3B01212000FCF781FEF0E770B5040076
:104C5000AE239B00C55800232B726B720D4AAB54D8
:104C6000013AAB54AF239B00C3581B680020984700
:104C700001212000FCF728FE81212000FCF724FE02
:104C800083239B00EA18EE3BFF3B01212000FCF749
:104C90005DFE70BD5D02000010B5AE239B00C258E2
:104CA000002313720133537283239B009C4662449A
:104CB000EE3BFF3B0121FCF749FE10BDAE239B00FC
:104CC000C35800221A72704770B50500AE239B00CE
:104CD000C4588C3B0B4AE2500C33E154002323723E
:104CE0008B239B00E2180D238121FCF726FE8323F2
:104CF0009B00E218EE3BFF3B01212800FCF726FE5B
:104D000070BDC0465553425310B50400AE239B00FE
:104D1000C1580B7A022B08D006D3033BDBB2012B20
:104D200002D80021FFF7D0FF10BD064BCA18064B72
:104D3000C95C00F0C3FB0028F6DA01212000FFF770
:104D4000C3FFF1E71B0200001902000070B5050067
:104D5000AE239B00C458A83BE2582033E2501C3BD2
:104D6000E2582033E2500121FCF7F9FD1F2805D15C
:104D700083239B00E258204B9A420DD01F4BE15CED
:104D8000FA3BFF3B0522280000F006F9022363727C
:104D90002800FFF734FF70BD184BE15C0129EDD806
:104DA000174BE35C002BE9D0102BE7D8154BE2182A
:104DB000280000F083FB00280DDB237A013BDBB2E7
:104DC000022BE8D96289002A11D021000C31280079
:104DD000FFF7F9FEDFE7237A052B03D02800FFF762
:104DE0000EFFD8E701212800FFF76EFFD3E700216F
:104DF0002800FFF769FFCEE7555342431902000030
:104E00001A0200001B02000010B50400AE239B0034
:104E1000C1580B7A002B02D0012B03D010BDFFF735
:104E200095FFFBE7064BCA18064BC95C00F046FB32
:104E30000028F3DA01212000FFF746FFEEE7C04625
:104E40001B0200001902000010B5AE239B00C458DD
:104E5000637A022B08D049B2002904DA012B02D070
:104E60000121FFF731FF10BD8121FCF736FD002342
:104E70006372F8E710B5AE239B00C4585378DB0784
:104E80000CD50723638105E0013B9BB20F4AD15C3F
:104E9000E2181173002BF7D1002010BDAF239B0047
:104EA000C358D869CB0059188900401801790531D9
:104EB00013798B4200D90B006381002BECD0013BAE
:104EC0009BB2C15CE2181173F7E7C0467458000842
:104ED000AE239B00C0580823438105E0013B9BB2F1
:104EE000034AD15CC2181173002BF7D10020704720
:104EF0006C580008AE239B00C0580823438105E08E
:104F0000013B9BB2034AD15CC2181173002BF7D14D
:104F1000002070476458000810B5AE239B00C458A9
:104F20000023112B05D8E118002008730133DBB2F0
:104F3000F7E770232373643BE37497239B00E35CE0
:104F40001049615C8B4210D019004731C9006118CB
:104F50000879A073487A2076097A61760133DBB24A
:104F6000972189006354042B07D01223638113799E
:104F7000122B00D86381002010BD0B000021E154EA
:104F8000F3E7C0465D020000AE239B00C358002239
:104F90005A8100207047000010B5AE239B00C05816
:104FA000084C035D19004731C90041180A710022FD
:104FB0000A720133DBB20355042B00D010BD025539
:104FC000FCE7C0465D02000070B504000E00AE2391
:104FD0009B00C558A43BEB58002B0AD1AF239B0084
:104FE000C3589B680800984700280CD100236B81A8
:104FF00070BD0A4BE95CFA3BFF3B0522FFF7CCFF93
:1050000001204042F4E73A23022231002000FFF75A
:10501000C3FF05232B7201204042E9E7190200007B
:10502000F0B583B006000F00AE239B00C5580023E7
:105030000B2B05D8EA180024147301339BB2F7E751
:10504000AF239B00F3585B686A4606326946380016
:105050009847002819D10823EB73009A531E190EA4
:105060002974190C69741B0AAB74013AEA7402239F
:105070002B756B4606331B8800226A751A0AAA75BF
:10508000EB750C236B8103B0F0BD3A23022239008B
:105090003000FFF781FF01204042F4E770B50500C2
:1050A0000E00AE239B00C4580433C3585B68144AF7
:1050B000A21898218900611830009847002816D15D
:1050C00098239B00E258531E190E2173190C61732B
:1050D0001B0AA373013AE273094BE35A00222274BC
:1050E00062741A0AA274E3740823638170BD3A23C0
:1050F000022231002800FFF74FFF01204042F5E770
:105100005E02000010B5AE24A4000459D218982302
:105110009B00E3589A4201D8002010BD21230522AC
:10512000FFF73AFF01204042F7E70000F8B5CE460E
:10513000474680B506008846AE239B00C458503BC6
:10514000E558234BE15A4D435E3B9D4200D91D007B
:10515000AF239B00F3581B69994627000C372800A2
:10516000FAF7AEFF83B299229200A2583900404666
:10517000C84700281DDBABB23A0081213000FCF7A4
:10518000DCFB134BE15A2800FAF79AFF99229200B0
:10519000A3581B18A3509A239B00E258101AE05002
:1051A000343BE258551BE55000280BD103232372F2
:1051B00009E01123042241463000FFF7EDFE0120F3
:1051C000404200E000200CBC90469946F8BDC04625
:1051D0005E020000F8B506000F001500AE239B002C
:1051E000C458237A002B32D186239B00E356002B30
:1051F00035DAAF239B00C3589B6808009847002806
:1052000037D1AA781206EB781B041A432B791B02BC
:105210001A436B791A4399239B00E250EB791B02E6
:10522000297A0B439A218900635039003000FFF737
:1052300069FF002831DB0223237285239B00E2589B
:105240005433E158164BE35A4B439A421AD1802308
:105250009B00638139003000FFF768FFF8BD114BF8
:10526000E15CFA3BFF3B0522FFF796FE012040423E
:10527000F4E73A23022239003000FFF78DFE0120C7
:105280004042EBE7074BE15CFA3BFF3B0522300075
:10529000FFF782FE01204042E0E701204042DDE7C7
:1052A0005E02000019020000F8B5CE46474680B500
:1052B00006008846AE239B00C458503BE558284B57
:1052C000E15A4D435E3B9D4200D91D00AF239B0038
:1052D000F3585B69994627000C372800FAF7F0FE6F
:1052E00083B299229200A25839004046C84700284C
:1052F0001BDB1B4BE35A984619002800FAF7E0FE27
:1053000099229200A3581B18A3500432A3581B1AC9
:10531000A350343AA1584D1BA550002B0ED10021AB
:105320003000FFF7D1FC002016E0032304224146A1
:105330003000FFF731FE012040420DE0424653436A
:1053400080229200934200D913009BB23A000121BF
:105350003000FCF7FBFA00200CBC90469946F8BDE3
:105360005E020000F0B5C64600B50600884615008E
:10537000AE239B00C458237A002B00D072E0862312
:105380009B00E356002B46DBAF239B00C3589B6872
:1053900008009847002848D1AF239B00F358DB68EA
:1053A00040469847071E49D1AA781206EB781B049D
:1053B0001A432B791B021A436B791A4399239B00DA
:1053C000E250EB791B02297A0B439A218900635042
:1053D00041463000FFF796FE002847DB9A239B00EA
:1053E000E258244BE35A534385229200A2589A4232
:1053F0002DD180229200934200D913000122227203
:1054000022000C329BB201213000FCF79FFA3800D9
:1054100004BC9046F0BD184BE15CFA3BFF3B052213
:10542000FFF7BAFD01277F42F1E73A230222414606
:105430003000FFF7B1FD01277F42E8E72723022272
:1054400041463000FFF7A8FD01277F42DFE70A4B06
:10545000E15CFA3BFF3B05223000FFF79DFD012791
:105460007F42D4E7FFF720FF0700D0E701277F4204
:10547000CDE7C0465E0200001902000010B5AE2361
:105480009B00C45853789B070DD49A239B00E35884
:1054900099229200A258FFF735FE00280ADB00236C
:1054A0006381002010BD24230522FFF775FD012034
:1054B0004042F7E701204042F4E7000010B51378BE
:1054C0005A2B33D89B001D4CE3589F46FFF77CFDB9
:1054D000002010BDFFF720FD0020FAE7FFF7CAFC0F
:1054E0000020F6E7FFF750FD0020F2E7FFF74CFD44
:1054F0000020EEE7FFF7ECFC0020EAE7FFF7FAFCFC
:105500000020E6E7FFF78CFD0020E2E7FFF7C6FD8D
:105510000020DEE7FFF75EFE0020DAE7FFF722FF5C
:105520000020D6E7FFF7AAFF0020D2E720230522BC
:10553000FFF732FD01204042CBE7C0467C5800080F
:1055400070B504000268D368A0218B43D360FEF7D6
:10555000D3F805002368DB689B0608D4FEF7CCF877
:10556000401BFA239B009842F4D9032000E000205E
:1055700070BD70B504000368DA68520601D50020DA
:1055800070BD01225242DA60FEF7B6F805002368CA
:10559000DB685B0608D4FEF7AFF8401BFA229200E6
:1055A0009042F4D90320EBE70020E9E770B5041E30
:1055B00057D0437F002B3DD0022363772368CA2254
:1055C0005A622368773A5A622000FFF7D2FF051E1D
:1055D00034D12268936824490B40936021688A681B
:1055E0006368206903436069034313438B60236846
:1055F000E2681A6121680B69A268120413430B6107
:105600002268D36880218B43D36023689B689B0604
:105610001BD52268136C15490B4013642268136C68
:10562000A1690B4313642368FF225A620123637745
:10563000280070BD0377FCF78DFABDE72368FF22D1
:105640005A62042363770125F2E72000FFF778FF11
:105650000028DED02368FF225A62042363770125E5
:10566000E6E70125E4E7C046BFFF8FFFFFFFFBFF32
:105670001348854613480168090E134A914205D123
:105680001248134901601348134901601348144933
:10569000144A002302E0D458C4500433C4188C4286
:1056A000F9D3114A114C002301E013600432A242E5
:1056B000FBD3FEF7DDFB00F01DF8FBF783FFFEE7F1
:1056C00000180020040000001F0000001810024015
:1056D0000100000000000140000000000000002068
:1056E00024010020F059000824010020540B002060
:1056F000FEE7000070B500260C4D0D4C641BA41095
:10570000A64209D1002600F021F80A4D0A4C641B7C
:10571000A410A64205D170BDB300EB5898470136DE
:10572000EEE7B300EB5898470136F2E7E859000876
:10573000E8590008E8590008EC59000803008218ED
:10574000934200D1704719700133F9E7F8B5C046AC
:10575000F8BC08BC9E467047F8B5C046F8BC08BC0B
:045760009E467047AA
:1057640053544D3332204D6173732053746F7261FF
:105774006765000053544D6963726F656C656374AB
:10578400726F6E69637300004D534320436F6E66FE
:10579400696700004D534320496E74657266616306
:1057A40065000000008002021F00000053544D20D9
:1057B4002020202050726F647563742020202020E4
:1057C40020202020302E303102030405060708096A
:1057D4000A0B0C0D0E0F1010000000000102030450
:1057E40005060708090A0B0C0D0E0F100000000037
:1057F400000000000000000001020304060708097D
:105804008E430008284200085642000884420008DB
:105814008E4300088E4300084E4300086C43000882
:1058240092420008B0420008CE420008EC42000850
:105834000A43000828430008CE450008DA4500085A
:10584400E0450008D4450008E0450008BC450008D0
:10585400B6450008E0450008C8450008C2450008F0
:10586400000600000000000000000000000000002E
:105874000000000300808300CC5400082C5500086D
:105884002C550008D45400082C5500082C55000849
:105894002C5500082C5500082C5500082C550008E0
:1058A4002C5500082C5500082C5500082C550008D0
:1058B4002C5500082C5500082C5500082C550008C0
:1058C400DC5400082C5500082C5500082C55000801
:1058D4002C5500082C5500082C5500082C550008A0
:1058E400F4540008E45400082C5500082C55000812
:1058F400EC5400082C5500082C5500082C550008C1
:105904002C550008045500082C5500080C550008B7
:105914002C5500082C550008145500082C55000877
:105924001C5500082C5500082C5500082C5500085F
:105934002C550008245500082C5500082C55000847
:105944002C5500082C5500082C5500082C5500082F
:105954002C5500082C5500082C5500082C5500081F
:105964002C5500082C5500082C5500082C5500080F
:105974002C5500082C5500082C5500082C550008FF
:105984002C5500082C5500082C5500082C550008EF
:105994002C5500082C5500082C5500082C550008DF
:1059A4002C5500082C5500082C5500082C550008CF
:1059B4002C5500082C5500082C5500082C550008BF
:1059C4002C5500082C5500082C5500082C550008AF
:1059D4002C5500082C5500082C5500082C5500089F
:0459E400FC54000867
:0459E8007901000839
:0459EC00510100085D
:1059F0000400000079190008851900083D1A000804
:105A0000151A0008011A0008591A0008811A00081E
:105A1000120100020000004083042A570002010224
:105A200003010000040309041A0300000000000041
:105A30000000000000000000000000000000000066
:105A400000000000A91A0008AD1A0008BD1A0008DD
:105A5000C11A0008C51A0008C91A0008CD1A0008A2
:105A6000A8570008010000000400000000127A009E
:105A700039490008AB490008E74900080000000068
:105A800000000000A54B0008AF4B0008000000001C
:105A90000000000000000000094900081549000846
:105AA000214900082D49000809022000010104C015
:105AB0003209040000020806500507058102400073
:105AC000000705010240000009022000010104C096
