:020000040800F2
:1000000000180020F5560008C11E0008C31E000895
:1000100000000000000000000000000000000000E0
:10002000000000000000000000000000C51E0008E5
:100030000000000000000000C71E0008C91E0008E4
:100040007557000875570008755700087557000860
:10005000755700087557000875570008D11E00082D
:100060007557000875570008755700087557000840
:1000700075570008E91E00087557000875570008F5
:1000800075570008000000000000000075570008C8
:1000900000000000755700087557000875570008E4
:1000A00000000000755700087557000875570008D4
:1000B000755700080000000075570008F91E000879
:1000C00003B47146490840004900095E49008E4466
:1000D00003BC7047002934D00123002210B48842A9
:1000E0002CD301242407A14204D2814202D2090167
:1000F0001B01F8E7E400A14204D2814202D2490088
:100100005B00F8E7884201D3401A1A434C08A0422A
:1001100002D3001B5C0822438C08A04202D3001BC0
:100120009C082243CC08A04202D3001BDC082243D7
:10013000002803D01B0901D00909E3E7101C10BCFB
:10014000704701B5002000F00BF802BD0029F8D07F
:1001500003B5FFF7C1FF0EBC4243891A1847C046DA
:100160007047C04610B5064C2378002B07D1054BCD
:10017000002B02D0044800E000BF0123237010BD13
:10018000400100200000000038600008044B10B55A
:10019000002B03D00349044800E000BF10BDC04657
:1001A00000000000440100203860000870B588B0ED
:1001B0001422002103A805F003FB204B596980207D
:1001C000C002014359615A6902400192019A5A6979
:1001D000802189020A435A615B690B400293029BAA
:1001E0009024E40500220F21200003F005FD802368
:1001F0005B000393124E04960125059503A911484F
:1002000003F0B8FB0F230393049500230593069393
:1002100003A9200003F0AEFB602303930496059529
:1002200003A9200003F0A6FB00220021072003F011
:10023000F7FC072003F024FD08B070BD0010024059
:10024000000021100004004810B50848084B036066
:10025000402343603F3383608033C36000230361E6
:100260004361836104F0D6FC10BDC04698060020AF
:100270000028004030B587B01022002102A805F008
:100280009FFA08220021684605F09AFA0D4C0E4BA1
:10029000236000256560A560E56025616561A56155
:1002A000200003F03FFE80235B01029302A920009F
:1002B00003F05EFE009501956946200003F0CAFE3A
:1002C00007B030BDB8060020002C014084B070B5E6
:1002D0000490059106920793189C002C24D00C2CB6
:1002E00035D0012C50D0022C6BD0032C00D185E0EE
:1002F000042C00D19FE0052C00D1B9E0062C00D1E0
:10030000D3E0072C00D1EDE0082C00D107E1092C47
:1003100000D121E10A2C00D13BE10B2C00D155E1A9
:1003200070BC08BC04B018479025ED0501212800D9
:1003300003F0F0FB0221280003F0ECFB042128006D
:1003400003F0E8FB0821280003F0E4FBC7E7902551
:10035000ED0504A9280003F00DFB0EA9280003F009
:1003600009FB0221280003F0D5FB0821280003F037
:10037000D1FB01220121280003F03EFC00220421D0
:10038000280003F039FCACE79025ED0504A928000E
:1003900003F0F0FA0EA9280003F0ECFA022128007D
:1003A00003F0B8FB0821280003F0B4FB0022012170
:1003B000280003F021FC01220421280003F01CFC8A
:1003C00091E79025ED0509A9280003F0D3FA13A9B8
:1003D000280003F0CFFA0121280003F09BFB042141
:1003E000280003F097FB01220221280003F004FCFF
:1003F00000220821280003F0FFFB76E79025ED0599
:1004000009A9280003F0B6FA13A9280003F0B2FAEC
:100410000121280003F07EFB0421280003F07AFB71
:1004200000220221280003F0E7FB01220821280016
:1004300003F0E2FB5CE79025ED0504A9280003F03A
:1004400099FA13A9280003F095FA0221280003F075
:1004500061FB0421280003F05DFB0122012128003B
:1004600003F0CAFB00220821280003F0C5FB42E785
:100470009025ED0504A9280003F07CFA13A92800B3
:1004800003F078FA0221280003F044FB042128003D
:1004900003F040FB00220121280003F0ADFB012204
:1004A0000821280003F0A8FB28E79025ED0504A902
:1004B000280003F05FFA09A9280003F05BFA042181
:1004C000280003F027FB0821280003F023FB01226A
:1004D0000121280003F090FB00220221280003F0F4
:1004E0008BFB0EE79025ED0504A9280003F042FAE6
:1004F00009A9280003F03EFA0421280003F00AFBB2
:100500000821280003F006FB00220121280003F047
:1005100073FB01220221280003F06EFBF4E6902514
:10052000ED0509A9280003F025FA0EA9280003F01B
:1005300021FA0121280003F0EDFA0821280003F038
:10054000E9FA01220221280003F056FB00220421CF
:10055000280003F051FBDAE69025ED0509A92800F3
:1005600003F008FA0EA9280003F004FA012128007C
:1005700003F0D0FA0821280003F0CCFA002202216F
:10058000280003F039FB01220421280003F034FB8A
:10059000C0E69025ED050EA9280003F0EBF913A99C
:1005A000280003F0E7F90121280003F0B3FA022143
:1005B000280003F0AFFA01220421280003F01CFBFD
:1005C00000220821280003F017FBA6E69024E4058A
:1005D0000EA9200003F0CEF913A9200003F0CAF9F8
:1005E0000121200003F096FA0221200003F092FA84
:1005F00000220421200003F0FFFA0122082120003C
:1006000003F0FAFA8CE6000084B0F0B5DE465746F7
:100610004E464546E0B597B0209021912292239313
:10062000349B9A46359B984600231593159B632B64
:1006300000DD89E000245546464600E00134092CDF
:100640002CDC10952FA80BA90B00020083CA83C3D2
:1006500003CA03C32AA806A90B00020083CA83C3E6
:1006600003CA03C325A801A90B00020083CA83C3E0
:1006700003CA03C3249B009320982199229A239BA9
:10068000FFF724FE642003F063F9364B1B68012B4F
:100690005AD0012E58D0012DD0D155E0AA46B046EF
:1006A0000023994602E001239C46E144FA235B00C3
:1006B000994553DA534610932FAB9B460BAB1393DC
:1006C0005A4613CA13C303CA03C32AAF06AE330084
:1006D0003A0013CA13C303CA03C325AD01AB149375
:1006E0002A0013CA13C303CA03C3249A0092209892
:1006F0002199229A239BFFF7E9FD42461092139914
:100700000B005A4613CA13C303CA03C333003A008B
:1007100013CA13C303CA03C3149B2A0013CA13C307
:1007200003CA03C3249B009320982199229A239BF8
:10073000FFF7CCFD0B4B1B68012B05D04346012B6B
:1007400002D05346012BAED117B03CBC904699461F
:10075000A246AB46F0BC08BC04B01847159B013359
:10076000159363E76401002084B010B598B01A9027
:100770001B911C921D93002213A92EA804F040FB8C
:10078000002212A92EA804F067FB6B464D229B188D
:100790001B786A464C2152181278591E012925D916
:1007A000191F02294AD90439032949D905390329CE
:1007B00048D90539032947D90539032946D90539C7
:1007C000032945D90539032944D90539032943D9D2
:1007D0000539032942D90539032941D905390329A6
:1007E00040D93A3B022B3FD9002300E00C23119360
:1007F000109229A80BA90B00020013CA13C303CA45
:1008000003C324A806A90B00020013CA13C303CA1A
:1008100003C31FA801A90B00020013CA13C303CA14
:1008200003C31E9B00931A981B991C9A1D9BFFF7EC
:10083000EBFE18B010BC08BC04B018470123D6E783
:100840000223D4E70323D2E70423D0E70523CEE72E
:100850000623CCE70723CAE70823C8E70923C6E72E
:100860000A23C4E70B23C2E70C23C0E784B0F0B52A
:10087000DE4657464E464546E0B595B01E901F9160
:1008800020922193329C002C16D0012C37D0022CC0
:1008900000D169E2032C01D100F09EFC042C01D1AF
:1008A00000F001FF15B03CBC90469946A246AB460D
:1008B000F0BC08BC04B01847002310932DA80BA966
:1008C0000B00020023CA23C303CA03C328A806A936
:1008D0000B00020023CA23C303CA03C323A801A930
:1008E0000B00020023CA23C303CA03C3229B009345
:1008F0001E981F99209A219BFFF7E8FCC5E700236B
:1009000010932DA80BA90B00020023CA23C303CA0E
:1009100003C328A806A90B00020023CA23C303CAE5
:1009200003C323A801A90B00020023CA23C303CADF
:1009300003C3229B00931E981F99209A219BFFF7C7
:10094000C5FCEF4B1B68012BACD0FA20800002F0F5
:10095000FFFF012310932DA80BA90B00020023CA4F
:1009600023C303CA03C328A806A90B00020023CA95
:1009700023C303CA03C323A801A90B00020023CA8F
:1009800023C303CA03C3229B00931E981F99209A76
:10099000219BFFF79BFCDA4B1B68012B00D181E701
:1009A000FA20800002F0D4FF022310932DA80BA997
:1009B0000B00020023CA23C303CA03C328A806A945
:1009C0000B00020023CA23C303CA03C323A801A93F
:1009D0000B00020023CA23C303CA03C3229B009354
:1009E0001E981F99209A219BFFF770FCC44B1B682F
:1009F000012B00D156E7FA20800002F0A9FF032363
:100A000010932DA80BA90B00020023CA23C303CA0D
:100A100003C328A806A90B00020023CA23C303CAE4
:100A200003C323A801A90B00020023CA23C303CADE
:100A300003C3229B00931E981F99209A219BFFF7C6
:100A400045FCAF4B1B68012B00D12BE7FA2080003F
:100A500002F07EFF042310932DA80BA90B000200C7
:100A600023CA23C303CA03C328A806A90B00020094
:100A700023CA23C303CA03C323A801A90B0002008E
:100A800023CA23C303CA03C3229B00931E981F9942
:100A9000209A219BFFF71AFC994B1B68012B00D170
:100AA00000E7FA20800002F053FF052310932DA8E1
:100AB0000BA90B00020023CA23C303CA03C328A83F
:100AC00006A90B00020023CA23C303CA03C323A839
:100AD00001A90B00020023CA23C303CA03C3229B3C
:100AE00000931E981F99209A219BFFF7EFFB844BE0
:100AF0001B68012B00D1D5E6FA20800002F028FF08
:100B0000062310932DA80BA90B00020023CA23C3B0
:100B100003CA03C328A806A90B00020023CA23C3E3
:100B200003CA03C323A801A90B00020023CA23C3DD
:100B300003CA03C3229B00931E981F99209A219BEE
:100B4000FFF7C4FB6E4B1B68012B00D1AAE6FA200D
:100B5000800002F0FDFE072310932DA80BA90B00C7
:100B6000020023CA23C303CA03C328A806A90B0093
:100B7000020023CA23C303CA03C323A801A90B008D
:100B8000020023CA23C303CA03C3229B00931E98F7
:100B90001F99209A219BFFF799FB594B1B68012B4A
:100BA00000D17FE6FA20800002F0D2FE08231093E5
:100BB0002DA80BA90B00020023CA23C303CA03C339
:100BC00028A806A90B00020023CA23C303CA03C333
:100BD00023A801A90B00020023CA23C303CA03C32D
:100BE000229B00931E981F99209A219BFFF76EFB72
:100BF000434B1B68012B00D154E6FA20800002F021
:100C0000A7FE092310932DA80BA90B00020023CAED
:100C100023C303CA03C328A806A90B00020023CAE2
:100C200023C303CA03C323A801A90B00020023CADC
:100C300023C303CA03C3229B00931E981F99209AC3
:100C4000219BFFF743FB2E4B1B68012B00D129E6AC
:100C5000FA20800002F07CFE0A2310932DA80BA935
:100C60000B00020023CA23C303CA03C328A806A992
:100C70000B00020023CA23C303CA03C323A801A98C
:100C80000B00020023CA23C303CA03C3229B0093A1
:100C90001E981F99209A219BFFF718FB184B1B6881
:100CA000012B00D1FEE5FA20800002F051FE0B235B
:100CB00010932DA80BA90B00020023CA23C303CA5B
:100CC00003C328A806A90B00020023CA23C303CA32
:100CD00003C323A801A90B00020023CA23C303CA2C
:100CE00003C3229B00931E981F99209A219BFFF714
:100CF000EDFA034B1B68012B00D1D3E502E0C0469F
:100D000064010020FA20800002F022FE0C231093E0
:100D10002DA80BA90B00020023CA23C303CA03C3D7
:100D200028A806A90B00020023CA23C303CA03C3D1
:100D300023A801A90B00020023CA23C303CA03C3CB
:100D4000229B00931E981F99209A219BFFF7BEFAC1
:100D5000044B1B68012B00D1A4E5FA20800002F0AF
:100D6000F7FD94E564010020002310932DA80BA942
:100D70000B00020023CA23C303CA03C328A806A981
:100D80000B00020023CA23C303CA03C323A801A97B
:100D90000B00020023CA23C303CA03C3229B009390
:100DA0001E981F99209A219BFFF790FAF04B1B6821
:100DB000012B00D176E5FA20400002F0C9FD0123A5
:100DC00010932DA80BA90B00020023CA23C303CA4A
:100DD00003C328A806A90B00020023CA23C303CA21
:100DE00003C323A801A90B00020023CA23C303CA1B
:100DF00003C3229B00931E981F99209A219BFFF703
:100E000065FADB4B1B68012B00D14BE5FA20400053
:100E100002F09EFD022310932DA80BA90B000200E7
:100E200023CA23C303CA03C328A806A90B000200D0
:100E300023CA23C303CA03C323A801A90B000200CA
:100E400023CA23C303CA03C3229B00931E981F997E
:100E5000209A219BFFF73AFAC54B1B68012B00D162
:100E600020E5FA20400002F073FD032310932DA823
:100E70000BA90B00020023CA23C303CA03C328A87B
:100E800006A90B00020023CA23C303CA03C323A875
:100E900001A90B00020023CA23C303CA03C3229B78
:100EA00000931E981F99209A219BFFF70FFAB04BD1
:100EB0001B68012B00D1F5E4FA20400002F048FD48
:100EC000042310932DA80BA90B00020023CA23C3EF
:100ED00003CA03C328A806A90B00020023CA23C320
:100EE00003CA03C323A801A90B00020023CA23C31A
:100EF00003CA03C3229B00931E981F99209A219B2B
:100F0000FFF7E4F99A4B1B68012B00D1CAE4FA20E1
:100F1000400002F01DFD052310932DA80BA90B0026
:100F2000020023CA23C303CA03C328A806A90B00CF
:100F3000020023CA23C303CA03C323A801A90B00C9
:100F4000020023CA23C303CA03C3229B00931E9833
:100F50001F99209A219BFFF7B9F9854B1B68012B3C
:100F600000D19FE4FA20400002F0F2FC0623109327
:100F70002DA80BA90B00020023CA23C303CA03C375
:100F800028A806A90B00020023CA23C303CA03C36F
:100F900023A801A90B00020023CA23C303CA03C369
:100FA000229B00931E981F99209A219BFFF78EF990
:100FB0006F4B1B68012B00D174E4FA20400002F053
:100FC000C7FC072310932DA80BA90B00020023CA0E
:100FD00023C303CA03C328A806A90B00020023CA1F
:100FE00023C303CA03C323A801A90B00020023CA19
:100FF00023C303CA03C3229B00931E981F99209A00
:10100000219BFFF763F95A4B1B68012B00D149E480
:10101000FA20400002F09CFC082310932DA80BA995
:101020000B00020023CA23C303CA03C328A806A9CE
:101030000B00020023CA23C303CA03C323A801A9C8
:101040000B00020023CA23C303CA03C3229B0093DD
:101050001E981F99209A219BFFF738F9444B1B6873
:10106000012B00D11EE4FA20400002F071FC09239C
:1010700010932DA80BA90B00020023CA23C303CA97
:1010800003C328A806A90B00020023CA23C303CA6E
:1010900003C323A801A90B00020023CA23C303CA68
:1010A00003C3229B00931E981F99209A219BFFF750
:1010B0000DF92F4B1B68012B01D1FFF7F3FBFA2031
:1010C000400002F045FC0A2310932DA80BA90B0049
:1010D000020023CA23C303CA03C328A806A90B001E
:1010E000020023CA23C303CA03C323A801A90B0018
:1010F000020023CA23C303CA03C3229B00931E9882
:101100001F99209A219BFFF7E1F8194B1B68012BCF
:1011100001D1FFF7C7FBFA20400002F019FC0B23B6
:1011200010932DA80BA90B00020023CA23C303CAE6
:1011300003C328A806A90B00020023CA23C303CABD
:1011400003C323A801A90B00020023CA23C303CAB7
:1011500003C3229B00931E981F99209A219BFFF79F
:10116000B5F8034B1B68012B01D1FFF79BFB01E096
:1011700064010020FA20400002F0EAFB0C231093E7
:101180002DA80BA90B00020023CA23C303CA03C363
:1011900028A806A90B00020023CA23C303CA03C35D
:1011A00023A801A90B00020023CA23C303CA03C357
:1011B000229B00931E981F99209A219BFFF786F887
:1011C000E84B1B68012B01D1FFF76CFBFA204000B4
:1011D00002F0BEFBFFF75EFB002310932DA80BA9C6
:1011E0000B00020023CA23C303CA03C328A806A90D
:1011F0000B00020023CA23C303CA03C323A801A907
:101200000B00020023CA23C303CA03C3229B00931B
:101210001E981F99209A219BFFF758F8002600E09E
:101220000136D14B9E4201DDFFF738FB01250C2D25
:10123000F6DC10952DA80BA90B00020083CA83C30E
:1012400003CA03C328A806A90B00020083CA83C3EC
:1012500003CA03C323A801A90B00020083CA83C3E6
:1012600003CA03C3229B00931E981F99209A219BB7
:10127000FFF72CF8BB4B1B68012B01D1FFF712FBCA
:101280000135D4E70B3310932DA80BA90B000200F6
:1012900013CA13C303CA03C328A806A90B0002007C
:1012A00013CA13C303CA03C323A801A90B00020076
:1012B00013CA13C303CA03C3229B00931E981F992A
:1012C000209A219BFFF702F8FA20400002F040FB31
:1012D000A44B1B68012B00D0A3E1FFF7E3FA002326
:1012E0009B46A14B9B4549DC0B2310932DAB9946A4
:1012F0000BAB98464A4613CA13C303CA03C328AFAD
:1013000006AE33003A0013CA13C303CA03C323ADA6
:1013100001AB13932A0013CA13C303CA03C3229B4E
:1013200000931E981F99209A219BFEF7CFFF01235F
:10133000109343464A4613CA13C303CA03C3330078
:101340003A0013CA13C303CA03C313990B002A003C
:1013500013CA13C303CA03C3229B00931E981F9989
:10136000209A219BFEF7B2FF7E4B1B68012B01D117
:10137000FFF798FA01239C46E344B2E70A2002F003
:10138000E7FA52E100239B46774B9B4500DD50E195
:10139000022310932DAB99460BAB98464A4613CACD
:1013A00013C303CA03C328AF06AE33003A0013CAFF
:1013B00013C303CA03C323AD01AB13932A0013CA9B
:1013C00013C303CA03C3229B00931E981F99209A3C
:1013D000219BFEF77BFF0A23109343464A4613CA1C
:1013E00013C303CA03C333003A0013CA13C303CAA7
:1013F00003C313990B002A0013CA13C303CA03C300
:10140000229B00931E981F99209A219BFEF75EFF56
:10141000544B1B68012B01D1FFF744FA01239C4672
:10142000E344B1E701239C46E3444F4B9B4500DD79
:1014300003E1032310932DAB99460BAB98464A4624
:1014400013CA13C303CA03C328AF06AE33003A005E
:1014500013CA13C303CA03C323AD01AB13932A00FA
:1014600013CA13C303CA03C3229B00931E981F9978
:10147000209A219BFEF72AFF0923109343464A46F0
:1014800013CA13C303CA03C333003A0013CA13C3F6
:1014900003CA03C313990B002A0013CA13C303CA58
:1014A00003C3229B00931E981F99209A219BFEF74D
:1014B0000DFF2C4B1B68012BB4D1FFF7F3F9002370
:1014C0009B46B2E700239B46274B9B4500DDB8E0D7
:1014D000042310932DAB99460BAB98464A4613CA8A
:1014E00013C303CA03C328AF06AE33003A0013CABE
:1014F00013C303CA03C323AD01AB13932A0013CA5A
:1015000013C303CA03C3229B00931E981F99209AFA
:10151000219BFEF7DBFE0823109343464A4613CA7D
:1015200013C303CA03C333003A0013CA13C303CA65
:1015300003C313990B002A0013CA13C303CA03C3BE
:10154000229B00931E981F99209A219BFEF7BEFEB6
:10155000044B1B68012B01D1FFF7A4F901239C4622
:10156000E344B1E7640100200F27000000239B46FD
:101570004E4B9B4568DC052310932DAB99460BAB76
:1015800098464A4613CA13C303CA03C328AF06AE1C
:1015900033003A0013CA13C303CA03C323AD01AB1C
:1015A00013932A0013CA13C303CA03C3229B0093D5
:1015B0001E981F99209A219BFEF788FE07231093FF
:1015C00043464A4613CA13C303CA03C333003A004F
:1015D00013CA13C303CA03C313990B002A0013CA07
:1015E00013C303CA03C3229B00931E981F99209A1A
:1015F000219BFEF76BFE2E4B1B68012B01D1FFF7E1
:1016000051F901239C46E344B2E701239C46E2449E
:101610005346072B01DDFFF745F95346012B00D157
:1016200030E65346022B00D159E65346032B00D136
:10163000A8E65346042B00D141E75346052B00D1C1
:1016400040E75346062B91D05346072BDDD1013B93
:1016500010932DA80BA90B00020013CA13C303CAD1
:1016600003C328A806A90B00020013CA13C303CAA8
:1016700003C323A801A90B00020013CA13C303CAA2
:1016800003C3229B00931E981F99209A219BFEF76B
:101690001DFEFA20400002F05BF9054B1B68012B90
:1016A000B3D1FFF7FFF801239A46B1E70F270000F7
:1016B00064010020F0B587B0050001AC14220021C0
:1016C000200004F07DF8902000220121C00502F0E6
:1016D00093FA80235B000193002666600127A760D0
:1016E0002100074802F046F901976760A660E660AE
:1016F0002B0007CC07C306CC06C3280007B0F0BDFB
:1017000000040048F0B587B0050001AC14220021A8
:10171000200004F055F8902000220221C00502F0BC
:101720006BFA80235B000193002666600127A760A7
:101730002100084802F01EF9022301936760A660A9
:10174000E6602B0007CC07C306CC06C3280007B011
:10175000F0BDC04600040048F0B587B0050001ACFC
:1017600014220021200004F02BF8902000220421F4
:10177000C00502F041FA80235B00019300266660F9
:101780000127A7602100084802F0F4F80423019320
:101790006760A660E6602B0007CC07C306CC06C3D3
:1017A000280007B0F0BDC04600040048F0B587B07F
:1017B000050001AC14220021200004F001F8902063
:1017C00000220821C00502F017FA80235B00019374
:1017D000002666600127A7602100084802F0CAF8C9
:1017E000082301936760A660E6602B0007CC07C35F
:1017F00006CC06C3280007B0F0BDC0460004004870
:1018000010B598B0302200210CA803F0D9FF1022A7
:10181000002107A803F0D4FF1822002101A803F03B
:10182000CFFF28230B93273B139312930BA801F0B0
:1018300015FC07230793043B0893002409940A949A
:10184000012107A801F0F6FEC0239B02019380232B
:101850009B000293069401A801F08EFF18B010BD02
:1018600070B5C2B002F052F8FFF7CAFFFEF79EFC57
:1018700000F038F9FEF7E8FCFEF7FCFC3DA8FFF7A6
:1018800019FF38A8FFF73EFF33A8FFF765FF2EA822
:10189000FFF78CFF7A4B00221A6087E0794B10A982
:1018A0000A0013CB13C213CB13C203CB03C22EAB5C
:1018B0000BA90A0013CB13C203CB03C233AB06A997
:1018C0000A0013CB13C203CB03C238AB01A90A0031
:1018D00013CB13C203CB03C2419B199300933D98D2
:1018E0003E993F9A409BFEF73FFF83E0664B1B68A3
:1018F000012B00D083E0142200211CA803F060FF1C
:1019000021AC14220021200003F05AFF642002F0D1
:101910001FF800235A4A13605B4A13605B4B052291
:101920001A60584D00222100280003F069FA0022B5
:101930001BA9280003F090FA24782200544926A815
:1019400003F046FF0C2C17DD1CAB01221A7000239C
:1019500002AA69215218137002AA01315218137099
:1019600000221CA9474803F0C3F9021E47D0494989
:1019700026A803F02DFF42E001341CAB1C70E6E703
:101980001CA900234B7021AB1B7801330B7042491B
:1019900026A803F01DFF00221CA93A4803F0A8F96D
:1019A000021E57D1364B1B68012B58D0374B1B6892
:1019B000052B00D172E710932EAB0BA90A0013CBB5
:1019C00013C203CB03C233AB06A90A0013CB13C265
:1019D00003CB03C238AB01A90A0013CB13C203CB5C
:1019E00003C2419B199300933D983E993F9A409BB7
:1019F000FEF73CFF224B1B68012B00D176E7204B02
:101A00001B68012BCED1254B1B68012BCAD164204A
:101A100001F09EFF00241A4B1C60204B1C601B4BE6
:101A200005221A6021AD174E00222900300003F074
:101A3000E7F900221BA9300003F00EFA6A781CAB0C
:101A40009C70362A9CD8531D1CA94B7021AB1B7867
:101A50000B709CE7124926A803F0BAFEA2E76420A7
:101A600001F076FF064B00221A60084A1368013322
:101A70001360052B9ADD130000221A6096E7C0461A
:101A800064010020980600205C0100200000002076
:101A900050600008606000087C6000086001002061
:101AA0008C60000880235B00984209D040280BD04E
:101AB000202808D10123074A1360074A136002E077
:101AC000044B01221A6070470123024A1360034A43
:101AD0001360F8E7640100205C0100206001002031
:101AE0007047000010B500221149124802F0E7FAD1
:101AF000002811D110490F4802F0FDFA00280ED13C
:101B00000E490C4803F0EEFD00280BD1094802F005
:101B1000FBFA002809D110BDFFF7E2FFEAE7FFF763
:101B2000DFFFEDE7FFF7DCFFF0E7FFF7D9FFF2E7B4
:101B3000040000200C070020780000205C0000203A
:101B4000022804D005D8002800D0022070470120C8
:101B5000FCE70220FAE710B5FFF752FE10BD0000C7
:101B600000B583B002680C4B9A4201D003B000BDAF
:101B70000A4AD169802000040143D161D36903403E
:101B80000193019B002200211F2002F049F81F2031
:101B900002F076F8EAE7C046005C00400010024020
:101BA00010B501009C239B00C058403B9C466144FB
:101BB00002F0D4FA10BD10B503009C2292008058A8
:101BC0004A019B183D33FF331A6802F0F9FA10BD41
:101BD00010B503009C22920080584A019B18DA6BD2
:101BE00002F040FB10BD10B59C239B00C05802F0D2
:101BF000FBFB10BD70B504008368022B09D19C2546
:101C0000AD000121605902F0D1FB605902F09FFB49
:101C100070BDFFF765FFF2E710B504009C239B0041
:101C2000C05802F0C7FBA369002B04D0024A136915
:101C300006210B43136110BD00ED00E010B5040058
:101C40008369002B05D19C239B00E05802F0BEFB6A
:101C500010BD044A136906218B431361FFF77BFF14
:101C6000F1E7C04600ED00E070B5040013489C2386
:101C70009B00C4505033E050114B03600823436075
:101C8000063B8360036100238361C361036200F04C
:101C90005FFD00280FD1B025AD00182300220021E0
:101CA000605901F0ADF9605958230022802101F0FC
:101CB000A7F9002070BDFFF713FFECE7D009002063
:101CC000005C004010B5B0239B00C05800F0AAFD96
:101CD000FFF736FF10BD10B5B0239B00C05800F0D1
:101CE000B8FDFFF72DFF10BD10B514001A00B0238A
:101CF0009B00C058230000F0D9FDFFF721FF10BD65
:101D000010B5B0239B00C05801F000F9FFF718FF91
:101D100010BD10B5B0239B00C05801F036F9FFF795
:101D20000FFF10BDB0239B00C3584AB2002A07DB47
:101D30007F22114049015B182B33FF33187870471D
:101D40007F22114049015B182A331878F7E710B554
:101D5000B0239B00C05800F093FDFFF7F1FE10BDCB
:101D600010B5B024A400005900F003FEFFF7E8FE10
:101D700010BD10B5B024A400005900F0D4FDFFF749
:101D8000DFFE10BD0048704768010020704700006A
:101D900012230B80004870472000002004230B8092
:101DA000004870473400002030B500230AE05D0091
:101DB00037344C5500015C0001340C1900252570A6
:101DC0000133DBB2934206D2040F092CEFD85D0039
:101DD00030344C55EEE730BD70B50B4B18680B4BEB
:101DE0001D680B4B1B68C018002800D170BD094C42
:101DF000A11C0822FFF7D8FF21001231042228007D
:101E0000FFF7D2FFF2E7C046ACF7FF1FB0F7FF1FA6
:101E1000B4F7FF1F3800002010B51A230B80FFF71E
:101E2000DBFF014810BDC0463800002010B50A0095
:101E3000002805D10549064802F051FE034810BDAF
:101E40000249034802F04BFEF8E7C046440C00206C
:101E5000A460000810B50A00034C2100034802F0FA
:101E60003EFE200010BDC046440C0020C4600008A7
:101E700010B50A00002805D10549064802F02FFEDA
:101E8000034810BD0249034802F029FEF8E7C046A6
:101E9000440C0020D860000810B50A00002805D1C5
:101EA0000549064802F01BFE034810BD02490348DD
:101EB00002F015FEF8E7C046440C0020E46000087C
:101EC0007047FEE77047704710B501F02FFD10BD59
:101ED00010B5202001F096FE402001F093FE8020F6
:101EE000400001F08FFE10BD10B5024801F023FF45
:101EF00010BDC046B806002010B5024800F030FF03
:101F000010BDC046D009002082B00C4B9969012257
:101F10001143996199690A400092009ADA69802117
:101F200049050A43DA61DB690B400193019B044ACE
:101F3000136810210B43136002B070470010024079
:101F4000000001400268054B9A4200D07047044AE5
:101F5000116A80231B020B431362F7E7002800403D
:101F60000010024000B583B002680C4B9A4201D0C9
:101F700003B000BD0A4A91698020000101439161CC
:101F8000936903400193019B002200210D2001F081
:101F900047FE0D2001F074FEEAE7C046002C014028
:101FA000001002404022835A02490B439BB28352E5
:101FB0000020704780BFFFFF4022835A02490B4038
:101FC000835200207047C0467F40000084B010B5A7
:101FD00003910492059340220123835200238352EC
:101FE000043283520C328352FFF7DCFF002010BC16
:101FF00008BC04B018470000F0B503000D78AD0030
:1020000045192A88B1480240C878022859D00AD810
:10201000002852D0012804D18020C00002430020B3
:1020200009E0012007E0032804D1C020C0000243DA
:10203000002000E00120A64C224392B22A800A78B8
:1020400096009E1935882DB2A24F3D402A4392B288
:102050001443A4B234800A7B002A00D08AE04A7874
:10206000002A3BD050229C5A1C190A78D20012191F
:102070008024E400A4466244CC8864086400148090
:102080000A7892009A181488640606D514883D00D0
:102090002540914C2C43A4B21480CA78012A12D056
:1020A0000A7892009B181A888C490A4020215140D6
:1020B000874A0A4392B21A8048E08024A40022434F
:1020C000B9E70020B7E70A7892009B181A8883497D
:1020D00011407F4A0A4392B21A8037E050255C5B78
:1020E0001C190A78D20012197D4CA4466244CC888F
:1020F0006408640014805C5B1C190A78D200121911
:10210000784CA44662440C69002C20D11488764D8A
:102110002540764C2C4314800A7892009A18148833
:10212000640406D514886B4D2540714C2C43A4B231
:1021300014800A7892009B1819886E4A1140C022B8
:1021400092015140624A0A4392B21A80F0BD3E2C7D
:1021500006D86508E40700D50135AD021580DBE738
:102160006509E40600D1013DAD02ADB25F4C2543E7
:102170001580D1E70A7892009A181488554D2540A9
:102180005D4C2C43A4B2148050255C5B1C190A786A
:10219000D20012198024E400A44662440C89640829
:1021A000640014805C5B1C190A78D20012194C4C34
:1021B000A44662444C896408640014804A78002A6A
:1021C0003AD10A7892009A181488640406D51488C3
:1021D000404D2540464C2C43A4B214800A7892000E
:1021E0009A181488640606D514883A4D25403A4C4E
:1021F0002C43A4B214800A7892009A181488354DA2
:102200002540354C2C43A4B214800C78A4001C1932
:102210002288384D1540C02292016A402C4D2A4335
:1022200092B222800A7892009B181A882B490A40A1
:102230002A4392B21A8089E70A7892009A18148881
:10224000640406D51488234D2540294C2C43A4B2A0
:1022500014800A7892009A181488640606D51488A7
:102260001C4D25401C4C2C43A4B214800A789200CB
:102270009A181488174D25401D4C2C43A4B2148085
:10228000CA78012A16D00A7892009A181488134D39
:102290002C40202565400E4C2C43A4B214800A78B3
:1022A00092009B181A8813491140094A0A4392B2B6
:1022B0001A804BE70A7892009A181488074D254037
:1022C000034C2C43A4B21480E9E7C0468F89FFFF7A
:1022D0008080FFFF8F8FFFFFC080FFFFBF8FFFFF5A
:1022E0000404000006040000FF83FFFF0080FFFFDE
:1022F00080C0FFFF8FBFFFFF8081FFFF4B78002B67
:102300000DD00B789B00C01803880C4A1340102294
:102310005A400B4B13439BB20380002070470B784D
:102320009B00C0180288074B1A4080235B015A406B
:10233000034B13439BB20380EFE7C046BF8FFFFF01
:102340008080FFFF8FBFFFFF10B50B7B002B39D1C3
:102350004B78002B1CD00B789B00C3181A885206B0
:1023600006D51A88184C1440184A224392B21A8093
:10237000CB78012B26D00B789B00C0180388144A19
:10238000134020225A40134B13439BB2038019E0A1
:102390000B789B00C3181A88520406D51A880A4C79
:1023A00014400D4A224392B21A800B789B00C01849
:1023B00002880A4B1A40C0239B015A40054B134325
:1023C0009BB20380002010BD8F8FFFFFC080FFFFF6
:1023D000BF8FFFFF8080FFFF80C0FFFF8FBFFFFF29
:1023E00040230122C252433200218152413AC2525B
:1023F00000207047002902D14C238022C2520020C5
:10240000704700005822835A02490B439BB2835203
:10241000002070470080FFFF4423C05A80B27047FD
:102420000020704710B501335B0810188022D200DD
:1024300094466044002B08D00C784A78120222435C
:10244000028002300231013BF4E710BD70B5050097
:102450000C00497801292BD0A26923699A4200D83F
:10246000D8E0D21AA261227B002A00D0E9E05032E3
:10247000A95A69182278D2005218A0498C466244A1
:10248000002B00D0CAE013889D4919409D4B0B4397
:102490001380207880002D182A889B4B1A40C02377
:1024A0009B015A40994B13439BB22B80002070BD77
:1024B000A26923699A421DD9D21AA261227B002AFD
:1024C0001CD02278900028180088400664D5002986
:1024D00039D15031695A6918D200521887498C464F
:1024E0006244002B1CD1118885480840854901436E
:1024F000118031E00023A3611300DFE79EB2E28880
:10250000330061692800FFF78DFF5023EA5AAA18AB
:102510002378DB009B187E4A944663441E802EE09D
:102520003E2B06D85908D80700D501318902118001
:1025300012E05909D80600D10139890289B27148DF
:102540000143118008E05021695A6918D2005218DD
:102550006A498C466244138062899BB26169280093
:10256000FFF760FF6378002B47D123789B00EB18BF
:102570001A8868491140684A0A4392B21A80207842
:1025800080002D182B88654A134030225A405F4B3B
:1025900013439BB22B8089E7002923D15031695A1C
:1025A0006918D20052185A498C466244002B06D151
:1025B0001188534808405349014311801BE03E2BCA
:1025C00006D85908D80700D501318902118012E0D8
:1025D0005909D80600D10139890289B24948014315
:1025E000118008E05021695A6918D20052184849F0
:1025F0008C46624413802289AFE7012BBFD1237838
:102600009B00EB181A8843491140454A0A4392B28D
:102610001A80B4E70023A361130024E73E2B06D8F9
:102620005908DB0700D501318902118031E75909CA
:10263000DB0600D10139890289B2324B194311807E
:1026400027E7002910D15022A95A69182278D20010
:1026500052182F498C466244002B1AD11188284801
:1026600008402849014311806278002A37D150324E
:10267000A95A69182278D200521820498C4662441F
:10268000002B19D113881E4919401E4B0B43138090
:10269000FFE63E2B06D85908D80700D5013189023C
:1026A0001180E1E75909D80600D10139890289B2C0
:1026B000144801431180D7E73E2B06D85908DB07A1
:1026C00000D5013189021180E3E65909DB0600D10A
:1026D0000139890289B20B4B19431180D9E6012ACD
:1026E00000D0D6E64F32A95A69182278D200521883
:1026F00002498C4662441380CBE6C04606040000C3
:10270000FF83FFFF0080FFFF8FBFFFFF8080FFFF81
:10271000020400008F8FFFFFC080FFFFBF8FFFFF0D
:1027200080C0FFFF10B55C0810188022D2009446CC
:102730006044002C07D0028802300A70120A4A70E6
:102740000231013CF5E7DB0701D503880B7010BDB2
:1027500030B587B0041E61D0314BC35C002B1ED056
:102760002F4B0322E2542068FFF726FC0023606809
:1027700083421BD25A01A21811002931012008708E
:1027800001390B70D38610002B300021017091634A
:10279000D1639A1C520111510133DBB2E7E78A235E
:1027A0009B000022C254FFF7DBF9D9E7002215E0B5
:1027B0005301E3181D002A35FF3500212970013D22
:1027C0002A70033529700D3529603D33FF331960B8
:1027D00013000A335B0119510132D2B29042E7D89B
:1027E000230010336A4623CB23C203CB03C26168A4
:1027F000A268E3682068FFF7E9FB24230022E25483
:10280000074B0132E254E369012B02D0002007B0EC
:1028100030BD200000F00DFC0020F8E70120F6E7B5
:102820002902000070B504008A239B00C35C012BC1
:102830000DD08A25AD00012343550068FFF7E2FD66
:102840002068FFF7AFFB00236355002070BD022016
:10285000FCE770B504008A239B00C35C012B0DD0FC
:102860008A25AD00012343550068FFF7A5FB2068CA
:10287000FFF7B6FD00236355002070BD0220FCE782
:1028800070B504008A239B00C35C012B0CD08A2501
:10289000AD00012343552333C1540068FFF7AAFD5F
:1028A00000236355002070BD0220FCE770B50400D2
:1028B0000D0049B2002926DB072028404001010015
:1028C0002931FF31611820182A30FF3000260670A8
:1028D000072005400D700A61CB704A78002A00D0AD
:1028E000CD81022B1AD08A239B00E35C012B18D0E8
:1028F0008A25AD00012363552068FFF77DFB002387
:102900006355002070BD0720284040010100283198
:1029100061182018293001260670D9E700230B71B1
:10292000E1E70220EEE770B507250D406C012100BC
:102930002931FF314118041926003D36FF36326037
:102940002A000A3252018350821800235360220069
:102950002A32FF3213702934FF342570002D04D140
:102960000068FFF773FD002070BD0068FFF76EFD83
:10297000F9E770B507250D406C0121002831411899
:102980000419E263AA1C5201835082180023536089
:102990002300293301221A7028342570002D04D118
:1029A0000068FFF753FD002070BD0068FFF74EFD83
:1029B000F9E70000F0B5C64600B504009FE00388C3
:1029C000D24A1A40D24B13439BB203802168502352
:1029D000CB5A2822A25CD2009B185B18CD4A9446A1
:1029E00063441B889B059B0D6364E26B94466344C0
:1029F000E36300212000FFF7EBF82423E35C002BC6
:102A000000D17CE0236C002B00D078E02422A35C72
:102A1000802149420B43DBB2CC3120684352002372
:102A2000A3546CE05023C35A94225200A25CD200FB
:102A30009B181B18B84A944663441B889B059B0D42
:102A400022002932FF32D3618C2189006118D2889B
:102A5000FFF768FE22681388B0490B4080210B43C2
:102A600013802000FFF79CF849E03E2A06D8510861
:102A7000D20700D501318902198099E05109D206A7
:102A800000D10139890289B2A14A114319808FE02E
:102A9000AE00801903889FB21BB2002B00DA93E0CE
:102AA0003B062CD523689C4666443388974A1A40D7
:102AB000974B13439BB2338020685023C35A69015C
:102AC00061180A0028321278D2009B181B18914A0C
:102AD000944663441A889205920DAB1C5B01E01882
:102AE0004260C86B84466244CA631B59002B00D005
:102AF00029E10D00283529782000FFF769F82068C2
:102B00004423C35A1BB2002B00DB24E14423C35AE5
:102B100099B20F221D0015401342B9D1CB0600D443
:102B20004DE7028893B2120500D57BE71BB2002B5C
:102B3000E5DA0388794A1340802213430380206832
:102B40005023C35A94225200A25CD2009B181B1837
:102B5000714A944663441B889B059B0D22002932D1
:102B6000FF32D361002B0FD0516900290CD0150022
:102B7000D288FFF7D7FD6B69EA69944663446B61BD
:102B800000212000FFF717F8236850229A5A9B185B
:102B9000614A9446634422002932FF321269002AB6
:102BA00000D062E71A885E491140594A0A431A80E8
:102BB00021680A885B4B1A40C0239B015A405A4B3C
:102BC00013439BB20B809AE70388544A1340802238
:102BD000134303806B01E3183533FF331B78002B5D
:102BE00020D120685033C35A6A01A2182932FF321B
:102BF0001278D2009B181B18474A944663441B88DE
:102C00009B059A0D9046002B35D06B01E3181A00F6
:102C10002F32FF3212883D33FF3319684346FFF7E6
:102C200081FD28E020686B01E3182933FF331B780E
:102C30009A008218128852044CD55022825ADB0026
:102C4000D3181B18334A944663441B889B059A0D7E
:102C50009046002B31D16B01E3182933FF331A78EA
:102C6000920023689C466244138830491940304BD7
:102C70000B439BB2138040462B000A335B01E118E3
:102C80004A6842444A60690161183D31FF310A686F
:102C900042440A601B59002B06D069016118393182
:102CA000FF310968884245D26B01E3182933FF33AD
:102CB00019782000FEF77FFFF2E66B01E3181A0097
:102CC0003132FF3212883D33FF3319684346FFF734
:102CD00029FDC0E75022825ADB00D3181B180E4A88
:102CE000944663441B889B059A0D9046002BB2D0F6
:102CF0006B01E3181A003332FF3212883D33FF3381
:102D000019684346FFF70EFDA5E7C0460F8FFFFF8A
:102D10000080FFFF02040000060400008F0F000087
:102D2000FF83FFFF8FBFFFFF8080FFFF8F8FFFFFBD
:102D3000C080FFFF690161182931FF310978200047
:102D4000FFF7F1FDACE66D01651928352978200003
:102D5000FFF70FFED3E6002004BC9046F0BDC0464E
:102D600070B504000068FFF757FB030400D57BE053
:102D70002068FFF751FB430500D579E02068FFF795
:102D80004BFB430405D5216844228B5A5848034025
:102D90008B522068FFF740FB830405D5216844224D
:102DA0008B5A544803408B522068FFF735FBC3040D
:102DB00018D521684023CA5A04208243CA52216888
:102DC000CA5A04308243CA5298239B00E35C012B09
:102DD0005CD02000FEF732FF216844228B5A46481F
:102DE00003408B522068FFF717FB030557D4206878
:102DF000FFF712FB030626D5216844228B5A802058
:102E000083438B5298239B00E35C002B62D12168A3
:102E10004033CA5A04200243CA522168CA5A0820C1
:102E20000243CA5298239B000122E2545423226891
:102E3000D25A9208183B134099229200A3500121C4
:102E4000200000F009F92068FFF7E6FA830545D471
:102E50002068FFF7E1FAC30505D5216844228B5AA3
:102E6000264803408B5270BD2000FFF7A3FD7FE78B
:102E7000216844228B5A224803408B522000FEF7DF
:102E8000B9FE00212000FFF7FBFC77E798239B00A9
:102E90000022E2540021200000F0DEF899E72168CA
:102EA0004023CA5A08200243CA5220684421425A89
:102EB000144D2A4042522168CA5A04200243CA5281
:102EC0002068FFF7A9FAC30400D590E72000FEF7B9
:102ED000A3FE8CE72000FEF79FFEB4E721684422A2
:102EE0008B5A094803408B522000FEF77CFEAFE767
:102EF000FFBFFFFFFFDFFFFFFFEFFFFFFFFEFFFF53
:102F0000FFFBFFFFFFF7FFFFFFFDFFFF70B50400B2
:102F100007250D4043689D4233D84BB2002B20DB80
:102F20004B0119002931FF314118C3182A33FF33EF
:102F300000221A7001238B700D708A239B00E35CC2
:102F4000012B20D08A239B000122E2542068FFF746
:102F5000D5F9002D0ED08A239B000022E2540020D8
:102F600070BD6B01190028314118C31829330122A3
:102F70001A70DFE78C239B00E1182068FFF750FAF6
:102F8000E9E70120ECE70220EAE770B504000B0056
:102F90000F220A4041688A422ED85AB2002A20DB0A
:102FA00007221A40520111002931FF3141188218BD
:102FB0002A32FF320020107000228A70073213403C
:102FC0000B708A239B00E35C012B17D08A25AD0090
:102FD000012363552068FFF7B7F9002363550020EC
:102FE00070BD07221A405201110028314118821881
:102FF000293201201070DFE70120F1E70220EFE71E
:1030000010B50C060AD50724214049012831411882
:10301000002A08D10A73CB80002010BD4901293154
:10302000FF314118F4E701220A730B811B0C4B811D
:10303000F2E702689A239B000121C150083B00215E
:10304000C1545423D15A01200143D152D15A0220F4
:103050000143D152002070477047000070B582B024
:10306000041E00D17FE20368DB072BD5B34B5A68FF
:103070000C231340042B1DD0B04B5A680C23134073
:10308000082B0ED06368012B41D0002B56D1AB4BDF
:103090001A68AB490A401A601A68AA490A401A60BD
:1030A0003BE0A64B5B68C0225202134080225202D2
:1030B0009342E7D1A14B1B689B0303D56368002BA8
:1030C00000D153E223689B0777D59C4B5B680C22A9
:1030D0001A4262D0994B5A680C231340082B53D0E4
:1030E000E368002B00D18AE0944A136801210B4366
:1030F000136000F027FC0500904B1B689B0775D4FC
:1031000000F020FC401B0228F6D903202CE28B4A59
:10311000116880235B020B4313606368002B25D08A
:1031200000F010FC0500854B1B689B03CAD400F01F
:1031300009FC401B6428F6D9032015E2052B09D0B1
:103140007E4B1A687E490A401A601A687D490A4017
:103150001A60E2E7794B19688022D2020A431A60AA
:103160001968802252020A431A60D6E700F0EAFB8F
:103170000500724B1B689B03A4D500F0E3FB401BCA
:103180006428F6D90320EFE16C4B5B68C022520241
:103190001340802212029342A2D1684B1B689B0706
:1031A00003D5E368012B00D0E2E164490B68F82203
:1031B00093432269D20013430B6023681B0744D555
:1031C000E369002B2ED05D4A536A01210B43536201
:1031D00000F0B8FB0500594B5B6A9B0735D400F043
:1031E000B1FB401B0228F6D90320BDE153490B680F
:1031F000F82293432269D20013430B60DDE74F4A64
:10320000136801218B43136000F09CFB05004B4BBE
:103210001B689B07D1D500F095FB401B0228F6D90F
:103220000320A1E1454A536A01218B43536200F018
:1032300089FB0500414B5B6A9B0706D500F082FBCA
:10324000401B0228F6D903208EE123685B0700D4D7
:1032500080E03A4BDB69DB001DD4384AD16980201D
:1032600040050143D161D36903400193019B0125CE
:10327000354B1B68DB0510D5A368012B21D0002B33
:1032800036D12E4B1A6A01218A431A621A6A033117
:103290008A431A621AE00025EAE72B4A1168802364
:1032A0005B000B43136000F04DFB0600264B1B68D0
:1032B000DB05E1D400F046FB801B6428F6D903202F
:1032C00052E11E4A136A01210B431362A368002BCB
:1032D00024D000F037FB0600184B1B6A9B0737D43D
:1032E00000F030FB801B194B9842F5D903203BE1DD
:1032F000052B09D0114B1A6A01218A431A621A6AF6
:1033000003318A431A62E1E70C4B1A6A04210A432B
:103310001A621A6A03390A431A62D7E700F012FBED
:103320000600064B1B6A9B0712D500F00BFB801BA7
:10333000064B9842F5D9032016E1C0460010024022
:10334000FFFFFEFFFFFFFBFF00700040881300003F
:10335000012D39D02368DB0610D56369012B39D0E4
:10336000053357D1894A536B04218B435363536B05
:10337000F4318B43A169C9000B43536323689B0657
:103380006ED5824B5A680C2313400C2B60D07F4BB8
:103390005A680C231340082B53D0236A002B7ED08D
:1033A0007A4A516B80235B020B43536300F0CAFAE5
:1033B0000500764B5B6BDB0352D400F0C3FA401B75
:1033C0000228F6D90320CFE0704AD36970490B4038
:1033D000D361BFE76D4B5A6B04210A435A635A6BA2
:1033E00003390A435A6300F0ADFA0500674B5B6B83
:1033F0009B0706D400F0A6FA401B0228F6D903204A
:10340000B2E062494B6BF8229343A269D2001343A6
:103410004B63B3E75D4B5A6B04210A435A635A6B03
:1034200003398A435A6300F08DFA0500574B5B6BF2
:103430009B07A3D500F086FA401B0228F6D903208B
:1034400092E0524B5B68C022520213409342A4D1D7
:103450004E4B5B6BDB0303D5236A012B00D089E065
:10346000636A002B00D187E0484A51680C220A4069
:10347000082A60D0022B25D0444A136845490B40E6
:10348000136000F05FFA0400404B1B689B0150D5AD
:1034900000F058FA001B0228F6D9032064E03B4AEA
:1034A000536B3D490B40536300F04CFA0500374B1A
:1034B0005B6BDB03D4D500F045FA401B0228F6D93C
:1034C000032051E0314A136832490B40136000F089
:1034D00039FA05002D4B1B689B0106D500F032FA26
:1034E000401B0228F6D903203EE0284BDA6A0F2160
:1034F0008A43216B0A43DA625A6828490A40E16A22
:10350000A06A01430A435A601968802252040A43A0
:103510001A6000F017FA04001C4B1B689B0106D4CC
:1035200000F010FA001B0228F6D903201CE000204E
:103530001AE0002018E0012B20D0144B5A68D96AF9
:10354000C0235B021340A06A834219D10F230B40B2
:10355000216B8B4216D1F0239B031A40E36A9A42F7
:1035600012D1002000E0012002B070BD0120FBE775
:103570000120F9E70120F7E70020F5E70120F3E754
:103580000120F1E70120EFE70120EDE70010024004
:10359000FFFFFFEFFFFFFFFEFFFFFEFFFF7FC2FF0A
:1035A00010B588B004AA1E4B13CB13C21B6813605E
:1035B0006A461C4B13CB13C21B6813601A4B5A6824
:1035C0000C231340082B04D00C2B26D1174808B02D
:1035D00010BD910C0F23194004A8445C1249C96A1C
:1035E0000B406946C95CC0235B021A4080235B0222
:1035F0009A4208D0C0235B029A4209D00C48FCF7DB
:1036000069FD6043E3E70A48FCF764FD6043DEE7D9
:103610000648FCF75FFD6043D9E70548D7E7C04699
:10362000F46000080861000800100240006CDC0231
:1036300000127A0070B504000D00002800D186E069
:10364000474B1A68012313408B420AD244490B6846
:10365000012293432B430B600B681A40AA4200D00F
:1036600077E023689A070ED55B0705D53D4A516878
:10367000E023DB000B4353603A4A5368F0218B434D
:10368000A1680B4353602368DB0735D56368012BC2
:1036900009D0022B24D0032B28D0324A126892077B
:1036A00005D4012052E02F4A1268920353D52D49C8
:1036B0004A680320824313434B6000F043F906003D
:1036C000284B5B680C221A4063689B009A4213D017
:1036D00000F038F9801B244B9842F1D9032035E0E3
:1036E000204A12689201E2D401202FE01D4A526B59
:1036F000D203DCD4012029E0194B1A6801231340BE
:10370000AB4209D916490B68012293432B430B6046
:103710000B681A40AA4220D123685B0706D5114ADC
:10372000536812490B40E1680B435360FFF738FFC1
:103730000C4B5A6812090F2313400D4AD35CD84032
:103740000C4B1860002000F0B9F8002070BD01207B
:10375000FCE70120FAE70120F8E70120F6E7C04680
:10376000002002400010024088130000FFF8FFFF15
:103770001C6100085800002070B582B00400036886
:10378000DB0337D5474BDB69DB005DD4454AD169A4
:10379000802040050143D161D36903400193019B1F
:1037A0000125414B1B68DB0550D53E4B1A6AC023EF
:1037B0009B00110019401A4213D0626813408B42DB
:1037C0000FD0384B186A394A02401E6A80214902DC
:1037D00031431962196A364E314019621A62C307C1
:1037E00048D4304A136A31490B4061680B43136275
:1037F000012D4ED02368DB0706D52A4A136B03211F
:103800008B43A1680B43136323689B0606D5254AA7
:10381000136B10218B43E1680B43136323689B03F5
:1038200006D5204A136B80218B4361690B431363D8
:1038300023685B0532D51B4A136B40218B432169FA
:103840000B43136300202AE00025AAE7164A1168FB
:1038500080235B000B43136000F074F80600124BEA
:103860001B68DB05A1D400F06DF8801B6428F6D935
:10387000032014E000F066F806000A4B1B6A9B0761
:10388000AFD400F05FF8801B0A4B9842F5D90320B3
:1038900005E0D36908490B40D361ABE7002002B0D3
:1038A00070BDC0460010024000700040FFFCFFFFEA
:1038B000FFFFFEFF88130000FFFFFFEF10B50400BD
:1038C0000F4B1978FA208000FCF704FC01000D4B27
:1038D0001868FCF7FFFB00F0DFF900280DD1032C7E
:1038E00001D901200AE0013000222100404200F00D
:1038F00097F9054B1C60002000E0012010BDC04678
:1039000052000020580000205400002010B5064A44
:10391000136810210B4313600020FFF7CFFFFEF761
:10392000F3FA002010BDC04600200240034A11688F
:10393000034B1B785B1813607047C046440E002091
:1039400052000020014B18687047C046440E00200A
:1039500070B50400FFF7F6FF0500631C02D0044BAE
:103960001B78E418FFF7EEFF401BA042FAD370BDAE
:1039700052000020F0B5D6464F464646C0B582B04C
:10398000002371E084683C40A446CC68B44065469E
:103990002C4384604468944322004C682409A44664
:1039A000012465462C409C4014434460C268174083
:1039B0008A68B2403A43C2604A68D20053D5504C3C
:1039C000A66901221643A661A46922400192019AC8
:1039D0009A08941CA4004B4EA75903241C40A40031
:1039E0000F26A640B7439026F605B0427ED0464E3D
:1039F000B0427DD0454EB04276D00526A640340078
:103A00003C43023292003F4E9451414A14684A4668
:103A1000D24326004D46AE434D68ED0302D54D46D8
:103A20002C4326003A4C26606468260016404D68F8
:103A3000AD0302D54D462C432600354C6660A46884
:103A4000260016404D68ED0202D54D462C43260057
:103A50002F4CA660E46822404D68AD0201D54A466D
:103A600022432B4CE26001330C682200DA4041D043
:103A700001229A4025001540A9461442F3D04C6813
:103A8000022C01D0122C0ED1DC080834A4002758D7
:103A900007261E40B6000F25B540AF430D69B5405F
:103AA0002E003E4326500468A4465E000324A2462E
:103AB0002700B740B846FF4365464446A543AC4699
:103AC0004C68554625402C00B44065462C430460A4
:103AD0004C68651E012D00D854E7112C00D151E728
:103AE000122C00D062E74DE7022687E7002685E723
:103AF000012683E702B01CBC90469946A246F0BD61
:103B00000010024000000140000400480008004886
:103B100000040140F0B5CE46474680B589460023F3
:103B200023E00221884601E0002188464146A14069
:103B3000A94240D004685E000325B540AC43046050
:103B4000DC080834A400275807261E40B6000F21C1
:103B5000B1408F4327508468AC43846044689443E9
:103B60004460C268AA43C26001334A46DA4037D093
:103B700001229A404C461440A44649461142F3D0D3
:103B80009F08BC1CA400184D655903241C40A400C8
:103B90000F26A64035409021C9058842C4D013495C
:103BA000884205D012498842BBD005218846BDE72E
:103BB00001218846BAE70F4C256861468D43256090
:103BC00065688D436560A5688D43A560E5688D4394
:103BD000E5600549BC1CA4006558B5436550A9E7DC
:103BE0000CBC90469946F0BD00000140000400481E
:103BF0000008004800040140002A01D0816170479C
:103C00008162FCE710B5054B5B69184200D110BD1D
:103C1000024B5861FDF746FFF9E7C046000401403A
:103C200070B5002811DB8308134EC0339B009D59EB
:103C300003242040C000FF2214008440A5438901D2
:103C40000A4082402A439A5170BD0F230340083B2B
:103C50009B0806339B00094A944663445C68032230
:103C60001040C000FC3215008540AC4389010A4079
:103C7000824022435A60E7E700E100E000ED00E007
:103C8000002805DB1F2318401E3B8340014A1360B8
:103C90007047C04600E100E0013880235B04984291
:103CA0000FD2094A50600948036A1B021B0AC0214F
:103CB00009060B430362002393600733136000205F
:103CC00070470120FCE7C04610E000E000ED00E096
:103CD00030B5036A046A0125AC4304628469EF3598
:103CE000AC43120122430A24A3430B4382610362C3
:103CF00030BD000030B5036A1024A3430362846919
:103D0000036A054D2C4012032243A024A34309015A
:103D100019438261016230BDFF0FFFFF836870228B
:103D200093430B4307210B438360704770477047F1
:103D300070477047704710B5040003681A6992070E
:103D40000FD5DA6892070CD5032252421A6101237B
:103D5000037703689B699B0763D0FFF7E9FF0023A4
:103D6000237723681A69520712D5DA6852070FD5EC
:103D7000052252421A610223237723689A69C023DD
:103D80009B001A4253D02000FFF7D2FF0023237775
:103D900023681A69120710D5DA6812070DD50922AF
:103DA00052421A61042323772368DB699B0745D0BD
:103DB0002000FFF7BDFF0023237723681A69D2068E
:103DC00012D5DA68D2060FD5112252421A610823A1
:103DD00023772368DA69C0239B001A4235D020007C
:103DE000FFF7A6FF0023237723681A69D20702D5BD
:103DF000DA68D20730D423681A69120602D5DA6865
:103E0000120630D423681A69520602D5DA685206BF
:103E100030D423681A69920602D5DA68920630D443
:103E200010BDFFF784FF2000FFF783FF97E7200016
:103E3000FFF77DFF2000FFF77CFFA7E72000FFF7DB
:103E400076FF2000FFF775FFB5E72000FFF76FFF53
:103E50002000FFF76EFFC5E7022252421A612000E0
:103E6000FFF764FFC7E7812252421A61200000F089
:103E700024F9C7E7412252421A612000FFF75AFF96
:103E8000C7E7212252421A61200000F015F9C7E766
:103E900003681E4A904206D08022D205904202D08A
:103EA0001B4A904203D1702293434A681343174A36
:103EB00090420FD08022D20590420BD0144A9042FB
:103EC00008D0144A904205D0134A904202D0134AB7
:103ED000904203D1124A1340CA681343802293438D
:103EE0004A69134303608B68C3620B688362074BA4
:103EF000984205D0084B984202D0084B984201D115
:103F00000B690363012343617047C046002C0140E5
:103F100000040040002000400044014000480140EF
:103F2000FFFCFFFF70B5041E14D03D23C35C002BC3
:103F30000AD03D2502236355210001C9FFF7A8FFE0
:103F400001236355002070BD3C330022C254FEF7AC
:103F500009F8EEE70120F6E730B58468034D2C4000
:103F60001B0213430B432343836030BDFF00FFFF5D
:103F700010B504003C23C35C012B66D03C23012216
:103F8000C25401330132C25402689368304803407E
:103F900093600B68602B44D024D8402B4BD00BD9B6
:103FA000502B0ED1CA6849682068FFF791FE502156
:103FB0002068FFF7B3FE04E0202B0ED009D9302B88
:103FC0000BD03D230122E254013B0022E2540020A9
:103FD00010BD002B01D0102BF3D119002068FFF782
:103FE0009DFEEEE7702B10D0802292019342E8D123
:103FF000CB684A6889682068FFF7AEFF226891683D
:104000008023DB010B439360DBE7CB684A68896858
:104010002068FFF7A1FF2268936877210B43936024
:10402000CFE7CA6849682068FFF764FE602120680E
:10403000FFF774FEC5E7CA6849682068FFF748FEC5
:1040400040212068FFF76AFEBBE70220C0E7C046B8
:104050008800FFFF30B53C23C35C012B25D03C23F7
:104060000122C25401330132C25403685A689C6869
:104070007025AA430D682A435A6003680C4A93428C
:1040800006D08022D205934202D00A4A934204D13C
:10409000802294434A6814439C603D230122C25409
:1040A000013B0022C254002030BD0220FCE7C04684
:1040B000002C01400004004070477047704710B565
:1040C000002816D0AD239B00C358002B03D0AD238E
:1040D0009B000024C450002902D0AC239B00C15097
:1040E000A7239B000121C1540270FDF7BDFD0020F4
:1040F00010BD0220FCE7002904D0AD239B00C15075
:10410000002070470220FCE710B5FDF7DBFD002022
:1041100010BD10B50400AD239B00C3585B68017946
:1041200098472000FDF7D7FD002010BD10B5AD2346
:104130009B00C358002B06D01B689847002800D16D
:1041400010BD0220FCE70220FAE710B5AD239B006A
:10415000C3585B689847002010BD000070B504008C
:10416000AA239B00C518280000F064F9A5239B0032
:104170000122E250114BE25A163BE2501033E15C4F
:104180001F230B40012B0FD0022B12D0002B05D088
:104190007F2399432000FDF7B3FD03E029002000B1
:1041A00000F02CFB002070BD2900200000F05CFB1B
:1041B000F8E72900200000F08AFBF3E7AE020000D8
:1041C00070B505000C001100002C38D1A5239B0010
:1041D000C358032B03D0052B28D020003DE002005C
:1041E0005532FF32D368126993420DD99B1A55306C
:1041F000FF30C3609A4205D99AB2280000F0B3FCA0
:1042000020002AE092B2F8E7AD239B00C3581B6957
:10421000002B04D0A7229200825C032A04D028003D
:1042200000F0A9FC200018E09847F8E7A5239B00C0
:104230000022C2500021FDF763FD20000DE0AD23F8
:104240009B00C3589B69002B08D0A7229200825C78
:10425000032A05D121009847002070BD0220FCE709
:104260000220FAE7F8B505000C001100002C5BD124
:10427000A5239B00C358022B0ED0042B01D0002B8A
:1042800003D180212800FDF73BFDA8239B00EB5CB8
:10429000012B43D02000F8BD026A466AB24220D802
:1042A000C76931003800FBF751FF002906D1BE4233
:1042B00004D8A6239B00EB589F421ED3AD239B003E
:1042C000EB58DB68002B04D0A7229200AA5C032ADB
:1042D00021D080212800FDF713FD280000F057FCB5
:1042E000D3E7921B026292B200F024FC002300226A
:1042F00000212800FDF73DFDC7E70022280000F05F
:1043000019FCA6239B000022EA500023002128006C
:10431000FDF72FFDB9E728009847DAE7A8239B00AF
:104320000022EA542000B6E7AD239B00C3585B6926
:10433000002B08D0A7229200825C032A05D121001D
:1043400098470020A7E70220A5E70220A3E770B561
:104350000400402300220021FDF7C6FC0125AC2308
:104360005B00E55040260C33E650253BFF3B002226
:1043700080212000FDF7B8FCA5616662A7239B00A1
:10438000E5540023A5229200A35063601032A3508D
:10439000AE239B00E358002B06D0AD239B00E358CF
:1043A0005B68002120009847002070BD0174002048
:1043B00070470000A7239B00C15C034A815404227C
:1043C000C25400207047C0469D020000A7239B00F6
:1043D000C35C042B01D000207047024BC25C013B40
:1043E000C254F8E79D02000010B5A7239B00C35CF0
:1043F000032B01D0002010BDAD239B00C358DB6907
:10440000002BF7D09847F5E7030000201A78002A20
:1044100003D00130C0B20133F8E7704710B54B88C4
:10442000012B00D010BDA9239B000122C25000F037
:10443000A2FBF7E70B7803704B7843708B78CA7850
:1044400012029B1843800B794A7912029B188380D1
:104450008B79CA7912029B18C380704710B504008B
:104460008021FDF74DFC00212000FDF749FC10BD27
:1044700030B583B005000C006B460022DA80498815
:104480000B0A072B00D9C0E09B006A4AD3589F460D
:10449000AC239B00C3581B68007C6A46911D98475B
:1044A0006B4606331B88002B03D0E288002A00D01D
:1044B000B0E0E388002B00D1B8E003B030BD037C4E
:1044C000002B09D1AD239B00C3589B6A6A46901DFF
:1044D000984702234370E3E7AD239B00C358DB6A90
:1044E0006A46901D984702234370D9E7C9B205294F
:1044F0005DD88900504B5B589F46AC239B00C35846
:104500005B68002B04D0007C6A46911D9847C7E782
:104510002100FFF7A3FFD0E7AC239B00C3589B68A3
:10452000002B04D0007C6A46911D9847B8E7210013
:10453000FFF794FFC1E7AC239B00C358DB68002B57
:1045400004D0007C6A46911D9847A9E72100FFF737
:1045500085FFB2E7AC239B00C3581B69002B04D036
:10456000007C6A46911D98479AE72100FFF776FF85
:10457000A3E7AC239B00C3585B69002B04D0007CED
:104580006A46911D98478BE72100FFF767FF94E784
:10459000AC239B00C3589B69002B04D0007C6A4667
:1045A000911D98477CE72100FFF758FF85E7AD2371
:1045B0009B00C3589B6B002B03D06A46063298477A
:1045C0006EE72100FFF74AFF77E7037C002B07D156
:1045D000AD239B00C3585B6B6A46901D98475FE70D
:1045E0002100FFF73BFF68E7037C002B09D1AD23D7
:1045F0009B00C3581B6B6A46901D98470723437066
:104600004EE72100FFF72AFF57E721002800FFF7B8
:1046100025FF52E7191C934200D9111C8AB26B4640
:10462000D9800100280000F077FA42E7280000F066
:10463000A2FA42E72C6100084C61000870B5040042
:104640008B88002B23D1CB88002B20D14B887F2B4C
:104650001DD87F251D40A7239B00C35C032B0ED0D4
:104660000D4BC5542900FDF772FB200000F083FAC2
:10467000002D07D0A7239B000222E2540AE0FFF797
:10468000EDFE07E0A7239B000122E25402E0200098
:10469000FFF7E4FE70BDC0469E02000070B5040046
:1046A0000D0089782A4B197001290FD8A7239B0088
:1046B000C35C022B0ED0032B23D02900FFF7CEFEC4
:1046C000234B19782000FFF740FD02E02900FFF797
:1046D000C5FE70BD002911D04160A7239B000322B5
:1046E000C254FFF723FD022803D0200000F043FA54
:1046F000EFE729002000FFF7B1FEEAE700F03BFA00
:10470000E7E7002911D0436899421ED0D9B2FFF7DC
:104710001CFD0F4B197861602000FFF707FD022890
:104720000ED0200000F027FAD3E7A7239B00022237
:10473000C2544160FFF709FD200000F01CFAC8E7F1
:1047400029002000FFF78AFEC3E700F014FAC0E753
:104750008805002010B5CB88012B0BD1A7239B0027
:10476000C35C022B09D9032B09D1011D012200F0E2
:10477000D3F901E0FFF772FE10BD002B02D1FFF765
:104780006DFEF9E70023836001000831012200F08B
:10479000C3F9F1E710B5A7239B00C35C013B022BD3
:1047A00014D8CB88022B0ED10123C360A9239B0010
:1047B000C358002B01D00323C36001000C31022237
:1047C00000F0AAF910BDFFF749FEFBE7FFF746FE30
:1047D000F8E710B5A7239B00C35C013B022B0AD866
:1047E0004B88012B00D010BDA9239B000022C25092
:1047F00000F0C1F9F7E7FFF731FEF4E710B50A78EA
:1048000060231340202B06D0402B04D0002B09D06E
:10481000FFF724FE04E0AD239B00C3589B68984734
:10482000002010BD4B78092B18D89B000D4AD35897
:104830009F46FFF71DFEF3E7FFF700FFF0E7FFF7E6
:104840002DFFEDE7FFF786FFEAE7FFF7A3FFE7E7B6
:10485000FFF7E4FDE4E7FFF7BCFFE1E7FFF7FEFD4C
:10486000DEE7C0466461000870B505000C000A78F8
:1048700060231340202B07D0402B05D0002B03D002
:10488000FFF7ECFD002070BDA7239B00EB5C013B14
:10489000022B17D82379012B0FD8AD239B00EB589F
:1048A0009B68210028009847E388002BEAD1002864
:1048B000E8D1280000F05FF9E4E721002800FFF7C5
:1048C000CDFDDFE721002800FFF7C8FDDAE770B56E
:1048D000050088880A790B7860241C40202C08D0B9
:1048E000402C06D0002C0DD02800FFF7B7FD002487
:1048F00006E0AD239B00EB589B68280098470024F6
:10490000200070BD202C0AD04E78012E3ED0032E00
:104910000DD0002E64D02800FFF7A0FDF0E7AD23F6
:104920009B00EB589B68280098470400E8E7A72302
:104930009B00EB5C022B05D0032B14D02800FFF763
:104940008DFDDDE7002A01D0802A03D12800FFF782
:1049500085FDD5E711002800FDF7D2F98021280058
:10496000FDF7CEF9CCE74B88002B06D1002A04D006
:10497000802A02D0CB88002B03D0280000F0FBF85F
:10498000BEE711002800FDF7BBF9F6E7A7239B005F
:10499000EB5C022B05D0032B14D02800FFF75EFD43
:1049A000AEE7002A01D0802A03D12800FFF756FD88
:1049B000A6E711002800FDF7A3F980212800FDF7E4
:1049C0009FF99DE74B88002B9AD1530603D128000D
:1049D00000F0D1F894E711002800FDF79AF9F6E706
:1049E000A7239B00EB5C022B06D0032B29D02800C9
:1049F000FFF734FD340083E7002A01D0802A12D16A
:104A0000030615D47F210A4091008918890051318D
:104A1000FF316918043100230B600222280000F0E6
:104A20007BF834006CE72800FFF718FD340067E7D7
:104A30007F210A40910089188900103169180431DA
:104A4000E9E744B2030622D40F20104083001B186C
:104A50009B00EB185933FF331B68002B25D0002C2B
:104A600028DB7F2313409C00E418A4005134FF345A
:104A70002C190434002A01D0802A24D10023236079
:104A800002222100280000F047F8340038E70F2008
:104A9000104083001B189B00EB189B69002BDED194
:104AA0002800FFF7DBFC34002AE72800FFF7D6FCDC
:104AB000340025E77F2313409C00E418A400103441
:104AC0002C190434D6E711002800FDF72BF9002833
:104AD00002D001232360D3E700232360D0E770B521
:104AE00004000D001600002815D0FFF78DFC0130E2
:104AF00040003080287003236B70013B08E00134D4
:104B00005A1CD2B2E8540233DBB2AA180021117049
:104B100020780028F3D170BD10B51300A5229200B3
:104B200002248450C36103620A000021FDF718F9D2
:104B3000002010BD10B513000A000021FDF710F988
:104B4000002010BD10B51300A5229200032484504C
:104B5000393AFF3A8350043283500A000021FDF7AE
:104B600008F9002010BD10B513000A000021FDF760
:104B700000F9002010BD10B5A5239B000422C250EF
:104B8000002300220021FDF7EBF8002010BD10B536
:104B9000A5239B000522C250002300220021FDF71F
:104BA000E8F8002010BD70B504000268D368A021A9
:104BB0008B43D360FEF7C6FE05002368DB689B06C7
:104BC00008D4FEF7BFFE401BFA239B009842F4D99D
:104BD000032000E0002070BD70B504000368DA68AF
:104BE000520601D5002070BD01225242DA60FEF764
:104BF000A9FE05002368DB685B0608D4FEF7A2FE69
:104C0000401BFA2292009042F4D90320EBE70020E7
:104C1000E9E7000070B5041E57D0437F002B3DD05C
:104C2000022363772368CA225A622368773A5A625A
:104C30002000FFF7D1FF051E34D122689368244974
:104C40000B40936021688A68636820690343606948
:104C5000034313438B602368E2681A6121680B6980
:104C6000A268120413430B612268D36880218B432E
:104C7000D36023689B689B061BD52268136C15497B
:104C80000B4013642268136CA1690B4313642368FF
:104C9000FF225A6201236377280070BD0377FDF776
:104CA00051F9BDE72368FF225A6204236377012587
:104CB000F2E72000FFF777FF0028DED02368FF220D
:104CC0005A62042363770125E6E70125E4E7C0463D
:104CD000BFFF8FFFFFFFFBFF0023092803D901332C
:104CE0000A38C0B2F9E71B01DBB218437047000075
:104CF000F8B504000E00037F012B00D170E0012302
:104D0000037701334377002A42D103689B685B062F
:104D100001D40023CB703078FFF7DEFF05047078F4
:104D2000FFF7DAFF00020543B078FFF7D5FF054330
:104D3000F078000405432368CA225A622368773A50
:104D40005A622000FFF748FF071E32D1236825482A
:104D500005401D602268936823490B4093602168D9
:104D60008B68F2683069024313438B602268D36812
:104D700080218B43D36023689B689B0622D52368E0
:104D8000FF225A6201236377002323773800F8BD9E
:104D900003689B685B0601D40023CB7035782D0433
:104DA000707800020543B0780543F07800040543AD
:104DB000C1E72368FF225A62042363770023237725
:104DC0000127E3E72000FFF7EEFE0028D7D0236895
:104DD000FF225A6204236377002323770127D5E754
:104DE0000227D3E77F7F7F00FFFFFBFF0200000960
:104DF00083001B185B000F201040C018C0B2704722
:104E0000F8B50C0003689B6A4B6003681B695B0480
:104E10005B0C8B6003681B680E490B401E0C3F2027
:104E2000304020701D0A7F273D4065701F40A770ED
:104E300040213140E170002A0AD1FFF7D7FF2070EE
:104E40002800FFF7D3FF60703800FFF7CFFFA07096
:104E50000020F8BD7F7F7F0070B50C0003685B68A1
:104E60000E490B40180CE070190A1F260E406670A0
:104E70003F251D40A5705B0B07210B402370002AC6
:104E80000AD1FFF7B3FFE0703000FFF7AFFF6070AB
:104E90002800FFF7ABFFA070002070BD3FFFFF00B0
:104EA00000207047002070470020704700207047A6
:104EB00000207047002070471B2303800048704784
:104EC000B400002000207047002070470020704789
:104ED0000020704700207047002070470A2303809D
:104EE00000487047D0000020AE239B00C3588322A7
:104EF000D2009A5C0A2A12D00A218322D200995445
:104F0000083A0E20985400220E481A540E481A549B
:104F10000E481A540E4819540E495A54704702212B
:104F20008322D200995400228220C0001A540548DE
:104F30001A5405481A5405481A5405481954054985
:104F40005A54EBE71104000012040000130400009F
:104F50001404000015040000AE239B00C3588322F4
:104F6000D200995C8A1ED2B2012A05D9052903D044
:104F7000062901D0092915D102218322D200995492
:104F800000228220C0001A5407481A5407481A54B5
:104F900007481A540748195407495A5415395A50A2
:104FA00006495A507047C046110400001204000020
:104FB00013040000140400001504000004040000A1
:104FC00010B5062909D8AF239B00C3581868044CB4
:104FD0002100FFF784FD200010BD0020FCE7C04643
:104FE0008C05002010B50400AE239B00C358194A5D
:104FF00000219954184A127D52070DD5063183229B
:10500000D2009954002215481A5415481A541548CC
:105010001A54154A995410BD08218322D20099547C
:1050200000220E481A540E481A540E481A540E4ABA
:1050300099542000FFF76DF8AF239B00E3589B685D
:105040009847BFF34F8F094B094ADA60BFF34F8F80
:10505000C046FDE719040000B40000201104000060
:1050600012040000130400001404000000ED00E02E
:105070000400FA0510B582B0AE239B00C45861331A
:10508000FF33E35C042B05D0072B00D172E0002036
:1050900002B010BD8023DB00E158002956D12378EF
:1050A000002B03D1354AA258012A3CD0212B1CD019
:1050B000412B2CD1314BE358052B28D16378A278B2
:1050C00012029B18E27812049B18227912069B1890
:1050D0008122D200A3504D3AFF3A8258D26818007C
:1050E000904700281FD00220D2E7244AA258052A60
:1050F000DED16378A27812029B18E27812049B1822
:10510000227912069B188122D200A3500BE00023C3
:105110001A4AA350043AA3506A4613700133D3804D
:105120006946FFF79BF90023144AA350043AA350A1
:1051300003228321C9006254114963541149635405
:1051400011496354114BE2540020A1E70129EAD927
:10515000023989028123DB00E358C918AF239B0081
:10516000C3581B69054AA258200098470028DAD086
:1051700002208DE7FFF736FF002089E704040000D6
:1051800011040000120400001304000014040000C5
:1051900070B50500AE239B00C458CB88002B65D0AA
:1051A0008323DB00E35C022B01D0092B56D1488816
:1051B0008023DB00E050CA88334BE25000281BD12B
:1051C000032A17D902228323DB00E25400232F494C
:1051D00063542F4963542F4963542F4962542370F9
:1051E000213363702033A370032221002800FFF7CE
:1051F00093FC48E00922E6E701281ED90921832310
:10520000DB00E1540023214EA355214EA355214E2E
:10521000A355214BE154023880020C3BE358C018DF
:10522000AF239B00EB585B69210098470100164BA8
:10523000E25A2800FFF770FC25E00F228323DB00F1
:10524000E254002311482354114823541148235495
:10525000114BE2542800FFF701F914E000230A4A39
:10526000A350043AA350FFF7F9F80CE0022283237D
:10527000DB00E254002305496354054963540549A2
:105280006354054BE25470BD040400001104000097
:1052900012040000130400001404000070B505009F
:1052A000AE239B00C4586133FF33E35C032B09D06A
:1052B000062B46D08223DB00E11806222800FFF7E8
:1052C0002BFC70BD324BE358002B2CD004228323DF
:1052D000DB00E25400232F4963542F4963542F49C4
:1052E00063542F4BE254143BE358002B02D1237834
:1052F000412B0CD0AF239B00EB589B698222D2003C
:10530000A2188121C900605801219847D2E7AF2334
:105310009B00C3589B698222D200A2180B396058A7
:1053200000219847C6E705228323DB00E2540023CF
:10533000184963541849635418496354184BE2548C
:10534000B8E7184BE35C012B13D0002BB2D1164BFE
:105350001B7D5B07AED502228323DB00E2540023D2
:105360000C4963540C4963540C4963540C4BE2548C
:10537000A0E706338322D200A354064A0121A15498
:1053800000220549625405496254054AA35491E735
:1053900004040000110400001204000013040000C3
:1053A0001404000019040000B400002010B5AE235E
:1053B0009B00C1586133FF339C4661440122FFF7D3
:1053C000ABFB10BD10B5AE239B00C358CA88002AA2
:1053D0001AD08322D2009A5C022A01D0052A10D169
:1053E0004C888022D2009C50CA8814495A5003210C
:1053F0008324E4001955124C19551900FFF7A2FB3C
:1054000018E0FFF72BF815E08322D2009A5C052AFA
:1054100001D0022A0FD10B4A012199540531013ADA
:105420009954002208481A5408481A5408481A5433
:10543000034A995410BDFFF711F8FBE7040400007C
:1054400014040000190400001104000012040000FC
:105450001304000070B50400AE239B00C3588322E0
:10546000D200985C821ED2B2012A05D9052803D049
:10547000062801D0092815D102208322D200985491
:1054800000228225ED005A550E4D5A550E4D5A55A3
:105490000E4D5A550E4D58550E481A5415381A507F
:1054A0000D481A500D4B5B7DDB0606D52000FEF73C
:1054B00030FE2000FEF728FE70BD4888FEF748FA4F
:1054C000FAE7C046110400001204000013040000B3
:1054D000140400001504000004040000B4000020BF
:1054E00070B582B06B460022DA80AE239B00C658AE
:1054F0000B78603215001D401A4227D0202D77D13D
:105500004D78062D1ED8AB003C4AD3589F46FFF776
:1055100059FF00256FE0FFF73BFE00256BE0FFF72A
:10552000BDFE002567E0FFF7DFFC002563E0FFF725
:105530003DFF00255FE0FFF70FFD00255BE0FFF773
:1055400089FF58E0FEF78AFF022554E04C780A2CC8
:1055500033D00CD8002C17D0062C45D14B881B0A11
:10556000212B21D000220021FFF7D6FA43E00B2C9B
:105570003AD18D78002D33D1A7239B00C35C032B38
:105580002AD11F4BF55036E0A7239B00C35C032BA9
:1055900003D0FEF763FF02252DE002226B46991D22
:1055A000FFF7BAFA250026E0CB881A1C092B00D990
:1055B000092292B213491231D6E7A7239B00C35C9C
:1055C000032B03D0FEF74AFF022514E00C4BF11821
:1055D0000122FFF7A1FA0EE0FEF740FF02250AE0E4
:1055E000FEF73CFF022506E0FEF738FF022502E049
:1055F000FEF734FF0225280002B070BDEC61000800
:105600000C040000B400002070B50400AE21890035
:10561000435800228020C0001A500D481A50022022
:105620008325ED005855083D5A550A4A9854635849
:10563000002B0BD0AF239B00E3589B689847593D44
:10564000FF3D6059FCF7A2FB00236351002070BDB1
:10565000040400001404000010B504001848FCF70E
:1056600091FBAE239B00E050002824D00023154A74
:105670008350043A802109058150083A8350124A28
:105680008350124A835402228321C90042540839AC
:1056900043540F4943540F4943540F4943540F494E
:1056A00042540F4A8354AF239B00E3585B689847EA
:1056B000002802D110BD0220FCE70220FAE7C04614
:1056C0001C0400000C040000040400001904000085
:1056D0001104000012040000130400001404000070
:1056E00015040000002902D0AF239B00C150002008
:1056F000704700001348854613480168090E134A95
:10570000914205D1124813490160134813490160C1
:1057100013481449144A002302E0D458C4500433F7
:10572000C4188C42F9D3114A114C002301E01360D4
:105730000432A242FBD3FEF7C1FC00F01DF8FCF7D7
:105740008FF8FEE700180020040000001F00000092
:10575000181002400100000000000140000000009D
:1057600000000020400100204462000840010020A9
:10577000580E0020FEE7000070B500260C4D0D4CC1
:10578000641BA410A64209D1002600F055FC0A4D66
:105790000A4C641BA410A64205D170BDB300EB589F
:1057A00098470136EEE7B300EB5898470136F2E729
:1057B0003C6200083C6200083C620008406200084D
:1057C00003008218934200D1704719700133F9E742
:1057D0000EB400B50B499CB01DAB0290069007912A
:1057E00004910948094904CB0591006802A9019375
:1057F00000F072F80023029A13701CB008BC03B0CA
:105800001847C046FFFFFF7FDC0000200802FFFFB3
:1058100070477047F0B58E6885B007000C000392A2
:1058200001939E423CD890238A89DB001A4234D0EF
:105830000325096923685B1A0293636902985D4333
:10584000EB0F5D19019B6D1001331B18AB4200D9A2
:105850001D00530532D52900380000F031FB061E2B
:1058600009D10C233B6040230120A289404213430D
:10587000A38105B0F0BD029A216900F0BAFAA389AC
:10588000144A1A4080231343A381029B2661F61811
:1058900026606561019EED1AA560019B9E4200D9BC
:1058A000019E32000399206800F0ACFAA368002042
:1058B0009B1BA36023689E192660DAE72A00380044
:1058C00000F05CFB061EE0D13800216900F0AEFA62
:1058D000C7E7C0467FFBFFFFF0B5A1B003901D00F6
:1058E0008B890F0016001B0611D50B69002B0ED1FA
:1058F000402100F0E5FA38603861002805D10C231A
:10590000039A0138136021B0F0BD40237B6100236E
:1059100008AC6361203363761033A37607953500B6
:105920002B78002B01D0252B47D1AB1B0593B5421B
:105930000CD0320039000398FFF76CFF431C00D1F4
:10594000AEE06269059B9446634463612B78002B4B
:1059500000D1A5E0012200235242626004A9543222
:1059600052186E1C2360E360A3601370A3650522C8
:105970003178544800F032FA751C00281FD1226893
:10598000D30604D5532304A95B18202119701307EB
:1059900004D5532304A95B182B21197033782A2BC3
:1059A00016D0350000210A20E3682A786E1C303AB0
:1059B000092A4ED9002911D117E00135B0E7414B32
:1059C0002268C01A0123834013432E002360CEE7D0
:1059D000079B191D1B680791002B01DB0B9304E04B
:1059E0005B42E3600223134323602B782E2B0AD102
:1059F0006B782A2B35D1079B02351A1D1B6807923D
:105A0000002B2BDB0993304E03223000297800F065
:105A1000E5F9002806D04023801B83402268013529
:105A2000134323602978062228486E1C217600F053
:105A3000D5F900283CD0264B002B25D10722079B07
:105A400007339343083307936369049A9B18636190
:105A500065E74343350001219B18A6E701235B421C
:105A6000D0E700230A201A000135636029786E1CF4
:105A70003039092903D9002BC5D00992C3E7424325
:105A8000350001235218F1E707AB00933A002100DB
:105A9000104B039800E000BF0490049B0133D3D166
:105AA000BB890D985B0600D42DE7012040422AE710
:105AB00007AB00933A002100064B039800F07CF8F6
:105AC000EAE7C046086200080E6200081262000899
:105AD0000000000015580008F7B5150001938A680A
