:020000040800F2
:100000000020002095880008E7500008E95000080B
:1000100000000000000000000000000000000000E0
:10002000000000000000000000000000EB5000088D
:100030000000000000000000ED500008EF50000834
:10004000E5880008E5880008E5880008E5880008DC
:10005000E5880008E5880008E5880008E5880008CC
:10006000E5880008E5880008E5880008E5880008BC
:10007000E5880008E588000800000000E588000821
:1000800000000000E58800080000000000000000FB
:10009000E588000800000000E5880008E588000801
:1000A000E5880008E5880008E5880008E58800087C
:1000B000E5880008E588000800000000F950000805
:1000C000002934D00123002210B488422CD301240B
:1000D0002407A14204D2814202D209011B01F8E7A0
:1000E000E400A14204D2814202D249005B00F8E759
:1000F000884201D3401A1A434C08A04202D3001B85
:100100005C0822438C08A04202D3001B9C082243B7
:10011000CC08A04202D3001BDC082243002803D0F5
:100120001B0901D00909E3E7101C10BC704701B599
:10013000002000F05FF802BD0029F8D003B5FFF7FA
:10014000C1FF0EBC4243891A1847C046002941D05E
:1001500010B4041C4C40A44601230022002900D501
:100160004942002800D5404288422CD3012424076C
:10017000A14204D2814202D209011B01F8E7E40046
:10018000A14204D2814202D249005B00F8E78842D2
:1001900001D3401A1A434C08A04202D3001B5C084A
:1001A00022438C08A04202D3001B9C082243CC08A7
:1001B000A04202D3001BDC082243002803D01B0905
:1001C00001D00909E3E7101C6446002C00D5404229
:1001D00010BC704701B5002000F00CF802BDC0460D
:1001E0000029F7D003B5FFF7B3FF0EBC4243891ACD
:1001F0001847C0467047C04610B5064C2378002B00
:1002000007D1054B002B02D0044800E000BF0123BA
:10021000237010BD6C04002000000000008B00085B
:10022000044B10B5002B03D00349044800E000BF85
:1002300010BDC0460000000070040020008B0008C4
:1002400070B588B01422002103A808F071FB124B8E
:10025000DA6A01242243DA62DA6A22400192019AC0
:10026000D96A02221143D962DB6A1A400292029BC8
:10027000C426F600A025ED0500223100280006F076
:100280000FF80396049400230593069303A928000E
:1002900005F03EFF08B070BD0010024010B50D4CD7
:1002A0000D4B23600D4B63600023A3600122E260CD
:1002B00023616361A361E3612362200005F082F89A
:1002C0000021200005F0B4F90021200005F0DCF940
:1002D00010BDC046B8060020005400405B3D300011
:1002E00003000A00181C111CABBE704730B589B062
:1002F00004AB084A190031CA31C112780A700222CF
:10030000019202930C23039301A90520FFF7E8FF54
:1003100009B030BD188B000800B585B089B26423E0
:100320000293623B019300920A006021024805F0AB
:10033000AFF805B000BDC046B806002010B51C00DF
:10034000012801D100F0EFFF022801D102F017F8D7
:10035000002800D010BD0929FCD88900EB4B5B5860
:100360009F460D2AF6D89200E94B9B589F46C5221E
:10037000FE216020FFF7D0FF0022FD216020FFF763
:10038000CBFF220002216020FFF7C6FFE2E7C52273
:10039000FE216020FFF7C0FF0022FD216020FFF753
:1003A000BBFF220005216020FFF7B6FFD2E7C52280
:1003B000FE216020FFF7B0FF0022FD216020FFF743
:1003C000ABFF220008216020FFF7A6FFC2E7C5228D
:1003D000FE216020FFF7A0FF0022FD216020FFF733
:1003E0009BFF22000B216020FFF796FFB2E7C5229A
:1003F000FE216020FFF790FF0022FD216020FFF723
:100400008BFF22000E216020FFF786FFA2E7C522A6
:10041000FE216020FFF780FF0022FD216020FFF712
:100420007BFF220011216020FFF776FF92E7C522B3
:10043000FE216020FFF770FF0022FD216020FFF702
:100440006BFF220014216020FFF766FF82E7C522C0
:10045000FE216020FFF760FF0022FD216020FFF7F2
:100460005BFF220017216020FFF756FF72E7C522CD
:10047000FE216020FFF750FF0022FD216020FFF7E2
:100480004BFF22001A216020FFF746FF62E7C522DA
:10049000FE216020FFF740FF0022FD216020FFF7D2
:1004A0003BFF22001D216020FFF736FF52E7C522E7
:1004B000FE216020FFF730FF0122FD216020FFF7C1
:1004C0002BFF22005C216020FFF726FF42E7C522B8
:1004D000FE216020FFF720FF0122FD216020FFF7B1
:1004E0001BFF22005F216020FFF716FF32E7C522C5
:1004F000FE216020FFF710FF0122FD216020FFF7A1
:100500000BFF220062216020FFF706FF22E70D2A81
:1005100000D91FE792007F4B9B589F46C522FE21C2
:100520006020FFF7F9FE0022FD216020FFF7F4FEB6
:10053000220020216020FFF7EFFE0BE7C522FE21FD
:100540006020FFF7E9FE0022FD216020FFF7E4FEB6
:10055000220023216020FFF7DFFEFBE6C522FE21FB
:100560006020FFF7D9FE0022FD216020FFF7D4FEB6
:10057000220026216020FFF7CFFEEBE6C522FE21F8
:100580006020FFF7C9FE0022FD216020FFF7C4FEB6
:10059000220029216020FFF7BFFEDBE6C522FE21F5
:1005A0006020FFF7B9FE0022FD216020FFF7B4FEB6
:1005B00022002C216020FFF7AFFECBE6C522FE21F2
:1005C0006020FFF7A9FE0022FD216020FFF7A4FEB6
:1005D00022002F216020FFF79FFEBBE6C522FE21EF
:1005E0006020FFF799FE0022FD216020FFF794FEB6
:1005F000220032216020FFF78FFEABE6C522FE21EC
:100600006020FFF789FE0022FD216020FFF784FEB5
:10061000220035216020FFF77FFE9BE6C522FE21E8
:100620006020FFF779FE0022FD216020FFF774FEB5
:10063000220038216020FFF76FFE8BE6C522FE21E5
:100640006020FFF769FE0022FD216020FFF764FEB5
:1006500022003B216020FFF75FFE7BE6C522FE21E2
:100660006020FFF759FE0122FD216020FFF754FEB4
:10067000220065216020FFF74FFE6BE6C522FE21B8
:100680006020FFF749FE0122FD216020FFF744FEB4
:10069000220068216020FFF73FFE5BE6C522FE21B5
:1006A0006020FFF739FE0122FD216020FFF734FEB4
:1006B00022006B216020FFF72FFE4BE60D2A00D9A8
:1006C00048E69200144B9B589F46C522FE216020AD
:1006D000FFF722FE0022FD216020FFF71DFE220011
:1006E0003E216020FFF718FE34E6C522FE2160207F
:1006F000FFF712FE0022FD216020FFF70DFE220011
:1007000041216020FFF708FE24E6C046288B000840
:10071000508B0008888B0008C08B0008C522FE2182
:100720006020FFF7F9FD0022FD216020FFF7F4FDB6
:10073000220044216020FFF7EFFD0BE6C522FE21D9
:100740006020FFF7E9FD0022FD216020FFF7E4FDB6
:10075000220047216020FFF7DFFDFBE5C522FE21D7
:100760006020FFF7D9FD0022FD216020FFF7D4FDB6
:1007700022004A216020FFF7CFFDEBE5C522FE21D4
:100780006020FFF7C9FD0022FD216020FFF7C4FDB6
:1007900022004D216020FFF7BFFDDBE5C522FE21D1
:1007A0006020FFF7B9FD0022FD216020FFF7B4FDB6
:1007B000220050216020FFF7AFFDCBE5C522FE21CE
:1007C0006020FFF7A9FD0022FD216020FFF7A4FDB6
:1007D000220053216020FFF79FFDBBE5C522FE21CB
:1007E0006020FFF799FD0022FD216020FFF794FDB6
:1007F000220056216020FFF78FFDABE5C522FE21C8
:100800006020FFF789FD0022FD216020FFF784FDB5
:10081000220059216020FFF77FFD9BE5C522FE21C4
:100820006020FFF779FD0122FD216020FFF774FDB4
:1008300022006E216020FFF76FFD8BE5C522FE21AF
:100840006020FFF769FD0122FD216020FFF764FDB4
:10085000220071216020FFF75FFD7BE5C522FE21AC
:100860006020FFF759FD0122FD216020FFF754FDB4
:10087000220074216020FFF74FFD6BE50D2A00D99F
:1008800068E59200EC4B9B589F46C522FE216020F4
:10089000FFF742FD0022FD216020FFF73DFD220011
:1008A0005C216020FFF738FD54E5C522FE21602061
:1008B000FFF732FD0022FD216020FFF72DFD220011
:1008C0005F216020FFF728FD44E5C522FE2160205E
:1008D000FFF722FD0022FD216020FFF71DFD220011
:1008E00062216020FFF718FD34E5C522FE2160205B
:1008F000FFF712FD0022FD216020FFF70DFD220011
:1009000065216020FFF708FD24E5C522FE21602057
:10091000FFF702FD0022FD216020FFF7FDFC220011
:1009200068216020FFF7F8FC14E5C522FE21602055
:10093000FFF7F2FC0022FD216020FFF7EDFC220012
:100940006B216020FFF7E8FC04E5C522FE21602052
:10095000FFF7E2FC0022FD216020FFF7DDFC220012
:100960006E216020FFF7D8FCF4E4C522FE21602050
:10097000FFF7D2FC0022FD216020FFF7CDFC220012
:1009800071216020FFF7C8FCE4E4C522FE2160204D
:10099000FFF7C2FC0022FD216020FFF7BDFC220012
:1009A00074216020FFF7B8FCD4E4C522FE2160204A
:1009B000FFF7B2FC0022FD216020FFF7ADFC220012
:1009C00077216020FFF7A8FCC4E4C522FE21602047
:1009D000FFF7A2FC0122FD216020FFF79DFC220011
:1009E00077216020FFF798FCB4E4C522FE21602047
:1009F000FFF792FC0122FD216020FFF78DFC220011
:100A00007A216020FFF788FCA4E4C522FE21602043
:100A1000FFF782FC0122FD216020FFF77DFC220010
:100A20007D216020FFF778FC94E40D2A00D991E441
:100A30009200824B9B589F46C522FE216020FFF703
:100A40006BFC0022FD216020FFF766FC22007A216A
:100A50006020FFF761FC7DE4C522FE216020FFF7E6
:100A60005BFC0022FD216020FFF756FC22007D2167
:100A70006020FFF751FC6DE4C522FE216020FFF7E6
:100A80004BFC0022FD216020FFF746FC2200802164
:100A90006020FFF741FC5DE4C522FE216020FFF7E6
:100AA0003BFC0022FD216020FFF736FC2200832161
:100AB0006020FFF731FC4DE4C522FE216020FFF7E6
:100AC0002BFC0022FD216020FFF726FC220086215E
:100AD0006020FFF721FC3DE4C522FE216020FFF7E6
:100AE0001BFC0022FD216020FFF716FC220089215B
:100AF0006020FFF711FC2DE4C522FE216020FFF7E6
:100B00000BFC0022FD216020FFF706FC22008C2157
:100B10006020FFF701FC1DE4C522FE216020FFF7E5
:100B2000FBFB0022FD216020FFF7F6FB22008F2156
:100B30006020FFF7F1FBFFF70DFCC522FE216020CE
:100B4000FFF7EAFB0022FD216020FFF7E5FB220012
:100B500092216020FFF7E0FBFFF7FCFBC522FE219E
:100B60006020FFF7D9FB0022FD216020FFF7D4FBB6
:100B7000220095216020FFF7CFFBFFF7EBFBC5229A
:100B8000FE216020FFF7C8FB0122FD216020FFF756
:100B9000C3FB220080216020FFF7BEFBFFF7DAFBDA
:100BA000C522FE216020FFF7B7FB0122FD21602056
:100BB000FFF7B2FB220083216020FFF7ADFBFFF7B8
:100BC000C9FBC522FE216020FFF7A6FB0122FD2103
:100BD0006020FFF7A1FB220086216020FFF79CFB2D
:100BE000FFF7B8FB0D2A01D9FFF7B4FB9200144BB5
:100BF0009B589F46C522FE216020FFF78DFB0022F7
:100C0000FD216020FFF788FB220098216020FFF77C
:100C100083FBFFF79FFBC522FE216020FFF77CFBD3
:100C20000022FD216020FFF777FB22009B2160203E
:100C3000FFF772FBFFF78EFBF88B0008308C000883
:100C4000688C0008C522FE216020FFF765FB0022AA
:100C5000FD216020FFF760FB22009E216020FFF74E
:100C60005BFBFFF777FBC522FE216020FFF754FBFB
:100C70000022FD216020FFF74FFB2200A121602010
:100C8000FFF74AFBFFF766FBC522FE216020FFF756
:100C900043FB0022FD216020FFF73EFB2200A42140
:100CA0006020FFF739FBFFF755FBC522FE216020CE
:100CB000FFF732FB0022FD216020FFF72DFB220011
:100CC000A7216020FFF728FBFFF744FBC522FE2188
:100CD0006020FFF721FB0022FD216020FFF71CFBB5
:100CE0002200AA216020FFF717FBFFF733FBC52284
:100CF000FE216020FFF710FB0022FD216020FFF79E
:100D00000BFB2200AD216020FFF706FBFFF722FB63
:100D1000C522FE216020FFF7FFFA0022FD2160209E
:100D2000FFF7FAFA2200B0216020FFF7F5FAFFF78B
:100D300011FBC522FE216020FFF7EEFA0022FD2103
:100D40006020FFF7E9FA2200B3216020FFF7E4FA00
:100D5000FFF700FBC522FE216020FFF7DDFA01222C
:100D6000FD216020FFF7D8FA220089216020FFF7DB
:100D7000D3FAFFF7EFFAC522FE216020FFF7CCFA85
:100D80000122FD216020FFF7C7FA22008C2160209C
:100D9000FFF7C2FAFFF7DEFAC522FE216020FFF757
:100DA000BBFA0122FD216020FFF7B6FA22008F2155
:100DB0006020FFF7B1FAFFF7CDFA0D2A01D9FFF74E
:100DC000C9FA9200F74B9B589F46C522FE2160202E
:100DD000FFF7A2FA0122FD216020FFF79DFA220011
:100DE00002216020FFF798FAFFF7B4FAC522FE212E
:100DF0006020FFF791FA0122FD216020FFF78CFAB5
:100E0000220005216020FFF787FAFFF7A3FAC52229
:100E1000FE216020FFF780FA0122FD216020FFF70C
:100E20007BFA220008216020FFF776FAFFF792FA9A
:100E3000C522FE216020FFF76FFA0122FD2160200C
:100E4000FFF76AFA22000B216020FFF765FAFFF72F
:100E500081FAC522FE216020FFF75EFA0122FD2102
:100E60006020FFF759FA22000E216020FFF754FAA4
:100E7000FFF770FAC522FE216020FFF74DFA01222C
:100E8000FD216020FFF748FA220011216020FFF7C2
:100E900043FAFFF75FFAC522FE216020FFF73CFA14
:100EA0000122FD216020FFF737FA22001421602083
:100EB000FFF732FAFFF74EFAC522FE216020FFF756
:100EC0002BFA0122FD216020FFF726FA22001721CC
:100ED0006020FFF721FAFFF73DFAC522FE216020CE
:100EE000FFF71AFA0122FD216020FFF715FA220010
:100EF0001A216020FFF710FAFFF72CFAC522FE2115
:100F00006020FFF709FA0122FD216020FFF704FAB3
:100F100022001D216020FFF7FFF9FFF71BFAC52211
:100F2000FE216020FFF7F8F90122FD216020FFF784
:100F3000F3F9220092216020FFF7EEF9FFF70AFA99
:100F4000C522FE216020FFF7E7F90122FD21602084
:100F5000FFF7E2F9220095216020FFF7DDF9FFF7A6
:100F6000F9F9C522FE216020FFF7D6F90122FD2103
:100F70006020FFF7D1F9220098216020FFF7CCF91B
:100F8000FFF7E8F90D2A01D9FFF7E4F99200864B43
:100F90009B589F46C522FE216020FFF7BDF9012224
:100FA000FD216020FFF7B8F9220020216020FFF723
:100FB000B3F9FFF7CFF9C522FE216020FFF7ACF9A6
:100FC0000122FD216020FFF7A7F9220023216020E4
:100FD000FFF7A2F9FFF7BEF9C522FE216020FFF757
:100FE0009BF90122FD216020FFF796F922002621BE
:100FF0006020FFF791F9FFF7ADF9C522FE216020CF
:10100000FFF78AF90122FD216020FFF785F9220010
:1010100029216020FFF780F9FFF79CF9C522FE2106
:101020006020FFF779F90122FD216020FFF774F9B4
:1010300022002C216020FFF76FF9FFF78BF9C52202
:10104000FE216020FFF768F90122FD216020FFF7F3
:1010500063F922002F216020FFF75EF9FFF77AF98C
:10106000C522FE216020FFF757F90122FD216020F3
:10107000FFF752F9220032216020FFF74DF9FFF708
:1010800069F9C522FE216020FFF746F90122FD2102
:101090006020FFF741F9220035216020FFF73CF97D
:1010A000FFF758F9C522FE216020FFF735F901222C
:1010B000FD216020FFF730F9220038216020FFF782
:1010C0002BF9FFF747F9C522FE216020FFF724F92D
:1010D0000122FD216020FFF71FF922003B21602043
:1010E000FFF71AF9FFF736F9C522FE216020FFF756
:1010F00013F90122FD216020FFF70EF922009B2148
:101100006020FFF709F9FFF725F9C522FE216020CD
:10111000FFF702F90122FD216020FFF7FDF8220010
:101120009E216020FFF7F8F8FFF714F9C522FE2191
:101130006020FFF7F1F80122FD216020FFF7ECF8B5
:101140002200A1216020FFF7E7F8FFF703F90D2A3D
:1011500001D9FFF7FFF89200144B9B589F46C52218
:10116000FE216020FFF7D8F80122FD216020FFF763
:10117000D3F822003E216020FFF7CEF8FFF7EAF80F
:10118000C522FE216020FFF7C7F80122FD21602063
:10119000FFF7C2F8220041216020FFF7BDF8FFF7FA
:1011A000D9F8C046A08C0008D88C0008108D000823
:1011B000C522FE216020FFF7AFF80122FD2160204B
:1011C000FFF7AAF8220044216020FFF7A5F8FFF7F7
:1011D000C1F8C522FE216020FFF79EF80122FD2103
:1011E0006020FFF799F8220047216020FFF794F86C
:1011F000FFF7B0F8C522FE216020FFF78DF801222D
:10120000FD216020FFF788F822004A216020FFF7C7
:1012100083F8FFF79FF8C522FE216020FFF77CF8D6
:101220000122FD216020FFF777F822004D21602088
:10123000FFF772F8FFF78EF8C522FE216020FFF756
:101240006BF80122FD216020FFF766F82200502193
:101250006020FFF761F8FFF77DF8C522FE216020CE
:10126000FFF75AF80122FD216020FFF755F8220010
:1012700053216020FFF750F8FFF76CF8C522FE21DC
:101280006020FFF749F80122FD216020FFF744F8B4
:10129000220056216020FFF73FF8FFF75BF8C522D8
:1012A000FE216020FFF738F80122FD216020FFF7C2
:1012B00033F8220059216020FFF72EF8FFF74AF893
:1012C000C522FE216020FFF727F80122FD216020C2
:1012D000FFF722F82200A4216020FFF71DF8FFF796
:1012E00039F8C522FE216020FFF716F80122FD2102
:1012F0006020FFF711F82200A7216020FFF70CF80B
:10130000FFF728F8C522FE216020FFF705F801222B
:10131000FD216020FFF700F82200AA216020FEF7DF
:10132000FBFFFFF717F8092901D9FFF713F8890028
:10133000FB4B5B589F460D2A01D9FFF70BF8920033
:10134000F84B9B589F46C522FE216020FEF7E4FF24
:101350000022FD216020FEF7DFFF22000121602036
:10136000FEF7DAFFFEF7F6FFC522FE216020FEF74A
:10137000D3FF0022FD216020FEF7CEFF22000421D2
:101380006020FEF7C9FFFEF7E5FFC522FE216020C1
:10139000FEF7C2FF0022FD216020FEF7BDFF220004
:1013A00007216020FEF7B8FFFEF7D4FFC522FE211B
:1013B0006020FEF7B1FF0022FD216020FEF7ACFFA8
:1013C00022000A216020FEF7A7FFFEF7C3FFC52217
:1013D000FE216020FEF7A0FF0022FD216020FEF725
:1013E0009BFF22000D216020FEF796FFFEF7B2FF63
:1013F000C522FE216020FEF78FFF0022FD21602024
:10140000FEF78AFF220010216020FEF785FFFEF71D
:10141000A1FFC522FE216020FEF77EFF0022FD21F4
:101420006020FEF779FF220013216020FEF774FF91
:10143000FEF790FFC522FE216020FEF76DFF00221F
:10144000FD216020FEF768FF220016216020FEF7D4
:1014500063FFFEF77FFFC522FE216020FEF75CFFE1
:101460000022FD216020FEF757FF22001921602095
:10147000FEF752FFFEF76EFFC522FE216020FEF749
:101480004BFF0022FD216020FEF746FF22001C21B9
:101490006020FEF741FFFEF75DFFC522FE216020C0
:1014A000FEF73AFF0122FD216020FEF735FF220002
:1014B0005B216020FEF730FFFEF74CFFC522FE21C6
:1014C0006020FEF729FF0122FD216020FEF724FFA6
:1014D00022005E216020FEF71FFFFEF73BFFC522C2
:1014E000FE216020FEF718FF0122FD216020FEF79B
:1014F00013FF220061216020FEF70EFFFEF72AFF96
:101500000D2A01D9FEF726FF9200874B9B589F4674
:10151000C522FE216020FEF7FFFE0022FD21602093
:10152000FEF7FAFE22001F216020FEF7F5FEFEF70F
:1015300011FFC522FE216020FEF7EEFE0022FD21F4
:101540006020FEF7E9FE220022216020FEF7E4FE83
:10155000FEF700FFC522FE216020FEF7DDFE00221F
:10156000FD216020FEF7D8FE220025216020FEF735
:10157000D3FEFEF7EFFEC522FE216020FEF7CCFE73
:101580000022FD216020FEF7C7FE220028216020F6
:10159000FEF7C2FEFEF7DEFEC522FE216020FEF74A
:1015A000BBFE0022FD216020FEF7B6FE22002B21AB
:1015B0006020FEF7B1FEFEF7CDFEC522FE216020C1
:1015C000FEF7AAFE0022FD216020FEF7A5FE220004
:1015D0002E216020FEF7A0FEFEF7BCFEC522FE21F4
:1015E0006020FEF799FE0022FD216020FEF794FEA8
:1015F000220031216020FEF78FFEFEF7ABFEC522F0
:10160000FE216020FEF788FE0022FD216020FEF70B
:1016100083FE220034216020FEF77EFEFEF79AFE54
:10162000C522FE216020FEF777FE0022FD2160200A
:10163000FEF772FE220037216020FEF76DFEFEF7F6
:1016400089FEC522FE216020FEF766FE0022FD21F4
:101650006020FEF761FE22003A216020FEF75CFE6A
:10166000FEF778FEC522FE216020FEF755FE01221E
:10167000FD216020FEF750FE220064216020FEF76D
:101680004BFEFEF767FEC522FE216020FEF744FEFA
:101690000122FD216020FEF73FFE2200672160202D
:1016A000FEF73AFEFEF756FEC522FE216020FEF749
:1016B00033FE0122FD216020FEF72EFE22006A216A
:1016C0006020FEF729FEFEF745FE0D2A01D9FEF740
:1016D00041FE9200154B9B589F46C522FE2160207B
:1016E000FEF71AFE0022FD216020FEF715FE220003
:1016F0003D216020FEF710FEFEF72CFEC522FE21E4
:101700006020FEF709FE0022FD216020FEF704FEA6
:10171000220040216020FEF7FFFDFEF71BFEC046C1
:10172000488D0008708D0008A88D0008E08D000825
:10173000C522FE216020FEF7EFFD0022FD21602082
:10174000FEF7EAFD220043216020FEF7E5FDFEF7EB
:1017500001FEC522FE216020FEF7DEFD0022FD21F4
:101760006020FEF7D9FD220046216020FEF7D4FD5F
:10177000FEF7F0FDC522FE216020FEF7CDFD002220
:10178000FD216020FEF7C8FD220049216020FEF700
:10179000C3FDFEF7DFFDC522FE216020FEF7BCFD84
:1017A0000022FD216020FEF7B7FD22004C216020C1
:1017B000FEF7B2FDFEF7CEFDC522FE216020FEF74A
:1017C000ABFD0022FD216020FEF7A6FD22004F2187
:1017D0006020FEF7A1FDFEF7BDFDC522FE216020C1
:1017E000FEF79AFD0022FD216020FEF795FD220004
:1017F00052216020FEF790FDFEF7ACFDC522FE21D0
:101800006020FEF789FD0022FD216020FEF784FDA7
:10181000220055216020FEF77FFDFEF79BFDC522CB
:10182000FE216020FEF778FD0022FD216020FEF7FA
:1018300073FD220058216020FEF76EFDFEF78AFD41
:10184000C522FE216020FEF767FD0122FD216020F8
:10185000FEF762FD22006D216020FEF75DFDFEF7C0
:1018600079FDC522FE216020FEF756FD0122FD21F3
:101870006020FEF751FD220070216020FEF74CFD34
:10188000FEF768FDC522FE216020FEF745FD01221E
:10189000FD216020FEF740FD220073216020FEF74D
:1018A0003BFDFEF757FD0D2A01D9FEF753FD9200CF
:1018B000F74B9B589F46C522FE216020FEF72CFD6A
:1018C0000022FD216020FEF727FD22005B21602021
:1018D000FEF722FDFEF73EFDC522FE216020FEF749
:1018E0001BFD0022FD216020FEF716FD22005E2177
:1018F0006020FEF711FDFEF72DFDC522FE216020C0
:10190000FEF70AFD0022FD216020FEF705FD220002
:1019100061216020FEF700FDFEF71CFDC522FE21BF
:101920006020FEF7F9FC0022FD216020FEF7F4FCA8
:10193000220064216020FEF7EFFCFEF70BFDC522BC
:10194000FE216020FEF7E8FC0022FD216020FEF76A
:10195000E3FC220067216020FEF7DEFCFEF7FAFCC4
:10196000C522FE216020FEF7D7FC0022FD21602069
:10197000FEF7D2FC22006A216020FEF7CDFCFEF7C4
:10198000E9FCC522FE216020FEF7C6FC0022FD21F5
:101990006020FEF7C1FC22006D216020FEF7BCFC38
:1019A000FEF7D8FCC522FE216020FEF7B5FC002220
:1019B000FD216020FEF7B0FC220070216020FEF7C0
:1019C000ABFCFEF7C7FCC522FE216020FEF7A4FC9D
:1019D0000022FD216020FEF79FFC22007321602081
:1019E000FEF79AFCFEF7B6FCC522FE216020FEF74A
:1019F00093FC0022FD216020FEF78EFC2200762160
:101A00006020FEF789FCFEF7A5FCC522FE216020C0
:101A1000FEF782FC0122FD216020FEF77DFC220002
:101A200076216020FEF778FCFEF794FCC522FE21AB
:101A30006020FEF771FC0122FD216020FEF76CFCA6
:101A4000220079216020FEF767FCFEF783FCC522A7
:101A5000FE216020FEF760FC0122FD216020FEF7E0
:101A60005BFC22007C216020FEF756FCFEF772FC36
:101A70000D2A01D9FEF76EFC9200864B9B589F46BB
:101A8000C522FE216020FEF747FC0022FD216020D8
:101A9000FEF742FC220079216020FEF73DFCFEF7B4
:101AA00059FCC522FE216020FEF736FC0022FD21F4
:101AB0006020FEF731FC22007C216020FEF72CFC28
:101AC000FEF748FCC522FE216020FEF725FC00221F
:101AD000FD216020FEF720FC22007F216020FEF720
:101AE0001BFCFEF737FCC522FE216020FEF714FC2C
:101AF0000022FD216020FEF70FFC220082216020E1
:101B0000FEF70AFCFEF726FCC522FE216020FEF748
:101B100003FC0022FD216020FEF7FEFB2200852150
:101B20006020FEF7F9FBFEF715FCC522FE216020C0
:101B3000FEF7F2FB0022FD216020FEF7EDFB220004
:101B400088216020FEF7E8FBFEF704FCC522FE2199
:101B50006020FEF7E1FB0022FD216020FEF7DCFBA8
:101B600022008B216020FEF7D7FBFEF7F3FBC52296
:101B7000FE216020FEF7D0FB0022FD216020FEF751
:101B8000CBFB22008E216020FEF7C6FBFEF7E2FBB6
:101B9000C522FE216020FEF7BFFB0022FD21602050
:101BA000FEF7BAFB220091216020FEF7B5FBFEF79D
:101BB000D1FBC522FE216020FEF7AEFB0022FD21F5
:101BC0006020FEF7A9FB220094216020FEF7A4FB11
:101BD000FEF7C0FBC522FE216020FEF79DFB01221F
:101BE000FD216020FEF798FB22007F216020FEF798
:101BF00093FBFEF7AFFBC522FE216020FEF78CFBB6
:101C00000122FD216020FEF787FB22008221602057
:101C1000FEF782FBFEF79EFBC522FE216020FEF749
:101C20007BFB0122FD216020FEF776FB220085214F
:101C30006020FEF771FBFEF78DFB0D2A01D9FEF740
:101C400089FB9200144B9B589F46C522FE216020C1
:101C5000FEF762FB0022FD216020FEF75DFB220003
:101C600097216020FEF758FBFEF774FBC522FE218A
:101C70006020FEF751FB0022FD216020FEF74CFBA7
:101C800022009A216020FEF747FBFEF763FBC04667
:101C9000188E0008508E0008888E0008C522FE218C
:101CA0006020FEF739FB0022FD216020FEF734FBA7
:101CB00022009D216020FEF72FFBFEF74BFBC52283
:101CC000FE216020FEF728FB0022FD216020FEF7A8
:101CD00023FB2200A0216020FEF71EFBFEF73AFB4B
:101CE000C522FE216020FEF717FB0022FD216020A7
:101CF000FEF712FB2200A3216020FEF70DFBFEF78A
:101D000029FBC522FE216020FEF706FB0022FD21F3
:101D10006020FEF701FB2200A6216020FEF7FCFAFE
:101D2000FEF718FBC522FE216020FEF7F5FA00221F
:101D3000FD216020FEF7F0FA2200A9216020FEF7C5
:101D4000EBFAFEF707FBC522FE216020FEF7E4FA5E
:101D50000022FD216020FEF7DFFA2200AC21602086
:101D6000FEF7DAFAFEF7F6FAC522FE216020FEF74A
:101D7000D3FA0022FD216020FEF7CEFA2200AF2127
:101D80006020FEF7C9FAFEF7E5FAC522FE216020C1
:101D9000FEF7C2FA0022FD216020FEF7BDFA220004
:101DA000B2216020FEF7B8FAFEF7D4FAC522FE2170
:101DB0006020FEF7B1FA0122FD216020FEF7ACFAA7
:101DC000220088216020FEF7A7FAFEF7C3FAC52299
:101DD000FE216020FEF7A0FA0122FD216020FEF71F
:101DE0009BFA22008B216020FEF796FAFEF7B2FAEA
:101DF000C522FE216020FEF78FFA0122FD2160201E
:101E0000FEF78AFA22008E216020FEF785FAFEF79F
:101E1000A1FA0D2A01D9FEF79DFA9200F74B9B58C3
:101E20009F46C522FE216020FEF776FA0122FD21A1
:101E30006020FEF771FA220001216020FEF76CFAA3
:101E4000FEF788FAC522FE216020FEF765FA01221E
:101E5000FD216020FEF760FA220004216020FEF7D9
:101E60005BFAFEF777FAC522FE216020FEF754FAEE
:101E70000122FD216020FEF74FFA22000721602099
:101E8000FEF74AFAFEF766FAC522FE216020FEF749
:101E900043FA0122FD216020FEF73EFA22000A21CA
:101EA0006020FEF739FAFEF755FAC522FE216020C0
:101EB000FEF732FA0122FD216020FEF72DFA220002
:101EC0000D216020FEF728FAFEF744FAC522FE2114
:101ED0006020FEF721FA0122FD216020FEF71CFAA6
:101EE000220010216020FEF717FAFEF733FAC52210
:101EF000FE216020FEF710FA0122FD216020FEF78E
:101F00000BFA220013216020FEF706FAFEF722FAF0
:101F1000C522FE216020FEF7FFF90122FD2160208D
:101F2000FEF7FAF9220016216020FEF7F5F9FEF718
:101F300011FAC522FE216020FEF7EEF90122FD21F3
:101F40006020FEF7E9F9220019216020FEF7E4F98C
:101F5000FEF700FAC522FE216020FEF7DDF901221E
:101F6000FD216020FEF7D8F922001C216020FEF739
:101F7000D3F9FEF7EFF9C522FE216020FEF7CCF978
:101F80000122FD216020FEF7C7F922009121602087
:101F9000FEF7C2F9FEF7DEF9C522FE216020FEF74A
:101FA000BBF90122FD216020FEF7B6F92200942141
:101FB0006020FEF7B1F9FEF7CDF9C522FE216020C1
:101FC000FEF7AAF90122FD216020FEF7A5F9220003
:101FD00097216020FEF7A0F9FEF7BCF90D2A01D980
:101FE000FEF7B8F99200864B9B589F46C522FE210A
:101FF0006020FEF791F90122FD216020FEF78CF9A7
:1020000022001F216020FEF787F9FEF7A3F9C52201
:10201000FE216020FEF780F90122FD216020FEF7FD
:102020007BF9220022216020FEF776F9FEF792F973
:10203000C522FE216020FEF76FF90122FD216020FC
:10204000FEF76AF9220025216020FEF765F9FEF708
:1020500081F9C522FE216020FEF75EF90122FD21F3
:102060006020FEF759F9220028216020FEF754F97C
:10207000FEF770F9C522FE216020FEF74DF901221E
:10208000FD216020FEF748F922002B216020FEF799
:1020900043F9FEF75FF9C522FE216020FEF73CF907
:1020A0000122FD216020FEF737F922002E21602059
:1020B000FEF732F9FEF74EF9C522FE216020FEF749
:1020C0002BF90122FD216020FEF726F922003121A3
:1020D0006020FEF721F9FEF73DF9C522FE216020C0
:1020E000FEF71AF90122FD216020FEF715F9220002
:1020F00034216020FEF710F9FEF72CF9C522FE21ED
:102100006020FEF709F90122FD216020FEF704F9A5
:10211000220037216020FEF7FFF8FEF71BF9C522E9
:10212000FE216020FEF7F8F80122FD216020FEF775
:10213000F3F822003A216020FEF7EEF8FEF70AF9E4
:10214000C522FE216020FEF7E7F80122FD21602074
:10215000FEF7E2F822009A216020FEF7DDF8FEF794
:10216000F9F8C522FE216020FEF7D6F80122FD21F4
:102170006020FEF7D1F822009D216020FEF7CCF808
:10218000FEF7E8F8C522FE216020FEF7C5F801221F
:10219000FD216020FEF7C0F82200A0216020FEF79C
:1021A000BBF8FEF7D7F80D2A01D9FEF7D3F8920055
:1021B000144B9B589F46C522FE216020FEF7ACF8C9
:1021C0000122FD216020FEF7A7F822003D216020BA
:1021D000FEF7A2F8FEF7BEF8C522FE216020FEF74A
:1021E0009BF80122FD216020FEF796F82200402195
:1021F0006020FEF791F8FEF7ADF8C046C08E0008EB
:10220000F88E0008308F0008C522FE216020FEF7FE
:1022100083F80122FD216020FEF77EF82200432191
:102220006020FEF779F8FEF795F8C522FE216020C0
:10223000FEF772F80122FD216020FEF76DF8220002
:1022400046216020FEF768F8FEF784F8C522FE21DB
:102250006020FEF761F80122FD216020FEF75CF8A6
:10226000220049216020FEF757F8FEF773F8C522D7
:10227000FE216020FEF750F80122FD216020FEF7CC
:102280004BF822004C216020FEF746F8FEF762F87A
:10229000C522FE216020FEF73FF80122FD216020CB
:1022A000FEF73AF822004F216020FEF735F8FEF7DE
:1022B00051F8C522FE216020FEF72EF80122FD21F3
:1022C0006020FEF729F8220052216020FEF724F852
:1022D000FEF740F8C522FE216020FEF71DF801221E
:1022E000FD216020FEF718F8220055216020FEF73E
:1022F00013F8FEF72FF8C522FE216020FEF70CF838
:102300000122FD216020FEF707F8220058216020FD
:10231000FEF702F8FEF71EF8C522FE216020FDF749
:10232000FBFF0122FD216020FDF7F6FF2200A32123
:102330006020FDF7F1FFFEF70DF8C522FE216020B9
:10234000FDF7EAFF0122FD216020FDF7E5FF2200F5
:10235000A6216020FDF7E0FFFDF7FCFFC522FE216E
:102360006020FDF7D9FF0122FD216020FDF7D4FF99
:102370002200A9216020FDF7CFFFFDF7EBFF09291F
:1023800001D9FDF7E7FF8900FB4B5B589F460D2AFB
:1023900001D9FDF7DFFF9200F84B9B589F46C522FD
:1023A000FE216020FDF7B8FF0022FD216020FDF72F
:1023B000B3FF220000216020FDF7AEFFFDF7CAFF4A
:1023C000C522FE216020FDF7A7FF0022FD2160202D
:1023D000FDF7A2FF220003216020FDF79DFFFDF71E
:1023E000B9FFC522FE216020FDF796FF0022FD21E6
:1023F0006020FDF791FF220006216020FDF78CFF91
:10240000FDF7A8FFC522FE216020FDF785FF002211
:10241000FD216020FDF780FF220009216020FDF7EB
:102420007BFFFDF797FFC522FE216020FDF774FFBB
:102430000022FD216020FDF76FFF22000C216020AB
:10244000FDF76AFFFDF786FFC522FE216020FDF73C
:1024500063FF0022FD216020FDF75EFF22000F21B7
:102460006020FDF759FFFDF775FFC522FE216020B2
:10247000FDF752FF0022FD216020FDF74DFF2200F5
:1024800012216020FDF748FFFDF764FFC522FE2101
:102490006020FDF741FF0022FD216020FDF73CFF99
:1024A000220015216020FDF737FFFDF753FFC522FD
:1024B000FE216020FDF730FF0022FD216020FDF7A6
:1024C0002BFF220018216020FDF726FFFDF742FFB9
:1024D000C522FE216020FDF71FFF0022FD216020A4
:1024E000FDF71AFF22001B216020FDF715FFFDF705
:1024F00031FFC522FE216020FDF70EFF0122FD21E4
:102500006020FDF709FF22005A216020FDF704FF3B
:10251000FDF720FFC522FE216020FDF7FDFE012210
:10252000FD216020FDF7F8FE22005D216020FDF70F
:10253000F3FEFDF70FFFC522FE216020FDF7ECFE44
:102540000122FD216020FDF7E7FE220060216020CE
:10255000FDF7E2FEFDF7FEFE0D2A01D9FDF7FAFEBA
:102560009200874B9B589F46C522FE216020FDF7B5
:10257000D3FE0022FD216020FDF7CEFE22001E21A9
:102580006020FDF7C9FEFDF7E5FEC522FE216020B3
:10259000FDF7C2FE0022FD216020FDF7BDFE2200F6
:1025A00021216020FDF7B8FEFDF7D4FEC522FE21F3
:1025B0006020FDF7B1FE0022FD216020FDF7ACFE9A
:1025C000220024216020FDF7A7FEFDF7C3FEC522EF
:1025D000FE216020FDF7A0FE0022FD216020FDF716
:1025E0009BFE220027216020FDF796FEFDF7B2FE3C
:1025F000C522FE216020FDF78FFE0022FD21602014
:10260000FDF78AFE22002A216020FDF785FEFDF7F6
:10261000A1FEC522FE216020FDF77EFE0022FD21E5
:102620006020FDF779FE22002D216020FDF774FE69
:10263000FDF790FEC522FE216020FDF76DFE002211
:10264000FD216020FDF768FE220030216020FDF7AB
:1026500063FEFDF77FFEC522FE216020FDF75CFED4
:102660000022FD216020FDF757FE2200332160206B
:10267000FDF752FEFDF76EFEC522FE216020FDF73C
:102680004BFE0022FD216020FDF746FE2200362190
:102690006020FDF741FEFDF75DFEC522FE216020B2
:1026A000FDF73AFE0022FD216020FDF735FE2200F5
:1026B00039216020FDF730FEFDF74CFEC522FE21DA
:1026C0006020FDF729FE0122FD216020FDF724FE98
:1026D000220063216020FDF71FFEFDF73BFEC522AF
:1026E000FE216020FDF718FE0122FD216020FDF78C
:1026F00013FE220066216020FDF70EFEFDF72AFE84
:10270000C522FE216020FDF707FE0122FD21602089
:10271000FDF702FE220069216020FDF7FDFDFDF7B7
:1027200019FE0D2A01D9FDF715FE9200154B9B5895
:102730009F46C522FE216020FDF7EEFD0022FD210F
:102740006020FDF7E9FD22003C216020FDF7E4FD5B
:10275000FDF700FEC522FE216020FDF7DDFD002211
:10276000FD216020FDF7D8FD22003F216020FDF70C
:10277000D3FDFDF7EFFDC046688F0008908F00087D
:10278000C88F000800900008C522FE216020FDF7D8
:10279000C3FD0022FD216020FDF7BEFD2200422185
:1027A0006020FDF7B9FDFDF7D5FDC522FE216020B3
:1027B000FDF7B2FD0022FD216020FDF7ADFD2200F6
:1027C00045216020FDF7A8FDFDF7C4FDC522FE21CF
:1027D0006020FDF7A1FD0022FD216020FDF79CFD9A
:1027E000220048216020FDF797FDFDF7B3FDC522CB
:1027F000FE216020FDF790FD0022FD216020FDF705
:102800008BFD22004B216020FDF786FDFDF7A2FD28
:10281000C522FE216020FDF77FFD0022FD21602002
:10282000FDF77AFD22004E216020FDF775FDFDF7D2
:1028300091FDC522FE216020FDF76EFD0022FD21E5
:102840006020FDF769FD220051216020FDF764FD45
:10285000FDF780FDC522FE216020FDF75DFD002211
:10286000FD216020FDF758FD220054216020FDF776
:1028700053FDFDF76FFDC522FE216020FDF74CFDE5
:102880000022FD216020FDF747FD22005721602036
:10289000FDF742FDFDF75EFDC522FE216020FDF73C
:1028A0003BFD0122FD216020FDF736FD22006C2159
:1028B0006020FDF731FDFDF74DFDC522FE216020B2
:1028C000FDF72AFD0122FD216020FDF725FD2200F4
:1028D0006F216020FDF720FDFDF73CFDC522FE21A4
:1028E0006020FDF719FD0122FD216020FDF714FD98
:1028F000220072216020FDF70FFDFDF72BFD0D2A50
:1029000001D9FDF727FD9200F74B9B589F46C52242
:10291000FE216020FDF700FD0022FD216020FDF773
:10292000FBFC22005A216020FDF7F6FCFDF712FDAA
:10293000C522FE216020FDF7EFFC0022FD21602072
:10294000FDF7EAFC22005D216020FDF7E5FCFDF7C4
:1029500001FDC522FE216020FDF7DEFC0022FD21E5
:102960006020FDF7D9FC220060216020FDF7D4FC37
:10297000FDF7F0FCC522FE216020FDF7CDFC002212
:10298000FD216020FDF7C8FC220063216020FDF7D7
:10299000C3FCFDF7DFFCC522FE216020FDF7BCFC77
:1029A0000022FD216020FDF7B7FC22006621602097
:1029B000FDF7B2FCFDF7CEFCC522FE216020FDF73D
:1029C000ABFC0022FD216020FDF7A6FC220069215E
:1029D0006020FDF7A1FCFDF7BDFCC522FE216020B3
:1029E000FDF79AFC0022FD216020FDF795FC2200F6
:1029F0006C216020FDF790FCFDF7ACFCC522FE21A8
:102A00006020FDF789FC0022FD216020FDF784FC99
:102A100022006F216020FDF77FFCFDF79BFCC522A3
:102A2000FE216020FDF778FC0022FD216020FDF7EB
:102A300073FC220072216020FDF76EFCFDF78AFC1A
:102A4000C522FE216020FDF767FC0022FD216020E9
:102A5000FDF762FC220075216020FDF75DFCFDF7AB
:102A600079FCC522FE216020FDF756FC0122FD21E4
:102A70006020FDF751FC220075216020FDF74CFC21
:102A8000FDF768FCC522FE216020FDF745FC012210
:102A9000FD216020FDF740FC220078216020FDF739
:102AA0003BFCFDF757FCC522FE216020FDF734FCFE
:102AB0000122FD216020FDF72FFC22007B216020F8
:102AC000FDF72AFCFDF746FC0D2A01D9FDF742FC73
:102AD0009200864B9B589F46C522FE216020FDF741
:102AE0001BFC0022FD216020FDF716FC220078214E
:102AF0006020FDF711FCFDF72DFCC522FE216020B2
:102B0000FDF70AFC0022FD216020FDF705FC2200F4
:102B10007B216020FDF700FCFDF71CFCC522FE2197
:102B20006020FDF7F9FB0022FD216020FDF7F4FB9A
:102B300022007E216020FDF7EFFBFDF70BFCC52294
:102B4000FE216020FDF7E8FB0022FD216020FDF75B
:102B5000E3FB220081216020FDF7DEFBFDF7FAFB9D
:102B6000C522FE216020FDF7D7FB0022FD21602059
:102B7000FDF7D2FB220084216020FDF7CDFBFDF79D
:102B8000E9FBC522FE216020FDF7C6FB0022FD21E6
:102B90006020FDF7C1FB220087216020FDF7BCFB10
:102BA000FDF7D8FBC522FE216020FDF7B5FB002212
:102BB000FD216020FDF7B0FB22008A216020FDF797
:102BC000ABFBFDF7C7FBC522FE216020FDF7A4FB90
:102BD0000022FD216020FDF79FFB22008D21602057
:102BE000FDF79AFBFDF7B6FBC522FE216020FDF73D
:102BF00093FB0022FD216020FDF78EFB2200902137
:102C00006020FDF789FBFDF7A5FBC522FE216020B2
:102C1000FDF782FB0022FD216020FDF77DFB2200F5
:102C200093216020FDF778FBFDF794FBC522FE2180
:102C30006020FDF771FB0122FD216020FDF76CFB98
:102C400022007E216020FDF767FBFDF783FBC52294
:102C5000FE216020FDF760FB0122FD216020FDF7D1
:102C60005BFB220081216020FDF756FBFDF772FB24
:102C7000C522FE216020FDF74FFB0122FD216020CF
:102C8000FDF74AFB220084216020FDF745FBFDF79C
:102C900061FB0D2A01D9FDF75DFB9200144B9B5897
:102CA0009F46C522FE216020FDF736FB0022FD2154
:102CB0006020FDF731FB220096216020FDF72CFB00
:102CC000FDF748FBC522FE216020FDF725FB002211
:102CD000FD216020FDF720FB220099216020FDF7F7
:102CE0001BFBFDF737FBC0463890000870900008CA
:102CF000A8900008C522FE216020FDF70DFB0022F0
:102D0000FD216020FDF708FB22009C216020FDF7DB
:102D100003FBFDF71FFBC522FE216020FDF7FCFA37
:102D20000022FD216020FDF7F7FA22009F2160209C
:102D3000FDF7F2FAFDF70EFBC522FE216020FDF73C
:102D4000EBFA0022FD216020FDF7E6FA2200A22125
:102D50006020FDF7E1FAFDF7FDFAC522FE216020B3
:102D6000FDF7DAFA0022FD216020FDF7D5FA2200F6
:102D7000A5216020FDF7D0FAFDF7ECFAC522FE216F
:102D80006020FDF7C9FA0022FD216020FDF7C4FA9A
:102D90002200A8216020FDF7BFFAFDF7DBFAC5226B
:102DA000FE216020FDF7B8FA0022FD216020FDF72A
:102DB000B3FA2200AB216020FDF7AEFAFDF7CAFAA4
:102DC000C522FE216020FDF7A7FA0022FD21602028
:102DD000FDF7A2FA2200AE216020FDF79DFAFDF773
:102DE000B9FAC522FE216020FDF796FA0022FD21E6
:102DF0006020FDF791FA2200B1216020FDF78CFAE6
:102E0000FDF7A8FAC522FE216020FDF785FA012210
:102E1000FD216020FDF780FA220087216020FDF768
:102E20007BFAFDF797FAC522FE216020FDF774FAC0
:102E30000122FD216020FDF76FFA22008A21602027
:102E4000FDF76AFAFDF786FAC522FE216020FDF73C
:102E500063FA0122FD216020FDF75EFA22008D2138
:102E60006020FDF759FAFDF775FA0D2A01D9FDF733
:102E700071FA9200F74B9B589F46C522FE216020B5
:102E8000FDF74AFA0122FD216020FDF745FA2200F4
:102E900000216020FDF740FAFDF75CFAC522FE2113
:102EA0006020FDF739FA0122FD216020FDF734FA98
:102EB000220003216020FDF72FFAFDF74BFAC5220F
:102EC000FE216020FDF728FA0122FD216020FDF798
:102ED00023FA220006216020FDF71EFAFDF73AFAD8
:102EE000C522FE216020FDF717FA0122FD21602096
:102EF000FDF712FA220009216020FDF70DFAFDF717
:102F000029FAC522FE216020FDF706FA0122FD21E3
:102F10006020FDF701FA22000C216020FDF7FCF98A
:102F2000FDF718FAC522FE216020FDF7F5F9012210
:102F3000FD216020FDF7F0F922000F216020FDF750
:102F4000EBF9FDF707FAC522FE216020FDF7E4F951
:102F50000122FD216020FDF7DFF92200122160200F
:102F6000FDF7DAF9FDF7F6F9C522FE216020FDF73D
:102F7000D3F90122FD216020FDF7CEF922001521B1
:102F80006020FDF7C9F9FDF7E5F9C522FE216020B3
:102F9000FDF7C2F90122FD216020FDF7BDF92200F5
:102FA00018216020FDF7B8F9FDF7D4F9C522FE21FC
:102FB0006020FDF7B1F90122FD216020FDF7ACF999
:102FC00022001B216020FDF7A7F9FDF7C3F9C522F8
:102FD000FE216020FDF7A0F90122FD216020FDF710
:102FE0009BF9220090216020FDF796F9FDF7B2F9D8
:102FF000C522FE216020FDF78FF90122FD2160200E
:10300000FDF78AF9220093216020FDF785F9FDF78D
:10301000A1F9C522FE216020FDF77EF90122FD21E4
:103020006020FDF779F9220096216020FDF774F900
:10303000FDF790F90D2A01D9FDF78CF99200864B26
:103040009B589F46C522FE216020FDF765F90122AD
:10305000FD216020FDF760F922001E216020FDF7B0
:103060005BF9FDF777F9C522FE216020FDF754F9E1
:103070000122FD216020FDF74FF92200212160206F
:10308000FDF74AF9FDF766F9C522FE216020FDF73C
:1030900043F90122FD216020FDF73EF922002421A1
:1030A0006020FDF739F9FDF755F9C522FE216020B2
:1030B000FDF732F90122FD216020FDF72DF92200F4
:1030C00027216020FDF728F9FDF744F9C522FE21EC
:1030D0006020FDF721F90122FD216020FDF71CF998
:1030E00022002A216020FDF717F9FDF733F9C522E8
:1030F000FE216020FDF710F90122FD216020FDF77F
:103100000BF922002D216020FDF706F9FDF722F9C9
:10311000C522FE216020FDF7FFF80122FD2160207D
:10312000FDF7FAF8220030216020FDF7F5F8FDF7F1
:1031300011F9C522FE216020FDF7EEF80122FD21E4
:103140006020FDF7E9F8220033216020FDF7E4F864
:10315000FDF700F9C522FE216020FDF7DDF8012210
:10316000FD216020FDF7D8F8220036216020FDF710
:10317000D3F8FDF7EFF8C522FE216020FDF7CCF86B
:103180000122FD216020FDF7C7F8220039216020CF
:10319000FDF7C2F8FDF7DEF8C522FE216020FDF73D
:1031A000BBF80122FD216020FDF7B6F8220099212D
:1031B0006020FDF7B1F8FDF7CDF8C522FE216020B3
:1031C000FDF7AAF80122FD216020FDF7A5F82200F5
:1031D0009C216020FDF7A0F8FDF7BCF8C522FE2178
:1031E0006020FDF799F80122FD216020FDF794F899
:1031F00022009F216020FDF78FF8FDF7ABF80D2A24
:1032000001D9FDF7A7F89200144B9B589F46C522A1
:10321000FE216020FDF780F80122FD216020FDF7EE
:103220007BF822003C216020FDF776F8FDF792F84C
:10323000C522FE216020FDF76FF80122FD216020EC
:10324000FDF76AF822003F216020FDF765F8FDF7E1
:1032500081F8C046E09000081891000850910008DD
:10326000C522FE216020FDF757F80122FD216020D4
:10327000FDF752F8220042216020FDF74DF8FDF7DE
:1032800069F8C522FE216020FDF746F80122FD21E4
:103290006020FDF741F8220045216020FDF73CF851
:1032A000FDF758F8C522FE216020FDF735F8012210
:1032B000FD216020FDF730F8220048216020FDF755
:1032C0002BF8FDF747F8C522FE216020FDF724F812
:1032D0000122FD216020FDF71FF822004B21602014
:1032E000FDF71AF8FDF736F8C522FE216020FDF73C
:1032F00013F80122FD216020FDF70EF822004E2177
:103300006020FDF709F8FDF725F8C522FE216020B1
:10331000FDF702F80122FD216020FCF7FDFF2200ED
:1033200051216020FCF7F8FFFDF714F8C522FE21BB
:103330006020FCF7F1FF0122FD216020FCF7ECFF8B
:10334000220054216020FCF7E7FFFDF703F8C522B7
:10335000FE216020FCF7E0FF0122FD216020FCF748
:10336000DBFF220057216020FCF7D6FFFCF7F2FFBD
:10337000C522FE216020FCF7CFFF0122FD21602045
:10338000FCF7CAFF2200A2216020FCF7C5FFFCF772
:10339000E1FFC522FE216020FCF7BEFF0122FD21D6
:1033A0006020FCF7B9FF2200A5216020FCF7B4FFE4
:1033B000FCF7D0FFC522FE216020FCF7ADFF012203
:1033C000FD216020FCF7A8FF2200A8216020FCF767
:1033D000A3FFFCF7BFFFC046F0B5DE4657464E469A
:1033E0004546E0B583B004000D0000930CAB19789E
:1033F0008B460DAB19788A460EAB197889460FAB10
:103400001978884610AB1F7811AB1978019112AB6F
:103410001E7813002A000121FCF790FF009B2A0070
:1034200002212000FCF78AFF5B462A0003212000CE
:10343000FCF784FF53462A0004212000FCF77EFF9E
:103440004B462A0005212000FCF778FF43462A005E
:1034500006212000FCF772FF3B002A000721200014
:10346000FCF76CFF019B2A0008212000FCF766FF97
:1034700033002A0009212000FCF760FF03B03CBCA8
:1034800090469946A246AB46F0BD70B504000D00CB
:10349000160013000A000121FCF750FF33002A0038
:1034A00002212000FCF74AFF33002A0003212000FC
:1034B000FCF744FF33002A0004212000FCF73EFF04
:1034C00033002A0005212000FCF738FF33002A00D2
:1034D00006212000FCF732FF33002A0007212000DC
:1034E000FCF72CFF33002A0008212000FCF726FF00
:1034F00033002A0009212000FCF720FF70BD70B5C1
:1035000005000E00002829D1C522FE216020FCF70D
:1035100003FF0222FD216020FCF7FEFE2C0006E0E6
:10352000320021006020FCF7F7FE0334E4B2B32C34
:10353000F6D9C522FE216020FCF7EEFE0322FD2114
:103540006020FCF7E9FE06E0320029006020FCF76D
:10355000E3FE0335EDB2AA2DF6D970BDC522FE21DA
:103560006020FCF7D9FE0022FD216020FCF7D4FE8C
:10357000002406E0320021006020FCF7CDFE033479
:10358000E4B2B32CF6D9C522FE216020FCF7C4FEBC
:103590000122FD216020FCF7BFFE002406E032007E
:1035A00021006020FCF7B8FE0334E4B2AA2CF6D95F
:1035B000D3E770B50D0000282AD1C522FE21603066
:1035C000FCF7AAFE0222FD216020FCF7A5FE0124E3
:1035D00006E02A0021006020FCF79EFE0334E4B2DE
:1035E000B32CF6D9C522FE216020FCF795FE0322FC
:1035F000FD216020FCF790FE012406E02A00210056
:103600006020FCF789FE0334E4B2AA2CF6D970BD21
:10361000C522FE216020FCF77FFE0022FD216020F4
:10362000FCF77AFE012406E02A0021006020FCF766
:1036300073FE0334E4B2B32CF6D9C522FE21602018
:10364000FCF76AFE0122FD216020FCF765FE0124E3
:1036500006E02A0021006020FCF75EFE0334E4B29D
:10366000AA2CF6D9D3E770B50D0000282AD1C522BF
:10367000FE216030FCF750FE0222FD216020FCF7A5
:103680004BFE022406E02A0021006020FCF744FEE5
:103690000334E4B2B32CF6D9C522FE216020FCF736
:1036A0003BFE0322FD216020FCF736FE022406E0EB
:1036B0002A0021006020FCF72FFE0334E4B2AA2C7C
:1036C000F6D970BDC522FE216020FCF725FE002240
:1036D000FD216020FCF720FE022406E02A002100E4
:1036E0006020FCF719FE0334E4B2B32CF6D9C522EE
:1036F000FE216020FCF710FE0122FD216020FCF776
:103700000BFE022406E02A0021006020FCF704FEE4
:103710000334E4B2AA2CF6D9D3E70000F0B5DE46B4
:1037200057464E464546E0B585B000210120FFF7DB
:103730009AFF00210120FFF73CFF00210120FFF745
:10374000DEFE984B1B78012B00D020E10025BC2D1C
:10375000F7D8954C625D01210120FFF796FE80238A
:103760009A46AA445346E25C01210020FFF78DFEF1
:1037700040239B46AB445B46E25C01210220FFF7FD
:1037800084FE2B000833E25C02210120FFF77DFE5E
:1037900088239846A8444346E25C02210020FFF7B4
:1037A00074FE48239946A9444B46E25C022102205C
:1037B000FFF76BFE2B001033E25C03210120FFF7C3
:1037C00064FE90239C46AC4463460093E25C032174
:1037D0000020FFF75AFE50229446AC446246019204
:1037E000A25C03210220FFF750FE29001831625C21
:1037F00004210120FFF749FE98218C46AC44614624
:103800000291625C04210020FFF73FFE58208446AD
:10381000AC4460460390225C04210220FFF735FE91
:103820002E002036A25D05210120FFF72EFE8036F6
:10383000A25D05210020FFF728FE2F006037E25D22
:1038400005210220FFF721FE2B002833E25C062130
:103850000120FFF71AFE2B00A833E25C06210020AE
:10386000FFF713FE2B006833E25C06210220FFF70E
:103870000CFE2B003033E25C07210120FFF705FE30
:103880002B00B033E25C07210020FFF7FEFD2B0088
:103890007033E25C07210220FFF7F7FD2B0038337D
:1038A000E25C08210120FFF7F0FD2B00B833E25C59
:1038B00008210020FFF7E9FD2B007833E25C0821A6
:1038C0000220FFF7E2FD5B46E25C09210120FFF7E1
:1038D000DCFD2B00C033E25C09210020FFF7D5FDA1
:1038E0005346E25C09210220FFF7CFFD4B46E25C24
:1038F0000A210120FFF7C9FD2B00C833E25C0A2131
:103900000020FFF7C2FD4346E25C0A210220FFF7D8
:10391000BCFD019AA25C0B210120FFF7B6FD2A0035
:10392000D032A25C0B210020FFF7AFFD009BE25CD0
:103930000B210220FFF7A9FD0398225C0C21012036
:10394000FFF7A3FD2B00D833E25C0C210020FFF72A
:103950009CFD0299625C0C210220FFF796FDE25D5E
:103960000D210120FFF791FD2B00E033E25C0D21DA
:103970000020FFF78AFDA25D0D210220FFF785FDE3
:10398000084B1B78012B04D10135EDB2DFE6012095
:1039900000E0002005B03CBC90469946A246AB46EC
:1039A000F0BDC0460000002094000020F0B5DE46C7
:1039B00057464E464546E0B5E5B000210120FFF7E9
:1039C00052FE00210120FFF7F4FD00210120FFF746
:1039D00096FD044B1B78022B01D000F0A0FE0027BF
:1039E000099708E000000020642001F0B1FE099F63
:1039F0000137FBB20993099B2F2BEAD8099B10339F
:103A0000D9B20A0018320B001533080012300D002D
:103A10000F350E000C360C0009340B948F1DCC1C96
:103A20000C94FE4C2893E35C2792A25C5D91615C50
:103A300006910C99615C05912C97E15D04910B99BD
:103A4000615C03912B96A15D02912A95615D0191C4
:103A50002990215C009101210020FFF7BDFC182571
:103A6000AB46099E3300B146CB4435001235A8461B
:103A70000C25AC46CC446746B51DAA46F11C15334F
:103A8000E35C5D46625DA05D0690615C0591554614
:103A9000615D04910335615D03912D97E15D0291B4
:103AA0000635615D01914146615C00910121022072
:103AB000FFF792FC099633002033D9B20A0018327E
:103AC0000B0015330E00123608000F300D000C35B8
:103AD0000D95033D0E958D1D2F000D0003350F959F
:103AE0002F93E35C2E92A25C5E91615C06910F9D28
:103AF000615D05913297E15D04910E9D615D0391D9
:103B00000D9D615D02913190215C01913096A15D26
:103B1000009101210120FFF75FFCFF21434619407E
:103B20000A0018320B0015331093080012300D00F4
:103B30000F350E000C360C3B11938B1D1F00CB1C58
:103B40001293109BE35C3392A25C5C91615C0691E2
:103B50001299615C05913797E15D04911199615C5F
:103B600003913696A15D02913595615D0191349086
:103B7000215C009102210020FFF72EFC099EB11C60
:103B8000C9B20A0018320B0015330D001235280097
:103B9000033D0E000C360927BC468C448F1DB846E9
:103BA000CF1CE35CA25C615C0691E15D0591474638
:103BB000E15D04916746E15D0391A15D0291615D64
:103BC0000191215C009102210220FFF705FC099B75
:103BD0002233DDB229002A0018322B0015331235AA
:103BE000139508000F300E000C36093D14950D009A
:103BF0008F1D033515953993E35C3892A25C5F9174
:103C0000615C0691159D615D05913C97E15D0491B4
:103C1000149D615D03913B96A15D02913A90215CF8
:103C20000191139D615D009102210120FFF7D4FBFA
:103C3000099B1433DAB2110018320B0015330D0052
:103C4000123516950E000F3608000C30093D1795F9
:103C50008F1DCD1C3E93E35C3D92A25C6091615C44
:103C600006914295615D05914197E15D0491179D33
:103C7000615D03914090215C02913F96A15D0191AD
:103C8000169D615D009103210020FFF7A5FB099EB1
:103C9000311DC9B20A0018320B0015330E0012365E
:103CA0003000033E3500033E0927BC468C448F1D7F
:103CB000B846CF1CE35CA25C615C0691E15D0591B6
:103CC0004746E15D04916746E15D0391A15D029184
:103CD000615D0191215C009103210220FFF77CFBD3
:103CE000099B2433DBB219001A00183215330E0079
:103CF000123618960D000F3508000C30093E199643
:103D00008F1D0E0003361A964493E35C4392A25C27
:103D10006191615C06911A9EA15D05914797E15DF5
:103D20000491199EA15D03914690215C02914595F5
:103D3000615D01911899615C009103210120FFF7F9
:103D40004BFB099B1633DBB219001A0018321533EE
:103D50000D00123508000F300E000C360F00093729
:103D60001B970F0006371C970F0003371D974993C9
:103D7000E35C4892A25C6291615C06911D99615C72
:103D800005911C99615C04911B9FE15D03914C9628
:103D9000A15D02914B90215C01914A95615D00917A
:103DA00004210020FFF718FB5246FF273A4011007C
:103DB000183292460B001533080012300D000F35F3
:103DC0000E000C36092294468C448A1D9046CA1C6B
:103DD0009146E35C5246A25C615C06914946615C97
:103DE00005914146615C04916146615C0391A15D6E
:103DF0000291615D0191215C009104210220FFF795
:103E0000EBFA099A2632D1B2182294468846C44465
:103E1000624615239C46C444634601E0040000202A
:103E20001225AC46C44465460F208446C44460460F
:103E30000C26B4460A91C444664609218C46C44403
:103E400061461E91414606311F9141460331209142
:103E50004E93E35C4D92A25C4146615C06912099D1
:103E6000615C05911F99615C04916146615C0391FD
:103E70005196A15D02915090215C01914F95615D39
:103E8000009104210120FFF7A7FA5D463D4029007B
:103E90002A0018322B001533123508000F300E009F
:103EA0000C362196033E22960E008F1D0336239674
:103EB0005393E35C5292A25C6391615C0691239EF2
:103EC000A15D05915697E15D0491229EA15D03914C
:103ED000219EA15D02915590215C01915495615DF7
:103EE000009105210020FFF777FA099E330008337F
:103EF000D9B20A0018320B0015330D001235280014
:103F0000033D0C27BC468C44033FB84688448F1DB4
:103F1000B946CF1CE35CA25C615C0691E15D059152
:103F20004F46E15D04914746E15D03916746E15DDF
:103F30000291615D0191215C009105210220FFF752
:103F40004BFA099633002833DDB218239C46AC4463
:103F50006246033B9C46AC44634612208446AC4414
:103F600060460F27BC46AC4467460C26B446AC44BA
:103F7000664609218C46AC4461462491A91D2591D1
:103F8000E91C26915893E35C5792A25C615D06910F
:103F90002699615C05912599615C04916146615C9B
:103FA00003915B96A15D02915A97E15D0191599051
:103FB000215C009105210120FFF70EFA099F3B00CB
:103FC0001A33D9B20A0018320B0015330800123028
:103FD0000F26B4468C44033EB0468844033EB146A7
:103FE00089448E1DB246CE1CE35CA25C615C0691E6
:103FF000A15D05915646A15D04914E46A15D0391D8
:104000004646A15D02916646A15D0191215C009149
:1040100006210020FFF7E0F93B000A33D9B20A007D
:1040200018320B001533080012300F26B4468C44AA
:10403000033EB0468844033EB14689448E1DB246D5
:10404000CE1CE35CA25C615C0691A15D05915646C5
:10405000A15D04914E46A15D03914646A15D02918A
:104060006646A15D0191215C009106210220FFF7C7
:10407000B3F93B002A33D9B20A0018320B001533CA
:10408000080012300F26B4468C44033EB0468844E4
:10409000033EB14689448E1DB246CE1CE35CA25C51
:1040A000615C0691A15D05915646A15D04914E4665
:1040B000A15D03914646A15D02916646A15D019115
:1040C000215C009106210120FFF786F909973B004A
:1040D0001C33D9B20A0018320B0015330800123015
:1040E0000F26B4468C44033EB0468844033EB14696
:1040F00089448E1DB246CE1CE35CA25C615C0691D5
:10410000A15D05915646A15D04914E46A15D0391C6
:104110004646A15D02916646A15D0191215C009138
:1041200007210020FFF758F92D9FFF221740390083
:104130003A0018323B001533123738000F27BC46BF
:104140008C44033FB8468844033FB94689448F1DD9
:10415000BA46CF1CE35CA25C615C0691E15D05910F
:104160005746E15D04914F46E15D03914746E15DAD
:1041700002916746E15D0191215C009107210220D7
:10418000FFF72AF9099E32002C32D1B20A00183208
:104190000B0015330F00123738000F27BC468C4434
:1041A000033FB8468844033FB94689448F1DBA4649
:1041B000CF1CE35CA25C615C0691E15D0591574612
:1041C000E15D04914F46E15D03914746E15D029157
:1041D0006746E15D0191215C009107210120FFF715
:1041E000FBF832001E32D1B20A0018320B00153330
:1041F0000F00123738000F27BC468C44033FB846E7
:104200008844033FB94689448F1DBA46CF1CE35CFE
:10421000A25C615C0691E15D05915746E15D049108
:104220004F46E15D03914746E15D02916746E15DDE
:104230000191215C009108210020FFF7CDF83200A8
:104240000E32D1B20A0018320B0015330F001237AC
:1042500038000F27BC468C44033FB8468844033FD0
:10426000B94689448F1DBA46CF1CE35CA25C615CF1
:104270000691E15D05915746E15D04914F46E15D90
:1042800003914746E15D02916746E15D0191215C42
:10429000009108210220FFF79FF8099632002E3284
:1042A000D1B20A0018320B0015330F001237380054
:1042B0000F27BC468C44033FB8468844033FB946A9
:1042C00089448F1DBA46CF1CE35CA25C615C0691F9
:1042D000E15D05915746E15D04914F46E15D039133
:1042E0004746E15D02916746E15D0191215C0091E5
:1042F00008210120FFF770F82F9BE35C2E9AA25C47
:104300005E9EA15D06910F9FE15D0591329FE15D8B
:1043100004910E9EA15D03910D9EA15D02913198C5
:10432000215C0191309EA15D009109210020FFF7E1
:1043300053F8F54C289BE35C279AA25C5D98215CBE
:1043400006910C9FE15D05912C9FE15D04910B9816
:10435000215C03912B9EA15D02912A9EA15D01919A
:104360002998215C009109210220FFF735F8099A6C
:104370003032D1B20A0018320B0015330F00123759
:1043800038000F27BC468C44033FB8468844033F9F
:10439000B94689448F1DBA46CF1CE35CA25C615CC0
:1043A0000691E15D05915746E15D04914F46E15D5F
:1043B00003914746E15D02916746E15D0191215C11
:1043C000009109210120FFF707F8399BE35C389A37
:1043D000A25C5F9EA15D0691159FE15D05913C9FEA
:1043E000E15D0491149EA15D03913B9EA15D02914C
:1043F0003A98215C01911398215C00910A210020D8
:10440000FEF7EAFF109BE35C339AA25C5C99615C67
:1044100006911298215C0591379FE15D04911199F5
:10442000615C03913699615C02913599615C0191FF
:104430003498215C00910A210220FEF7CDFF099BF0
:104440003233D9B20A0018320B0015330F0012377D
:1044500038000F27BC468C44033FB8468844033FCE
:10446000B94689448F1DBA46CF1CE35CA25C615CEF
:104470000691E15D05915746E15D04914F46E15D8E
:1044800003914746E15D02916746E15D0191215C40
:1044900000910A210120FEF79FFF449BE35C439AB1
:1044A000A25C6198215C06911A98215C059147985D
:1044B000215C0491199EA15D03914698215C0291B3
:1044C000459EA15D0191189EA15D00910B210020E8
:1044D000FEF782FF3E9BE35C3D9AA25C6099615CC3
:1044E0000691429EA15D05914199615C04911799E5
:1044F000615C03914098215C02913F98215C01919D
:104500001698215C00910B210220FEF765FF099BA4
:104510003433D9B20A0018320B00153308001230B8
:104520000F26B4468C44033EB0468844033EB14651
:1045300089448E1DB246CE1CE35CA25C615C069190
:10454000A15D05915646A15D04914E46A15D039182
:104550004646A15D02916646A15D0191215C0091F4
:104560000B210120FEF738FF4E9BE35C4D9AA25CC5
:104570000A99615C06912098215C05911F9EA15DBE
:1045800004911E99615C0391519EA15D0291509826
:10459000215C01914F98215C00910C210020FEF7D5
:1045A0001BFF499BE35C489AA25C6299615C06919F
:1045B0001D98215C05911C99615C04911B9FE15D34
:1045C00003914C9FE15D02914B9FE15D01914A9FF8
:1045D000E15D00910C210220FEF7FEFE099F3637B7
:1045E000F9B20A0018320B001533080012300F0020
:1045F0000F373E000C27BC468C44033FB846884426
:104600008F1DB946CF1CE35CA25C615C0691E15D45
:1046100005914F46E15D04914746E15D0391674690
:10462000E15D0291A15D0191215C00910C210120CD
:10463000FEF7D2FE589BE35C579AA25C615D06913F
:104640002698215C0591259D615D0491249D615D05
:1046500003915B9D615D02915A9FE15D01915998C3
:10466000215C00910D210020FEF7B6FE539BE35C18
:10467000529AA25C6399615C06912399615C0591F1
:10468000569FE15D04912299615C0391219EA15D99
:1046900002915598215C0191549D615D00910D211D
:1046A0000220FEF799FE09993831C9B20A00183282
:1046B0000B001533080012300D000F350E000C36BC
:1046C0000927BC468C448F1DB846CF1CE35CA25C16
:1046D000615C0691E15D05914146615C0491614632
:1046E000615C0391A15D0291615D0191215C00918A
:1046F0000D210120FEF770FE044B1B78022B01D127
:10470000FFF772F9002003E0040000200000002001
:1047100065B03CBC90469946A246AB46F0BD012030
:10472000F6E7C046F0B5DE4657464E464546E0B58C
:10473000DBB004F005F90921FBF752FDCBB2994635
:1047400004F0FEF8C217120E8318FF2423409B1AB0
:10475000DBB2019304F0F4F8C217120E8318234061
:104760009B1ADBB2984604F0EBF8C3171B0EC01877
:104770000440E41AE3B29A4600210120FEF773FFD9
:1047800000210120FEF715FF00210120FEF7B7FEF2
:10479000002517E068004019A2001219D200131B6F
:1047A000C31802AA9446634400225A540131C9B284
:1047B0000229EFD90134E4B2082C01D80021F7E72F
:1047C0000135EDB20C2D01D80024F5E700239B46FE
:1047D0005346DA46CB469946844B1B78032B00D0D0
:1047E000F6E05346032B0AD0804B1B78032B00D0F6
:1047F000F0E000235446584645464E4638E004F063
:104800009FF80921FBF7ECFCCBB29B4604F098F82B
:10481000C217120E8318FF252B409B1ADBB201939F
:1048200004F08EF8C3171B0EC6182E40F61AF3B20A
:10483000984604F085F8C3171B0EC7182F40FF1ABF
:10484000FBB2994600239A46CEE7002C24D19A0069
:10485000D218D200D21A02A98C4662441100243127
:10486000019F0F7001310D70263216700133DBB2DB
:10487000082B4BD88342E8D09A00D218D200D21A23
:1048800002A98C4662441700243700213970013791
:10489000397026321170E9E7012C11D0022C22D098
:1048A0009A00D218D200D21A02A98C46624417008C
:1048B0002437002139700137397026321170D5E75D
:1048C0009A00D218D200D21A02A98C466244110072
:1048D0002431019F7F080F7001316F080F7026325D
:1048E00071081170C2E79A00D218D200D21A02A938
:1048F0008C46624411002431019FFF080F70013182
:10490000EF080F702632F1081170AFE78346A84612
:10491000B14625000135EBB29A46002601E001368A
:10492000F6B2082E29D800230C2BF8D8751CEDB24E
:104930005C1CE4B25F00FF18B1008919C900891B33
:104940007F1802ABFB5C220029000020FBF7F6FC7D
:1049500002AB9C4667447B78220029000120FBF7CC
:10496000EDFCBB78220029000220FBF7E7FC1F4B7F
:104970001B78032B30D12300D6E7642000F0E8FE3B
:104980001A4B1B78032B2FD100261CE00130C0B23C
:104990000B2816D800210229F8D8431C5A00D21837
:1049A000B3009B19DB009B1BD21802ACA4466244E7
:1049B000545C42001218D31863445C540131C9B2EC
:1049C000E9E70136F6B2082E00D905E70020DFE757
:1049D000012002E0002000E000205BB03CBC9046DB
:1049E0009946A246AB46F0BD0020F6E70000002045
:1049F000F0B5DE4657464E464546E0B5DDB003F01D
:104A00009FFFC3171B0EC518FF242540ED1AEBB2FC
:104A1000019303F095FFC3171B0EC6182640F61A24
:104A2000F3B2029303F08CFFC3171B0EC718274085
:104A3000FF1AFBB2039300210120FEF714FE0021B0
:104A40000120FEF7B6FD00210120FEF758FD0025EC
:104A500017E068004019A2001219D200131BC318F6
:104A600004AA9446634400225A540131C9B202296F
:104A7000EFD90134E4B2082C01D80021F7E7013561
:104A8000EDB20C2D00D94DE20024F4E703F058FFFD
:104A9000C3171B0EC518FF273D40ED1AEBB201935B
:104AA00003F04EFFC3171B0EC6183E40F61AF3B2B2
:104AB000029303F045FFC3171B0EC0180740FF1AEF
:104AC000FBB20393E2E06B005B1904AA01999954CD
:104AD00094466344029A5A70039A9A700135EDB273
:104AE0000C2D6DD84346002BEDD0012B11D0022B9D
:104AF0001ED0032B31D0042B3ED0052B51D06B00A0
:104B00005B19002204A95A548C4663445A709A7067
:104B1000E4E76B005B19019A520804A95A548C46C9
:104B20006344029A52085A70039A52089A70D5E761
:104B30006C00641903210198FBF7C2FA04AB185505
:104B40009C46644403210298FBF7BAFA6070032183
:104B50000398FBF7B5FAA070C0E76B005B19019AE8
:104B6000920804A95A548C466344029A92085A70D7
:104B7000039A92089A70B1E76C00641906210198B3
:104B8000FBF79EFA04AB18559C4664440621029834
:104B9000FBF796FA607006210398FBF791FAA07074
:104BA0009CE76B005B19019AD20804A95A548C4601
:104BB0006344029AD2085A70039AD2089A708DE719
:104BC00000252AE06F1CFFB25E1CF6B25900C9181E
:104BD000AA005219D200541B0C1904ABE35C32003A
:104BE00039000020FBF7AAFB04AB9C4664446378C1
:104BF000320039000120FBF7A1FBA3783200390015
:104C00000220FBF79BFB33000C2BDBD9D24B1B782C
:104C1000042B00D091E10135EDB2082D01D800231D
:104C2000F2E7CD4B1B78042B00D08EE100251EE06F
:104C3000461E69004919B3009B19DB009B1BCB186A
:104C400004ACA44663449E5C83001B18DB001B1A63
:104C5000C91861448E540132D2B2022AE8D901380F
:104C6000C0B2002801D00022F7E70135EDB20C2DCB
:104C700001D80820F5E744460134E3B2984643469C
:104C80000E2B0AD843460E2B00D1FFE6B24B1B7801
:104C9000042B00D04FE1002522E70023984643462D
:104CA0000E2B00D93AE143460E2B01D000252FE010
:104CB00003F046FEC3171B0EC518FF273D40ED1A33
:104CC000EBB2019303F03CFEC3171B0EC6183E4027
:104CD000F61AF3B2029303F033FEC3171B0EC0188B
:104CE0000740FF1AFBB20393E0E76B005B1904AACD
:104CF000944663441A003932FF320199117001322F
:104D0000029911703B33FF33039A1A700135EDB2EB
:104D10000C2D00D99FE04346002BE6D0012B17D085
:104D2000022B2AD0032B4AD0042B5DD0052B7DD03B
:104D30006B005B1904AA9446634419003931FF31B2
:104D400000220A7001310A703B33FF331A70DDE72D
:104D50006B005B1904AA944663441A003932FF328F
:104D600001994908117001320299490811703B33C9
:104D7000FF33039A52081A70C8E76B005B1904AA44
:104D8000944663441C009C235B009A46A244032182
:104D90000198FBF795F9534618703A23FF339A466A
:104DA000A24403210298FBF78BF9534618703B3459
:104DB000FF3403210398FBF783F92070A6E76B000B
:104DC0005B1904AA944663441A003932FF320199F0
:104DD0008908117001320299890811703B33FF3341
:104DE000039A92081A7091E76B005B1904AA944623
:104DF00063441C009C235B009A46A2440621019850
:104E0000FBF75EF9534618703A23FF339A46A244E3
:104E100006210298FBF754F9534618703B34FF34CF
:104E200006210398FBF74CF920706FE76B005B19C4
:104E300004AA944663441A003932FF320199C90822
:104E4000117001320299C90811703B33FF33039A84
:104E5000D2081A705AE7002501E00135EDB2082D9D
:104E60002ED800230C2BF8D86A1CD2B291465C1CB9
:104E7000E4B25A00D218AB005B19DB005B1B93460F
:104E80009B4404AB5A46D35C220049460020FBF702
:104E900055FA04AB9C46E3445B465B7822004946E6
:104EA0000120FBF74BFA5B469B7822004946022023
:104EB000FBF744FA284B1B78042B48D12300D1E799
:104EC000254B1B78042B44D100201EE00135EDB2A8
:104ED0000C2D18D80022022AF8D8441C6900491960
:104EE000A3001B19DB001B1BCB1804ACA4466344B6
:104EF0009C5C83001B18DB001B1AC91861448C548E
:104F00000132D2B2E7E70130C0B2072801D800254C
:104F1000DEE744460134E3B29846C0E6FA2080005A
:104F200000F016FC0C4B1B78042B02D10023984692
:104F3000A5E6012002E0002000E000205DB03CBCBE
:104F400090469946A246AB46F0BD0020F6E7002009
:104F5000F4E70020F2E7C0460000002010B5FEF79D
:104F6000DDFB0B4B1B78012BFBD0FEF71FFD084B25
:104F70001B78022BFBD0FFF7D5FB054B1B78032BCF
:104F8000FBD0FFF735FD024B1B78042BFBD010BD87
:104F90000000002010B5FF210020FEF764FBFF2178
:104FA0000020FEF706FBFF210020FEF7A8FA0021F3
:104FB0000120FEF758FB00210120FEF7FAFA00213C
:104FC0000120FEF79CFAC522FE216020FBF7A4F920
:104FD0000422FD216020FBF79FF9FF2201216020C0
:104FE000FBF79AF9012200216020FBF795F910BD2B
:104FF00030B59DB0382200210EA803F099FC142290
:10500000002109A803F094FC2022002101A803F04C
:105010008FFC14490B68144A1A4080231B01134368
:105020000B6022230E9301251195123B12931495C8
:10503000002418940EA800F0F1FB0F2309930A95A1
:105040000B940C940D94002109A800F0A5FE4823B0
:10505000019306948023DB04089301A800F070FFFD
:105060001DB030BD00700040FFE7FFFF10B584B0F9
:1050700001AA1B4B13CB13C200F048FBFFF7B8FF8C
:10508000FBF7DEF8FBF70AF901F098F98021A0247C
:10509000E4050122C900200001F002F9802101226B
:1050A0008900200001F0FCF8FFF774FFFBF71EF900
:1050B000A0202021C00501F0F9F8FA24A400200066
:1050C00000F046FB0C2101A801F0A2FBFFF746FF10
:1050D000200000F03DFB0C2101A801F099FBE7E75F
:1050E0008891000870477047FEE77047704710B519
:1050F00000F020FB10BD000010B5024801F0D4FE06
:1051000010BDC046A4090020054B5A6B01210A437B
:105110005A63996B802252050A439A637047C046CE
:105120000010024010B586B004001422002101A82E
:1051300003F0FEFB2268114B9A4201D006B010BD6D
:105140000F4CE26A02231A43E262E26A13400093C0
:10515000009BC0239B00019312230293113B0393F6
:10516000023304930133059301A9064800F0D0FFF0
:10517000A26B80239B031343A363DFE7005400402B
:10518000001002400004005003689A69920701D59C
:1051900000229A6203689A69D20703D49A690121AE
:1051A0000A439A6170470000F0B5059C056868687D
:1051B000660D8027FF003740054E3E43B04389050A
:1051C000890D120411431943214301436960F0BD65
:1051D000FF63FF03F8B505000F00160003689B6925
:1051E000DB0601D40020F8BD2B689C69A20615D40B
:1051F0007B1CF9D000F0A6FA801BB84201D8002F22
:10520000F2D16B6C202213436B644123EA540023D8
:105210002232AB54023AAB540120E4E71022DA61A7
:105220002B682024DC612800FFF7AEFF2A68536852
:1052300007490B4053606B6C042213436B6441239A
:10524000EC5400233E32AB54023AAB540120CAE77F
:1052500000E800FE70B504000D00160023689B698D
:105260009B071CD4320029002000FFF7B3FF002861
:1052700017D16B1CF2D000F065FA801BA84201D850
:10528000002DEBD1636C2022134363644123E2546D
:1052900000232232A354023AA354012000E000204C
:1052A00070BD0120FCE7F0B5C64600B507000D0053
:1052B00090461E003B689C692C40641B63425C4125
:1052C000444516D1731CF5D000F03CFA069BC01A79
:1052D000B04201D8002EEDD17B6C202213437B64B9
:1052E0004123FA5400232232BB54023ABB5401201A
:1052F00000E0002004BC9046F0BD000070B582B014
:10530000040015001E008023F2B2194800905B04CF
:105310002000FFF749FF079A06992000FFF79AFF40
:1053200000281ED1012E0ED12368EDB29D62079B8D
:105330000093069B002280212000FFF7B4FF002885
:1053400013D102B070BD23682A0A9A62079A06999F
:105350002000FFF77FFF002805D12368EDB29D6292
:10536000E5E70120EDE70120EBE70120E9E7C04692
:105370000020008070B505000C0016002B689B69AA
:105380009B061AD4320021002800FFF723FF0028D3
:1053900015D100F0D7F9801BA04201D8002CEDD127
:1053A0006B6C202213436B644123EA5400232232A6
:1053B000AB54023AAB54012070BD0020FCE7012041
:1053C000FAE7000010B5041E59D04123C35C002B3E
:1053D00043D041232422E2542268136801218B43E5
:1053E00013602268274B61680B4013612268936841
:1053F00025490B409360E368012B34D02268842355
:105400001B02A1680B439360E368022B32D0226831
:1054100051681E4B0B4353602268D3681A490B40F6
:10542000D360236962691343A2691202216813439E
:10543000CB602268E369216A0B431360226813681A
:1054400001210B4313600023636441221F31A154E7
:1054500023630132A354002010BD40330022C25404
:10546000FFF760FEB5E7226880231B02A1680B43AB
:105470009360C9E72368802212015A60C7E70120C0
:10548000EAE7C046FFFFFFF0FF7FFFFF008000025A
:10549000F0B587B004000391049205930CAB20CBC8
:1054A0001F884123C35C202B00D0B3E0002D18D00F
:1054B000002F16D04023C35C012B00D1ADE0402368
:1054C0000122C25400F03EF9060080210090192309
:1054D000012209022000FFF7E6FE002806D0012085
:1054E00099E080239B006364012094E04123212202
:1054F000E25401331F32E25400236364656267851E
:10550000636301960E9B0093059B049A0399200008
:10551000FFF7F4FE00280FD1638D9BB2FF2B10D94B
:10552000FF2323857F3B002200925B04FF32039917
:105530002000FFF739FE21E040230022E254012041
:1055400069E0628D92B222858023D2B2002100915F
:105550009B0403992000FFF727FE0FE0628D92B2B3
:1055600022858023D2B2002100919B040399200060
:10557000FFF71AFE638D9BB2002B34D032000E99D8
:105580002000FFF767FE002849D12368626A12787D
:105590009A62636A01336362638D013B9BB26385E8
:1055A000238D013B9BB22385628D92B2002AE1D00C
:1055B000002BDFD100960E9B002280212000FFF7F8
:1055C00072FE00282DD1638D9BB2FF2BC6D9FF231D
:1055D00023857F3B002200925B04FF320399200069
:1055E000FFF7E2FDC6E732000E992000FFF7C2FE8A
:1055F000002818D123682022DA6121684B680B4DFE
:105600002B404B604123E25400232232A354023A40
:10561000A35400E0022007B0F0BD0220FBE7012008
:10562000F9E70120F7E70120F5E7C04600E800FEB2
:10563000F0B54123C35C202B20D12033C35C012B68
:105640001ED04024012202554125242343550668DB
:10565000336893433360066833680A4F3B403360D6
:10566000066833681943316001680B6813430B60A7
:1056700020234355002303550020F0BD0220FCE702
:105680000220FAE7FFEFFFFFF0B54123C35C202BB8
:105690001ED12033C35C012B1CD0402401220255B3
:1056A00041252423435506683368934333600668D5
:1056B0003368094F3B4009021943316001680B68A8
:1056C00013430B6020234355002303550020F0BDF6
:1056D0000220FCE70220FAE7FFF0FFFF10B504000C
:1056E000094B1868FA218900FAF7EAFC00F01CFE61
:1056F000002801D0012010BD0130002221004042CD
:1057000000F0D8FD0020F6E79402002010B5084A0A
:10571000136840210B4313600020FFF7DFFF041ED6
:1057200002D00124200010BDFFF7EEFCFAE7C046CE
:1057300000200240024A1368013313607047C046DC
:1057400004070020014B18687047C046040700207A
:1057500070B50400FFF7F6FF0500631C00D00134AC
:10576000FFF7F0FF401BA042FAD370BD10B5264BE7
:10577000D9680C230B40082B42D00C2B11D0042BE2
:1057800009D0214B5A68520B072313400133802064
:105790000002984010BD1C4B1B68DB0632D51B482D
:1057A000F8E78A0C0F231340194AD25C890D0323B2
:1057B00019400131144BDB68DB0309D55001801A15
:1057C0008301181AC00080184002FAF779FCE1E75B
:1057D0000D4B1B68DB0609D553019B1A9801C01AB3
:1057E000C00080180002FAF76BFCD3E753019B1A44
:1057F0009801C01AC00080188002FAF761FCC9E75E
:105800000448C7E70448C5E70010024000093D000E
:10581000A491000800127A000024F400F0B583B0CF
:10582000041E00D193E2CA4BDA680C251540DE68ED
:1058300080235B021E400368DB0736D5082D2CD081
:105840000C2D28D063688022520293424DD0A022B2
:10585000D202934250D0BE4B1A68BE490A401A6029
:105860001A68802149020A400192019A1A68BA49CD
:105870000A401A606368002B4AD0FFF763FF0700F5
:10588000B34B1B689B0310D4FFF75CFFC01B64285D
:10589000F6D903205CE2002ED4D0AD4B1B689B03ED
:1058A00003D56368002B00D154E223689B0764D5BD
:1058B000E368042D3CD00C2D38D0002B00D1AEE095
:1058C000A3490A680920824313430B60FFF73AFF9C
:1058D00006009F4B1B685B0700D597E0FFF732FF80
:1058E000801B0228F5D9032032E2994A11688023EF
:1058F0005B020B431360BDE7954B19688022D2020F
:105900000A431A601968802252020A431A60B1E7FA
:10591000FFF718FF07008E4B1B689B03C5D5FFF7E9
:1059200011FFC01B6428F6D9032011E2002EC4D158
:10593000874A1268520702D5002B00D10CE2844E30
:10594000726886490A40216909020A437260326816
:1059500009218A4313433360FFF708FFF2681209F5
:105960000F2313407E4AD35CD8407E4B1860002042
:10597000FFF7B4FE002800D0EAE12368DB062CD54F
:10598000002D5FD1724B1B689B0503D5E369002B8B
:1059900000D1E3E16E4A536873490B40616A0B43DF
:1059A000536053681B021B0A216A09060B435360AC
:1059B000636A590B013180231B028B40D1680909AE
:1059C0000F220A4066498A5CD340664A1360002071
:1059D000FFF784FE002800D0BAE123681B077DD5BD
:1059E0006369002B67D05A4A136D01210B4313657D
:1059F000FFF7A8FE0600564B1B6D9B076ED4FFF702
:105A0000A1FE801B0228F6D90320A1E150494B6872
:105A1000524A13402269120213434B60ADE74C4ACD
:105A2000136801218B431360FFF78CFE0600484B7F
:105A30001B685B07A1D5FFF785FE801B0228F6D9FE
:105A4000032085E1E369002B22D0414A11688023BD
:105A50005B000B431360FFF775FE06003C4B1B68B1
:105A60009B0506D4FFF76EFE801B0228F6D90320A3
:105A70006EE1374A53683C490B40616A0B435360FF
:105A800053681B021B0A216A09060B435360A4E7F3
:105A90002F4A136835490B401360FFF753FE060089
:105AA0002B4B1B689B0598D5FFF74CFE801B0228EB
:105AB000F6D903204CE1264A136D01218B4313656F
:105AC000FFF740FE0600224B1B6D9B0706D5FFF734
:105AD00039FE801B0228F6D9032039E123685B07D1
