:020000040800F2
:1000000000200020953C0008DF030008E103000801
:1000100000000000000000000000000000000000E0
:10002000000000000000000000000000E3030008E2
:100030000000000000000000E5030008E7030008DE
:10004000E53C0008E53C0008E53C0008E53C00080C
:10005000E53C0008E53C0008E53C0008E53C0008FC
:10006000E53C0008E53C0008E53C0008E53C0008EC
:10007000E53C0008E53C000800000000E53C000805
:1000800000000000E53C0008000000000000000047
:10009000E53C000800000000E53C0008E53C0008E5
:1000A000E53C0008E53C0008E53C0008E53C0008AC
:1000B000E53C0008E53C000800000000F1030008F2
:1000C000002934D00123002210B488422CD301240B
:1000D0002407A14204D2814202D209011B01F8E7A0
:1000E000E400A14204D2814202D249005B00F8E759
:1000F000884201D3401A1A434C08A04202D3001B85
:100100005C0822438C08A04202D3001B9C082243B7
:10011000CC08A04202D3001BDC082243002803D0F5
:100120001B0901D00909E3E7101C10BC704701B599
:10013000002000F00BF802BD0029F8D003B5FFF74E
:10014000C1FF0EBC4243891A1847C0467047C046DB
:1001500010B5064C2378002B07D1054B002B02D09D
:10016000044800E000BF0123237010BD740100208B
:1001700000000000403D0008044B10B5002B03D0E8
:100180000349044800E000BF10BDC0460000000065
:1001900078010020403D000870B588B0142200218D
:1001A00003A803F0C5FD124BDA6A01242243DA6288
:1001B000DA6A22400192019AD96A02221143D96275
:1001C000DB6A1A400292029BC426F600A025ED05C8
:1001D00000223100280001F099FA039604940023CC
:1001E0000593069303A9280001F0C8F908B070BD73
:1001F0000010024010B50D4C0D4B23600D4B636099
:100200000023A3600122E26023616361A361E361D3
:100210002362200000F052FA0021200000F03EFC92
:100220000021200000F066FC10BDC046B403002091
:10023000005400405B3D300070B584B0164C64261D
:10024000029608250195C5230093BD3BFE2260213F
:10025000200000F053FB0296019504230093043321
:10026000FD226021200000F049FB02960195FF234A
:100270000093F73B01226021200000F03FFB029633
:10028000019501230093073300226021200000F034
:1002900035FB04B070BDC046B403002003000A0063
:1002A000181C111CABBE704782B06B46073303208D
:1002B000191CABBE02B0704730B589B004AB084A18
:1002C000190031CA31C112780A70022201920293D8
:1002D0000C23039301A90520FFF7E0FF09B030BD0F
:1002E000583D000830B59DB0382200210EA803F01B
:1002F0001FFD1422002109A803F01AFD202200216D
:1003000001A803F015FD14490B68144A1A40802314
:100310001B0113430B6022230E9301251195123B01
:1003200012931495002418940EA800F0ADFC0F232E
:1003300009930A950B940C940D94002109A800F0E0
:1003400061FF4823019306948023DB04089301A8EE
:1003500001F02CF81DB030BD00700040FFE7FFFF3A
:1003600010B582B000F008FCFFF7BCFFFFF714FFE8
:10037000FFF740FF01F058FA8021A024E405012294
:10038000C900200001F0C2F980210122890020006B
:1003900001F0BCF90F48FFF74FFFFFF78DFF0E4844
:1003A000C0B2FFF781FFA0202021C00501F0B4F901
:1003B000642300935C3BFF226021064800F0E4F9CF
:1003C000FA24A400200000F0F9FB200000F0F6FB66
:1003D000E9E7C046B4030020683D00087047704755
:1003E000FEE77047704710B500F0DAFB10BD000063
:1003F00010B5024801F076FF10BDC046A0060020EF
:10040000054B5A6B01210A435A63996B80225205AE
:100410000A439A637047C0460010024010B586B088
:1004200004001422002101A803F082FC2268114B71
:100430009A4201D006B010BD0F4CE26A02231A4363
:10044000E262E26A13400093009BC0239B00019389
:1004500012230293113B0393023304930133059358
:1004600001A9064801F08AF8A26B80239B0313437D
:10047000A363DFE700540040001002400004005076
:1004800003689A69920701D500229A6203689A6903
:10049000D20703D49A6901210A439A617047000088
:1004A000F0B5059C05686868660D8027FF00374039
:1004B000054E3E43B0438905890D1204114319438B
:1004C000214301436960F0BDFF63FF03F8B50500F8
:1004D0000F00160003689B69DB0601D40020F8BDFD
:1004E0002B689C69A20615D47B1CF9D000F060FB38
:1004F000801BB84201D8002FF2D16B6C202213432D
:100500006B644123EA5400232232AB54023AAB54C9
:100510000120E4E71022DA612B682024DC61280046
:10052000FFF7AEFF2A68536807490B4053606B6CB6
:10053000042213436B644123EC5400233E32AB543A
:10054000023AAB540120CAE700E800FE70B504008F
:100550000D00160023689B699B071CD432002900FC
:100560002000FFF7B3FF002817D16B1CF2D000F07A
:100570001FFB801BA84201D8002DEBD1636C202209
:10058000134363644123E25400232232A354023A0A
:10059000A354012000E0002070BD0120FCE7F0B56D
:1005A000C64600B507000D0090461E003B689C69DA
:1005B0002C40641B63425C41444516D1731CF5D04A
:1005C00000F0F6FA069BC01AB04201D8002EEDD119
:1005D0007B6C202213437B644123FA540023223294
:1005E000BB54023ABB54012000E0002004BC9046FA
:1005F000F0BD000070B582B0040015001E0080231D
:10060000F2B2194800905B042000FFF749FF079AF7
:1006100006992000FFF79AFF00281ED1012E0ED167
:100620002368EDB29D62079B0093069B0022802108
:100630002000FFF7B4FF002813D102B070BD23687B
:100640002A0A9A62079A06992000FFF77FFF00287E
:1006500005D12368EDB29D62E5E70120EDE70120B9
:10066000EBE70120E9E7C0460020008070B50500F7
:100670000C0016002B689B699B061AD432002100DF
:100680002800FFF723FF002815D100F091FA801B06
:10069000A04201D8002CEDD16B6C202213436B6477
:1006A0004123EA5400232232AB54023AAB540120D6
:1006B00070BD0020FCE70120FAE7000010B5041E21
:1006C00059D04123C35C002B43D041232422E25460
:1006D0002268136801218B4313602268274B6168ED
:1006E0000B4013612268936825490B409360E368CF
:1006F000012B34D0226884231B02A1680B43936032
:10070000E368022B32D0226851681E4B0B435360C2
:100710002268D3681A490B40D36023696269134386
:10072000A269120221681343CB602268E369216A3F
:100730000B4313602268136801210B4313600023ED
:10074000636441221F31A15423630132A35400206A
:1007500010BD40330022C254FFF760FEB5E72268A7
:1007600080231B02A1680B439360C9E723688022A2
:1007700012015A60C7E70120EAE7C046FFFFFFF019
:10078000FF7FFFFF00800002F0B585B004000F007E
:10079000029203930A9D4123C35C202B00D09BE06F
:1007A0002033C35C012B00D199E040230122C254C5
:1007B00000F0FEF9060080210090192301220902B1
:1007C0002000FFF7ECFE002800D08AE04123212220
:1007D000E2540133113AE25400236364029A6262E4
:1007E000039A62856363638D9BB2FF2B0BD9FF2352
:1007F00023857F3B3F4A00925B04FF2239002000A3
:10080000FFF74EFE18E0628D92B222858023D2B2AD
:10081000384900919B0439002000FFF741FE0BE0AE
:10082000628D92B222858023D2B2002100919B0476
:1008300039002000FFF734FE638D9BB2002B34D0CB
:10084000320029002000FFF781FE00284BD12368E9
:10085000626A12789A62636A01336362638D013B54
:100860009BB26385238D013B9BB22385628D92B23F
:10087000002AE1D0002BDFD100962B00002280213E
:100880002000FFF78CFE00282FD1638D9BB2FF2B39
:10089000C6D9FF2323857F3B002200925B04FF32F1
:1008A00039002000FFF7FCFDC6E7320029002000D8
:1008B000FFF7DCFE00281AD123682022DA612168C4
:1008C0004B680D4D2B404B604123E25400232232F4
:1008D000A354023AA35400E0022005B0F0BD022068
:1008E000FBE70120F9E70120F7E70120F5E7012008
:1008F000F3E7C0460020008000E800FEF0B587B0B6
:1009000004000391049205930CAB20CB1F88412374
:10091000C35C202B00D0B3E0002D18D0002F16D0E0
:100920004023C35C012B00D1ADE040230122C2541F
:1009300000F03EF9060080210090192301220902EF
:100940002000FFF72CFE002806D0012099E080232C
:100950009B006364012094E041232122E25401338F
:100960001F32E25400236364656267856363019606
:100970000E9B0093059B049A03992000FFF73AFE13
:1009800000280FD1638D9BB2FF2B10D9FF23238545
:100990007F3B002200925B04FF3203992000FFF7A7
:1009A0007FFD21E040230022E254012069E0628DB6
:1009B00092B222858023D2B2002100919B04039938
:1009C0002000FFF76DFD0FE0628D92B2228580233B
:1009D000D2B2002100919B0403992000FFF760FD33
:1009E000638D9BB2002B34D032000E992000FFF7AC
:1009F000ADFD002849D12368626A12789A62636A61
:100A000001336362638D013B9BB26385238D013BA0
:100A10009BB22385628D92B2002AE1D0002BDFD1F8
:100A200000960E9B002280212000FFF7B8FD0028D1
:100A30002DD1638D9BB2FF2BC6D9FF2323857F3B2E
:100A4000002200925B04FF3203992000FFF728FD8B
:100A5000C6E732000E992000FFF708FE002818D1E3
:100A600023682022DA6121684B680B4D2B404B60D4
:100A70004123E25400232232A354023AA35400E05B
:100A8000022007B0F0BD0220FBE70120F9E70120BA
:100A9000F7E70120F5E7C04600E800FEF0B5412386
:100AA000C35C202B20D12033C35C012B1ED04024FB
:100AB0000122025541252423435506683368934398
:100AC0003360066833680A4F3B403360066833681A
:100AD0001943316001680B6813430B6020234355B1
:100AE000002303550020F0BD0220FCE70220FAE7B6
:100AF000FFEFFFFFF0B54123C35C202B1ED1203355
:100B0000C35C012B1CD04024012202554125242323
:100B10004355066833689343336006683368094F6A
:100B20003B4009021943316001680B6813430B60B5
:100B300020234355002303550020F0BD0220FCE78D
:100B40000220FAE7FFF0FFFF10B50400094B186818
:100B5000FA218900FFF7B4FA00F01CFE002801D04A
:100B6000012010BD013000222100404200F0D8FDDC
:100B70000020F6E70000002010B5084A1368402165
:100B80000B4313600020FFF7DFFF041E02D0012497
:100B9000200010BDFFF734FCFAE7C04600200240F9
:100BA000024A1368013313607047C04600040020F6
:100BB000014B18687047C0460004002070B504005F
:100BC000FFF7F6FF0500631C00D00134FFF7F0FFCC
:100BD000401BA042FAD370BD10B5264BD9680C2338
:100BE0000B40082B42D00C2B11D0042B09D0214BE9
:100BF0005A68520B072313400133802000029840AB
:100C000010BD1C4B1B68DB0632D51B48F8E78A0C6D
:100C10000F231340194AD25C890D03231940013177
:100C2000144BDB68DB0309D55001801A8301181AC5
:100C3000C00080184002FFF743FAE1E70D4B1B6844
:100C4000DB0609D553019B1A9801C01AC000801811
:100C50000002FFF735FAD3E753019B1A9801C01A37
:100C6000C00080188002FFF72BFAC9E70448C7E7E5
:100C70000448C5E70010024000093D007C3D000823
:100C800000127A000024F400F0B583B0041E00D1F5
:100C900093E2CA4BDA680C251540DE6880235B02BC
:100CA0001E400368DB0736D5082D2CD00C2D28D02C
:100CB00063688022520293424DD0A022D202934216
:100CC00050D0BE4B1A68BE490A401A601A6880218B
:100CD00049020A400192019A1A68BA490A401A6008
:100CE0006368002B4AD0FFF763FF0700B34B1B6814
:100CF0009B0310D4FFF75CFFC01B6428F6D90320C8
:100D00005CE2002ED4D0AD4B1B689B0303D5636817
:100D1000002B00D154E223689B0764D5E368042DBF
:100D20003CD00C2D38D0002B00D1AEE0A3490A688E
:100D30000920824313430B60FFF73AFF06009F4BE5
:100D40001B685B0700D597E0FFF732FF801B022886
:100D5000F5D9032032E2994A116880235B020B43E4
:100D60001360BDE7954B19688022D2020A431A60CE
:100D70001968802252020A431A60B1E7FFF718FF90
:100D800007008E4B1B689B03C5D5FFF711FFC01BE7
:100D90006428F6D9032011E2002EC4D1874A1268D4
:100DA000520702D5002B00D10CE2844E72688649AE
:100DB0000A40216909020A437260326809218A43A4
:100DC00013433360FFF708FFF26812090F23134043
:100DD0007E4AD35CD8407E4B18600020FFF7B4FEFB
:100DE000002800D0EAE12368DB062CD5002D5FD176
:100DF000724B1B689B0503D5E369002B00D1E3E12F
:100E00006E4A536873490B40616A0B4353605368E1
:100E10001B021B0A216A09060B435360636A590BC4
:100E2000013180231B028B40D16809090F220A403F
:100E300066498A5CD340664A13600020FFF784FE4F
:100E4000002800D0BAE123681B077DD56369002B19
:100E500067D05A4A136D01210B431365FFF7A8FEB3
:100E60000600564B1B6D9B076ED4FFF7A1FE801B3F
:100E70000228F6D90320A1E150494B68524A134099
:100E80002269120213434B60ADE74C4A13680121FB
:100E90008B431360FFF78CFE0600484B1B685B0713
:100EA000A1D5FFF785FE801B0228F6D9032085E136
:100EB000E369002B22D0414A116880235B000B4379
:100EC0001360FFF775FE06003C4B1B689B0506D4BC
:100ED000FFF76EFE801B0228F6D903206EE1374A29
:100EE00053683C490B40616A0B43536053681B02D3
:100EF0001B0A216A09060B435360A4E72F4A1368B3
:100F000035490B401360FFF753FE06002B4B1B685F
:100F10009B0598D5FFF74CFE801B0228F6D90320CD
:100F20004CE1264A136D01218B431365FFF740FE08
:100F30000600224B1B6D9B0706D5FFF739FE801B71
:100F40000228F6D9032039E123685B0700D48CE03E
:100F50001A4B9B6BDB001BD4184A916B80235B05FB
:100F60000B43936301261D4B1B68DB0512D5A36859
:100F700080225200934235D0002B4BD10F4B1A6D7B
:100F800015490A401A651A6D15490A401A652FE07D
:100F90000026E8E7114A116880235B000B431360C9
:100FA000FFF706FE07000D4B1B68DB05DFD4FFF7DC
:100FB000FFFDC01B6428F6D90320FFE000100240AB
:100FC000FFFFFEFFFFFFFBFFFFE0FFFF6C3D0008A0
:100FD00000000020FF1FFFFFFFFEFFFF007000402A
:100FE000FFFBFFFF7E4A116D80235B000B431365FF
:100FF000A368002B28D0FFF7DBFD0700784B1B6DA3
:101000009B0530D4FFF7D4FDC01B764B9842F5D931
:101010000320D3E0A022D200934209D0704B1A6D76
:1010200071490A401A651A6D70490A401A65DFE76E
:101030006B4B196D013AFF3A0A431A65196D80220C
:1010400052000A431A65D3E7FFF7B2FD0700644B6D
:101050001B6D9B0507D5FFF7ABFDC01B614B98428D
:10106000F5D90320AAE0012E21D023689B063CD5A8
:10107000A369002B21D05A4B996801200143996044
:101080005A6B02435A635A4A116A80239B010B43ED
:101090001362FFF78DFD0600514B9B689B0724D41C
:1010A000FFF786FD801B0228F6D9032086E04C4A14
:1010B000936B50490B409363D7E7494A93680121EA
:1010C0008B4393604A4A136A4B490B401362FFF704
:1010D0006FFD0600424B9B689B0706D5FFF768FD36
:1010E000801B0228F6D9032068E0A36A002B00D1F8
:1010F0006CE00C2D49D0022B12D0394A13683F49BD
:101100000B401360FFF754FD0400354B1B689B0137
:1011100039D5FFF74DFD001B0228F6D903204DE01D
:101120002F4A136835490B401360FFF741FD050056
:101130002B4B1B689B0106D5FFF73AFD401B02288D
:10114000F6D903203AE02649CB682D4A1340E26ADB
:10115000206B0243606B02431343CB600A68802319
:101160005B0413430B60FFF723FD04001C4B1B685B
:101170009B0106D4FFF71CFD001B0228F6D90320B3
:101180001CE000201AE0002018E0012B20D0144BB6
:10119000DA6880235B021340E16A8B421AD1F023A4
:1011A0009B031340216B8B4216D1C0231B041A40B2
:1011B000636B9A4212D1002000E0012003B0F0BD21
:1011C0000120FBE70120F9E70120F7E70020F5E720
:1011D0000120F3E70120F1E70120EFE70120EDE72F
:1011E0000010024088130000FFFEFFFFFFFBFFFF1F
:1011F00000000140FFFFFFEFFFDFFFFFFFFFFFFEEB
:10120000FFFF02FF70B504000D00002800D1B7E019
:101210005F4B1A68012313408B420AD25C490B686A
:10122000012293432B430B600B681A40AA4200D063
:10123000A8E023689B0706D5564AD368F0218B4364
:10124000A1680B43D3602368DB0764D56368022B76
:1012500009D0032B29D0012B2DD04E4A12689205BC
:1012600006D401208BE04B4A1268920300D48BE035
:101270004849CA68032082431343CB60FFF798FCB8
:1012800006006368022B1CD0032B28D0012B34D01E
:10129000404BDB680C221A423DD0FFF789FC801BD3
:1012A0003D4B9842F4D9032069E03A4A1268920112
:1012B000DED4012063E0374A12685207D8D40120F7
:1012C0005DE0344BDA680C231340082B23D0FFF782
:1012D0006FFC801B304A9042F3D903204FE02D4B26
:1012E000DA680C2313400C2B15D0FFF761FC801B30
:1012F000294B9842F3D9032041E0264BDA680C23AE
:101300001340042B07D0FFF753FC801B224B98425D
:10131000F3D9032033E01E4B1A6801231340AB427C
:1013200009D91B490B68012293432B430B600B68BF
:101330001A40AA422AD123685B0706D5154AD3680A
:1013400016490B40E1680B43D36023681B0707D5A0
:101350001049CB68124A13402269D2001343CB6074
:10136000FFF73AFC0B4BDA6812090F2313400D4AC2
:10137000D35CD8400C4B18600020FFF7E5FB70BD34
:101380000120FCE70120FAE70120F8E70120F6E759
:10139000002002400010024088130000FFF8FFFF09
:1013A000FFC7FFFF6C3D00080000002070B504007F
:1013B00003689B064ED5664B9B6BDB0000D587E030
:1013C000634A916B80235B050B4393630125614B5B
:1013D0001B68DB057ED55E4B1968C0239B03194053
:1013E000626813408B4206D0C0239B021100194053
:1013F000994200D183E0564B196DC0239B0208002F
:101400001840194215D01A40824212D023689B0618
:101410000FD54F4B186D504A02401E6D80210903B5
:1014200031431965196D4D4E314019651A65C30573
:101430006CD46368C022920219001140914274D0AA
:1014400043490B6DC02292026068024013430B6552
:10145000012D74D02368DB0706D53D4AD36C0321E8
:101460008B43A1680B43D36423689B0706D5384A96
:10147000D36C0C218B43E1680B43D36423685B0777
:1014800006D5334AD36C36490B4021690B43D364EC
:1014900023681B0706D52E4AD36C32490B4061697D
:1014A0000B43D36423685B0606D5294AD36C2E49C7
:1014B0000B40E1690B43D36423681B0645D5244ADE
:1014C000D36C2A490B40A1690B43D36400203DE053
:1014D00000257CE71F4A116880235B000B431360E3
:1014E000FFF766FB06001B4B1B68DB0500D572E7A8
:1014F000FFF75EFB801B6428F5D9032026E0144B20
:101500001B689B0300D476E701201FE0FFF750FB28
:1015100006000F4B1B6D9B058BD4FFF749FB801B0F
:10152000134B9842F5D9032010E009490A68114885
:101530000240C0208003034013430B6080E70A0091
:101540008B6B0D490B40936384E7002070BDC04650
:101550000010024000700040FFFFFCFFFFFFF7FF9C
:10156000FFF3FFFFFFCFFFFFFFFFFFFBFFFFF3FFD7
:1015700088130000FFFFCFFFFFFFFFEFF0B5C64667
:1015800000B5002338E0052600E00026A640340020
:101590003C4302329200564E9451564A14684246D9
:1015A000D24326004546AE434D68ED0302D545467D
:1015B0002C4326004F4C26606468260016404D6878
:1015C000AD0302D545462C4326004A4C6660A4680C
:1015D000260016404D68ED0202D545462C432600F4
:1015E000444CA660E46822404D68AD0201D54246F5
:1015F0002243404CE26001330C682200DA4073D091
:1016000001229A4025001540A8461442F3D04C68A8
:10161000022C01D0122C0ED1DC080834A40027586B
:1016200007261E40B6000F25B540AF430D69B540F3
:101630002E003E4326504C68661E012E03D9112C05
:1016400001D0122C12D184685F000326BE40B4433F
:101650002600CC68BC4034438460446894434A68A4
:101660001609012232409A402243426004685E001B
:1016700003221700B740BC434D682A40B2402243C2
:101680000260C468BC438A68B2402243C2604A68B0
:10169000D200B0D5184C626B0126324362639A08BF
:1016A000941CA400124EA75903261E40B4000F2616
:1016B000A640B743A026F605B04200D165E70F4E1D
:1016C000B0420BD00E4EB0420AD00E4EB04209D0FE
:1016D0000D4EB04200D156E7062657E7012655E7E2
:1016E000022653E7032651E704BC9046F0BDC046EE
:1016F00000000140000401400010024000040050BE
:1017000000080050000C0050001C0050002A01D0BE
:10171000816170478162FCE74369594041617047CC
:1017200070B5002811DB8308134DC0339B005C5952
:1017300003221040C000FC3216008640B4438901E9
:101740000A40824022435A5170BD0F230340083B98
:101750009B0806339B00094A944663445D68032452
:101760002040C000FF2214008440A54389010A40A4
:1017700082402A435A60E7E700E100E000ED00E024
:101780001F2318401E3B8340014A13607047C04628
:1017900000E100E0013880235B0498420FD2094A3F
:1017A00050600948036A1B021B0AC02109060B434B
:1017B0000362002393600733136000207047012009
:1017C000FCE7C04610E000E000ED00E0104B1968B7
:1017D000802252000A431A60DA680E490A40DA6031
:1017E0001A680D490A401A609A6801218A439A6072
:1017F0001A680A490A401A60DA6809490A40DA6038
:1018000000221A61074B802212059A607047C04679
:10181000001002400C40FF88F6FFF6FEFFFFFBFFC2
:10182000FFFF02FF00ED00E010B500221149124851
:1018300001F050FB002811D110490F4801F066FB60
:1018400000280ED10E490C4802F0EAF900280BD10D
:10185000094801F064FB002809D110BDFEF7BEFD68
:10186000EAE7FEF7BBFDEDE7FEF7B8FDF0E7FEF7B0
:10187000B5FDF2E70400002004040020640000200D
:1018800054000020022804D005D8002800D00220EF
:1018900070470120FCE70220FAE710B5FEF722FDB1
:1018A00010BD000010B50268094B9A4200D010BD6F
:1018B000084A916B80231B040B4393630022002191
:1018C0001F20FFF72DFF1F20FFF75AFFEFE7C0464D
:1018D000005C00400010024010B501009C239B00FA
:1018E000C058403B9C46614401F036FB10BD10B52A
:1018F00003009C22920080584A019B183D33FF331D
:101900001A6801F05BFB10BD10B503009C22920029
:1019100080584A019B18DA6B01F0A2FB10BD10B58C
:101920009C239B00C05801F057FC10BD70B504000B
:101930008368022B09D19C25AD000121605901F07B
:1019400033FC605901F001FC70BDFEF747FDF2E782
:1019500010B504009C239B00C05801F029FCA3692A
:10196000002B04D0024A136906210B43136110BDFA
:1019700000ED00E010B504008369002B05D19C2325
:101980009B00E05801F020FC10BD044A13690621B9
:101990008B431361FFF781FFF1E7C04600ED00E0E4
:1019A00070B504001D489C239B00C4502833E050B0
:1019B0001B4B036008234360063B836003610023E5
:1019C0008361C361036200F059F9002823D1A62581
:1019D000AD00182300220021605900F0D3FD5823E8
:1019E00000228021605900F0CDFDC023002281211A
:1019F000605900F0C7FD88235B0000220121605977
:101A000000F0C0FD605980235B000022822100F0BD
:101A1000B9FD002070BDFEF7E1FCD8E7A00600206C
:101A2000005C004010B5A6239B00C05800F09EF952
:101A3000FFF728FF10BD10B514001A00A6239B0065
:101A4000C058230000F0BFF9FFF71CFF10BD10B510
:101A5000A6239B00C05800F0F3F9FFF713FF10BD59
:101A600010B5A6239B00C05800F012FDFFF70AFF37
:101A700010BD10B5A6239B00C05800F048FDFFF72D
:101A800001FF10BDA6239B00C3584AB2002A07DB02
:101A90007F22114049015B182B33FF3318787047C0
:101AA0007F22114049015B182A331878F7E710B5F7
:101AB000A6239B00C05800F070F9FFF7E3FE10BDAD
:101AC00010B5A624A400005900F019FAFFF7DAFEB9
:101AD00010BD10B5A624A400005900F0E3F9FFF7EB
:101AE000D1FE10BD10B5A6239B00C05800F000FA2F
:101AF00010BD0000004870479001002070470000B2
:101B000012230B80004870472000002004230B8024
:101B1000004870473400002030B500230AE05D0023
:101B200037344C5500015C0001340C190025257038
:101B30000133DBB2934206D2040F092CEFD85D00CB
:101B400030344C55EEE730BD70B50B4B18680B4B7D
:101B50001D680B4B1B68C018002800D170BD094CD4
:101B6000A11C0822FFF7D8FF21001231042228000F
:101B7000FFF7D2FFF2E7C0465000F81F5400F81FED
:101B80005800F81F3800002010B51A230B80FFF70B
:101B9000DBFF014810BDC0463800002010B50A0028
:101BA000002805D10549064801F05FFE034810BD35
:101BB0000249034801F059FEF8E7C0461409002025
:101BC000883D000810B50A00034C2100034801F0CD
:101BD0004CFE200010BDC04614090020A03D0008A6
:101BE00010B50A00002805D10549064801F03DFE60
:101BF000034810BD0249034801F037FEF8E7C0462C
:101C000014090020B43D000810B50A00002805D1D1
:101C10000549064801F029FE034810BD0249034862
:101C200001F023FEF8E7C04614090020C03D00087B
:101C3000002070470020704710B50100044C2000C0
:101C400002F002F8200002F006F8002010BDC046A5
:101C50000404002010B5064C00220649200001F0C3
:101C6000E8FF0549200001F0EFFF002010BDC0464D
:101C700004040020FC0E0020140B002030B587B0B7
:101C8000041E00D16EE0384BC35C002B1ED0364BD7
:101C90000322E254206800F0BDFC00236068834208
:101CA0001BD25A01A21811002931012008700139F4
:101CB0000B70D38610002B30002101709163D1632B
:101CC0009A1C520111510133DBB2E7E78A239B00D2
:101CD0000022C254FFF7E6FDD9E7002215E05301C8
:101CE000E3181D002A35FF3500212970013D2A70B7
:101CF000033529700D3529603D33FF33196013001A
:101D00000A335B0119510132D2B29042E7D8230065
:101D100010336A4623CB23C203CB03C26168A26897
:101D2000E368206800F080FC051E0ED12423002209
:101D3000E2540D4B0132E254E369012B0AD0236ACD
:101D4000012B0BD0280007B030BD074B0222E25414
:101D50000125F7E7200000F03EFCF0E7200000F04E
:101D60002AFCEFE70125EDE72902000070B5040029
:101D70008A239B00C35C012B0DD08A25AD00012373
:101D80004355006800F010FF206800F039FC002384
:101D90006355002070BD0220FCE770B504008A2363
:101DA0009B00C35C012B0CD08A25AD000123435559
:101DB0002333C154006800F0EFFE00236355002078
:101DC00070BD0220FCE770B504000D0049B2002987
:101DD00026DB07202840400101002931FF3161182E
:101DE00020182A30FF3000260670072005400D70AD
:101DF0000A61CB704A78002A00D0CD81022B1AD01C
:101E00008A239B00E35C012B18D08A25AD000123B7
:101E10006355206800F01EFC00236355002070BD50
:101E2000072028404001010028316118201829307E
:101E300001260670D9E700230B71E1E70220EEE7E7
:101E400070B504000A004BB2002B1EDB07230B40C9
:101E50005B0119002931FF314118C3182A33FF33C0
:101E60000020187007231A400A708A239B00E35C45
:101E7000012B15D08A25AD0001236355206800F0A1
:101E800067FD00236355002070BD07230B405B01F5
:101E9000190028314118C318293301201870E1E7CF
:101EA0000220F1E770B507250D406C0121002931B2
:101EB000FF314118041926003D36FF3632602A00F2
:101EC0000A325201835082180023536022002A32C2
:101ED000FF3213702934FF342570002D04D10068BF
:101EE00000F086FE002070BD006800F081FEF9E77A
:101EF00007230B400A335B01C3185868704770B55D
:101F000007250D406C012100283141180419E263B6
:101F1000AA1C5201835082180023536023002933E6
:101F200001221A7028342570002D04D1006800F0B9
:101F30005FFE002070BD006800F05AFEF9E7000067
:101F4000F0B5C64600B50400A7E00388D54A1A409C
:101F5000D54B13439BB2038021685023CB5A2822D0
:101F6000A25CD2009B185B18D04A944663441B883D
:101F70009B059B0D6364E26B94466344E36300211D
:101F80002000FFF7C1FC2423E35C002B00D184E098
:101F9000236C002B00D080E02422A35C80214942E6
:101FA0000B43DBB2CC31206843520023A35474E0CE
:101FB0005023C35A94225200A25CD2009B181B18D3
:101FC000BB4A944663441B889B059B0D2200293223
:101FD000FF32D3618C2189006118D28800F064FF40
:101FE00022681388B3490B4080210B4313802000E3
:101FF000FFF772FC51E01500D288696900F054FFC8
:102000006B69EA69944663446B617CE03D2A06D8BB
:102010005108D20700D50131890219808BE052099D
:10202000920292B2A0490A431A8084E0AE0080195D
:1020300003889FB21BB2002B00DA88E03B062CD548
:1020400023689C4666443388964A1A40964B13434D
:102050009BB2338020685023C35A690161180A007B
:1020600028321278D2009B181B18904A9446634479
:102070001A889205920DAB1C5B01E0184260C86B98
:1020800084466244CA631B59002B00D01EE10D0038
:10209000283529782000FFF737FC20684423C35AED
:1020A0001BB2002B00DB19E14423C35A99B20F2263
:1020B0001D0015401342B9D1CB0600D445E7028874
:1020C00093B2120500D573E71BB2002BE5DA038843
:1020D000784A134080221343038020685023C35A58
:1020E00094225200A25CD2009B181B18704A94469E
:1020F00063441B889B059B0D22002932FF32D3616C
:10210000002B00D077E700212000FFF7F0FB2368C9
:1021100050229A5A9B18664A9446634422002932F8
:10212000FF321269002A00D070E71A886249114014
:102130005D4A0A431A8021680A88604B1A40C0230E
:102140009B015A405E4B13439BB20B80A5E703886B
:10215000584A13408022134303806B01E318353340
:10216000FF331B78002B20D120685033C35A6A01FB
:10217000A2182932FF321278D2009B181B184C4A41
:10218000944663441B889B059A0D9046002B35D0DE
:102190006B01E3181A002F32FF3212883D33FF33F0
:1021A0001968434600F080FE28E020686B01E318C0
:1021B0002933FF331B789A008218128852044CD5B9
:1021C0005022825ADB00D3181B18384A94466344C5
:1021D0001B889B059A0D9046002B31D16B01E318AB
:1021E0002933FF331A78920023689C46624413888F
:1021F00034491940344B0B439BB2138040462B00AB
:102200000A335B01E1184A6842444A606901611877
:102210003D31FF310A6842440A601B59002B06D049
:10222000690161183931FF310968884230D26B0188
:10223000E3182933FF3319782000FFF758FBFDE638
:102240006B01E3181A003132FF3212883D33FF333D
:102250001968434600F028FEC0E75022825ADB008E
:10226000D3181B18124A944663441B889B059A0D89
:102270009046002BB2D06B01E3181A003332FF32C4
:1022800012883D33FF331968434600F00DFEA5E781
:10229000690161182931FF3109782000FFF702FE3A
:1022A000CCE6C0460F8FFFFF0080FFFF0204000056
:1022B000060400008F0F0000FF83FFFF8FBFFFFFAA
:1022C0008080FFFF8F8FFFFFC080FFFF6D016519CA
:1022D000283529782000FFF712FEDEE6002004BC36
:1022E0009046F0BD70B50400006800F067FC030480
:1022F00000D57BE0206800F061FC430500D579E063
:10230000206800F05BFC430405D5216844228B5A09
:10231000584803408B52206800F050FC830405D5D8
:10232000216844228B5A544803408B52206800F0A5
:1023300045FCC30418D521684023CA5A04208243AF
:10234000CA522168CA5A04308243CA5298239B0059
:10235000E35C012B5CD02000FFF70CFB21684422DA
:102360008B5A464803408B52206800F027FC030537
:1023700057D4206800F022FC030626D521684422A9
:102380008B5A802083438B5298239B00E35C002B65
:1023900062D121684033CA5A04200243CA522168DC
:1023A000CA5A08200243CA5298239B000122E254D1
:1023B00054232268D25A9208183B13409922920063
:1023C000A3500121200000F019F9206800F0F6FB6D
:1023D000830545D4206800F0F1FBC30505D52168CD
:1023E00044228B5A264803408B5270BD2000FFF7D1
:1023F000A7FD7FE7216844228B5A224803408B5275
:102400002000FFF793FA00212000FFF7C6FC77E7D2
:1024100098239B000022E2540021200000F0EEF8F7
:1024200099E721684023CA5A08200243CA5220680B
:102430004421425A144D2A4042522168CA5A04206B
:102440000243CA52206800F0B9FBC30400D590E7EC
:102450002000FFF77DFA8CE72000FFF779FAB4E758
:10246000216844228B5A094803408B522000FFF711
:1024700056FAAFE7FFBFFFFFFFDFFFFFFFEFFFFFF2
:10248000FFFEFFFFFFFBFFFFFFF7FFFFFFFDFFFF6B
:1024900070B5040007250D4043689D4233D84BB208
:1024A000002B20DB4B0119002931FF314118C318E3
:1024B0002A33FF3300221A7001238B700D708A2398
:1024C0009B00E35C012B20D08A239B000122E25475
:1024D000206800F0F5FA002D0ED08A239B00002220
:1024E000E254002070BD6B01190028314118C31857
:1024F000293301221A70DFE78C239B00E118206842
:1025000000F060FBE9E70120ECE70220EAE770B5A4
:1025100004000B000F220A4041688A422ED85AB2AA
:10252000002A20DB07221A40520111002931FF3115
:10253000411882182A32FF320020107000228A705F
:10254000073213400B708A239B00E35C012B17D0EA
:102550008A25AD0001236355206800F0D7FA0023D7
:102560006355002070BD07221A4052011100283126
:1025700041188218293201201070DFE70120F1E7AD
:102580000220EFE710B50C060AD5072421404901C7
:1025900028314118002A08D10A73CB80002010BDD1
:1025A00049012931FF314118F4E701220A730B81F7
:1025B0001B0C4B81F2E702689B239B000121C15059
:1025C0005823D15A01200143D152D15A022001434C
:1025D000D1520020704702689A239B000121C1500C
:1025E000083B0021C1545423D15A01200143D15248
:1025F000D15A02200143D152002070477047000099
:102600004022835A02490B439BB2835200207047F9
:1026100080BFFFFF4022835A02490B4083520020B3
:102620007047C0467F40000084B010B5039104920B
:1026300005934022012383520023835204328352A4
:102640000C328352FFF7DCFF002010BC08BC04B042
:1026500018470000F0B503000D78AD0045192A8831
:10266000AF480240C878022859D00AD8002852D072
:10267000012804D18020C0000243002009E001208D
:1026800007E0032804D1C020C0000243002000E07E
:102690000120A44C224392B22A800A7896009E1907
:1026A00035882DB2A04F3D402A4392B21443A4B2C4
:1026B00034800A7B002A00D087E04A78002A3BD089
:1026C00050229C5A1C190A78D20012198024E40066
:1026D000A4466244CC886408640014800A7892009E
:1026E0009A181488640606D514883D0025408F4C3E
:1026F0002C43A4B21480CA78012A12D00A7892001E
:102700009B181A888A490A4020215140854A0A4369
:1027100092B21A8048E08024A4002243B9E7002046
:10272000B7E70A7892009B181A88814911407D4AC0
:102730000A4392B21A8037E050255C5B1C190A7874
:10274000D20012197B4CA4466244CC886408640011
:1027500014805C5B1C190A78D2001219764CA446CE
:1027600062440C69002C20D11488744D2540744CAF
:102770002C4314800A7892009A181488640406D5B1
:102780001488694D25406F4C2C43A4B214800A78FC
:1027900092009B1819886C4A1140C0229201514046
:1027A000604A0A4392B21A80F0BD3D2C06D86508F3
:1027B000E40700D50135AD021580DBE76409A4020A
:1027C000A4B25F4D2C431480D4E70A7892009A1883
:1027D0001488554D25405D4C2C43A4B214805025DF
:1027E0005C5B1C190A78D20012198024E400A4460C
:1027F00062440C896408640014805C5B1C190A78CC
:10280000D20012194B4CA44662444C8964086400FF
:1028100014804A78002A3AD10A7892009A181488CB
:10282000640406D51488404D2540464C2C43A4B280
:1028300014800A7892009A181488640606D51488C1
:10284000394D2540394C2C43A4B214800A789200AB
:102850009A181488344D2540344C2C43A4B214806B
:102860000C78A4001C192288374D1540C022920113
:102870006A402C4D2A4392B222800A7892009B181B
:102880001A882B490A402A4392B21A808CE70A78A8
:1028900092009A181488640406D51488224D2540A5
:1028A000284C2C43A4B214800A7892009A181488F9
:1028B000640606D514881C4D25401C4C2C43A4B23C
:1028C00014800A7892009A181488174D25401D4CE0
:1028D0002C43A4B21480CA78012A16D00A78920038
:1028E0009A181488124D2C40202565400D4C2C431D
:1028F000A4B214800A7892009B181A8812491140D9
:10290000084A0A4392B21A804EE70A7892009A184F
:102910001488074D2540034C2C43A4B21480E9E7EA
:102920008F89FFFF8080FFFF8F8FFFFFC080FFFF39
:10293000BF8FFFFF0404000006040000FF83FFFFB9
:102940000080FFFF80C0FFFF8FBFFFFF8081FFFF80
:1029500010B50B7B002B33D14B78002B18D00B78A4
:102960009B00C3181A88520606D51A884E4C14408C
:102970004E4A224392B21A800B789B00C0180388FB
:102980004B4A1A404B4B13439BB20380002010BDAF
:102990000B789B00C3181A88520406D51A88424C3B
:1029A0001440454A224392B21A800B789B00C0180B
:1029B0000388424A1A403F4B13439BB20380E5E72A
:1029C0004B78002B37D10B789B00C3181A88520420
:1029D00006D51A88344C1440374A224392B21A80E2
:1029E0000B789B00C3181A88520606D51A882E4CFD
:1029F00014402E4A224392B21A800B789B00C318CF
:102A00001A88294C1440294A224392B21A800C7821
:102A1000A40004192388294A1340264A13439BB271
:102A200023800B789B00C018038821490B401A4370
:102A300092B20280AAE70B789B00C3181A8852044E
:102A400006D51A88184C14401B4A224392B21A80A9
:102A50000B789B00C3181A88520606D51A88124CA8
:102A60001440124A224392B21A800B789B00C3187A
:102A70001A880D4C1440104A224392B21A800C78E6
:102A8000A400041923880A4A13400A4A13439BB23C
:102A900023800B789B00C018038808490B401A4319
:102AA00092B2028072E7C0468F8FFFFFC080FFFFA7
:102AB000BF8FFFFF8080FFFF80C0FFFF8FBFFFFF42
:102AC0004B78002B0DD00B789B00C01803880C4A64
:102AD000134010225A400B4B13439BB2038000203B
:102AE00070470B789B00C0180288074B1A40802360
:102AF0005B015A40034B13439BB20380EFE7C04690
:102B0000BF8FFFFF8080FFFF8FBFFFFF10B54B78A7
:102B1000002B1AD00B789B00C3181A88520606D5D2
:102B20001A88174C1440174A224392B21A800B7825
:102B30009B00C0180388144A134030225A40134B9C
:102B400013439BB20380002010BD0B789B00C31879
:102B50001A88520406D51A88094C14400C4A22439C
:102B600092B21A800B789B00C0180288094B1A4059
:102B7000C0239B015A40054B13439BB20380E2E7FD
:102B80008F8FFFFFC080FFFFBF8FFFFF8080FFFFA1
:102B900080C0FFFF8FBFFFFF002902D14C2380229E
:102BA000C2520020704700005822835A02490B434A
:102BB0009BB28352002070470080FFFF4423C05A1D
:102BC00080B270470020704710B501335B081018C1
:102BD0008022D20094466044002B08D00C784A78BA
:102BE00012022243028002300231013BF4E710BDA1
:102BF00070B505000C00497801292BD0A269236922
:102C00009A4200D8D2E0D21AA261227B002A00D0D8
:102C1000E0E05032A95A69182278D2005218984937
:102C20008C466244002B00D0C4E0138895491940BB
:102C3000954B0B431380207880002D182A88934BE6
:102C40001A40C0239B015A40914B13439BB22B80E7
:102C5000002070BDA26923699A421DD9D21AA261CF
:102C6000227B002A1CD02278900028180088400679
:102C700061D5002936D15031695A6918D2005218ED
:102C80007F498C466244002B1CD111887D48084046
:102C90007D49014311802EE00023A3611300DFE78B
:102CA0009EB2E288330061692800FFF78DFF502350
:102CB000EA5AAA182378DB009B18764A94466344A4
:102CC0001E802BE03D2B06D85908D80700D50131CE
:102CD000890211800FE05909890289B26A480143CB
:102CE000118008E05021695A6918D20052186449CD
:102CF0008C466244138062899BB261692800FFF7A9
:102D000063FF6378002B44D123789B00EB181A886B
:102D100061491140614A0A4392B21A8020788000CA
:102D20002D182B885E4A134030225A40584B1343CB
:102D30009BB22B808CE7002920D15031695A691849
:102D4000D200521853498C466244002B06D1118898
:102D50004C4808404C490143118018E03D2B06D8EF
:102D60005908D80700D50131890211800FE05909AF
:102D7000890289B244480143118008E05021695A10
:102D80006918D200521843498C4662441380228944
:102D9000B2E7012BC2D123789B00EB181A883E4979
:102DA0001140404A0A4392B21A80B7E70023A36158
:102DB00013002AE73D2B06D85908DB0700D501315F
:102DC0008902118037E75B099B029BB22E490B43B6
:102DD000138030E7002910D15022A95A69182278AF
:102DE000D20052182B498C466244002B1AD111880C
:102DF000244808402449014311806278002A31D1D7
:102E00005032A95A69182278D20052181C498C46AF
:102E10006244002B16D113881A4919401A4B0B43F0
:102E2000138008E73D2B06D85908D80700D5013193
:102E300089021180E1E75909890289B212480143E8
:102E40001180DAE73D2B06D85908DB0700D50131A0
:102E500089021180EFE65B099B029BB20A490B4392
:102E60001380E8E6012A00D0E5E64F32A95A691836
:102E70002278D200521802498C4662441380DAE666
:102E800006040000FF83FFFF0080FFFF8FBFFFFFEE
:102E90008080FFFF020400008F8FFFFFC080FFFFD4
:102EA000BF8FFFFF80C0FFFF10B55C0810188022A5
:102EB000D20094466044002C07D0028802300A7089
:102EC000120A4A700231013CF5E7DB0701D50378AD
:102ED0000B7010BD10B5002816D0A3239B00C3585B
:102EE000002B03D0A3239B000024C450002902D050
:102EF000A2239B00C1509D239B000121C15402705D
:102F0000FEF74EFD002010BD0220FCE7002904D092
:102F1000A3239B00C150002070470220FCE710B59E
:102F2000FEF780FD002010BD10B5A3239B00C35801
:102F3000002B06D01B689847002800D110BD022046
:102F4000FCE70220FAE710B5A3239B00C3585B6897
:102F50009847002010BD000070B50400A0239B001E
:102F6000C518280000F05EF99B239B000122E25067
:102F7000114BE25A163BE2501033E15C1F230B4029
:102F8000012B0FD0022B12D0002B05D07F239943A9
:102F90002000FEF765FD03E02900200000F0F6FAAE
:102FA000002070BD2900200000F026FBF8E7290072
:102FB000200000F054FBF3E78602000070B5050026
:102FC0000C001100002C38D19B239B00C358032B0D
:102FD00003D0052B28D020003DE002004132FF3213
:102FE000D368126993420DD99B1A4130FF30C360F8
:102FF0009A4205D99AB2280000F07BFC20002AE012
:1030000092B2F8E7A3239B00C3581B69002B04D09E
:103010009D229200825C032A04D0280000F071FCFB
:10302000200018E09847F8E79B239B000022C2503D
:103030000021FEF715FD20000DE0A3239B00C358DF
:103040009B69002B08D09D229200825C032A05D147
:1030500021009847002070BD0220FCE70220FAE71B
:10306000F8B505000C001100002C5BD19B239B00E0
:10307000C358022B0ED0042B01D0002B03D180218A
:103080002800FEF7EDFC9E239B00EB5C012B43D058
:103090002000F8BD026A466AB24220D8C7693100F2
:1030A0003800FDF749F8002906D1BE4204D89C2318
:1030B0009B00EB589F421ED3A3239B00EB58DB6879
:1030C000002B04D09D229200AA5C032A21D08021EB
:1030D0002800FEF7C5FC280000F01FFCD3E7921B78
:1030E000026292B200F0ECFB0023002200212800D3
:1030F000FEF7EFFCC7E70022280000F0E1FB9C236D
:103100009B000022EA50002300212800FEF7E1FC8A
:10311000B9E728009847DAE79E239B000022EA548B
:103120002000B6E7A3239B00C3585B69002B08D09F
:103130009D229200825C032A05D12100984700203D
:10314000A7E70220A5E70220A3E770B5040040230B
:1031500000220021FEF76FFC0125A2235B00E55051
:1031600040260C33E650113BFF3B0022802120001B
:10317000FEF761FCA56166629D239B00E554002378
:103180009B229200A35063601032A350A4239B00A3
:10319000E358002B06D0A3239B00E3585B68002173
:1031A00020009847002070BD017400207047000087
:1031B0009D239B00C15C034A81540422C254002019
:1031C0007047C04675020000024BC25C013BC2540E
:1031D000002070477502000010B59D239B00C35C62
:1031E000032B01D0002010BDA3239B00C358DB6933
:1031F000002BF7D09847F5E7030000201A78002A43
:1032000003D00130C0B20133F8E7704710B54B88E6
:10321000012B00D010BD9F239B000122C25000F063
:1032200070FBF7E70B7803704B7843708B78CA78A4
:1032300012029B1843800B794A7912029B188380F3
:103240008B79CA7912029B18C380704710B50400AD
:103250008021FEF705FC00212000FEF701FC10BDD7
:1032600030B583B005000C004A88130A072B00D93B
:1032700092E09B005349CB589F46A2239B00C35822
:103280001B68007C6A46911D98476B4606331B8875
:10329000002B03D0E288002A00D082E0E388002BD4
:1032A00000D18AE003B030BD037C002B09D1A323F9
:1032B0009B00C3589B6A6A46901D9847022343703F
:1032C000E3E7A3239B00C358DB6A6A46901D984737
:1032D00002234370D9E7D2B2052A39D892003A4B7B
:1032E0009B589F46A2239B00C3585B68007C6A469C
:1032F000911D9847C9E7A2239B00C3589B68007C97
:103300006A46911D9847C0E7A2239B00C358DB681B
:10331000007C6A46911D9847B7E7A2239B00C358DB
:103320001B69007C6A46911D9847AEE7A2239B006B
:10333000C3585B69007C6A46911D9847A5E7A223A4
:103340009B00C3589B69007C6A46911D98479CE787
:103350002100FFF77BFFA5E7037C002B07D1A32308
:103360009B00C3585B6B6A46901D98478DE7210010
:10337000FFF76CFF96E7037C002B09D1A3239B008A
:10338000C3581B6B6A46901D9847072343707CE720
:103390002100FFF75BFF85E721002800FFF756FFBC
:1033A00080E7191C934200D9111C8AB26B46D98060
:1033B0000100280000F076FA70E7280000F0A1FA7A
:1033C00070E7C046D03D0008F03D000870B504002D
:1033D0008B88002B23D1CB88002B20D14B887F2BCF
:1033E0001DD87F251D409D239B00C35C032B0ED061
:1033F0000D4BC5542900FEF75AFB200000F081FA5E
:10340000002D07D09D239B000222E2540AE0FFF723
:103410001DFF07E09D239B000122E25402E02000F3
:10342000FFF714FF70BDC0467602000070B50400BF
:103430000D0089782A4B197001290FD89D239B0014
:10344000C35C022B0ED0032B23D02900FFF7FEFE16
:10345000234B19782000FFF776FD02E02900FFF7E3
:10346000F5FE70BD002911D041609D239B00032211
:10347000C254FFF759FD022803D0200000F041FAA2
:10348000EFE729002000FFF7E1FEEAE700F039FA54
:10349000E7E7002911D0436899421ED0D9B2FFF75F
:1034A00052FD0F4B197861602000FFF73DFD0228A7
:1034B0000ED0200000F025FAD3E79D239B000222C6
:1034C000C2544160FFF73FFD200000F01AFAC8E740
:1034D00029002000FFF7BAFEC3E700F012FAC0E7A8
:1034E000B003002010B5CB88012B0BD19D239B008E
:1034F000C35C022B09D9032B09D1011D012200F065
:10350000D1F901E0FFF7A2FE10BD002B02D1FFF7B9
:103510009DFEF9E70023836001000831012200F0DD
:10352000C1F9F1E710B59D239B00C35C013B022B61
:1035300014D8CB88022B0ED10123C3609F239B009C
:10354000C358002B01D00323C36001000C310222B9
:1035500000F0A8F910BDFFF779FEFBE7FFF776FE54
:10356000F8E710B59D239B00C35C013B022B0AD8F2
:103570004B88012B00D010BD9F239B000022C2501E
:1035800000F0BFF9F7E7FFF761FEF4E710B50A783E
:1035900060231340202B06D0402B04D0002B09D0F1
:1035A000FFF754FE04E0A3239B00C3589B68984791
:1035B000002010BD4B78092B18D89B000D4AD3581A
:1035C0009F46FFF74DFEF3E7FFF700FFF0E7FFF739
:1035D0002DFFEDE7FFF786FFEAE7FFF7A3FFE7E739
:1035E000FFF714FEE4E7FFF7BCFFE1E7FFF72EFE6D
:1035F000DEE7C046083E000870B505000C000A78FA
:1036000060231340202B07D0402B05D0002B03D084
:10361000FFF71CFE002070BD9D239B00EB5C013B6F
:10362000022B17D82379012B0FD8A3239B00EB582B
:103630009B68210028009847E388002BEAD10028E6
:10364000E8D1280000F05DF9E4E721002800FFF749
:10365000FDFDDFE721002800FFF7F8FDDAE770B590
:10366000050088880A790B7860241C40202C08D03B
:10367000402C06D0002C0DD02800FFF7E7FD0024D9
:1036800006E0A3239B00EB589B6828009847002482
:10369000200070BD202C0AD04E78012E3ED0032E83
:1036A0000DD0002E64D02800FFF7D0FDF0E7A32353
:1036B0009B00EB589B68280098470400E8E79D238F
:1036C0009B00EB5C022B05D0032B14D02800FFF7E6
:1036D000BDFDDDE7002A01D0802A03D12800FFF7D5
:1036E000B5FDD5E711002800FEF7BAF980212800C2
:1036F000FEF7B6F9CCE74B88002B06D1002A04D0A0
:10370000802A02D0CB88002B03D0280000F0F9F8E3
:10371000BEE711002800FEF7A3F9F6E79D239B0002
:10372000EB5C022B05D0032B14D02800FFF78EFD95
:10373000AEE7002A01D0802A03D12800FFF786FDDA
:10374000A6E711002800FEF78BF980212800FEF77C
:1037500087F99DE74B88002B9AD1530603D12800A7
:1037600000F0CFF894E711002800FEF782F9F6E7A1
:103770009D239B00EB5C022B06D0032B28D0280056
:10378000FFF764FD340083E7002A01D0802A11D1BD
:10379000030614D47F210A40910089188900413121
:1037A000FF31691800230B600222280000F07AF82C
:1037B00034006DE72800FFF749FD340068E77F21FA
:1037C0000A40910089188900103169180431E9E72D
:1037D00044B2030621D40F20104083001B189B0025
:1037E000EB184533FF331B68002B24D0002C27DB5C
:1037F0007F2313409C00E418A4004134FF342C19AB
:10380000002A01D0802A24D1002323600222210033
:10381000280000F047F834003AE70F2010408300FA
:103820001B189B00EB189B69002BDFD12800FFF7CA
:103830000DFD34002CE72800FFF708FD340027E7D2
:103840007F2313409C00E418A40010342C19043486
:10385000D6E711002800FEF715F9002802D0012351
:103860002360D3E700232360D0E770B504000D0088
:103870001600002815D0FFF7BFFC01304000308053
:10388000287003236B70013B08E001345A1CD2B24C
:10389000E8540233DBB2AA18002111702078002806
:1038A000F3D170BD10B513009B2292000224845006
:1038B000C36103620A000021FEF702F9002010BD77
:1038C00010B513000A000021FEF7FAF8002010BD21
:1038D00010B513009B22920003248450253AFF3A2E
:1038E0008350043283500A000021FEF7F2F80020D2
:1038F00010BD10B513000A000021FEF7EAF8002001
:1039000010BD10B59B239B000422C250002300224F
:103910000021FEF7D5F8002010BD10B59B239B00B9
:103920000522C250002300220021FEF7D2F8002019
:1039300010BD000010B5A4239B00C4580433C35825
:10394000002B0DD080229200A05CFF2808D09B683D
:10395000044AA25C2100984780239B00FF22E25486
:10396000002010BD0102000043230380004870477F
:103970009C0000204323038000487047E0000020A3
:103980004323038000487047300100200A2303804E
:10399000004870472401002070B50400A425AD0044
:1039A0004659FEF79FF883239B00F0506359002B84
:1039B0000BD0A5239B00E358DB6883229200B1184B
:1039C000083AB0589847002070BD0220FCE770B557
:1039D00004000D00A4239B00C6580833C258002ED3
:1039E0001FD08B005B189B00C318D869002806D035
:1039F0004B01D218916BFCF79FFB002905D0852362
:103A00009B000022F250002070BDAB005B199B00B0
:103A1000E3180022DA61002329002000FEF750F8A5
:103A2000F1E70220F0E70000F0B583B005000C00DC
:103A3000A4239B00C75800236A46D37101AA1380B0
:103A40000B78602216001E401A422BD0202E5BD12C
:103A5000CA88002A1DD05BB2002B0DDAA5239B007B
:103A6000C3589B68487839009847E2883900280095
:103A7000FFF718FF00264AE04A7880239B00FA549B
:103A80008A79244BFA54CA883900FFF721FF0026AF
:103A90003DE0A5239B00C3589B68487800229847C7
:103AA000002634E04F780A2F16D00B2F23D0002F9A
:103AB00003D0FFF7CBFB022629E09D239B00C35CCC
:103AC000032B03D0FFF7C2FB022620E0022201A94C
:103AD000FFF7E8FE3E001AE09D239B00C35C032B2A
:103AE00003D0FFF7B3FB022611E001226B46D91D7C
:103AF000FFF7D8FE0BE09D239B00C35C032B06D091
:103B0000FFF7A4FB022602E0FFF7A0FB022630002D
:103B100003B0F0BD0102000070B504008121FDF783
:103B200096FF0025E56201212000FDF790FFAC2300
:103B30005B00E55082212000FDF789FF2564A42366
:103B40009B00E358002B0BD0A5239B00E3585B6838
:103B50009847A425AD006059FDF7D0FF00236351BD
:103B6000002070BD70B50400037C002B3AD1802684
:103B7000B600330002228121FDF75DFF0125E562D9
:103B80003300022201212000FDF755FFAC235B002A
:103B9000E5500823032282212000FDF74CFF01237A
:103BA000236487208000FDF7A5FF0500A4239B0068
:103BB000E050002832D00433E3581B6898470023B4
:103BC00085229200AB500432AB50267C002E1AD1D5
:103BD0008033143AAA589B0001212000FDF779FF99
:103BE000300070BD402302228121FDF724FF012512
:103BF000E5624023022201212000FDF71CFFAC23D7
:103C00005B00E550C5E781239B00EA58C53BFF3BBD
:103C100001212000FDF75DFF0026E1E70126DFE737
:103C2000002904D0A5239B00C1500020704702202A
:103C3000FCE7A4239B00C3588220800019508421F4
:103C400089005A5000207047A4239B00C2588C3B27
:103C5000D1500020704710B5A4239B00C258002A01
:103C600015D0037C002B09D1803381218900525863
:103C70009B000121FDF72DFF002010BD81239B003B
:103C8000D258C53BFF3B0121FDF723FFF4E702209B
:103C9000F3E700000D488546002103E00C4B5B581C
:103CA000435004310B480C4B42189A42F6D30B4A4E
:103CB00002E0002313600432094B9A42F9D3FDF766
:103CC00085FD00F011F8FCF74BFBFEE7002000201B
:103CD000383E00080000002074010020740100201C
:103CE000E4120020FEE7000070B500260C4D0D4CDC
:103CF000641BA410A64209D1002600F021F80A4D49
:103D00000A4C641BA410A64205D170BDB300EB5849
:103D100098470136EEE7B300EB5898470136F2E7D3
:103D2000303E0008303E0008303E0008343E0008B7
:103D300003001218934200D1704719700133F9E75C
:103D4000F8B5C046F8BC08BC9E467047F8B5C046FA
:083D5000F8BC08BC9E46704758
:103D580048656C6C6F20776F726C640A0000000015
:103D680068000000000000000000000001020304D9
:103D780006070809030406080C1018203000000084
:103D880053544D3332205669727475616C20436FF9
:103D98006D506F727400000053544D6963726F6503
:103DA8006C656374726F6E696373000043444320EB
:103DB800436F6E666967000043444320496E74652B
:103DC8007266616365000000983300087A32000863
:103DD800A8320008D6320008983300089833000843
:103DE8005833000876330008E4320008F632000839
:103DF800083300081A3300082C3300083E33000843
:103E0800DA350008E6350008EC350008E03500082A
:103E1800EC350008C8350008C2350008EC35000844
:083E2800D4350008CE35000876
:043E3000790100080C
:043E34005101000830
:103E380000002000011B00080D1B0008C51B00081E
:103E48009D1B0008891B0008E11B0008091C0008CD
:103E580012010002020200408304405700020102DE
:103E680003010000040309041A0300000000000015
:103E7800000000000000000000000000000000003A
:103E880000000000551C0008311C0008351C000803
:103E9800391C0008653B0008193B0008293A00084E
:103EA8000000000035390008CF39000899390008AA
:103EB8000000000000000000000000007539000844
:103EC80069390008813900088D3900080902430062
:103ED800020100C0320904000001020201000524A9
:103EE8000010010524010001042402020524060033
:103EF800010705820308001009040100020A0000F6
:103F0800000705010240000007058102400000008B
:103F180009024300020100C0320904000001020244
:103F280001000524001001052401000104240202F7
:103F38000524060001070582030800100904010092
:103F4800020A0000000705010200020007058102BD
:103F5800000200000A060002000000400100000004
:103F680009074300020104C03209040000010202EB
:103F780001000524001001052401000104240202A7
:103F88000524060001070582030800100904010042
:103F9800020A00000007050102400000070581022F
:043FA80040000000D5
:0400000508003C951E
:00000001FF
