:020000040800F2
:1000000000400020614D0008051600080716000892
:1000100000000000000000000000000000000000E0
:1000200000000000000000000000000009160008A9
:1000300000000000000000000B1600080D1600086C
:10004000B14D0008B14D0008B14D0008B14D000898
:10005000B14D0008B14D0008B14D0008151600085B
:10006000B14D0008B14D0008B14D0008B14D000878
:10007000B14D0008B14D0008B14D0008B14D000868
:10008000B14D0008B14D0008B14D0008B14D000858
:10009000B14D0008B14D0008B14D0008B14D000848
:1000A000B14D0008B14D0008B14D0008B14D000838
:1000B000B14D0008B14D0008B14D000821160008EF
:1000C000002934D00123002210B488422CD301240B
:1000D0002407A14204D2814202D209011B01F8E7A0
:1000E000E400A14204D2814202D249005B00F8E759
:1000F000884201D3401A1A434C08A04202D3001B85
:100100005C0822438C08A04202D3001B9C082243B7
:10011000CC08A04202D3001BDC082243002803D0F5
:100120001B0901D00909E3E7100010BC704701B5B5
:10013000002000F00BF802BD0029F8D003B5FFF74E
:10014000C1FF0EBC4243891A1847C0467047C046DB
:1001500010B5064C2378002B07D1054B002B02D09D
:10016000044800E000BF0123237010BD7801002087
:10017000000000000C4E0008044B10B5002B03D00B
:100180000349044800E000BF10BDC0460000000065
:100190007C0100200C4E0008F0B5CE46474680B5E5
:1001A00089B01422002103A804F028FE334B5A69B9
:1001B000802109030A435A615A690A400092009A51
:1001C0005A69802189020A435A615A690A40019298
:1001D000019A5A698021C9020A435A615B690B403E
:1001E0000293029BE0242402254B99460022210021
:1001F000180003F013FE9026F6050022FF213000C0
:1002000003F00CFE1F4B98461F4F002219003800C8
:1002100003F004FE0394012504950024059406943C
:1002200003A9484603F022FDFF2303930495059498
:10023000069403A9300003F019FD43460393049587
:100240000594069403A9380003F010FD80239B0059
:1002500003930E4B0493059503A9300003F006FDAC
:1002600000220021072003F0EDFD072003F01AFE15
:1002700009B0C0BCB946B046F0BDC046001002404F
:10028000000800483F1F0000000400480000211043
:1002900010B50D4C0D4B23600D4B63600023A36024
:1002A0000122E26023616361A361E36123622000B4
:1002B00003F020FC0021200003F082FC002120003C
:1002C00003F0AAFC10BDC046980100200054004075
:1002D0000E09002010B598B0342200210BA804F0BC
:1002E0008DFD1022002107A804F088FD1C220021AA
:1002F000684604F083FD22230B93213B0E93139356
:100300000F330F930BA802F05BFF07230793043B07
:100310000893002409940A94012107A803F03CFAE9
:10032000044B009304940694684603F0D7FA18B07F
:1003300010BDC04620000200014B01221A60704728
:100340009401002010B580210B4C012249012000AE
:1003500003F064FD802101220901200003F05EFD0D
:1003600080210122C900200003F058FD0122042150
:10037000200003F053FD10BD0004004810B580219B
:100380000B4C00224901200003F048FD802100228F
:100390000901200003F042FD80210022C900200055
:1003A00003F03CFD00220421200003F037FD10BDC6
:1003B0000004004870B580213C4C00224901200017
:1003C00003F02CFD802100220901200003F026FD0E
:1003D00080210022C900200003F020FD002204211A
:1003E000200003F01BFD00220221200003F016FD77
:1003F00000220121200003F011FD9025ED050022CF
:100400008021280003F00AFD00224021280003F08B
:1004100005FD00222021280003F000FD002210210C
:10042000280003F0FBFC00220821280003F0F6FC62
:1004300000220421280003F0F1FC00220221280000
:1004400003F0ECFC00220121280003F0E7FC8021EE
:10045000174D00220902280003F0E0FC8021002251
:10046000C901280003F0DAFC80210022890128005C
:1004700003F0D4FC802100228900200003F0CEFC90
:10048000802100224900200003F0C8FC0022202126
:10049000200003F0C3FC00221021200003F0BEFC6A
:1004A00000220821200003F0B9FC70BD00040048C0
:1004B0000008004870B504000D00012932D0022D5B
:1004C00061D0032D00D18FE0042D00D1BDE0052DBA
:1004D00000D1EBE0062D00D119E1072D00D147E155
:1004E000082D00D175E1092D00D1A3E1012C00D127
:1004F000D1E1022C00D109E2032C00D13CE2042C12
:1005000000D16FE2052C00D1A2E2062C00D1D5E289
:10051000072C00D108E3082C00D13BE3092C00D1C3
:100520006EE370BDF74E01220221300003F076FC2D
:1005300000220121300003F071FC9026F605002214
:100540008021300003F06AFC00224021300003F0DB
:1005500065FC00222021300003F060FC0022102105
:10056000300003F05BFC00220821300003F056FC51
:1005700000220421300003F051FC0022022130004F
:1005800003F04CFC9BE7DF4E00220221300003F019
:1005900045FC01220121300003F040FC9026F605C5
:1005A00000228021300003F039FC0022402130007D
:1005B00003F034FC00222021300003F02FFC002245
:1005C0001021300003F02AFC00220821300003F043
:1005D00025FC00220421300003F020FC002202212F
:1005E000300003F01BFC6CE7C64E002202213000F5
:1005F00003F014FC00220121300003F00FFC9026D0
:10060000F60501228021300003F008FC0022402181
:10061000300003F003FC00222021300003F0FEFB39
:1006200000221021300003F0F9FB002208213000E5
:1006300003F0F4FB00220421300003F0EFFB002262
:100640000221300003F0EAFB3EE7AE4E0022022119
:10065000300003F0E3FB00220121300003F0DEFB59
:100660009026F60500228021300003F0D7FB0122FE
:100670004021300003F0D2FB00222021300003F0A3
:10068000CDFB00221021300003F0C8FB002208211E
:10069000300003F0C3FB00220421300003F0BEFB56
:1006A00000220221300003F0B9FB10E7954E002232
:1006B0000221300003F0B2FB00220121300003F0E0
:1006C000ADFB9026F60500228021300003F0A6FB4A
:1006D00000224021300003F0A1FB01222021300044
:1006E00003F09CFB00221021300003F097FB002256
:1006F0000821300003F092FB00220421300003F0B7
:100700008DFB00220221300003F088FBE2E67D4EE3
:1007100000220221300003F081FB00220121300081
:1007200003F07CFB9026F60500228021300003F0C8
:1007300075FB00224021300003F070FB00222021D5
:10074000300003F06BFB01221021300003F066FB48
:1007500000220821300003F061FB00220421300058
:1007600003F05CFB00220221300003F057FBB4E6EB
:10077000644E00220221300003F050FB00220121D0
:10078000300003F04BFB9026F6050022802130005C
:1007900003F044FB00224021300003F03FFB002225
:1007A0002021300003F03AFB00221021300003F03A
:1007B00035FB01220821300003F030FB0022042128
:1007C000300003F02BFB00220221300003F026FB57
:1007D00086E64C4E00220221300003F01FFB00226F
:1007E0000121300003F01AFB9026F605002280213B
:1007F000300003F013FB00224021300003F00EFB19
:1008000000222021300003F009FB002210213000DB
:1008100003F004FB00220821300003F0FFFA01225C
:100820000421300003F0FAFA00220221300003F024
:10083000F5FA58E6334D00220221280003F0EEFAC3
:1008400000220121280003F0E9FA9025ED0500229D
:100850008021280003F0E2FA00224021280003F062
:10086000DDFA00222021280003F0D8FA002210210E
:10087000280003F0D3FA00220821280003F0CEFA62
:1008800000220421280003F0C9FA012202212800D5
:1008900003F0C4FA2AE6902000220121C00503F0EB
:1008A000BDFA8021184D01220902280003F0B6FA92
:1008B00080210122C901280003F0B0FA8021012221
:1008C0008901280003F0AAFA80210E4D0122890037
:1008D000280003F0A3FA802101224900280003F038
:1008E0009DFA01222021280003F098FA012210210C
:1008F000280003F093FA01220821280003F08EFA61
:10090000F7E5C04600040048000800489020012296
:100910000121C00503F082FA8021D44D0022090292
:10092000280003F07BFA80210122C901280003F08E
:1009300075FA802101228901280003F06FFA8021D5
:10094000CB4D01228900280003F068FA80210122A2
:100950004900280003F062FA01222021280003F058
:100960005DFA01221021280003F058FA0122082123
:10097000280003F053FABFE5902001220121C005B1
:1009800003F04CFA8021B94D01220902280003F03E
:1009900045FA80210022C901280003F03FFA802196
:1009A00001228901280003F039FA8021B04D01228B
:1009B0008900280003F032FA802101224900280032
:1009C00003F02CFA01222021280003F027FA01224B
:1009D0001021280003F022FA01220821280003F048
:1009E0001DFA8CE5902001220121C00503F016FAC2
:1009F00080219E4D01220902280003F00FFA802178
:100A00000122C901280003F009FA8021002289018E
:100A1000280003F003FA8021954D01228900280067
:100A200003F0FCF9802101224900280003F0F6F9C7
:100A300001222021280003F0F1F9012210212800D1
:100A400003F0ECF901220821280003F0E7F959E549
:100A5000902001220121C00503F0E0F98021834D9F
:100A600001220902280003F0D9F980210122C901DD
:100A7000280003F0D3F9802101228901280003F026
:100A8000CDF980217A4D00228900280003F0C6F9B3
:100A9000802101224900280003F0C0F90122202111
:100AA000280003F0BBF901221021280003F0B6F959
:100AB00001220821280003F0B1F926E59020012247
:100AC0000121C00503F0AAF98021684D0122090225
:100AD000280003F0A3F980210122C901280003F0B6
:100AE0009DF9802101228901280003F097F98021D6
:100AF0005F4D01228900280003F090F98021002237
:100B00004900280003F08AF901222021280003F07F
:100B100085F901221021280003F080F90122082123
:100B2000280003F07BF9F3E4902001220121C005A5
:100B300003F074F980214D4D01220902280003F0D1
:100B40006DF980210122C901280003F067F9802195
:100B500001228901280003F061F98021444D01221E
:100B60008900280003F05AF9802101224900280059
:100B700003F054F900222021280003F04FF901224C
:100B80001021280003F04AF901220821280003F06F
:100B900045F9C0E4902001220121C00503F03EF98F
:100BA0008021324D01220902280003F037F980210B
:100BB0000122C901280003F031F9802101228901B5
:100BC000280003F02BF98021294D012289002800FB
:100BD00003F024F9802101224900280003F01EF9C6
:100BE00001222021280003F019F9002210212800F9
:100BF00003F014F901220821280003F00FF98DE415
:100C0000902001220121C00503F008F98021174C32
:100C100001220902200003F001F980210122C9010B
:100C2000200003F0FBF8802101228901200003F05D
:100C3000F5F880210E4C01228900200003F0EEF827
:100C4000802101224900200003F0E8F80122202140
:100C5000200003F0E3F801221021200003F0DEF869
:100C600000220821200003F0D9F85AE400080048C7
:100C70000004004870B501250124B4E001210120E1
:100C8000FFF718FC01210220FFF714FC01210320CB
:100C9000FFF710FC01210420FFF70CFC01210520C7
:100CA000FFF708FC01210620FFF704FC01210720C3
:100CB000FFF700FC01210820FFF7FCFB01210920C0
:100CC000FFF7F8FB01210120FFF7F4FB02210120CF
:100CD000FFF7F0FB03210120FFF7ECFB04210120CB
:100CE000FFF7E8FB05210120FFF7E4FB06210120C7
:100CF000FFF7E0FB07210120FFF7DCFB08210120C3
:100D0000FFF7D8FB09210120FFF7D4FB02210820BF
:100D1000FFF7D0FB03210720FFF7CCFB04210620BF
:100D2000FFF7C8FB05210520FFF7C4FB06210420BF
:100D3000FFF7C0FB07210320FFF7BCFB08210820B9
:100D4000FFF7B8FB56E002210120FFF7B3FB0221B9
:100D50000220FFF7AFFB02210320FFF7ABFB0221CC
:100D60000420FFF7A7FB02210520FFF7A3FB0221C8
:100D70000620FFF79FFB02210720FFF79BFB0221C4
:100D80000820FFF797FB03210220FFF793FB0421C4
:100D90000220FFF78FFB05210220FFF78BFB0621C6
:100DA0000220FFF787FB07210220FFF783FB0321C7
:100DB0000620FFF77FFB05210420FFF77BFB0621C0
:100DC0000320FFF777FB17E005210320FFF772FBF5
:100DD000012002F07DFE11E00125012401350C4BBC
:100DE0001B68002B12DC0A4B1B68002B0ED1012C58
:100DF00000D143E7022CA6D0032CE5D0054B9D4241
:100E0000ECD10134042CE7D00125E7E770BDC046E2
:100E100094010020B80B000070B500240025EBE021
:100E2000FFF7C8FAFFF78EFA230000E0013396229D
:100E300092009342FADBE6E0FFF7A0FA01210120DD
:100E4000FFF738FB01210220FFF734FB01210320CB
:100E5000FFF730FB01210420FFF72CFB01210520C7
:100E6000FFF728FB01210620FFF724FB01210720C3
:100E7000FFF720FB01210820FFF71CFB01210920BF
:100E8000FFF718FBC2E002210120FFF713FB02214C
:100E90000220FFF70FFB02210320FFF70BFB0221CB
:100EA0000420FFF707FB02210520FFF703FB0221C7
:100EB0000620FFF7FFFA02210720FFF7FBFA0221C5
:100EC0000820FFF7F7FAA4E003210120FFF7F2FA68
:100ED00003210220FFF7EEFA03210320FFF7EAFACD
:100EE00003210420FFF7E6FA03210520FFF7E2FAC9
:100EF00003210620FFF7DEFA03210720FFF7DAFAC5
:100F00008AE004210120FFF7D5FA04210220FFF72F
:100F1000D1FA04210620FFF7CDFA04210720FFF7BC
:100F2000C9FA330000E00133962252009342FADB03
:100F300075E005210120FFF7BDFA05210220FFF72A
:100F4000B9FA05210320FFF7B5FA05210420FFF7C0
:100F5000B1FA05210520FFF7ADFA330000E00133B7
:100F6000632BFCDD5DE006210120FFF7A3FA0621DB
:100F70000220FFF79FFA06210320FFF79BFA0621C4
:100F80000420FFF797FA330000E00133C72BFCDDA4
:100F900049E007210120FFF78DFA07210220FFF722
:100FA00089FA07210320FFF785FA330000E00133B7
:100FB000962252009342FADB37E008210120FFF726
:100FC00079FA08210220FFF775FA330000E00133B7
:100FD000C82252009342FADB29E009210120FFF7E1
:100FE00069FA330000E00133FA2252009342FADB3F
:100FF0001FE0340035000135124B1E68002E20D151
:10100000002C00D10CE7012C00D115E7022C00D1F7
:1010100039E7032C00D157E7042C00D171E7052CE8
:1010200087D0062C9FD0072CB3D0082CC5D0092C14
:10103000D3D0054B9D42DED10A2CDAD001343500E5
:10104000D9E770BD94010020B80B000070B5060010
:101050000125092D4FDC012430E0042C41D0092C5E
:1010600030D101240325032C3DD0072C2CDD012495
:101070000425032C39D0062C28D101240525032C66
:1010800035D0052C24DD01240625042C22DD012485
:101090000725032C20DD01240825032C1EDD012457
:1010A0000134012521002800FFF704FA300002F086
:1010B0000FFD114B1B68012B1DD00134092C18DCCE
:1010C000022DCAD0032DCED0042DD2D0052DD6D0DE
:1010D000062DDAD0072DDCD0082DDED0092DE1D188
:1010E000DEE70134EEE70524EEE70524EEE705240C
:1010F000EEE70135ADE770BD9401002010B5FFF7B4
:1011000021F90120FFF7A2FF10BD000030B593B018
:1011100002F0BCFCFFF7DEF8FFF73EF8FFF7B8F887
:1011200000F05EF8274B11930AA9274A130031CB30
:1011300031C11A000B0013CA13C312881A8007AA00
:10114000224B180018C818C2038813808378937044
:10115000002300931522002101A803F04FFE05E0B3
:10116000FFF75AFE1A4B1B68002B1BDC194B1B6840
:10117000002BF5D0052BF5D89B00174AD3589F4676
:10118000FA204000FFF762FFECE76420FFF75EFF04
:10119000E8E7FFF7B3FFE5E7FFF76CFDE2E7FFF7EE
:1011A0003BFEDFE70A4B00221A600A4A136801334C
:1011B0001360052B02DD130000221A60FFF7FAF816
:1011C000D4E7C046202D2000244E0008404E0008E1
:1011D00094010020E40100204C4E000870470000FC
:1011E00010B512491248002202F085FE002811D1E4
:1011F00010490F4802F09BFE00280ED10E490C4802
:1012000003F074FD00280BD1094802F099FE002874
:1012100009D110BDFFF7E2FFEAE7FFF7DFFFEDE7D7
:10122000FFF7DCFFF0E7FFF7D9FFF2E7000000204F
:10123000E80100206800002058000020022804D0A7
:1012400005D8002800D0022070470120FCE70220CA
:10125000FAE710B5FFF73EF810BD000000B583B007
:1012600002680C4B9A4201D003B000BD0A4BDA6908
:10127000802109040A43DA61DB690B400193019B79
:10128000002200211F2002F0DDFD1F2002F00AFED7
:10129000EAE7C046005C00400010024010B50100C3
:1012A000BC239B00C058403B9C46614402F064FE56
:1012B00010BD10B50300BC22920080588A0052185D
:1012C000D2009B187D33FF331A6802F087FE10BDF1
:1012D00010B50300BC22920080588A005218D20038
:1012E0009B18DA6B02F0CCFE10BD10B5BC239B003E
:1012F000C05802F087FF10BD70B504008368022B50
:1013000009D1BC25AD006059012102F05DFF605993
:1013100002F02BFF70BDFFF761FFF2E710B504008C
:10132000BC239B00C05802F053FFA369002B04D0DC
:10133000024A136906210B43136110BD00ED00E062
:1013400010B504008369002B05D1BC239B00E05835
:1013500002F04AFF10BD044A136906218B43136152
:10136000FFF777FFF1E7C04600ED00E070B504003D
:101370001D48BC239B00C450303BE0501B4B036016
:1013800008234360063B8360036100238361C361DC
:10139000036201F0AFF8002823D1B025AD006059F9
:1013A00018230022002101F0D7FE605958230022A3
:1013B000802101F0D1FE6059C0230022812101F07B
:1013C000CBFE605988235B000022012101F0C4FE9E
:1013D000605980235B000022822101F0BDFE0020C5
:1013E00070BDFFF7FBFED8E7AC040020005C0040B6
:1013F00010B5B0239B00C05801F0EEF8FFF71EFFB8
:1014000010BD10B514001A00B0239B00C058230073
:1014100001F058FDFFF712FF10BD10B5B0239B007F
:10142000C05801F08EFDFFF709FF10BD10B5B023C5
:101430009B00C05801F01CFEFFF700FF10BD10B567
:10144000B0239B00C05801F04AFEFFF7F7FE10BD25
:10145000B0239B00C3584AB2002A09DB7F22114007
:101460008A005218D2009B186B33FF3318787047EC
:101470007F22114001318A005218D2009B189878BF
:10148000F5E710B5B0239B00C05801F031FCFFF721
:10149000D5FE10BD10B5B024A400005901F0BAFD6E
:1014A000FFF7CCFE10BD10B5B024A400005901F028
:1014B0007CFDFFF7C3FE10BD10B5B0239B00C058E4
:1014C00001F09EFD10BD000000487047A0070020FD
:1014D0007047000012230B80004870471C0000205A
:1014E00004230B80004870473000002030B50023F3
:1014F0000AE05D0037344C5500015C0001340C19E2
:10150000002525700133DBB2934206D2040F092C6B
:10151000EFD85D0030344C55EEE730BD70B50B4B65
:1015200018680B4B1D680B4B1B68C018002800D1B6
:1015300070BD094CA11C0822FFF7D8FF2100123111
:1015400004222800FFF7D2FFF2E7C046ACF7FF1FE6
:10155000B0F7FF1FB4F7FF1F3400002010B51A23A7
:101560000B80FFF7DBFF014810BDC04634000020B0
:1015700010B50A00002805D10549064803F0B3F963
:10158000034810BD0249034803F0ADF9F8E7C0462F
:10159000C0090020644E000810B50A00034C04483E
:1015A000210003F0A0F9200010BDC046C0090020B2
:1015B0007C4E000810B50A00002805D105490648F0
:1015C00003F091F9034810BD0249034803F08BF979
:1015D000F8E7C046C0090020904E000810B50A0088
:1015E000002805D10549064803F07DF9034810BDE0
:1015F0000249034803F077F9F8E7C046C009002024
:101600009C4E00087047FEE77047704710B502F027
:101610004DFA10BD10B58020800002F005FC10BD11
:1016200010B5024801F07AFB10BDC046AC040020A2
:1016300082B00A4B996901221143996199690A4064
:101640000092009ADA69802149050A43DA61DB6970
:101650000B400193019B02B07047C046001002404E
:1016600010B588B004001422002103A803F0C6FBC3
:101670002268134B9A4201D008B010BD114C636927
:101680008022D20213436361636913400193019B7B
:10169000C0230393AE3B0493113B059303220692B0
:1016A000079303A9084802F0E1FAE3698022920354
:1016B0001343E361E36913400293029BDCE7C046F6
:1016C000005400400010024000040048442300225F
:1016D000C252043B014AC2520020704780BFFFFF44
:1016E0004022835A02490B40835200207047C04673
:1016F0007F40000084B001910292039340220123B5
:10170000835200238352043283520C3283520020CE
:1017100004B07047F0B503000D78AD0045192A8874
:10172000AA480240C878022859D00AD8002852D0C6
:10173000012804D18020C0000243002009E00120DC
:1017400007E0032804D1C020C0000243002000E0CD
:1017500001209F4C224392B22A800A7896009E195B
:1017600035882DB29B4F3D402A4392B21443A4B218
:1017700034800A7B002A00D08FE04A78002A3BD0D0
:1017800050229C5A1C190A78D20012198024E400B5
:10179000A4466244CC886408640014800A789200ED
:1017A0009A181488640605D515883D408A4C2C4348
:1017B000A4B21480CA78012A13D00A7892009A1829
:1017C000138886490B4020214B409BB280490B4334
:1017D0009BB213804BE08024A4002243B9E7002091
:1017E000B7E70A7892009B1819887C4A1140784A1A
:1017F0000A4392B21A803AE050255C5B1C190A78C1
:10180000D2001219764CA4466244CC886408640065
:1018100014805C5B1C190A78D2001219714CA44622
:1018200062440C69002C23D114886F4D2C40148025
:1018300014886E4D2C43A4B214800A7892009A1832
:101840001488640406D51588624C2540684C2C43E6
:10185000A4B214800A7892009B181A8865490A403D
:10186000C021890151405A4A0A4392B21A80F0BD00
:101870003E2C07D86508E40700D50135AD02ADB2AE
:101880001580DAE76509E40600D1013DAD02ADB28D
:10189000564C2C43A4B21480CFE70A7892009A18D1
:1018A00015884C4C2540544C2C43A4B21480502530
:1018B0005C5B1C190A78D20012198024E400A4464B
:1018C00062440C896408640014805C5B1C190A780B
:1018D000D2001219424CA44662444C896408640048
:1018E00014804A78002A30D10A7892009A18148815
:1018F000640406D51588374C25403D4C2C43A4B2D2
:1019000014800A7892009A181488640606D51588FF
:10191000304C2540304C2C43A4B214800C78A400E9
:101920001C192588334A1540C02292016A40284D6F
:101930002A4392B222800A7892009B181A8827497B
:101940000A402A4392B21A8091E70A7892009A18C4
:101950001488640406D515881E4C2540244C2C435D
:10196000A4B214800A7892009A181488640606D5E6
:101970001588184C2540184C2C43A4B21480CA7802
:10198000012A17D00C78A4001C192288134D2A4074
:1019900020256A4092B20E4D2A4392B222800A78E4
:1019A00092009B181988134A1140094A0A4392B2BF
:1019B0001A805CE70A7892009A181588074C25402F
:1019C000034C2C43A4B21480E9E7C0468F89FFFF83
:1019D0008080FFFF8F8FFFFFC080FFFFBF8FFFFF63
:1019E0000404000006040000FF83FFFF0080FFFFE7
:1019F00080C0FFFF8FBFFFFF8081FFFF10B50B7B13
:101A0000002B33D14B78002B18D00B789B00C318D8
:101A10001A88520606D51C884E4A14404E4A224364
:101A200092B21A800B789B00C31819884B4A114058
:101A30004B4A0A4392B21A80002010BD0B789B00DB
:101A4000C3181A88520406D51C88424A1440454AD5
:101A5000224392B21A800B789B00C3181988424A1D
:101A600011403F4A0A4392B21A80E5E74B78002BB7
:101A700037D10B789B00C3181A88520406D51C88EE
:101A8000344A1440374A224392B21A800B789B00A2
:101A9000C3181A88520606D51C882E4A14402E4AAE
:101AA000224392B21A800B789B00C3181C88294AE3
:101AB0001440294A224392B21A800C78A4000419D7
:101AC0002388294A1340264A13439BB223800B786C
:101AD0009B00C3181988214801400A4392B21A801A
:101AE000AAE70B789B00C3181A88520406D51C88F5
:101AF000184A14401B4A224392B21A800B789B006A
:101B0000C3181A88520606D51C88124A1440124A75
:101B1000224392B21A800B789B00C3181C880D4A8E
:101B20001440104A224392B21A800C78A40004197F
:101B300023880A4A13400A4A13439BB223800B7836
:101B40009B00C018038808490B401A4392B20280D8
:101B500072E7C0468F8FFFFFC080FFFFBF8FFFFF80
:101B60008080FFFF80C0FFFF8FBFFFFF4B78002BFF
:101B70000ED00B789B00C01803880C4A134010222B
:101B800053409BB20A4A13439BB203800020704724
:101B90000B789B00C0180388064A1340802252012C
:101BA0005A40034B13439BB20380EFE7BF8FFFFF05
:101BB0008080FFFF8FBFFFFF10B50B7B002B3AD15A
:101BC0004B78002B1DD00B789B00C3181A88520647
:101BD00006D51C88194A1440194A224392B21A8029
:101BE000CB78012B27D00A789200821813881549E8
:101BF0000B4020214B409BB213490B439BB21380F7
:101C000019E00B789B00C3181A88520406D51C886B
:101C10000A4A14400D4A224392B21A800B789B0064
:101C2000C01803880A4A1340C02292015A40064B4A
:101C300013439BB20380002010BDC0468F8FFFFF6F
:101C4000C080FFFFBF8FFFFF8080FFFF80C0FFFFCE
:101C50008FBFFFFF002902D14C238022C2520020F7
:101C6000704700005822835A02490B439BB28352AB
:101C7000002070470080FFFF4423C05A80B27047A5
:101C800010B501335B0812188020C00084466244FE
:101C900007E008784C7824020443148002320231B1
:101CA000013B002BF5D110BD70B505000C004A7842
:101CB000012A2ED00B7B002B00D067E28B690A69CA
:101CC000934200D849E29B1A8B615023E95A691864
:101CD0002378DB005B18B9498C466344002A00D0A6
:101CE0003FE21A88B6490A401A801A88B5490A4361
:101CF00092B21A8023789B00ED182B88B24A1340C9
:101D0000C02292015A40B14B13439BB22B8000205A
:101D100070BD8E6909698E4200D90E00237B002BAD
:101D200021D0E378022B3ED02378990069180988E6
:101D3000490600D4CCE1002A00D0ABE15032AA5AC7
:101D4000AA18DB009B189D4A94466344002E00D0DD
:101D50008BE11A889A490A401A801A8899490A43DD
:101D600092B21A80A0E1B6B2E2886169330028001D
:101D7000FFF786FF5023EA5AAA182378DB009B1846
:101D8000934A944663441E8022789200AA181388CE
:101D900090490B4030214B409BB28C490B439BB286
:101DA00013800020B4E7236A994200D342E12378EC
:101DB0009B00EB181988884A1140884A0A4392B25E
:101DC0001A80236A9B1B236223789A00AA18128820
:101DD000520600D48DE06278002A28D15032AA5AE7
:101DE000AA18DB009B18754A94466344002E09D15B
:101DF0001A8873490A401A801A8872490A4392B2B3
:101E00001A8016E03E2E07D87208F10700D501327D
:101E1000920292B21A800CE07209F10600D1013AE6
:101E2000920292B267490A4392B21A8001E0012AF3
:101E300026D06289B3B261692800FFF721FF636988
:101E40009B196361236A2269934224D99B1B2362F5
:101E50006378002B38D15033EA5AAA182378DB0074
:101E60009B185B4A94466344002E18D11A88544943
:101E70000A401A801A8853490A4392B21A8025E010
:101E80004F32AA5AAA18DB009B184C4A9446634466
:101E9000B2B21A80CDE7002222621E00D8E73E2EA1
:101EA00007D87208F10700D50132920292B21A8067
:101EB0000CE07209F10600D1013A920292B2414956
:101EC0000A4392B21A8001E0012B06D02289B3B2F4
:101ED00061692800FFF7D4FE56E74F33EA5AAA1883
:101EE0002378DB009B183A4A94466344B2B21A80C6
:101EF000ECE76278002A28D15032AA5AAA18DB00EF
:101F00009B18334A94466344002E09D11A882C4901
:101F10000A401A801A882B490A4392B21A8016E0A6
:101F20003E2E07D87208F10700D50132920292B214
:101F30001A800CE07209F10600D1013A920292B2C5
:101F400020490A4392B21A8001E0012A26D0228950
:101F5000B3B261692800FFF793FE63699B1963615F
:101F6000236A2269934224D99B1B23626378002B46
:101F70004BD15033EA5AAA182378DB009B180F4A3A
:101F800094466344002E2BD11A880D490A401A80CA
:101F90001A880C490A4392B21A8038E04F32AA5A82
:101FA000AA18DB009B180A4A94466344B2B21A800E
:101FB000CDE7002222621E00D8E7C04606040000DA
:101FC000FF83FFFF0080FFFF8FBFFFFF8080FFFFC9
:101FD00002040000BF8FFFFF8F8FFFFF8081FFFF94
:101FE0003E2E07D87208F10700D50132920292B254
:101FF0001A800CE07209F10600D1013A920292B205
:10200000C3490A4392B21A8001E0012B06D06289CB
:10201000B3B261692800FFF733FEB5E64F33EA5AE1
:10202000AA182378DB009B18BA4A94466344B2B2DC
:102030001A80ECE722789200AA181088B649084066
:10204000B649014389B211805022A95A69182278F1
:10205000D2005218B2498C4662449BB21380228946
:1020600061692800FFF70CFE8EE63E2E07D8720845
:10207000F10700D50132920292B21A8014E072097F
:10208000F10600D1013A920292B2A1490A4392B2FA
:102090001A8009E05022AA5AAA18DB009B189D4A10
:1020A00094466344B2B21A806289B3B2616928006F
:1020B000FFF7E6FD6378002B41D123789B00EB18F6
:1020C0001988984A1140984A0A4392B21A805BE6EE
:1020D000002A28D15032AA5AAA18DB009B18904A2D
:1020E00094466344002E09D11A8890490A401A8008
:1020F0001A8887490A4392B21A801EE03E2E07D8FA
:102100007208F10700D50132920292B21A8014E0EF
:102110007209F10600D1013A920292B27C490A4357
:1021200092B21A8009E05022AA5AAA18DB009B1822
:102130007B4A94466344B2B21A802289B5E7012BE8
:1021400000D021E623789B00EB181988754A1140CE
:10215000774A0A4392B21A8016E600228A611A0070
:10216000B3E53E2A07D85108D20700D501318902CC
:1021700089B21980BEE55109D20600D10139890220
:1021800089B2634A0A4392B21A80B3E5CB78022B34
:102190003AD0012B00D008E189692369994200D81F
:1021A000B1E0C91AA161002A14D15032A95A6918A4
:1021B0002278D20052185A498C466244002B00D033
:1021C000BAE01188594801401180118850480143F4
:1021D00089B211806278002A00D0D7E05032A95A23
:1021E00069182278D20052184A498C466244002B62
:1021F00000D0B6E013884D490B4013801388444942
:102200000B439BB2138075E5002A14D14E33C25A9A
:1022100082180B78DB009B18414A944663440A6994
:10222000002A21D11A8841490A401A801A8838495F
:102230000A4392B21A806378002B3FD15033EA5A96
:10224000AA182378DB009B18324A9446634422691B
:10225000002A1ED11A8835490A401A801A882C494A
:102260000A4392B21A802BE03E2A07D85108D207BF
:1022700000D50131890289B21980DCE75109D20603
:1022800000D10139890289B2214A0A4392B21A80E7
:10229000D1E73E2A07D85108D20700D5013189027B
:1022A00089B219800CE05109D20600D101398902A6
:1022B00089B2174A0A4392B21A8001E0012B16D064
:1022C000E369002B00D115E523789B00EB181A88F1
:1022D00018490A408A4202D0002A00D00AE519882B
:1022E000104A1140104A0A4392B21A8002E54F3355
:1022F000EA5AAA182378DB009B18064A94466344DE
:10230000228A1A80DCE70023A3610B004BE7C0465A
:102310000080FFFF060400008F8EFFFF8080FFFF1C
:10232000020400008F8FFFFFC080FFFFFF83FFFFCD
:1023300080C0FFFF404000003E2B07D85908D80757
:1023400000D50131890289B2118043E75909D806C5
:1023500000D10139890289B21548014389B211803F
:1023600038E73E2B07D85908DB0700D50131890231
:1023700089B21180BEE45909DB0600D10139890216
:1023800089B20B4B0B439BB21380B3E4012A00D0FC
:10239000B0E44F32A95A69182278D2005218054980
:1023A0008C4662449BB21380A4E40120B0E4C04692
:1023B0000080FFFF0604000030B55D081218802081
:1023C000C0008446624406E0148802320C70240A7D
:1023D0004C700231013D002DF6D1DB0701D5138889
:1023E0000B7030BD70B553043CD504685023E35ADC
:1023F0000D78EE009B191B19384CA44663441C88C9
:10240000A405A40D8B69A34222D31B1B8B618B698E
:10241000002B0CD10368AD005D192B88304E334082
:102420008026B6015E402F4B33439BB22B80520671
:102430000AD502680B789B00D21815882A4B1D40DC
:102440002A4B2B439BB21380002C04D1200070BD7B
:1024500000238B61DBE700680A8949692300FFF7E5
:10246000ABFFF3E704685023E35A0D78EE009B19A5
:102470001B191F4CA44663441C88A405A40D8B693A
:10248000A34227D31B1B8B618B69002B0CD10368E4
:10249000AD005D192B88124E33408026B6015E4098
:1024A000104B33439BB22B8052060AD402680B7840
:1024B0009B00D21815880C4B1D400C4B2B439BB234
:1024C0001380002CC2D000684A8949692300FFF7B5
:1024D00073FFBBE700238B61D6E7C0460204000010
:1024E0008FBFFFFF8080FFFF8F8FFFFFC080FFFF48
:1024F0000604000070B586B0041E69D0354BC35C7D
:10250000002B07D0334B0322E2542068FFF7E8F892
:1025100000211EE0AA239B000022C254FEF79EFE6B
:10252000F0E74D1CAB005A19D200A21801205070E0
:102530005A19D20011558A005018C0002018C186BF
:102540005B19DB00E3180026DE708663C663066451
:10255000E9B260688142E4D3002119E08A0053188F
:10256000DB00E3181E006A36FF3600253570013E99
:102570003170033635700D3635607D33FF331D60A5
:102580005218D200A2188132FF3215600131C9B24F
:102590008842E3D82068230010336A4662CB62C2C7
:1025A00022CB22C26168A268E368FFF7A3F8242364
:1025B0000022E254074B0132E254E369012B02D0BE
:1025C000002006B070BD200000F0E3FD0020F8E719
:1025D0000120F6E7A902000070B50400AA239B00C1
:1025E000C35C012B0DD0AA25AD0001234355006823
:1025F000FFF76CF82068FFF735FB002363550020D8
:1026000070BD0220FCE7000070B505000C0016004C
:10261000530600D4A4E002685023D35A0978C800B6
:102620001B189B18994A944663441A889205920D88
:10263000A369934224D99B1AA361A369002B22D0DA
:10264000760409D52B68890059180888904B1840E2
:10265000904B03439BB20B802423E35C012B23D0DC
:10266000296823789B00C9180B888B4A13403022B5
:1026700053409BB2894A13439BB20B80002070BD2C
:102680000023A361D9E72800FEF722FE7604E7D5F0
:102690002A6823789B00D21811887D4B19407D4B06
:1026A0000B439BB21380DBE763699B186361E369AB
:1026B0009B18E361216A236999421AD3C91A2162DE
:1026C0006278002A36D12A685021515A511822784E
:1026D000D20052186D498C466244002B15D11188E6
:1026E0006F480140118011886E48014389B2118002
:1026F00022E0002903D12423E1541300E0E7002362
:102700002422A35423620B00DAE73E2B07D8590892
:10271000D80700D50131890289B211800CE059092E
:10272000D80600D10139890289B25E48014389B2D5
:10273000118001E0012A06D028689BB222896169D4
:10274000FFF79EFA8CE72A685021515A51182278D7
:10275000D20052184D498C46624499B21180EBE781
:1027600002685023D35A0978C8001B189B184E4A98
:10277000944663441A889205920DA36993423AD312
:102780009B1AA361A369002B38D0760409D42B6867
:102790008900591808883E4B18403E4B03439BB2B2
:1027A0000B802423E35C012B00D059E763699B185D
:1027B0006361E3699B18E361216A236999422FD31E
:1027C000C91A21622A68617800294AD15031515AC8
:1027D00052182178C900521833498C466244002BA4
:1027E0002AD111882E480140118011882D480143BB
:1027F00089B2118037E00023A361C3E72800FEF708
:1028000067FD760400D52BE72A6823789B00D21851
:1028100011881F4B19401F4B0B439BB213801FE7BE
:10282000002903D12423E1541300CBE700232362C2
:102830002422A3540B00C5E73E2B07D85908D8071C
:1028400000D50131890289B211800CE05909D806FE
:1028500000D10139890289B21248014389B211803D
:1028600001E0012906D028689BB262896169FFF7FF
:1028700007FAF5E64F31515A52182178C90052181B
:1028800009498C46624499B21180ECE702040000C9
:102890008F8FFFFF80C0FFFFBF8FFFFF8080FFFF94
:1028A000FF83FFFF0080FFFF06040000F8B5CE465F
:1028B000474680B5040020684423C35A1BB2002B4E
:1028C00000DB0EE24423C35A99B20F221D001540CB
:1028D000134200D0C1E0C90654D503889AB21B0543
:1028E00000D581E012B2002AE5DA0388D34A13400A
:1028F000802213439BB2038020685023C35AB42222
:102900005200A25CD2009B181B18CD4A9446634427
:102910001B889B059B0D22006932FF32D361002B7F
:102920000ED0516900290BD01500D288FFF744FD65
:10293000EA696B699B186B6100212000FEF7B9FC06
:10294000236850229A5A9B18BD4A94466344220039
:102950006932FF321269002A6AD11A88B9490A40DD
:102960001A801A88B8490A4392B21A8021680B88E3
:10297000B64A1340C02292015A40B54B13439BB252
:102980000B8098E70288B34B1A40AF4B13439BB2BE
:10299000038021685023CB5A2822A25CD2009B18C6
:1029A0005B18AD4A944663441B889B059B0D63648A
:1029B000E26BD318E36300212000FEF789FC242397
:1029C000E35C002B00D176E7236C002B00D072E78C
:1029D0002422A35C2068802149420B43DBB2CC3126
:1029E00043520023A35466E75023C35AB422520033
:1029F000A25CD2009B181B18914A944663441B8822
:102A00009B059B0D22006932FF32D361AC21890006
:102A10006118D288FFF7D0FC2268138887490B40E1
:102A200080210B439BB213802000FEF737FC42E766
:102A30003E2A07D85108D20700D50131890289B250
:102A4000198093E75109D20600D10139890289B270
:102A50007D4A0A4392B21A8088E7AE008019038843
:102A60009FB21BB2002B42DB3B0600D423E76B1C5A
:102A70009C469B0062469918C9006118206880191D
:102A80000688744A1640704A324392B20280CB786C
:102A9000022B00D109E120685023C35A6E1CB200FA
:102AA0009219D200165DF2009B181B186A4A9446D0
:102AB00063441A889205920DAB005B19DB00E318A2
:102AC0001F6C974200D8F8E0AB005B19DB00E318FD
:102AD000BF1A1F64AB005B19DB00E3181B6C002BF3
:102AE00000D0F1E031002000FEF7F2FBE3E60388BE
:102AF000524A1340802213439BB203807219D200C2
:102B00006932FF329046A0447319DB00E318753335
:102B1000FF331B78002B4BD120685033C25A7319F6
:102B2000DB00E3186933FF331B78DB00D3181B1875
:102B3000434A944663441B889B059A0D9146002B9B
:102B400028D14946AA005219D200A2181000853097
:102B5000FF3003684B440360083803684B4403604C
:102B60008132FF321368002B09D0AB005B19DB0008
:102B7000E3187933FF331B68994200D390E0AB0030
:102B80005B19DB00E3186933FF3319782000FEF787
:102B900090FB69E77319DB00E3181A006F32FF320C
:102BA00012887D33FF3319684B46FFF705FCC8E7F1
:102BB000AB005B19DB00E3186C33FF331B78022B8F
:102BC00034D02168AB005B19DB00E3186933FF33B5
:102BD0001A78920089180888204A1040204A024337
:102BE00092B20A8020681B789A00821812885204D8
:102BF00038D55022825ADB00D3181B18164A944647
:102C000063441B889B059A0D9146002B99D0AB001D
:102C10005B19DB00E3181A007132FF3212887D3332
:102C2000FF3319684B46FFF7C7FB8AE73A00414676
:102C30002000FFF7D7FB814683E7C0468F0F0000D7
:102C400006040000FF83FFFF0080FFFF8FBFFFFF30
:102C50008080FFFF0F8FFFFF020400008F8FFFFFB8
:102C6000C080FFFF5022825ADB00D3181B181F4A76
:102C7000944663441B889B059A0D9146002B00D116
:102C80005FE7AB005B19DB00E3181A007332FF3219
:102C900012887D33FF3319684B46FFF78DFB50E7F1
:102CA00020684146FFF700F8DEE6FB0500D4F2E6B7
:102CB0003A002000FFF7A8FCFDE5AB005B19DB0044
:102CC000E31800271F6405E7AB005E19F600A6199C
:102CD000F76BBF18F763736C9B187364FEF7E4FF20
:102CE000E9E50020C0BCB946B046F8BD06040000C6
:102CF00070B50400AA239B00C35C012B0CD0AA254D
:102D0000AD00012343552333C1540068FEF7A2FFF1
:102D100000236355002070BD0220FCE770B504005D
:102D20000068FEF7A9FF000400D57DE02068FEF7EB
:102D3000A3FF400500D57BE02068FEF79DFF40041F
:102D400005D5216844228B5A574803408B5220688E
:102D5000FEF792FF800405D5216844228B5A534820
:102D600003408B522068FEF787FFC00418D5216806
:102D70004023CA5A04208243CA522168CA5A0430E6
:102D80008243CA52B8239B00E35C012B5ED0200033
:102D9000FEF7D6FA216844228B5A454803408B52ED
:102DA0002068FEF769FF000559D42068FEF764FF2C
:102DB000000628D5216844228B5A802083438B52F9
:102DC000B8239B00E35C002B60D12168043A8B5A46
:102DD000042003439BB28B5221688B5A0820034383
:102DE0009BB28B52B8239B003F3AE2542268542393
:102DF000D25A9208183B1340B9229200A3500121E5
:102E0000200000F0DBF92068FEF736FF800541D492
:102E10002068FEF731FFC00505D5216844228B5A92
:102E2000244803408B5270BD2000FFF73FFD7DE733
:102E3000216844228B5A204803408B522000FEF721
:102E40005BFA00212000FFF753FF75E7B8239B00D2
:102E50000022E2540021200000F0B0F997E7216839
:102E600040228B5A082003439BB28B522068442196
:102E7000435A124D2B40435221688B5A042003437E
:102E80009BB28B522000FEF749FA8EE72000FEF736
:102E900045FAB8E7216844228B5A094803408B520F
:102EA0002000FEF722FAB3E7FFBFFFFFFFDFFFFFBF
:102EB000FFEFFFFFFFFEFFFFFFFBFFFFFFF7FFFF3F
:102EC000FFFDFFFF70B504000D0049B2002929DBAA
:102ED00007262E40B0008119C9006931FF31611801
:102EE0008019C00020186A30FF30002606700720C5
:102EF000284008700A61CB704A78002A00D0C88147
:102F0000022B19D0AA239B00E35C012B17D0AA2522
:102F1000AD00012363552068FEF7FCFB00236355D9
:102F2000002070BD07262E400136B0008119C9006F
:102F3000611801264E70DAE700230B71E2E70220E8
:102F4000EFE770B504000A004BB2002B21DB07202D
:102F5000084083001918C9006931FF3161181B1836
:102F6000DB00E3186A33FF33002018700723134097
:102F70000B70AA239B00E35C012B14D0AA25AD00A3
:102F8000012363552068FEF739FD002363550020B7
:102F900070BD07200840013083001918C90061186E
:102FA00001204870E2E70220F2E7F8B507260E405C
:102FB000B400A119C9006931FF314118A519ED000C
:102FC00045192F007D37FF373A602A008132FF32E2
:102FD00013600432002313606A35FF352B70A41987
:102FE000E40004196934FF342670002E04D100680F
:102FF000FEF75AFE0020F8BD0068FEF755FEF9E71F
:1030000007230B409900C918C90040188530FF30CC
:1030100000687047F0B5C64600B507250D406F1C27
:10302000BE00F119C90088468044AC006419E40070
:103030000419E26323644C229446A4444B3A61464B
:103040000A70A3640023636443465A70F619F600BD
:103050003554002D07D100684146FEF725FE0020BB
:1030600080BCB846F0BD00684146FEF71DFEF6E79D
:1030700070B504000B0007220A4041688A422AD832
:1030800059B200291FDB9800C118C9006931FF310E
:103090006118C018C00020186A30FF300023037088
:1030A00001238B700A70AA239B00E35C012B14D0D0
:1030B000AA25AD00012363552068FEF757FD0023C4
:1030C0006355002070BD501C83001918C900611899
:1030D00001204870E4E70120F4E70220F2E770B530
:1030E00004000B000F220A4041688A4230D85AB2CD
:1030F000002A23DB0720184082001118C90069311B
:10310000FF3161181218D200A2186A32FF32002073
:10311000107000228A70073213400B70AA239B00A4
:10312000E35C012B16D0AA25AD000123635520686E
:10313000FEF742FD00236355002070BD07201840B4
:10314000013082001118C900611801204870E0E7C1
:103150000120F2E70220F0E710B50C060CD5072499
:10316000214001318C006118C9004018002A0AD1A1
:103170000273C380002010BD8C006118C900693142
:10318000FF314018F2E70122027303811B0C4381D7
:10319000F0E70168BA239B000122C250083B0022DD
:1031A000C25454328B5A012003439BB28B528B5A28
:1031B000022003439BB28B520020704770470000EF
:1031C00070B582B0041E00D17FE20368DB072BD507
:1031D000B34B5A680C231340042B1DD0B04B5A68D4
:1031E0000C231340082B0ED06368012B41D0002B19
:1031F00056D1AB4B1A68AB490A401A601A68AA4903
:103200000A401A603BE0A64B5B68C02252021340A2
:10321000802252029342E7D1A14B1B689B0303D546
:103220006368002B00D153E223689B0777D59C4B42
:103230005B680C221A4262D0994B5A680C231340E7
:10324000082B53D0E368002B00D18AE0944A13681E
:1032500001210B43136000F035FC0500904B1B6807
:103260009B0775D400F02EFC401B0228F6D90320E2
:103270002CE28B4A116880235B020B431360636866
:10328000002B25D000F01EFC0500854B1B689B031E
:10329000CAD400F017FC401B6428F6D9032015E2BD
:1032A000052B09D07E4B1A687E490A401A601A68BD
:1032B0007D490A401A60E2E7794B19688022D20200
:1032C0000A431A601968802252020A431A60D6E73C
:1032D00000F0F8FB0500724B1B689B03A4D500F0BF
:1032E000F1FB401B6428F6D90320EFE16C4B5B68CF
:1032F000C02252021340802212029342A2D1684B94
:103300001B689B0703D5E368012B00D0E2E1644909
:103310000B68F82293432269D20013430B602368A1
:103320001B0744D5E369002B2ED05D4A536A012167
:103330000B43536200F0C6FB0500594B5B6A9B07C9
:1033400035D400F0BFFB401B0228F6D90320BDE1B5
:1033500053490B68F82293432269D20013430B6050
:10336000DDE74F4A136801218B43136000F0AAFB8D
:1033700005004B4B1B689B07D1D500F0A3FB401BFE
:103380000228F6D90320A1E1454A536A01218B4363
:10339000536200F097FB0500414B5B6A9B0706D523
:1033A00000F090FB401B0228F6D903208EE1236831
:1033B0005B0700D480E03A4BDB69DB001DD4384B5F
:1033C000DA69802149050A43DA61DB690B40019320
:1033D000019B0125354B1B68DB0510D5A368012B2C
:1033E00021D0002B36D12E4B1A6A01218A431A6252
:1033F0001A6A03318A431A621AE00025EAE72B4A67
:10340000116880235B000B43136000F05BFB060038
:10341000264B1B68DB05E1D400F054FB801B6428BD
:10342000F6D9032052E11E4A136A01210B431362AD
:10343000A368002B24D000F045FB0600184B1B6A44
:103440009B0737D400F03EFB801B194B9842F5D9FF
:1034500003203BE1052B09D0114B1A6A01218A4355
:103460001A621A6A03318A431A62E1E70C4B1A6A3C
:1034700004210A431A621A6A03390A431A62D7E717
:1034800000F020FB0600064B1B6A9B0712D500F0DC
:1034900019FB801B064B9842F5D9032016E1C04664
:1034A00000100240FFFFFEFFFFFFFBFF0070004027
:1034B00088130000012D39D02368DB0610D563691D
:1034C000012B39D0053357D1894A536B04218B43E3
:1034D0005363536BF4318B43A169C9000B435363AE
:1034E00023689B066ED5824B5A680C2313400C2B25
:1034F00060D07F4B5A680C231340082B53D0236AAB
:10350000002B7ED07A4A516B80235B020B435363BE
:1035100000F0D8FA0500764B5B6BDB0352D400F069
:10352000D1FA401B0228F6D90320CFE0704AD369B4
:1035300070490B40D361BFE76D4B5A6B04210A43BE
:103540005A635A6B03390A435A6300F0BBFA050009
:10355000674B5B6B9B0706D400F0B4FA401B022854
:10356000F6D90320B2E062494B6BF8229343A2697B
:10357000D20013434B63B3E75D4B5A6B04210A43FC
:103580005A635A6B03398A435A6300F09BFA050069
:10359000574B5B6B9B07A3D500F094FA401B0228A6
:1035A000F6D9032092E0524B5B68C02252021340CE
:1035B0009342A4D14E4B5B6BDB0303D5236A012BF3
:1035C00000D089E0636A002B00D187E0484A516847
:1035D0000C220A40082A60D0022B25D0444A1368E6
:1035E00045490B40136000F06DFA0400404B1B6826
:1035F0009B0150D500F066FA001B0228F6D9032083
:1036000064E03B4A536B3D490B40536300F05AFA68
:103610000500374B5B6BDB03D4D500F053FA401B3E
:103620000228F6D9032051E0314A136832490B4091
:10363000136000F047FA05002D4B1B689B0106D56F
:1036400000F040FA401B0228F6D903203EE0284B48
:10365000DA6A0F218A43216B0A43DA625A682849E1
:103660000A40E16AA06A01430A435A60196880224D
:1036700052040A431A6000F025FA04001C4B1B6830
:103680009B0106D400F01EFA001B0228F6D9032085
:103690001CE000201AE0002018E0012B20D0144B81
:1036A0005A68D86AC0235B021340A16A8B4219D1C1
:1036B0000F230340216B8B4216D1F0239B031A404A
:1036C000E36A9A4212D1002000E0012002B070BDEE
:1036D0000120FBE70120F9E70120F7E70020F5E7EB
:1036E0000120F3E70120F1E70120EFE70120EDE7FA
:1036F00000100240FFFFFFEFFFFFFFFEFFFFFEFF96
:10370000FF7FC2FF30B589B004AA1E4B31CB31C256
:103710001B6813606A461C4B31CB31C21B681360B7
:103720001A4B5A680C231340082B04D00C2B26D1BB
:10373000174809B030BD910C0F23194004A8445C10
:103740001249C96A0B406946C95CC0235B021A4032
:1037500080235B029A4208D0C0235B029A4209D0C0
:103760000C48FCF7ADFC6043E3E70A48FCF7A8FC13
:103770006043DEE70648FCF7A3FC6043D9E7054851
:10378000D7E7C046AC4E0008C04E0008001002400B
:10379000006CDC0200127A0070B504000D000028F5
:1037A00000D186E0474B1A68012313408B420AD2AE
:1037B00044490B68012293432B430B600B681A406A
:1037C000AA4200D077E023689A070ED55B0705D59B
:1037D0003D4A5168E023DB000B4353603A4A53688B
:1037E000F0218B43A1680B4353602368DB0735D579
:1037F0006368012B09D0022B24D0032B28D0324A36
:103800001268920705D4012052E02F4A12689203F1
:1038100053D52D494A680320824313434B6000F07F
:1038200051F90600284B5B680C221A4063689B0024
:103830009A4213D000F046F9801B244B9842F1D9EC
:10384000032035E0204A12689201E2D401202FE0E3
:103850001D4A526BD203DCD4012029E0194B1A68AF
:1038600001231340AB4209D916490B680122934347
:103870002B430B600B681A40AA4220D123685B07D8
:1038800006D5114A536812490B40E1680B43536057
:10389000FFF738FF0C4B5A6812090F2313400D4AEB
:1038A000D35CD8400C4B1860002000F0C7F8002013
:1038B00070BD0120FCE70120FAE70120F8E70120B4
:1038C000F6E7C046002002400010024088130000C6
:1038D000FFF8FFFFD44E00085400002070B582B0FE
:1038E00004000368DB0339D54D4BDB69DB0069D489
:1038F0004B4BDA69802149050A43DA61DB690B40E9
:103900000193019B0125474B1B68DB055CD5444BAC
:103910001A6AC0239B00110019401A4215D063682F
:10392000C022920013408B420FD03D4B1A6A3E4991
:1039300011401E6A8020400230431862186A3B4ED4
:10394000304018621962D20752D4354A136A364998
:103950000B4061680B431362012D58D02368DB07CD
:1039600006D52F4A136B03218B43A1680B431363C6
:1039700023689B0706D52A4A136B2D490B40E16843
:103980000B43136323689B0606D5254A136B10214E
:103990008B4321690B43136323689B0306D5204A9D
:1039A000136B80218B43A1690B43136323685B0571
:1039B00032D51B4A136B40218B4361690B43136360
:1039C00000202AE000259EE7164A116880235B004C
:1039D0000B43136000F076F80600124B1B68DB0502
:1039E00095D400F06FF8801B6428F6D9032014E00A
:1039F00000F068F806000A4B1B6A9B07A5D400F08C
:103A000061F8801B0B4B9842F5D9032005E0D36980
:103A100009490B40D361A1E7002002B070BDC04648
:103A20000010024000700040FFFCFFFFFFFFFEFFA0
:103A3000FFFFFCFF88130000FFFFFFEF10B504003D
:103A40000F4B1978FA208000FCF73AFB01000D4B70
:103A50001868FCF735FB00F031FA00280DD1032C73
:103A600001D901200AE0013000222100404200F08B
:103A7000E9F9054B1C60002000E0012010BDC046A4
:103A80004E000020540000205000002010B5064ACF
:103A9000136810210B4313600020FFF7CFFFFDF7E1
:103AA000C7FD002010BDC04600200240034A116837
:103AB000034B1B785B1813607047C046C00B002097
:103AC0004E000020014B18687047C046C00B002014
:103AD00070B50400FFF7F6FF0500631C02D0044B2D
:103AE0001B78E418FFF7EEFF401BA042FAD370BD2D
:103AF0004E00002010B5041E59D04123C35C002B9A
:103B000043D041232422E2542268136801218B43CD
:103B100013606368226827490B4013612268936829
:103B200025490B409360E368012B34D0A1682268DB
:103B300084231B020B439360E368022B32D022687C
:103B400051681E4B0B4353602268D3681A490B40DF
:103B5000D360236962691343A26912022168134387
:103B6000CB60E369216A22680B4313602268136803
:103B700001210B4313600023636441221F31A154D0
:103B800023630132A354002010BD40330022C254ED
:103B9000FDF766FDB5E7A168226880231B020B4391
:103BA0009360C9E72368802212015A60C7E70120A9
:103BB000EAE7C046FFFFFFF0FF7FFFFF0080000243
:103BC000F0B54123C35C202B20D12033C35C012BF3
:103BD0001ED0402401220255412524234355066866
:103BE000336893433360066833680A4F3B40336061
:103BF000066833680B43336001680B6813430B603E
:103C000020234355002303550020F0BD0220FCE78C
:103C10000220FAE7FFEFFFFFF0B54123C35C202B42
:103C20001ED12033C35C012B1CD04024012202553D
:103C3000412524234355066833689343336006685F
:103C40003368094F3B4009021943316001680B6832
:103C500013430B6020234355002303550020F0BD80
:103C60000220FCE70220FAE7FFF0FFFFF0B5D6469E
:103C70004F464646C0B582B0002333E0042600E03C
:103C80000026A64034003C43023292005C4E945120
:103C90005C4A1768EA433E00AE434C68E40301D532
:103CA0003E002E43574C266067683E0016404C6825
:103CB000A40301D53E002E43524C6660A7683E0027
:103CC00016404C68E40201D53E002E434D4CA660E0
:103CD000E66832404C68A40201D52A003243494CC0
:103CE000E26001330C682200DA4000D181E0012259
:103CF0009A40250015401442F3D04C68661E012EF0
:103D000003D9112C01D0122C11D186685F00032435
:103D1000BC40A643CC68BC403443846044689443B0
:103D20004E683609012232409A4022434260C468FC
:103D30005E000322B240D74394438A68B2402243D4
:103D4000C2604A68022A01D0122A19D1DA08083260
:103D5000920092461258904607241C40A2009146B9
:103D60000F224C46A240944642466446A2439046E7
:103D70000A694C46A240140042461443524614506D
:103D800004683C404F6803223A40B240224302603C
:103D90004A68D200A5D51C4CA66901221643A6612B
:103DA000A46922400192019A9A08941CA400144E1E
:103DB000A75903241C40A4000F26A640B743902611
:103DC000F605B04200D15BE7104EB0420BD0104E6A
:103DD000B0420AD00F4EB04209D00F4EB04200D1CF
:103DE0004CE705264DE701264BE7022649E7032667
:103DF00047E702B0E0BCBA46B146A846F0BDC046AF
:103E0000000001400004014000100240000400488E
:103E100000080048000C004800100048002A01D0AB
:103E2000816170478162FCE710B5054B5B69184200
:103E300000D110BD024B5861FCF77EFAF9E7C0468D
:103E40000004014070B5002811DB8308134DC03316
:103E50009B005C5903221040C000FC3216008640D3
:103E6000B44389010A40824022435A5170BD0F2356
:103E70000340083B9B0806339B00094A9446634471
:103E80005C6803221040C000FC3215008540AC4342
:103E900089010A40824022435A60E7E700E100E0DE
:103EA00000ED00E0002805DB1F2318401E3B834087
:103EB000014A13607047C04600E100E001388023EA
:103EC0005B0498420FD2094A50600948036A1B02FA
:103ED0001B0AC02109060B430362002393600733CA
:103EE0001360002070470120FCE7C04610E000E0AE
:103EF00000ED00E0704710B5002816D0AD239B0000
:103F0000C358002B03D0AD239B000024C4500029CC
:103F100002D0AC239B00C150A7239B000121C154B8
:103F20000270FDF723FA002010BD0220FCE70029F3
:103F300004D0AD239B00C150002070470220FCE755
:103F400010B5FDF755FA002010BD10B5AD239B004C
:103F5000C358002B06D01B689847002800D110BD1D
:103F60000220FCE70220FAE710B5AD239B00C358FE
:103F70005B689847002010BD70B50400AA239B0021
:103F8000C518280000F064F9A5239B000122E25027
:103F9000114BE25A163BE2501033E15C1F230B40F9
:103FA000012B0FD0022B12D0002B05D07F23994379
:103FB0002000FDF73BFA03E02900200000F022FB7F
:103FC000002070BD2900200000F052FBF8E7290016
:103FD000200000F080FBF3E7AE02000070B50500A2
:103FE0000C001100002C38D1A5239B00C358032BD3
:103FF00003D0052B28D020003DE002005532FF32CF
:10400000D368126993420DD99B1A5530FF30C360B3
:104010009A4205D99AB2280000F0AAFC20002AE0B2
:1040200092B2F8E7AD239B00C3581B69002B04D064
:10403000A7229200825C032A04D0280000F0A0FC92
:10404000200018E09847F8E7A5239B000022C25003
:104050000021FDF7EBF920000DE0AD239B00C358D4
:104060009B69002B08D0A7229200825C032A05D10D
:1040700021009847002070BD0220FCE70220FAE7EB
:10408000F8B505000C001100002C5BD1A5239B00A6
:10409000C358022B0ED0042B01D0002B03D180215A
:1040A0002800FDF7C3F9A8239B00EB5C012B43D04C
:1040B0002000F8BD026A466AB24220D8C7693100C2
:1040C0003800FCF739F8002906D1BE4204D8A623EF
:1040D0009B00EB589F421ED3AD239B00EB58DB683F
:1040E000002B04D0A7229200AA5C032A21D08021B1
:1040F0002800FDF79BF9280000F04EFCD3E7921B47
:10410000026292B200F01BFC002300220021280072
:10411000FDF7C9F9C7E70022280000F010FCA6232C
:104120009B000022EA50002300212800FDF7BBF984
:10413000B9E728009847DAE7A8239B000022EA5451
:104140002000B6E7AD239B00C3585B69002B08D065
:10415000A7229200825C032A05D121009847002003
:10416000A7E70220A5E70220A3E770B504004023DB
:1041700000220021FDF745F90125AC235B00E55045
:1041800040260C33E650253BFF3B002280212000D7
:10419000FDF737F9A5616662A7239B00E55400236C
:1041A000A5229200A35063601032A350AE239B005F
:1041B000E358002B06D0AD239B00E3585B68002139
:1041C00020009847002070BD017400207047000057
:1041D000A7239B00C15C034A81540422C2540020DF
:1041E0007047C0469D020000A7239B00C35C042BC0
:1041F00001D000207047024BC25C013BC254F8E77B
:104200009D02000010B5A7239B00C35C032B01D0C7
:10421000002010BDAD239B00C358DB69002BF7D0F5
:104220009847F5E70300002002E00130C0B20133F7
:104230001A78002AF9D1704710B54B88012B00D0AD
:1042400010BDA9239B000122C25000F099FBF7E7A3
:104250000B7803704B7843708B78CA7812029B18E6
:1042600043800B794A7912029B1883808B79CA7933
:1042700012029B18C380704710B504008021FDF71F
:10428000D5F800212000FDF7D1F810BD30B583B07E
:1042900005000C006B460022DA804A88130A072BBF
:1042A00000D9B6E09B006549CB589F46AC239B00E4
:1042B000C3581B68007C6A46911D98476B460633BD
:1042C0001B88002B03D0E288002A00D0A6E0E388F8
:1042D000002B00D1AEE003B030BD037C002B09D130
:1042E000AD239B00C3589B6A6A46901D98470223E2
:1042F0004370E3E7AD239B00C358DB6A6A46901D19
:10430000984702234370D9E7D2B2052A5DD89200BC
:104310004B4B9B589F46AC239B00C3585B68002BBC
:1043200004D0007C6A46911D9847C7E72100FFF73B
:10433000A3FFD0E7AC239B00C3589B68002B04D09D
:10434000007C6A46911D9847B8E72100FFF794FF6B
:10435000C1E7AC239B00C358DB68002B04D0007C72
:104360006A46911D9847A9E72100FFF785FFB2E74C
:10437000AC239B00C3581B69002B04D0007C6A4609
:10438000911D98479AE72100FFF776FFA3E7AC233A
:104390009B00C3585B69002B04D0007C6A46911DCA
:1043A00098478BE72100FFF767FF94E7AC239B005A
:1043B000C3589B69002B04D0007C6A46911D984726
:1043C0007CE72100FFF758FF85E72100FFF754FF46
:1043D00081E7037C002B07D1AD239B00C3585B6BA7
:1043E0006A46901D984769E72100FFF745FF72E78D
:1043F000037C002B09D1AD239B00C3581B6B6A467D
:10440000901D98470723437058E72100FFF734FFBA
:1044100061E721002800FFF72FFF5CE7191C93429A
:1044200000D9111C8AB26B46D9800100280000F027
:1044300078FA4CE7280000F0A3FA4CE7E44E0008B5
:10444000044F000870B504008B88002B23D1CB8863
:10445000002B20D14B887F2B1DD87F251D40A72303
:104460009B00C35C032B0ED00D4BC5542900FDF7F8
:1044700008F8200000F084FA002D07D0A7239B0045
:104480000222E2540AE0FFF7F7FE07E0A7239B00B1
:104490000122E25402E02000FFF7EEFE70BDC046AC
:1044A0009E02000070B504000D0089782A4B197037
:1044B00001290FD8A7239B00C35C022B0ED0032B2E
:1044C00023D02900FFF7D8FE234B19782000FFF7EF
:1044D0004BFD02E02900FFF7CFFE70BD002911D08F
:1044E0004160A7239B000322C254FFF72EFD022840
:1044F00003D0200000F044FAEFE729002000FFF786
:10450000BBFEEAE700F03CFAE7E7002911D0436878
:1045100099421ED0D9B2FFF727FD0F4B1978616081
:104520002000FFF712FD02280ED0200000F028FA2C
:10453000D3E7A7239B000222C2544160FFF714FD7A
:10454000200000F01DFAC8E729002000FFF794FEC4
:10455000C3E700F015FAC0E7C40B002010B5CB8804
:10456000012B0BD1A7239B00C35C022B09D9032B82
:1045700009D1011D012200F0D4F901E0FFF77CFE12
:1045800010BD002B02D1FFF777FEF9E7002383600F
:1045900001000831012200F0C4F9F1E710B5A723AA
:1045A0009B00C35C013B022B14D8CB88022B0ED19D
:1045B0000123C360A9239B00C358002B01D0032310
:1045C000C36001000C31022200F0ABF910BDFFF70F
:1045D00053FEFBE7FFF750FEF8E710B5A7239B005B
:1045E000C35C013B022B0AD84B88012B00D010BDC5
:1045F000A9239B000022C25000F0C2F9F7E7FFF7A1
:104600003BFEF4E710B50A7860231340202B06D058
:10461000402B04D0002B09D0FFF72EFE04E0AD2381
:104620009B00C3589B689847002010BD4B78092B0E
:1046300018D89B000D4AD3589F46FFF727FEF3E793
:10464000FFF700FFF0E7FFF72DFFEDE7FFF786FF2D
:10465000EAE7FFF7A3FFE7E7FFF7EEFDE4E7FFF781
:10466000BCFFE1E7FFF708FEDEE7C0461C4F00088D
:1046700070B505000C000A7860231340202B07D08A
:10468000402B05D0002B03D0FFF7F6FD002070BDB6
:10469000A7239B00EB5C013B022B17D82379012B4E
:1046A0000FD8AD239B00EB589B682100280098474A
:1046B000E388002BEAD10028E8D1280000F060F957
:1046C000E4E721002800FFF7D7FDDFE721002800FD
:1046D000FFF7D2FDDAE770B5050088880A790B7814
:1046E00060241C40202C08D0402C06D0002C0DD07B
:1046F0002800FFF7C1FD002406E0AD239B00EB5826
:104700009B68280098470024200070BD202C0AD008
:104710004E78012E3ED0032E0DD0002E64D02800FE
:10472000FFF7AAFDF0E7AD239B00EB589B6828003C
:1047300098470400E8E7A7239B00EB5C022B05D019
:10474000032B14D02800FFF797FDDDE7002A01D0E6
:10475000802A03D12800FFF78FFDD5E7110028003C
:10476000FCF764FE80212800FCF760FECCE74B8854
:10477000002B06D1002A04D0802A02D0CB88002B3F
:1047800003D0280000F0FCF8BEE711002800FCF779
:104790004DFEF6E7A7239B00EB5C022B05D0032B15
:1047A00014D02800FFF768FDAEE7002A01D0802A68
:1047B00003D12800FFF760FDA6E711002800FCF7F1
:1047C00035FE80212800FCF731FE9DE74B88002B49
:1047D0009AD1530603D1280000F0D2F894E71100D3
:1047E0002800FCF72CFEF6E7A7239B00EB5C022BCE
:1047F00006D0032B29D02800FFF73EFD340083E7C5
:10480000002A01D0802A12D1000615D47F2313403C
:104810009900C91889005131FF316918043100230A
:104820000B600222280000F07CF834006CE72800BE
:10483000FFF722FD340067E77F2313409900C91872
:104840008900103169180431E9E744B2000622D426
:104850000F20104083001B189B00EB185933FF33C7
:104860001B68002B25D0002C28DB7F2313409C00E5
:10487000E418A4005134FF342C190434002A01D068
:10488000802A24D10023236002222100280000F086
:1048900048F8340038E70F20104083001B189B00B5
:1048A000EB189B69002BDED12800FFF7E5FC3400F4
:1048B0002AE72800FFF7E0FC340025E77F231340B8
:1048C0009C00E418A40010342C190434D6E711001D
:1048D0002800FCF7BDFD002802D001232360D3E7A8
:1048E00000232360D0E770B504000D0016000028F7
:1048F00016D0FFF797FC013043009BB233802B703A
:1049000003236B70013B08E001345A1CD2B2E85417
:104910000233DBB2AA180021117020780028F3D1ED
:1049200070BD10B51300A522920002248450C3610B
:1049300003620A000021FCF7ADFD002010BD10B598
:1049400013000A000021FCF7A5FD002010BD10B5E2
:104950001300A522920003248450393AFF3A835071
:10496000043283500A000021FCF79DFD002010BD99
:1049700010B513000A000021FCF795FD002010BDC2
:1049800010B5A5239B000422C25000230022002161
:10499000FCF780FD002010BD10B5A5239B0005226B
:1049A000C250002300220021FCF77DFD002010BD35
:1049B000002070470020704710B50100044C200013
:1049C00000F0A8F9200000F0ACF9002010BDC046AE
:1049D000E801002010B50649064C0022200000F036
:1049E0008EF90549200000F095F9002010BDC04661
:1049F000B00F0020E8010020C80B002010B5AE2346
:104A00009B00C4580433C358002B0DD08022920061
:104A1000A05CFF2808D09B68044AA25C210098474C
:104A200080239B00FF22E254002010BD0102000001
:104A30004323038000487047A000002043230380E5
:104A400000487047E400002043230380004870477B
:104A5000340100200A230380004870472801002009
:104A600070B50400AE25AD004659FCF725FD832343
:104A70009B00F0506359002B0BD0AF239B00E358F1
:104A8000DB6883229200B118083AB058984700209A
:104A900070BD0220FCE770B504000D00AE239B0042
:104AA000C6580833C258002E21D08B005B189B00DB
:104AB000C318D869002808D08B005B18DB00D21817
:104AC000916BFBF739FB002905D085239B00002261
:104AD000F250002070BDAB005B199B00E318002270
:104AE000DA61002329002000FCF7D4FCF1E7022062
:104AF000F0E70000F0B583B005000C00AE239B008A
:104B0000C75800236A46D37101AA13800B7860222C
:104B100016001E401A422BD0202E5BD1CA88002AD4
:104B20001DD05BB2002B0DDAAF239B00C3589B68EE
:104B3000487839009847E28839002800FFF7F1FEED
:104B400000264AE04A7880239B00FA548A79244B55
:104B5000FA54CA883900FFF7FAFE00263DE0AF2379
:104B60009B00C3589B68487800229847002634E091
:104B70004F780A2F16D00B2F23D0002F03D0FFF72A
:104B80007BFB022629E0A7239B00C35C032B03D0F9
:104B9000FFF772FB022620E0022201A9FFF7C1FE07
:104BA0003E001AE0A7239B00C35C032B03D0FFF752
:104BB00063FB022611E001226B46D91DFFF7B1FE0F
:104BC0000BE0A7239B00C35C032B06D0FFF754FB2D
:104BD000022602E0FFF750FB0226300003B0F0BDD2
:104BE0000102000070B504008121FCF716FC0025CD
:104BF000E56201212000FCF710FCB6235B00E550C4
:104C000082212000FCF709FC2564AE239B00E358B9
:104C1000002B0BD0AF239B00E3585B689847AE2571
:104C2000AD006059FCF754FC00236351002070BDB7
:104C300070B50400037C002B3AD18026B600330007
:104C400002228121FCF7DDFB0125E562330002220F
:104C500001212000FCF7D5FBB6235B00E5500823BB
:104C6000032282212000FCF7CCFB01232364872050
:104C70008000FCF729FC0500AE239B00E0500028D3
:104C800032D00433E3581B689847002385229200F2
:104C9000AB500432AB50267C002E1AD18033143A2C
:104CA000AA589B0001212000FCF7FDFB300070BDDD
:104CB000402302228121FCF7A4FB0125E562402369
:104CC000022201212000FCF79CFBB6235B00E5508B
:104CD000C5E781239B00EA58C53BFF3B012120002B
:104CE000FCF7E1FB0026E1E70126DFE7002904D01D
:104CF000AF239B00C150002070470220FCE7AE2389
:104D00009B00C358822080001950842189005A508A
:104D100000207047AE239B00C258B43BD150002006
:104D2000704710B5AE239B00C258002A15D0037CF3
:104D3000002B09D180338121890052589B00012129
:104D4000FCF7B1FB002010BD81239B00D258C53B6E
:104D5000FF3B0121FCF7A7FBF4E70220F3E700008B
:104D60000D4885460D480E490E4A002302E0D458EE
:104D7000C4500433C4188C42F9D30B4A0B4C0023A3
:104D800001E013600432A242FBD3FFF7B3F800F056
:104D900011F8FCF7BBF9FEE70040002000000020FE
:104DA000780100204C4F0008780100209813002063
:104DB000FEE7000070B500260C4D0D4C641BA410DE
:104DC000A64209D1002600F021F80A4D0A4C641BC6
:104DD000A410A64205D170BDB300EB589847013628
:104DE000EEE7B300EB5898470136F2E7444F00086E
:104DF000444F0008444F0008484F00080300821841
:104E0000934200D1704719700133F9E7F8B5C046F5
:104E1000F8BC08BC9E467047F8B5C046F8BC08BC54
:044E20009E467047F3
:104E24005374617274696E6720493243205363611D
:104E34006E6E696E673A200D0A000000446F6E655D
:104E440021200D0A0D0A00006411000880110008D9
:104E54008A11000892110008981100089E11000898
:104E640053544D3332205669727475616C20436F0C
:104E74006D506F727400000053544D6963726F6516
:104E84006C656374726F6E696373000043444320FE
:104E9400436F6E666967000043444320496E74653E
:104EA40072666163650000000203040506070809D1
:104EB4000A0B0C0D0E0F1010000000000102030479
:104EC40005060708090A0B0C0D0E0F100000000060
:104ED40000000000000000000102030406070809A6
:104EE40012440008AC420008DA42000808430008F3
:104EF4001244000812440008D2430008F04300089A
:104F04001643000834430008524300087043000865
:104F14008E430008AC430008524600085E46000871
:104F240064460008584600086446000840460008E5
:104F34003A460008644600084C4600084646000805
:044F440079010008E7
:044F4800510100080B
:104F4C00D5140008E1140008991500087115000823
:104F5C005D150008B5150008DD15000812010002EA
:104F6C0002020040830440570002010203010000CA
:104F7C00040309041A0300000000000000000000F4
:104F8C000000000000000000000000000000010014
:104F9C000400000000127A00D5490008B14900084D
:104FAC00B5490008B9490008314C0008E54B000828
:104FBC00F54A000800000000FD490008974A000867
:104FCC00614A000800000000000000000000000022
:104FDC003D4A0008314A0008494A0008554A000871
:104FEC0009024300020100C0320904000001020260
:104FFC000100052400100105240100010424020213
:10500C0005240600010705820308001009040100AD
:10501C00020A00000007050102400000070581029A
:10502C004000000009024300020100C032090400E4
:10503C0000010202010005240010010524010001F9
:10504C00042402020524060001070582030800104F
:10505C0009040100020A0000000705010200020019
:10506C0007058102000200000A0600020000004051
:10507C000100000009074300020104C032090400CA
:10508C0000010202010005240010010524010001A9
:10509C0004240202052406000107058203080010FF
:1050AC0009040100020A000000070501024000008B
:0850BC0007058102400000001D
:0400000508004D6141
:00000001FF
