:020000040800F2
:10000000004000202D4A0008E5090008E709000823
:1000100000000000000000000000000000000000E0
:10002000000000000000000000000000E9090008D6
:100030000000000000000000EB090008ED090008C6
:100040007D4A00087D4A00087D4A00087D4A000874
:100050007D4A00087D4A00087D4A00087D4A000864
:100060007D4A00087D4A00087D4A00087D4A000854
:100070007D4A00087D4A00087D4A00087D4A000844
:100080007D4A00087D4A00087D4A00087D4A000834
:100090007D4A00087D4A00087D4A00087D4A000824
:1000A0007D4A00087D4A00087D4A00087D4A000814
:1000B0007D4A00087D4A00087D4A0008F5090008CD
:1000C0000023C25C0133002AFBD1581E7047000098
:1000D00003B47146490840004900095E49008E4456
:1000E00003BC7047002934D00123002210B4884299
:1000F0002CD301242407A14204D2814202D2090157
:100100001B01F8E7E400A14204D2814202D2490077
:100110005B00F8E7884201D3401A1A434C08A0421A
:1001200002D3001B5C0822438C08A04202D3001BB0
:100130009C082243CC08A04202D3001BDC082243C7
:10014000002803D01B0901D00909E3E7100010BC07
:10015000704701B5002000F00BF802BD0029F8D06F
:1001600003B5FFF7C1FF0EBC4243891A1847C046CA
:100170007047C0461C2101231B04984201D3000C88
:1001800010391B0A984201D3000A08391B0998420A
:1001900001D30009043902A2105C40187047C04620
:1001A0000403020201010101000000000000000040
:1001B00010B5064C2378002B07D1054B002B02D03D
:1001C000044800E000BF0123237010BDDC010020C3
:1001D0000000000024590008044B10B5002B03D088
:1001E0000349044800E000BF10BDC0460000000005
:1001F000E00100202459000810B504F0E1F810BD1A
:10020000F0B5CE46474680B589B01422002103A838
:1002100004F05AFC2E4B5A69802109030A435A61A3
:100220005A690A400092009A5A69802189020A4359
:100230005A615A690A400192019A5A698021C90299
:100240000A435A615B690B400293029BE02424023B
:10025000204B994600222100180003F0CEFA902688
:10026000F6050022FF21300003F0C7FA1A4B98462A
:100270001A4F00221900380003F0BFFA0394012539
:10028000049500240594069403A9484603F0D6F982
:10029000FF23039304950594069403A9300003F00B
:1002A000CDF94346039304950594069403A93800B9
:1002B00003F0C4F980239B0003930494059503A9DC
:1002C000300003F0BBF909B0C0BCB946B046F0BD80
:1002D00000100240000800483F1F000000040048D2
:1002E00010B50D4C0D4B23600D4B63600023A360D4
:1002F0000122E26023616361A361E3612362200064
:1003000002F03CFF0021200003F042F90021200010
:1003100003F06AF910BDC0460C02002000540040F2
:100320000E090020F0B5D6464F4680B589B04F4B38
:1003300005934F4B06934F4B0793052002F0B2FDF8
:100340004D4C210005A804F06AFB2078332804D026
:100350004A480D21FFF750FFFAE71421FFF74CFF41
:10036000012105A804F0E1FA012105A804F0A2FA90
:10037000002105A804F0BBFA032105A804F0F1FA56
:10038000002105A804F049FA04AC210005A804F0F6
:1003900015FB2378002B25D104AC210005A804F01F
:1003A0001BFA2378002BEFD0354C0023238021004B
:1003B00005A804F020FA0023E05E04F0FBF9314BBD
:1003C000186005F06DFA02000B002F492F4C200039
:1003D00004F082FB2000FFF773FE81B22000FFF7DC
:1003E0000BFFD1E72A4B062200211D00180004F064
:1003F0006BFB290005A804F0F0FA0023E85E04F086
:10040000D1F9244C20600223E85E04F0CBF960604F
:100410000423E85E04F0C6F98146A06020686368A2
:100420009A4605F03DFA06000F00184C484605F0C4
:1004300037FA02900391504605F032FA009001918C
:1004400032003B001449200004F046FB2000FFF777
:1004500037FE81B22000FFF7CFFE2D782000FFF796
:100460002FFE81B22800FFF7C7FE95E7C3040008FE
:100470009D0400080C020020440600203C5900089E
:100480000A02002058020020745900085C02002073
:1004900004020020F80100204C59000810B584B077
:1004A000802464422143C9B2FA24A4000294019337
:1004B000009201230A00182102F096FF002004B0E8
:1004C00010BD10B584B0802464422143C9B2FA241F
:1004D000A40002940193009201230A00182102F063
:1004E000B3FE002004B010BD10B598B03422002136
:1004F0000BA804F0E9FA1022002107A804F0E4FA9E
:100500001C220021684604F0DFFA22230B93213BD2
:100510000E9313930F330F930BA802F03BF80723AE
:100520000793043B0893002409940A94012107A827
:1005300002F01CFB044B009304940694684602F0FE
:10054000B7FB18B010BDC0462000020030B593B014
:1005500002F086FCFFF7C8FFFFF752FEFFF7C0FE70
:1005600000F02EF8124B11930AA9124B0A0031CB5E
:1005700031C213CB13C21B88138007AA0E4B11CBB9
:1005800011C211001A880A809B788B700023009397
:100590001522002101A804F097FA802190208900FB
:1005A000C00503F023F90028F7D1FFF7BBFEC046D2
:1005B000202D200090590008AC5900087047000019
:1005C00010B512491248002203F077F9002811D122
:1005D00010490F4803F08DF900280ED10E490C4840
:1005E00004F07EF800280BD1094803F08BF90028AD
:1005F00009D110BDFFF7E2FFEAE7FFF7DFFFEDE704
:10060000FFF7DCFFF0E7FFF7D9FFF2E7000000207B
:10061000480600206800002058000020022804D06E
:1006200005D8002800D0022070470120FCE70220F6
:10063000FAE710B5FFF758FF10BD000000B583B012
:1006400002680C4B9A4201D003B000BD0A4BDA6934
:10065000802109040A43DA61DB690B400193019BA5
:10066000002200211F2003F0CFF81F2003F0FCF828
:10067000EAE7C046005C00400010024010B50100EF
:10068000BC239B00C058403B9C46614403F056F994
:1006900010BD10B50300BC22920080588A00521889
:1006A000D2009B187D33FF331A6803F079F910BD2F
:1006B00010B50300BC22920080588A005218D20064
:1006C0009B18DA6B03F0BEF910BD10B5BC239B007C
:1006D000C05803F079FA10BD70B504008368022B8E
:1006E00009D1BC25AD006059012103F04FFA6059D2
:1006F00003F01DFA70BDFFF761FFF2E710B50400CB
:10070000BC239B00C05803F045FAA369002B04D01A
:10071000024A136906210B43136110BD00ED00E08E
:1007200010B504008369002B05D1BC239B00E05861
:1007300003F03CFA10BD044A136906218B43136190
:10074000FFF777FFF1E7C04600ED00E070B5040069
:100750001D48BC239B00C450303BE0501B4B036042
:1007600008234360063B8360036100238361C36108
:10077000036201F0A9F8002823D1B025AD0060592B
:1007800018230022002101F0D1FE605958230022D5
:10079000802101F0CBFE6059C0230022812101F0AD
:1007A000C5FE605988235B000022012101F0BEFED6
:1007B000605980235B000022822101F0B7FE0020F7
:1007C00070BDFFF7FBFED8E70C090020005C00407D
:1007D00010B5B0239B00C05801F0E8F8FFF71EFFEA
:1007E00010BD10B514001A00B0239B00C0582300A0
:1007F00001F052FDFFF712FF10BD10B5B0239B00B2
:10080000C05801F088FDFFF709FF10BD10B5B023F7
:100810009B00C05801F016FEFFF700FF10BD10B599
:10082000B0239B00C05801F044FEFFF7F7FE10BD57
:10083000B0239B00C3584AB2002A09DB7F22114033
:100840008A005218D2009B186B33FF331878704718
:100850007F22114001318A005218D2009B189878EB
:10086000F5E710B5B0239B00C05801F02BFCFFF753
:10087000D5FE10BD10B5B024A400005901F0B4FDA0
:10088000FFF7CCFE10BD10B5B024A400005901F054
:1008900076FDFFF7C3FE10BD10B5B0239B00C05816
:1008A00001F098FD10BD000000487047000C0020CA
:1008B0007047000012230B80004870471C00002086
:1008C00004230B80004870473000002030B500231F
:1008D0000AE05D0037344C5500015C0001340C190E
:1008E000002525700133DBB2934206D2040F092C98
:1008F000EFD85D0030344C55EEE730BD70B50B4B92
:1009000018680B4B1D680B4B1B68C018002800D1E2
:1009100070BD094CA11C0822FFF7D8FF210012313D
:1009200004222800FFF7D2FFF2E7C046ACF7FF1F12
:10093000B0F7FF1FB4F7FF1F3400002010B51A23D3
:100940000B80FFF7DBFF014810BDC04634000020DC
:1009500010B50A00002805D10549064803F0A5FC9A
:10096000034810BD0249034803F09FFCF8E7C04666
:10097000200E0020B859000810B50A00034C0448A6
:10098000210003F092FC200010BDC046200E002084
:10099000D059000810B50A00002805D105490648BD
:1009A00003F083FC034810BD0249034803F07DFCBB
:1009B000F8E7C046200E0020E459000810B50A00F0
:1009C000002805D10549064803F06FFC034810BD17
:1009D0000249034803F069FCF8E7C046200E0020F6
:1009E000F05900087047FEE77047704710B502F0F5
:1009F00047FA10BD10B5024801F07AFB10BDC046A1
:100A00000C09002082B00A4B9969012211439961B7
:100A100099690A400092009ADA69802149050A43DF
:100A2000DA61DB690B400193019B02B07047C0465D
:100A30000010024010B588B004001422002103A861
:100A400004F042F82268134B9A4201D008B010BD5E
:100A5000114C63698022D2021343636163691340BE
:100A60000193019BC0230393AE3B0493113B059379
:100A700003220692079303A9084802F0DFFDE36909
:100A8000802292031343E361E36913400293029BC4
:100A9000DCE7C0460054004000100240000400485B
:100AA00044230022C252043B014AC2520020704734
:100AB00080BFFFFF4022835A02490B40835200202F
:100AC0007047C0467F40000084B0019102920393BA
:100AD00040220123835200238352043283520C327A
:100AE0008352002004B07047F0B503000D78AD00CC
:100AF00045192A88AA480240C878022859D00AD83D
:100B0000002852D0012804D18020C00002430020D8
:100B100009E0012007E0032804D1C020C0000243FF
:100B2000002000E001209F4C224392B22A800A78E4
:100B300096009E1935882DB29B4F3D402A4392B2B4
:100B40001443A4B234800A7B002A00D08FE04A7894
:100B5000002A3BD050229C5A1C190A78D200121944
:100B60008024E400A4466244CC88640864001480B5
:100B70000A7892009A181488640605D515883D40B5
:100B80008A4C2C43A4B21480CA78012A13D00A7864
:100B900092009A18138886490B4020214B409BB243
:100BA00080490B439BB213804BE08024A400224376
:100BB000B9E70020B7E70A7892009B1819887C4AA9
:100BC0001140784A0A4392B21A803AE050255C5BA1
:100BD0001C190A78D2001219764CA4466244CC88BB
:100BE0006408640014805C5B1C190A78D200121936
:100BF000714CA44662440C69002C23D114886F4DBB
:100C00002C40148014886E4D2C43A4B214800A78B2
:100C100092009A181488640406D51588624C254001
:100C2000684C2C43A4B214800A7892009B181A884E
:100C300065490A40C021890151405A4A0A4392B28B
:100C40001A80F0BD3E2C07D86508E40700D50135B1
:100C5000AD02ADB21580DAE76509E40600D1013DC9
:100C6000AD02ADB2564C2C43A4B21480CFE70A7843
:100C700092009A1815884C4C2540544C2C43A4B231
:100C8000148050255C5B1C190A78D200121980244C
:100C9000E400A44662440C896408640014805C5B30
:100CA0001C190A78D2001219424CA44662444C899D
:100CB0006408640014804A78002A30D10A789200CF
:100CC0009A181488640406D51588374C25403D4C85
:100CD0002C43A4B214800A7892009A1814886406EF
:100CE00006D51588304C2540304C2C43A4B21480D6
:100CF0000C78A4001C192588334A1540C0229201A3
:100D00006A40284D2A4392B222800A7892009B18AA
:100D10001A8827490A402A4392B21A8091E70A7832
:100D200092009A181488640406D515881E4C254034
:100D3000244C2C43A4B214800A7892009A18148888
:100D4000640606D51588184C2540184C2C43A4B2CF
:100D50001480CA78012A17D00C78A4001C192288A4
:100D6000134D2A4020256A4092B20E4D2A4392B27A
:100D700022800A7892009B181988134A1140094A68
:100D80000A4392B21A805CE70A7892009A18158892
:100D9000074C2540034C2C43A4B21480E9E7C0461D
:100DA0008F89FFFF8080FFFF8F8FFFFFC080FFFFD5
:100DB000BF8FFFFF0404000006040000FF83FFFF55
:100DC0000080FFFF80C0FFFF8FBFFFFF8081FFFF1C
:100DD00010B50B7B002B33D14B78002B18D00B7840
:100DE0009B00C3181A88520606D51C884E4A144028
:100DF0004E4A224392B21A800B789B00C31819887E
:100E00004B4A11404B4A0A4392B21A80002010BD4F
:100E10000B789B00C3181A88520406D51C88424AD6
:100E20001440454A224392B21A800B789B00C318A3
:100E30001988424A11403F4A0A4392B21A80E5E7B4
:100E40004B78002B37D10B789B00C3181A885204BB
:100E500006D51C88344A1440374A224392B21A807D
:100E60000B789B00C3181A88520606D51C882E4A98
:100E700014402E4A224392B21A800B789B00C3186A
:100E80001C88294A1440294A224392B21A800C78BD
:100E9000A40004192388294A1340264A13439BB20D
:100EA00023800B789B00C3181988214801400A430E
:100EB00092B21A80AAE70B789B00C3181A885204D2
:100EC00006D51C88184A14401B4A224392B21A8045
:100ED0000B789B00C3181A88520606D51C88124A44
:100EE0001440124A224392B21A800B789B00C31816
:100EF0001C880D4A1440104A224392B21A800C7882
:100F0000A400041923880A4A13400A4A13439BB2D7
:100F100023800B789B00C018038808490B401A43B4
:100F200092B2028072E7C0468F8FFFFFC080FFFF42
:100F3000BF8FFFFF8080FFFF80C0FFFF8FBFFFFFDD
:100F40004B78002B0ED00B789B00C01803880C4AFE
:100F50001340102253409BB20A4A13439BB20380B2
:100F6000002070470B789B00C0180388064A134086
:100F7000802252015A40034B13439BB20380EFE798
:100F8000BF8FFFFF8080FFFF8FBFFFFF10B50B7B80
:100F9000002B3AD14B78002B1DD00B789B00C31847
:100FA0001A88520606D51C88194A1440194A224349
:100FB00092B21A80CB78012B27D00A78920082183F
:100FC000138815490B4020214B409BB213490B431A
:100FD0009BB2138019E00B789B00C3181A88520447
:100FE00006D51C880A4A14400D4A224392B21A8040
:100FF0000B789B00C01803880A4A1340C022920154
:101000005A40064B13439BB20380002010BDC046DC
:101010008F8FFFFFC080FFFFBF8FFFFF8080FFFF2C
:1010200080C0FFFF8FBFFFFF002902D14C23802229
:10103000C2520020704700005822835A02490B43D5
:101040009BB28352002070470080FFFF4423C05AA8
:1010500080B2704710B501335B0812188020C000C1
:101060008446624407E008784C78240204431480E4
:1010700002320231013B002BF5D110BD70B50500E5
:101080000C004A78012A2ED00B7B002B00D067E29F
:101090008B690A69934200D849E29B1A8B615023FD
:1010A000E95A69182378DB005B18B9498C46634418
:1010B000002A00D03FE21A88B6490A401A801A88EE
:1010C000B5490A4392B21A8023789B00ED182B8809
:1010D000B24A1340C02292015A40B14B13439BB213
:1010E0002B80002070BD8E6909698E4200D90E00E8
:1010F000237B002B21D0E378022B3ED0237899006C
:1011000069180988490600D4CCE1002A00D0ABE177
:101110005032AA5AAA18DB009B189D4A9446634491
:10112000002E00D08BE11A889A490A401A801A884A
:1011300099490A4392B21A80A0E1B6B2E288616985
:1011400033002800FFF786FF5023EA5AAA182378B5
:10115000DB009B18934A944663441E8022789200D9
:10116000AA18138890490B4030214B409BB28C4900
:101170000B439BB213800020B4E7236A994200D34B
:1011800042E123789B00EB181988884A1140884A6D
:101190000A4392B21A80236A9B1B236223789A0027
:1011A000AA181288520600D48DE06278002A28D14D
:1011B0005032AA5AAA18DB009B18754A9446634419
:1011C000002E09D11A8873490A401A801A88724978
:1011D0000A4392B21A8016E03E2E07D87208F10731
:1011E00000D50132920292B21A800CE07209F10627
:1011F00000D1013A920292B267490A4392B21A8030
:1012000001E0012A26D06289B3B261692800FFF7A4
:1012100021FF63699B196361236A2269934224D980
:101220009B1B23626378002B38D15033EA5AAA18EB
:101230002378DB009B185B4A94466344002E18D148
:101240001A8854490A401A801A8853490A4392B2AC
:101250001A8025E04F32AA5AAA18DB009B184C4A84
:1012600094466344B2B21A80CDE7002222621E0087
:10127000D8E73E2E07D87208F10700D50132920256
:1012800092B21A800CE07209F10600D1013A920282
:1012900092B241490A4392B21A8001E0012B06D072
:1012A0002289B3B261692800FFF7D4FE56E74F33B5
:1012B000EA5AAA182378DB009B183A4A94466344FA
:1012C000B2B21A80ECE76278002A28D15032AA5ACA
:1012D000AA18DB009B18334A94466344002E09D1B8
:1012E0001A882C490A401A801A882B490A4392B25C
:1012F0001A8016E03E2E07D87208F10700D5013299
:10130000920292B21A800CE07209F10600D1013A01
:10131000920292B220490A4392B21A8001E0012A55
:1013200026D02289B3B261692800FFF793FE636972
:101330009B196361236A2269934224D99B1B236210
:101340006378002B4BD15033EA5AAA182378DB007C
:101350009B180F4A94466344002E2BD11A880D49DE
:101360000A401A801A880C490A4392B21A8038E05F
:101370004F32AA5AAA18DB009B180A4A94466344C3
:10138000B2B21A80CDE7002222621E00D8E7C04622
:1013900006040000FF83FFFF0080FFFF8FBFFFFFF9
:1013A0008080FFFF02040000BF8FFFFF8F8FFFFFD1
:1013B0008081FFFF3E2E07D87208F10700D5013269
:1013C000920292B21A800CE07209F10600D1013A41
:1013D000920292B2C3490A4392B21A8001E0012BF1
:1013E00006D06289B3B261692800FFF733FEB5E623
:1013F0004F33EA5AAA182378DB009B18BA4A94465E
:101400006344B2B21A80ECE722789200AA181088DE
:10141000B6490840B649014389B211805022A95A01
:1014200069182278D2005218B2498C4662449BB2A5
:101430001380228961692800FFF70CFE8EE63E2E9C
:1014400007D87208F10700D50132920292B21A80D1
:1014500014E07209F10600D1013A920292B2A14958
:101460000A4392B21A8009E05022AA5AAA18DB0055
:101470009B189D4A94466344B2B21A806289B3B203
:1014800061692800FFF7E6FD6378002B41D12378DE
:101490009B00EB181988984A1140984A0A4392B267
:1014A0001A805BE6002A28D15032AA5AAA18DB001B
:1014B0009B18904A94466344002E09D11A8890499B
:1014C0000A401A801A8887490A4392B21A801EE09D
:1014D0003E2E07D87208F10700D50132920292B26F
:1014E0001A8014E07209F10600D1013A920292B218
:1014F0007C490A4392B21A8009E05022AA5AAA18DB
:10150000DB009B187B4A94466344B2B21A8022895E
:10151000B5E7012B00D021E623789B00EB18198852
:10152000754A1140774A0A4392B21A8016E60022A1
:101530008A611A00B3E53E2A07D85108D20700D5C0
:101540000131890289B21980BEE55109D20600D164
:101550000139890289B2634A0A4392B21A80B3E51B
:10156000CB78022B3AD0012B00D008E1896923699E
:10157000994200D8B1E0C91AA161002A14D15032B1
:10158000A95A69182278D20052185A498C466244E6
:10159000002B00D0BAE01188594801401180118811
:1015A0005048014389B211806278002A00D0D7E008
:1015B0005032A95A69182278D20052184A498C46EA
:1015C0006244002B00D0B6E013884D490B401380D5
:1015D000138844490B439BB2138075E5002A14D14C
:1015E0004E33C25A82180B78DB009B18414A94464E
:1015F00063440A69002A21D11A8841490A401A80A5
:101600001A8838490A4392B21A806378002B3FD176
:101610005033EA5AAA182378DB009B18324A9446C2
:1016200063442269002A1ED11A8835490A401A806B
:101630001A882C490A4392B21A802BE03E2A07D816
:101640005108D20700D50131890289B21980DCE73F
:101650005109D20600D10139890289B2214A0A43CF
:1016600092B21A80D1E73E2A07D85108D20700D596
:101670000131890289B219800CE05109D20600D1EA
:101680000139890289B2174A0A4392B21A8001E0ED
:10169000012B16D0E369002B00D115E523789B00C0
:1016A000EB181A8818490A408A4202D0002A00D052
:1016B0000AE51988104A1140104A0A4392B21A806A
:1016C00002E54F33EA5AAA182378DB009B18064A32
:1016D00094466344228A1A80DCE70023A3610B004E
:1016E0004BE7C0460080FFFF060400008F8EFFFF1F
:1016F0008080FFFF020400008F8FFFFFC080FFFF8C
:10170000FF83FFFF80C0FFFF404000003E2B07D853
:101710005908D80700D50131890289B2118043E701
:101720005909D80600D10139890289B21548014307
:1017300089B2118038E73E2B07D85908DB0700D55E
:101740000131890289B21180BEE45909DB0600D15A
:101750000139890289B20B4B0B439BB21380B3E46E
:10176000012A00D0B0E44F32A95A69182278D20079
:10177000521805498C4662449BB21380A4E40120B0
:10178000B0E4C0460080FFFF0604000030B55D08ED
:1017900012188020C0008446624406E01488023299
:1017A0000C70240A4C700231013D002DF6D1DB078C
:1017B00001D513880B7030BD70B553043CD5046857
:1017C0005023E35A0D78EE009B191B19384CA446A0
:1017D00063441C88A405A40D8B69A34222D31B1B60
:1017E0008B618B69002B0CD10368AD005D192B88D0
:1017F000304E33408026B6015E402F4B33439BB2C0
:101800002B8052060AD502680B789B00D2181588E7
:101810002A4B1D402A4B2B439BB21380002C04D132
:10182000200070BD00238B61DBE700680A894969ED
:101830002300FFF7ABFFF3E704685023E35A0D786A
:10184000EE009B191B191F4CA44663441C88A40579
:10185000A40D8B69A34227D31B1B8B618B69002BC3
:101860000CD10368AD005D192B88124E33408026E1
:10187000B6015E40104B33439BB22B8052060AD414
:1018800002680B789B00D21815880C4B1D400C4B3E
:101890002B439BB21380002CC2D000684A8949694F
:1018A0002300FFF773FFBBE700238B61D6E7C04639
:1018B000020400008FBFFFFF8080FFFF8F8FFFFFBC
:1018C000C080FFFF0604000070B586B0041E69D01A
:1018D000354BC35C002B07D0334B0322E254206806
:1018E000FFF7E8F800211EE0AA239B000022C25463
:1018F000FEF7A4FEF0E74D1CAB005A19D200A21867
:10190000012050705A19D20011558A005018C00099
:101910002018C1865B19DB00E3180026DE708663A1
:10192000C6630664E9B260688142E4D3002119E02D
:101930008A005318DB00E3181E006A36FF360025C4
:101940003570013E3170033635700D3635607D33AC
:10195000FF331D605218D200A2188132FF32156089
:101960000131C9B28842E3D82068230010336A46A7
:1019700062CB62C222CB22C26168A268E368FFF731
:10198000A3F824230022E254074B0132E254E36916
:10199000012B02D0002006B070BD200000F0E3FD56
:1019A0000020F8E70120F6E7A902000070B5040066
:1019B000AA239B00C35C012B0DD0AA25AD000123F7
:1019C00043550068FFF76CF82068FFF735FB0023EC
:1019D0006355002070BD0220FCE7000070B50500D3
:1019E0000C001600530600D4A4E002685023D35A1A
:1019F0000978C8001B189B18994A944663441A88B2
:101A00009205920DA369934224D99B1AA361A369FD
:101A1000002B22D0760409D52B6889005918088834
:101A2000904B1840904B03439BB20B802423E35C04
:101A3000012B23D0296823789B00C9180B888B4A77
:101A40001340302253409BB2894A13439BB20B8010
:101A5000002070BD0023A361D9E72800FEF728FE0F
:101A60007604E7D52A6823789B00D21811887D4B2D
:101A700019407D4B0B439BB21380DBE763699B18D6
:101A80006361E3699B18E361216A236999421AD370
:101A9000C91A21626278002A36D12A685021515A27
:101AA00051182278D20052186D498C466244002B9E
:101AB00015D111886F480140118011886E4801438B
:101AC00089B2118022E0002903D12423E1541300BC
:101AD000E0E700232422A35423620B00DAE73E2B25
:101AE00007D85908D80700D50131890289B2118079
:101AF0000CE05909D80600D10139890289B25E4843
:101B0000014389B2118001E0012A06D028689BB206
:101B100022896169FFF79EFA8CE72A685021515AA1
:101B200051182278D20052184D498C46624499B21D
:101B30001180EBE702685023D35A0978C8001B18BC
:101B40009B184E4A944663441A889205920DA369E5
:101B500093423AD39B1AA361A369002B38D0760431
:101B600009D42B688900591808883E4B18403E4B11
:101B700003439BB20B802423E35C012B00D059E785
:101B800063699B186361E3699B18E361216A2369B8
:101B900099422FD3C91A21622A68617800294AD153
:101BA0005031515A52182178C900521833498C4685
:101BB0006244002B2AD111882E48014011801188DF
:101BC0002D48014389B2118037E00023A361C3E7A8
:101BD0002800FEF76DFD760400D52BE72A682378F0
:101BE0009B00D21811881F4B19401F4B0B439BB20F
:101BF00013801FE7002903D12423E1541300CBE70E
:101C0000002323622422A3540B00C5E73E2B07D8F0
:101C10005908D80700D50131890289B211800CE03A
:101C20005909D80600D10139890289B21248014305
:101C300089B2118001E0012906D028689BB262892F
:101C40006169FFF707FAF5E64F31515A52182178CA
:101C5000C900521809498C46624499B21180ECE7D8
:101C6000020400008F8FFFFF80C0FFFFBF8FFFFFC8
:101C70008080FFFFFF83FFFF0080FFFF060400005E
:101C8000F8B5CE46474680B5040020684423C35AC1
:101C90001BB2002B00DB0EE24423C35A99B20F2281
:101CA0001D001540134200D0C1E0C90654D5038879
:101CB0009AB21B0500D581E012B2002AE5DA03884A
:101CC000D34A1340802213439BB2038020685023E1
:101CD000C35AB4225200A25CD2009B181B18CD4AF2
:101CE000944663441B889B059B0D22006932FF329A
:101CF000D361002B0ED0516900290BD01500D2887A
:101D0000FFF744FDEA696B699B186B6100212000B5
:101D1000FEF7BFFC236850229A5A9B18BD4A94468E
:101D2000634422006932FF321269002A6AD11A889C
:101D3000B9490A401A801A88B8490A4392B21A80EF
:101D400021680B88B64A1340C02292015A40B54B15
:101D500013439BB20B8098E70288B34B1A40AF4BFA
:101D600013439BB2038021685023CB5A2822A25CE4
:101D7000D2009B185B18AD4A944663441B889B05B0
:101D80009B0D6364E26BD318E36300212000FEF730
:101D90008FFC2423E35C002B00D176E7236C002B1F
:101DA00000D072E72422A35C2068802149420B43C3
:101DB000DBB2CC3143520023A35466E75023C35A0D
:101DC000B4225200A25CD2009B181B18914A944680
:101DD00063441B889B059B0D22006932FF32D3614F
:101DE000AC2189006118D288FFF7D0FC22681388E3
:101DF00087490B4080210B439BB213802000FEF7E4
:101E00003DFC42E73E2A07D85108D20700D50131F0
:101E1000890289B2198093E75109D20600D10139AC
:101E2000890289B27D4A0A4392B21A8088E7AE00DD
:101E3000801903889FB21BB2002B42DB3B0600D403
:101E400023E76B1C9C469B0062469918C9006118E9
:101E5000206880190688744A1640704A324392B24C
:101E60000280CB78022B00D109E120685023C35AAD
:101E70006E1CB2009219D200165DF2009B181B185E
:101E80006A4A944663441A889205920DAB005B1926
:101E9000DB00E3181F6C974200D8F8E0AB005B1939
:101EA000DB00E318BF1A1F64AB005B19DB00E3180B
:101EB0001B6C002B00D0F1E031002000FEF7F8FB96
:101EC000E3E60388524A1340802213439BB2038007
:101ED0007219D2006932FF329046A0447319DB00B8
:101EE000E3187533FF331B78002B4BD12068503338
:101EF000C25A7319DB00E3186933FF331B78DB0028
:101F0000D3181B18434A944663441B889B059A0DBB
:101F10009146002B28D14946AA005219D200A21896
:101F200010008530FF3003684B44036008380368B5
:101F30004B4403608132FF321368002B09D0AB00A1
:101F40005B19DB00E3187933FF331B68994200D338
:101F500090E0AB005B19DB00E3186933FF331978BD
:101F60002000FEF796FB69E77319DB00E3181A00FF
:101F70006F32FF3212887D33FF3319684B46FFF70B
:101F800005FCC8E7AB005B19DB00E3186C33FF33DB
:101F90001B78022B34D02168AB005B19DB00E318FF
:101FA0006933FF331A78920089180888204A104054
:101FB000204A024392B20A8020681B789A00821855
:101FC0001288520438D55022825ADB00D3181B18CD
:101FD000164A944663441B889B059A0D9146002B34
:101FE00099D0AB005B19DB00E3181A007132FF32A5
:101FF00012887D33FF3319684B46FFF7C7FB8AE72A
:102000003A0041462000FFF7D7FB814683E7C046F0
:102010008F0F000006040000FF83FFFF0080FFFF1A
:102020008FBFFFFF8080FFFF0F8FFFFF02040000C4
:102030008F8FFFFFC080FFFF5022825ADB00D31832
:102040001B181F4A944663441B889B059A0D9146B2
:10205000002B00D15FE7AB005B19DB00E3181A002F
:102060007332FF3212887D33FF3319684B46FFF716
:102070008DFB50E720684146FFF700F8DEE6FB05E0
:1020800000D4F2E63A002000FFF7A8FCFDE5AB0023
:102090005B19DB00E31800271F6405E7AB005E193E
:1020A000F600A619F76BBF18F763736C9B1873647F
:1020B000FEF7E4FFE9E50020C0BCB946B046F8BD34
:1020C0000604000070B50400AA239B00C35C012B2A
:1020D0000CD0AA25AD00012343552333C154006819
:1020E000FEF7A2FF00236355002070BD0220FCE72D
:1020F00070B504000068FEF7A9FF000400D57DE07C
:102100002068FEF7A3FF400500D57BE02068FEF7BE
:102110009DFF400405D5216844228B5A574803404F
:102120008B522068FEF792FF800405D52168442277
:102130008B5A534803408B522068FEF787FFC00438
:1021400018D521684023CA5A04208243CA52216804
:10215000CA5A04308243CA52B8239B00E35C012B65
:102160005ED02000FEF7DCFA216844228B5A4548F5
:1021700003408B522068FEF769FF000559D42068A0
:10218000FEF764FF000628D5216844228B5A802080
:1021900083438B52B8239B00E35C002B60D1216802
:1021A000043A8B5A042003439BB28B5221688B5A0A
:1021B000082003439BB28B52B8239B003F3AE25462
:1021C00022685423D25A9208183B1340B922920035
:1021D000A3500121200000F0DBF92068FEF736FF54
:1021E000800541D42068FEF731FFC00505D5216880
:1021F00044228B5A244803408B5270BD2000FFF7C5
:102200003FFD7DE7216844228B5A204803408B52D2
:102210002000FEF761FA00212000FFF753FF75E769
:10222000B8239B000022E2540021200000F0B0F906
:1022300097E7216840228B5A082003439BB28B52B8
:1022400020684421435A124D2B40435221688B5A37
:10225000042003439BB28B522000FEF74FFA8EE717
:102260002000FEF74BFAB8E7216844228B5A094850
:1022700003408B522000FEF728FAB3E7FFBFFFFFB1
:10228000FFDFFFFFFFEFFFFFFFFEFFFFFFFBFFFF93
:10229000FFF7FFFFFFFDFFFF70B504000D0049B21F
:1022A000002929DB07262E40B0008119C9006931B9
:1022B000FF3161188019C00020186A30FF300026F5
:1022C00006700720284008700A61CB704A78002AFF
:1022D00000D0C881022B19D0AA239B00E35C012BFC
:1022E00017D0AA25AD00012363552068FEF7FCFB3B
:1022F00000236355002070BD07262E400136B00034
:102300008119C900611801264E70DAE700230B71AC
:10231000E2E70220EFE770B504000A004BB2002BA1
:1023200021DB0720084083001918C9006931FF31FB
:1023300061181B18DB00E3186A33FF3300201870A4
:10234000072313400B70AA239B00E35C012B14D0DE
:10235000AA25AD00012363552068FEF739FD00234F
:102360006355002070BD0720084001308300191814
:10237000C900611801204870E2E70220F2E7F8B5D1
:1023800007260E40B400A119C9006931FF31411878
:10239000A519ED0045192F007D37FF373A602A0057
:1023A0008132FF3213600432002313606A35FF3537
:1023B0002B70A419E40004196934FF342670002E30
:1023C00004D10068FEF75AFE0020F8BD0068FEF751
:1023D00055FEF9E707230B409900C918C9004018BA
:1023E0008530FF3000687047F0B5C64600B5072558
:1023F0000D406F1CBE00F119C90088468044AC0036
:102400006419E4000419E26323644C229446A44452
:102410004B3A61460A70A3640023636443465A70D2
:10242000F619F6003554002D07D100684146FEF735
:1024300025FE002080BCB846F0BD00684146FEF78E
:102440001DFEF6E770B504000B0007220A40416844
:102450008A422AD859B200291FDB9800C118C90046
:102460006931FF316118C018C00020186A30FF3090
:102470000023037001238B700A70AA239B00E35C86
:10248000012B14D0AA25AD00012363552068FEF767
:1024900057FD00236355002070BD501C83001918A0
:1024A000C900611801204870E4E70120F4E7022028
:1024B000F2E770B504000B000F220A4041688A421F
:1024C00030D85AB2002A23DB0720184082001118A6
:1024D000C9006931FF3161181218D200A2186A329E
:1024E000FF320020107000228A70073213400B70F8
:1024F000AA239B00E35C012B16D0AA25AD00012383
:1025000063552068FEF742FD00236355002070BD2F
:1025100007201840013082001118C90061180120FD
:102520004870E0E70120F2E70220F0E710B50C0662
:102530000CD50724214001318C006118C9004018D6
:10254000002A0AD10273C380002010BD8C006118DC
:10255000C9006931FF314018F2E70122027303819B
:102560001B0C4381F0E70168BA239B000122C25093
:10257000083B0022C25454328B5A012003439BB2C1
:102580008B528B5A022003439BB28B520020704720
:102590007047000070B582B0041E00D17FE203686E
:1025A000DB072BD5B34B5A680C231340042B1DD0EB
:1025B000B04B5A680C231340082B0ED06368012BD4
:1025C00041D0002B56D1AB4B1A68AB490A401A6078
:1025D0001A68AA490A401A603BE0A64B5B68C02211
:1025E00052021340802252029342E7D1A14B1B6852
:1025F0009B0303D56368002B00D153E223689B073C
:1026000077D59C4B5B680C221A4262D0994B5A6872
:102610000C231340082B53D0E368002B00D18AE031
:10262000944A136801210B43136000F035FC050048
:10263000904B1B689B0775D400F02EFC401B0228B2
:10264000F6D903202CE28B4A116880235B020B43EE
:1026500013606368002B25D000F01EFC0500854B3D
:102660001B689B03CAD400F017FC401B6428F6D9F2
:10267000032015E2052B09D07E4B1A687E490A40DB
:102680001A601A687D490A401A60E2E7794B1968B6
:102690008022D2020A431A601968802252020A4339
:1026A0001A60D6E700F0F8FB0500724B1B689B032D
:1026B000A4D500F0F1FB401B6428F6D90320EFE11C
:1026C0006C4B5B68C022520213408022120293427C
:1026D000A2D1684B1B689B0703D5E368012B00D090
:1026E000E2E164490B68F82293432269D200134364
:1026F0000B6023681B0744D5E369002B2ED05D4A8D
:10270000536A01210B43536200F0C6FB0500594B8D
:102710005B6A9B0735D400F0BFFB401B0228F6D94B
:102720000320BDE153490B68F82293432269D2008C
:1027300013430B60DDE74F4A136801218B4313609D
:1027400000F0AAFB05004B4B1B689B07D1D500F09E
:10275000A3FB401B0228F6D90320A1E1454A536A96
:1027600001218B43536200F097FB0500414B5B6AEC
:102770009B0706D500F090FB401B0228F6D90320EA
:102780008EE123685B0700D480E03A4BDB69DB0015
:102790001DD4384BDA69802149050A43DA61DB69C7
:1027A0000B400193019B0125354B1B68DB0510D5C0
:1027B000A368012B21D0002B36D12E4B1A6A0121A0
:1027C0008A431A621A6A03318A431A621AE00025A0
:1027D000EAE72B4A116880235B000B43136000F08B
:1027E0005BFB0600264B1B68DB05E1D400F054FBC5
:1027F000801B6428F6D9032052E11E4A136A012186
:102800000B431362A368002B24D000F045FB0600A5
:10281000184B1B6A9B0737D400F03EFB801B194BFB
:102820009842F5D903203BE1052B09D0114B1A6AD8
:1028300001218A431A621A6A03318A431A62E1E764
:102840000C4B1A6A04210A431A621A6A03390A43B2
:102850001A62D7E700F020FB0600064B1B6A9B07B5
:1028600012D500F019FB801B064B9842F5D90320C6
:1028700016E1C04600100240FFFFFEFFFFFFFBFF16
:102880000070004088130000012D39D02368DB065A
:1028900010D56369012B39D0053357D1894A536B61
:1028A00004218B435363536BF4318B43A169C900FB
:1028B0000B43536323689B066ED5824B5A680C23E7
:1028C00013400C2B60D07F4B5A680C231340082B0D
:1028D00053D0236A002B7ED07A4A516B80235B024F
:1028E0000B43536300F0D8FA0500764B5B6BDB03B8
:1028F00052D400F0D1FA401B0228F6D90320CFE0D1
:10290000704AD36970490B40D361BFE76D4B5A6B76
:1029100004210A435A635A6B03390A435A6300F08D
:10292000BBFA0500674B5B6B9B0706D400F0B4FA5B
:10293000401B0228F6D90320B2E062494B6BF82213
:102940009343A269D20013434B63B3E75D4B5A6BC9
:1029500004210A435A635A6B03398A435A6300F0CD
:102960009BFA0500574B5B6B9B07A3D500F094FACD
:10297000401B0228F6D9032092E0524B5B68C0222C
:10298000520213409342A4D14E4B5B6BDB0303D541
:10299000236A012B00D089E0636A002B00D187E015
:1029A000484A51680C220A40082A60D0022B25D0E0
:1029B000444A136845490B40136000F06DFA040067
:1029C000404B1B689B0150D500F066FA001B0228A3
:1029D000F6D9032064E03B4A536B3D490B405363F7
:1029E00000F05AFA0500374B5B6BDB03D4D500F0DF
:1029F00053FA401B0228F6D9032051E0314A1368EC
:102A000032490B40136000F047FA05002D4B1B685C
:102A10009B0106D500F040FA401B0228F6D903209E
:102A20003EE0284BDA6A0F218A43216B0A43DA62BF
:102A30005A6828490A40E16AA06A01430A435A6079
:102A40001968802252040A431A6000F025FA040033
:102A50001C4B1B689B0106D400F01EFA001B0228C9
:102A6000F6D903201CE000201AE0002018E0012B1A
:102A700020D0144B5A68D86AC0235B021340A16A65
:102A80008B4219D10F230340216B8B4216D1F023C7
:102A90009B031A40E36A9A4212D1002000E0012011
:102AA00002B070BD0120FBE70120F9E70120F7E744
:102AB0000020F5E70120F3E70120F1E70120EFE72F
:102AC0000120EDE700100240FFFFFFEFFFFFFFFED8
:102AD000FFFFFEFFFF7FC2FF30B589B004AA1E4B87
:102AE00031CB31C21B6813606A461C4B31CB31C2FB
:102AF0001B6813601A4B5A680C231340082B04D030
:102B00000C2B26D1174809B030BD910C0F2319406A
:102B100004A8445C1249C96A0B406946C95CC023D9
:102B20005B021A4080235B029A4208D0C0235B02FA
:102B30009A4209D00C48FDF7D5FA6043E3E70A480A
:102B4000FDF7D0FA6043DEE70648FDF7CBFA6043B5
:102B5000D9E70548D7E7C046005A0008145A0008CC
:102B600000100240006CDC0200127A0070B5040014
:102B70000D00002800D186E0474B1A68012313405E
:102B80008B420AD244490B68012293432B430B60CA
:102B90000B681A40AA4200D077E023689A070ED546
:102BA0005B0705D53D4A5168E023DB000B435360CA
:102BB0003A4A5368F0218B43A1680B435360236862
:102BC000DB0735D56368012B09D0022B24D0032BFA
:102BD00028D0324A1268920705D4012052E02F4AC9
:102BE0001268920353D52D494A6803208243134348
:102BF0004B6000F051F90600284B5B680C221A402C
:102C000063689B009A4213D000F046F9801B244B66
:102C10009842F1D9032035E0204A12689201E2D4AB
:102C200001202FE01D4A526BD203DCD4012029E0A1
:102C3000194B1A6801231340AB4209D916490B6896
:102C4000012293432B430B600B681A40AA4220D108
:102C500023685B0706D5114A536812490B40E168A7
:102C60000B435360FFF738FF0C4B5A6812090F23D0
:102C700013400D4AD35CD8400C4B1860002000F084
:102C8000C7F8002070BD0120FCE70120FAE7012011
:102C9000F8E70120F6E7C04600200240001002409D
:102CA00088130000FFF8FFFF285A00085400002096
:102CB00070B582B004000368DB0339D54D4BDB6986
:102CC000DB0069D44B4BDA69802149050A43DA619C
:102CD000DB690B400193019B0125474B1B68DB051A
:102CE0005CD5444B1A6AC0239B00110019401A425C
:102CF00015D06368C022920013408B420FD03D4B29
:102D00001A6A3E4911401E6A802040023043186210
:102D1000186A3B4E304018621962D20752D4354AC5
:102D2000136A36490B4061680B431362012D58D07A
:102D30002368DB0706D52F4A136B03218B43A16859
:102D40000B43136323689B0706D52A4A136B2D494F
:102D50000B40E1680B43136323689B0606D5254AA5
:102D6000136B10218B4321690B43136323689B036F
:102D700006D5204A136B80218B43A1690B43136353
:102D800023685B0532D51B4A136B40218B43616975
:102D90000B43136300202AE000259EE7164A1168C2
:102DA00080235B000B43136000F076F80600124BA3
:102DB0001B68DB0595D400F06FF8801B6428F6D9FA
:102DC000032014E000F068F806000A4B1B6A9B071A
:102DD000A5D400F061F8801B0B4B9842F5D9032075
:102DE00005E0D36909490B40D361A1E7002002B097
:102DF00070BDC0460010024000700040FFFCFFFFA5
:102E0000FFFFFEFFFFFFFCFF88130000FFFFFFEF47
:102E100010B504000F4B1978FA208000FDF762F915
:102E200001000D4B1868FDF75DF900F029FD002841
:102E30000DD1032C01D901200AE00130002221002C
:102E4000404200F0E1FC054B1C60002000E0012046
:102E500010BDC0464E00002054000020500000204D
:102E600010B5064A136810210B4313600020FFF7CA
:102E7000CFFFFDF7C7FD002010BDC0460020024077
:102E8000034A1168034B1B785B1813607047C046F8
:102E9000201000204E000020014B18687047C046EB
:102EA0002010002070B50400FFF7F6FF0500631C3A
:102EB00002D0044B1B78E418FFF7EEFF401BA04242
:102EC000FAD370BD4E000020026893699B0701D5BC
:102ED0000023936203689A69D20703D49A69012197
:102EE0000A439A617047000070B504686068049DE9
:102EF0006E0D8025ED002E40064D3543A843890513
:102F0000890D120411431943049B1943084360605F
:102F100070BDC046FF63FF03F8B506000F00150043
:102F200003689B69DB0601D40020F8BD3468A369FF
:102F30009B0615D47B1CF9D0FFF7AEFF401BB842AF
:102F400001D8002FF2D1736C202213437364412304
:102F5000F25400232232B354023AB3540120E4E77E
:102F60001023E36133682024DC613000FFF7ACFFFD
:102F70003268536807490B405360736C0422134353
:102F800073644123F45400233E32B354023AB354E1
:102F90000120CAE700E800FE70B504000D0016002D
:102FA00023689B699B071CD4320029002000FFF78F
:102FB000B3FF002817D16B1CF2D0FFF76DFF801B09
:102FC000A84201D8002DEBD1636C20221343636427
:102FD0004123E25400232232A354023AA354012095
:102FE00000E0002070BD0120FCE7F0B5C64600B54A
:102FF00007000D0090461E003B689C692C40641B36
:1030000063425C41444516D1731CF5D0FFF744FF81
:10301000069BC01AB04201D8002EEDD17B6C202255
:1030200013437B644123FA5400232232BB54023AF7
:10303000BB54012000E0002080BCB846F0BD000079
:1030400070B582B0040015001E008023F2B219484A
:1030500000905B042000FFF747FF079A06992000C5
:10306000FFF79AFF00281ED1012E0ED12368EDB282
:103070009D62079B0093069B002280212000FFF7A2
:10308000B4FF002813D102B070BD23682A0A9A62E7
:10309000079A06992000FFF77FFF002805D12368D3
:1030A000EDB29D62E5E70120EDE70120EBE70120AD
:1030B000E9E7C0460020008070B582B0040015002A
:1030C0001E00DAB2184B00930023FFF70DFF079A9A
:1030D00006992000FFF760FF00281ED1012E0ED1B7
:1030E0002368EDB29D62079B0093069B002240215E
:1030F0002000FFF77AFF002813D102B070BD2368CB
:103100002A0A9A62079A06992000FFF745FF0028CD
:1031100005D12368EDB29D62E5E70120EDE70120CE
:10312000EBE70120E9E7C0460020008070B505000C
:103130000C0016002B689B699B061AD432002100F4
:103140002800FFF7E9FE002815D1FFF7A5FE801B38
:10315000A04201D8002CEDD16B6C202213436B648C
:103160004123EA5400232232AB54023AAB540120EB
:1031700070BD0020FCE70120FAE7000010B5041E36
:1031800059D04123C35C002B43D041232422E25475
:103190002268136801218B43136063682268274902
:1031A0000B4013612268936825490B409360E368E4
:1031B000012B34D0A168226884231B020B43936047
:1031C000E368022B32D0226851681E4B0B435360D8
:1031D0002268D3681A490B40D3602369626913439C
:1031E000A269120221681343CB60E369216A226855
:1031F0000B4313602268136801210B431360002303
:10320000636441221F31A15423630132A35400207F
:1032100010BD40330022C254FDF70CFCB5E7A16895
:10322000226880231B020B439360C9E72368802236
:1032300012015A60C7E70120EAE7C046FFFFFFF02E
:10324000FF7FFFFF00800002F0B587B0040003910C
:10325000049205930CAB20CB1F884123C35C202B29
:1032600000D0B3E0002D18D0002F16D04023C35C4F
:10327000012B00D1ADE040230122C254FFF70CFE28
:103280000600802100901923012209022000FFF787
:10329000ACFE002806D0012099E080239B006364E7
:1032A000012094E041232122E25401331F32E254F1
:1032B0000023636465626785636301960E9B0093D8
:1032C000059B049A03992000FFF7BAFE00280FD14E
:1032D000638D9BB2FF2B10D9FF2323857F3B0022F8
:1032E00000925B04FF3203992000FFF7FDFD21E00F
:1032F00040230022E254012069E0628D92B22285CF
:103300008023D2B2002100919B0403992000FFF793
:10331000EBFD0FE0628D92B222858023D2B20021B4
:1033200000919B0403992000FFF7DEFD638D9BB2A3
:10333000002B34D032000E992000FFF72DFE00281C
:1033400049D1626A236812789A62636A01336362C0
:10335000638D013B9BB26385238D013B9BB223852B
:10336000628D92B2002AE1D0002BDFD100960E9B35
:10337000002280212000FFF738FE00282DD1638D28
:103380009BB2FF2BC6D9FF2323857F3B00220092EF
:103390005B04FF3203992000FFF7A6FDC6E7320069
:1033A0000E992000FFF7C2FE002818D123682022C2
:1033B000DA6121684B680B4D2B404B604123E2548E
:1033C00000232232A354023AA35400E0022007B0A3
:1033D000F0BD0220FBE70120F9E70120F7E701201B
:1033E000F5E7C04600E800FEF0B587B004000391A1
:1033F000049205930CAB20CB1F884123C35C202B88
:1034000000D0B5E0002D18D0002F16D04023C35CAB
:10341000012B00D1AFE040230122C254FFF73CFD55
:103420000600802100901923012209022000FFF7E5
:10343000DCFD002806D001209BE080239B00636414
:10344000012096E041232222E25401331E32E2544D
:103450000023636465626785636301960E9B009336
:10346000059B049A03992000FFF726FE00280FD140
:10347000638D9BB2FF2B10D9FF2323857F3B424AEC
:1034800000925B04FF2203992000FFF72DFD21E04D
:1034900040230022E25401206BE0628D92B222852B
:1034A0008023D2B2384900919B0403992000FFF792
:1034B0001BFD0FE0628D92B222858023D2B20021E3
:1034C00000919B0403992000FFF70EFD638D9BB2D2
:1034D000002B36D000960E9B002204212000FFF71F
:1034E00084FD002849D123685A6A636A1A70636AA6
:1034F00001336362238D013B9BB22385628D013AC8
:1035000092B26285628D92B2002ADFD0002BDDD1AB
:1035100000960E9B002280212000FFF766FD002808
:103520002DD1638D9BB2FF2BC4D9FF2323857F3B15
:10353000002200925B04FF3203992000FFF7D4FCC5
:10354000C4E732000E992000FFF7F0FD002818D1E3
:1035500023682022DA6121684B680C4D2B404B60B8
:103560004123E25400232232A354023AA35400E040
:10357000022007B0F0BD0220FBE70120F9E701209F
:10358000F7E70120F5E7C0460024008000E800FED0
:10359000F0B54123C35C202B20D12033C35C012B29
:1035A0001ED040240122025541252423435506689C
:1035B000336893433360066833680A4F3B40336097
:1035C000066833680B43336001680B6813430B6074
:1035D00020234355002303550020F0BD0220FCE7C3
:1035E0000220FAE7FFEFFFFFF0B54123C35C202B79
:1035F0001ED12033C35C012B1CD040240122025574
:103600004125242343550668336893433360066895
:103610003368094F3B4009021943316001680B6868
:1036200013430B6020234355002303550020F0BDB6
:103630000220FCE70220FAE7FFF0FFFFF0B5D646D4
:103640004F464646C0B582B0002333E0042600E072
:103650000026A64034003C43023292005C4E945156
:103660005C4A1768EA433E00AE434C68E40301D568
:103670003E002E43574C266067683E0016404C685B
:10368000A40301D53E002E43524C6660A7683E005D
:1036900016404C68E40201D53E002E434D4CA66016
:1036A000E66832404C68A40201D52A003243494CF6
:1036B000E26001330C682200DA4000D181E001228F
:1036C0009A40250015401442F3D04C68661E012E26
:1036D00003D9112C01D0122C11D186685F0003246C
:1036E000BC40A643CC68BC403443846044689443E7
:1036F0004E683609012232409A4022434260C46833
:103700005E000322B240D74394438A68B24022430A
:10371000C2604A68022A01D0122A19D1DA08083296
:10372000920092461258904607241C40A2009146EF
:103730000F224C46A240944642466446A24390461D
:103740000A694C46A24014004246144352461450A3
:1037500004683C404F6803223A40B2402243026072
:103760004A68D200A5D51C4CA66901221643A66161
:10377000A46922400192019A9A08941CA400144E54
:10378000A75903241C40A4000F26A640B743902647
:10379000F605B04200D15BE7104EB0420BD0104EA0
:1037A000B0420AD00F4EB04209D00F4EB04200D105
:1037B0004CE705264DE701264BE7022649E703269D
:1037C00047E702B0E0BCBA46B146A846F0BDC046E5
:1037D00000000140000401400010024000040048C5
:1037E00000080048000C00480010004803690B4224
:1037F00001D0012070470020FCE7002A01D0816140
:1038000070478162FCE7000070B5002811DB830877
:10381000134DC0339B005C5903221040C000FC32A2
:1038200016008640B44389010A40824022435A511F
:1038300070BD0F230340083B9B0806339B00094AD9
:10384000944663445C6803221040C000FC321500BB
:103850008540AC4389010A40824022435A60E7E731
:1038600000E100E000ED00E0002805DB1F23184028
:103870001E3B8340014A13607047C04600E100E0F0
:10388000013880235B0498420FD2094A50600948EE
:10389000036A1B021B0AC02109060B4303620023B3
:1038A000936007331360002070470120FCE7C04697
:1038B00010E000E000ED00E0704710B5002816D0E1
:1038C000AD239B00C358002B03D0AD239B000024E5
:1038D000C450002902D0AC239B00C150A7239B00F9
:1038E0000121C1540270FCF731FF002010BD0220FD
:1038F000FCE7002904D0AD239B00C1500020704795
:103900000220FCE710B5FCF763FF002010BD10B5E6
:10391000AD239B00C358002B06D01B689847002896
:1039200000D110BD0220FCE70220FAE710B5AD235C
:103930009B00C3585B689847002010BD70B5040019
:10394000AA239B00C518280000F064F9A5239B005A
:103950000122E250114BE25A163BE2501033E15C77
:103960001F230B40012B0FD0022B12D0002B05D0B0
:103970007F2399432000FCF749FF03E02900200042
:1039800000F022FB002070BD2900200000F052FB57
:10399000F8E72900200000F080FBF3E7AE0200000A
:1039A00070B505000C001100002C38D1A5239B0038
:1039B000C358032B03D0052B28D020003DE0020084
:1039C0005532FF32D368126993420DD99B1A553094
:1039D000FF30C3609A4205D99AB2280000F0AAFCD1
:1039E00020002AE092B2F8E7AD239B00C3581B6980
:1039F000002B04D0A7229200825C032A04D0280066
:103A000000F0A0FC200018E09847F8E7A5239B00F1
:103A10000022C2500021FCF7F9FE20000DE0AD238A
:103A20009B00C3589B69002B08D0A7229200825CA0
:103A3000032A05D121009847002070BD0220FCE731
:103A40000220FAE7F8B505000C001100002C5BD14C
:103A5000A5239B00C358022B0ED0042B01D0002BB2
:103A600003D180212800FCF7D1FEA8239B00EB5C4A
:103A7000012B43D02000F8BD026A466AB24220D82A
:103A8000C76931003800FCF769FB002906D1BE4246
:103A900004D8A6239B00EB589F421ED3AD239B0066
:103AA000EB58DB68002B04D0A7229200AA5C032A03
:103AB00021D080212800FCF7A9FE280000F04EFC50
:103AC000D3E7921B026292B200F01BFC002300229B
:103AD00000212800FCF7D7FEC7E70022280000F0ED
:103AE00010FCA6239B000022EA500023002128009E
:103AF000FCF7C9FEB9E728009847DAE7A8239B003E
:103B00000022EA542000B6E7AD239B00C3585B694E
:103B1000002B08D0A7229200825C032A05D1210045
:103B200098470020A7E70220A5E70220A3E770B589
:103B30000400402300220021FCF753FE0125AC23A2
:103B40005B00E55040260C33E650253BFF3B00224E
:103B500080212000FCF745FEA5616662A7239B003B
:103B6000E5540023A5229200A35063601032A350B5
:103B7000AE239B00E358002B06D0AD239B00E358F7
:103B80005B68002120009847002070BD0174002070
:103B900070470000A7239B00C15C034A81540422A4
:103BA000C25400207047C0469D020000A7239B001E
:103BB000C35C042B01D000207047024BC25C013B68
:103BC000C254F8E79D02000010B5A7239B00C35C18
:103BD000032B01D0002010BDAD239B00C358DB692F
:103BE000002BF7D09847F5E70300002002E00130F2
:103BF000C0B201331A78002AF9D1704710B54B884A
:103C0000012B00D010BDA9239B000122C25000F05F
:103C100099FBF7E70B7803704B7843708B78CA7881
:103C200012029B1843800B794A7912029B188380F9
:103C30008B79CA7912029B18C380704710B50400B3
:103C40008021FCF7E3FD00212000FCF7DFFD10BD23
:103C500030B583B005000C006B460022DA804A883C
:103C6000130A072B00D9B6E09B006549CB589F4645
:103C7000AC239B00C3581B68007C6A46911D984783
:103C80006B4606331B88002B03D0E288002A00D045
:103C9000A6E0E388002B00D1AEE003B030BD037C8A
:103CA000002B09D1AD239B00C3589B6A6A46901D27
:103CB000984702234370E3E7AD239B00C358DB6AB8
:103CC0006A46901D984702234370D9E7D2B2052A6D
:103CD0005DD892004B4B9B589F46AC239B00C3582A
:103CE0005B68002B04D0007C6A46911D9847C7E7AB
:103CF0002100FFF7A3FFD0E7AC239B00C3589B68CC
:103D0000002B04D0007C6A46911D9847B8E721003B
:103D1000FFF794FFC1E7AC239B00C358DB68002B7F
:103D200004D0007C6A46911D9847A9E72100FFF75F
:103D300085FFB2E7AC239B00C3581B69002B04D05E
:103D4000007C6A46911D98479AE72100FFF776FFAD
:103D5000A3E7AC239B00C3585B69002B04D0007C15
:103D60006A46911D98478BE72100FFF767FF94E7AC
:103D7000AC239B00C3589B69002B04D0007C6A468F
:103D8000911D98477CE72100FFF758FF85E7210048
:103D9000FFF754FF81E7037C002B07D1AD239B0085
:103DA000C3585B6B6A46901D984769E72100FFF78F
:103DB00045FF72E7037C002B09D1AD239B00C3585C
:103DC0001B6B6A46901D98470723437058E72100F4
:103DD000FFF734FF61E721002800FFF72FFF5CE7C2
:103DE000191C934200D9111C8AB26B46D98001007C
:103DF000280000F078FA4CE7280000F0A3FA4CE71E
:103E0000385A0008585A000870B504008B88002BF7
:103E100023D1CB88002B20D14B887F2B1DD87F2529
:103E20001D40A7239B00C35C032B0ED00D4BC55434
:103E30002900FCF716FD200000F084FA002D07D0C1
:103E4000A7239B000222E2540AE0FFF7F7FE07E0F7
:103E5000A7239B000122E25402E02000FFF7EEFEC0
:103E600070BDC0469E02000070B504000D00897848
:103E70002A4B197001290FD8A7239B00C35C022B82
:103E80000ED0032B23D02900FFF7D8FE234B19783F
:103E90002000FFF74BFD02E02900FFF7CFFE70BDC9
:103EA000002911D04160A7239B000322C254FFF7D1
:103EB0002EFD022803D0200000F044FAEFE729008D
:103EC0002000FFF7BBFEEAE700F03CFAE7E7002935
:103ED00011D0436899421ED0D9B2FFF727FD0F4B8E
:103EE000197861602000FFF712FD02280ED0200033
:103EF00000F028FAD3E7A7239B000222C2544160B6
:103F0000FFF714FD200000F01DFAC8E7290020008B
:103F1000FFF794FEC3E700F015FAC0E72410002075
:103F200010B5CB88012B0BD1A7239B00C35C022BC0
:103F300009D9032B09D1011D012200F0D4F901E0B8
:103F4000FFF77CFE10BD002B02D1FFF777FEF9E7EB
:103F50000023836001000831012200F0C4F9F1E779
:103F600010B5A7239B00C35C013B022B14D8CB8860
:103F7000022B0ED10123C360A9239B00C358002B41
:103F800001D00323C36001000C31022200F0ABF921
:103F900010BDFFF753FEFBE7FFF750FEF8E710B543
:103FA000A7239B00C35C013B022B0AD84B88012B43
:103FB00000D010BDA9239B000022C25000F0C2F91E
:103FC000F7E7FFF73BFEF4E710B50A7860231340EC
:103FD000202B06D0402B04D0002B09D0FFF72EFE5B
:103FE00004E0AD239B00C3589B689847002010BD98
:103FF0004B78092B18D89B000D4AD3589F46FFF7E2
:1040000027FEF3E7FFF700FFF0E7FFF72DFFEDE7EF
:10401000FFF786FFEAE7FFF7A3FFE7E7FFF7EEFD0D
:10402000E4E7FFF7BCFFE1E7FFF708FEDEE7C04685
:10403000705A000870B505000C000A786023134020
:10404000202B07D0402B05D0002B03D0FFF7F6FD27
:10405000002070BDA7239B00EB5C013B022B17D80F
:104060002379012B0FD8AD239B00EB589B682100CF
:1040700028009847E388002BEAD10028E8D12800DF
:1040800000F060F9E4E721002800FFF7D7FDDFE743
:1040900021002800FFF7D2FDDAE770B50500888817
:1040A0000A790B7860241C40202C08D0402C06D0C4
:1040B000002C0DD02800FFF7C1FD002406E0AD2341
:1040C0009B00EB589B68280098470024200070BD97
:1040D000202C0AD04E78012E3ED0032E0DD0002E7B
:1040E00064D02800FFF7AAFDF0E7AD239B00EB5852
:1040F0009B68280098470400E8E7A7239B00EB5C37
:10410000022B05D0032B14D02800FFF797FDDDE725
:10411000002A01D0802A03D12800FFF78FFDD5E7C0
:1041200011002800FCF772FB80212800FCF76EFBD1
:10413000CCE74B88002B06D1002A04D0802A02D07D
:10414000CB88002B03D0280000F0FCF8BEE711005C
:104150002800FCF75BFBF6E7A7239B00EB5C022B38
:1041600005D0032B14D02800FFF768FDAEE7002A26
:1041700001D0802A03D12800FFF760FDA6E71100D7
:104180002800FCF743FB80212800FCF73FFB9DE75C
:104190004B88002B9AD1530603D1280000F0D2F8A7
:1041A00094E711002800FCF73AFBF6E7A7239B00F1
:1041B000EB5C022B06D0032B29D02800FFF73EFD35
:1041C000340083E7002A01D0802A12D1000615D4DA
:1041D0007F2313409900C91889005131FF316918B4
:1041E000043100230B600222280000F07CF8340028
:1041F0006CE72800FFF722FD340067E77F231340B8
:104200009900C9188900103169180431E9E744B2EE
:10421000000622D40F20104083001B189B00EB18CF
:104220005933FF331B68002B25D0002C28DB7F235C
:1042300013409C00E418A4005134FF342C190434BA
:10424000002A01D0802A24D10023236002222100E9
:10425000280000F048F8340038E70F2010408300B1
:104260001B189B00EB189B69002BDED12800FFF781
:10427000E5FC34002AE72800FFF7E0FC340025E7DE
:104280007F2313409C00E418A40010342C1904343C
:10429000D6E711002800FCF7CBFA002802D0012352
:1042A0002360D3E700232360D0E770B504000D003E
:1042B0001600002816D0FFF797FC013043009BB290
:1042C00033802B7003236B70013B08E001345A1CD0
:1042D000D2B2E8540233DBB2AA1800211170207860
:1042E0000028F3D170BD10B51300A522920002245E
:1042F0008450C36103620A000021FCF7BBFA00206E
:1043000010BD10B513000A000021FCF7B3FA00201D
:1043100010BD10B51300A522920003248450393A31
:10432000FF3A8350043283500A000021FCF7ABFAB5
:10433000002010BD10B513000A000021FCF7A3FAFD
:10434000002010BD10B5A5239B000422C2500023FD
:1043500000220021FCF78EFA002010BD10B5A52325
:104360009B000522C250002300220021FCF78BFA9B
:10437000002010BD002070470020704710B50100DC
:10438000044C200000F0C0F9200000F0E3F9002008
:1043900010BDC0464806002010B50649064C002254
:1043A000200000F0A6F90549200000F0ADF900203A
:1043B00010BDC04610140020480600202810002020
:1043C00010B50A00094BAE218900595885239B007E
:1043D000CB58002B01D0012010BD044C010020005F
:1043E00000F087F9200000F096F9F5E74806002074
:1043F00010B5AE239B00C4580433C358002B0DD016
:1044000080229200A05CFF2808D09B68044AA25C2E
:104410002100984780239B00FF22E254002010BD1A
:10442000010200004323038000487047A0000020E1
:104430004323038000487047E400002043230380A7
:1044400000487047340100200A2303800048704769
:104450002801002070B50400AE25AD004659FCF7D8
:104460001BFA83239B00F0506359002B0BD0AF2322
:104470009B00E358DB6883229200B118083AB058D9
:104480009847002070BD0220FCE770B504000D00C5
:10449000AE239B00C6580833C258002E21D08B0093
:1044A0005B189B00C318D869002808D08B005B18E4
:1044B000DB00D218916BFBF751FE002905D0852354
:1044C0009B000022F250002070BDAB005B199B00E6
:1044D000E3180022DA61002329002000FCF7CAF962
:1044E000F1E70220F0E70000F0B583B005000C0012
:1044F000AE239B00C75800236A46D37101AA1380DC
:104500000B78602216001E401A422BD0202E5BD161
:10451000CA88002A1DD05BB2002B0DDAAF239B00A6
:10452000C3589B68487839009847E28839002800CA
:10453000FFF7D9FE00264AE04A7880239B00FA5410
:104540008A79244BFA54CA883900FFF7E2FE002624
:104550003DE0AF239B00C3589B68487800229847F2
:10456000002634E04F780A2F16D00B2F23D0002FCF
:1045700003D0FFF763FB022629E0A7239B00C35C5F
:10458000032B03D0FFF75AFB022620E0022201A9E9
:10459000FFF7A9FE3E001AE0A7239B00C35C032B94
:1045A00003D0FFF74BFB022611E001226B46D91D19
:1045B000FFF799FE0BE0A7239B00C35C032B06D0FB
:1045C000FFF73CFB022602E0FFF738FB0226300033
:1045D00003B0F0BD0102000070B504008121FCF7BA
:1045E0000CF90025E56201212000FCF706F9B6234D
:1045F0005B00E55082212000FCF7FFF82564AE2324
:104600009B00E358002B0BD0AF239B00E3585B6863
:104610009847AE25AD006059FCF74AF90023635175
:10462000002070BD70B50400037C002B3AD18026B9
:10463000B600330002228121FCF7D3F80125E562A0
:104640003300022201212000FCF7CBF8B6235B00E7
:10465000E5500823032282212000FCF7C2F8012341
:10466000236487208000FCF71FF90500AE239B0020
:10467000E050002832D00433E3581B6898470023E9
:1046800085229200AB500432AB50267C002E1AD10A
:104690008033143AAA589B0001212000FCF7F3F85C
:1046A000300070BD402302228121FCF79AF80125D9
:1046B000E5624023022201212000FCF792F8B62394
:1046C0005B00E550C5E781239B00EA58C53BFF3BF3
:1046D00001212000FCF7D7F80026E1E70126DFE7FB
:1046E000002904D0AF239B00C15000207047022056
:1046F000FCE7AE239B00C358822080001950842120
:1047000089005A5000207047AE239B00C258B43B2A
:10471000D1500020704710B5AE239B00C258002A2C
:1047200016D0A43BD358002B01D0012010BD852307
:104730009B000121D150043BD1580163D35A8221FF
:10474000890052588839FF39FCF794F80020EDE7CA
:104750000220EBE710B5AE239B00C258002A15D00B
:10476000037C002B09D180338121890052589B00A2
:104770000121FCF788F8002010BD81239B00D2584E
:10478000C53BFF3B0121FCF77EF8F4E70220F3E78D
:1047900010B544688068A04710BD10B504688068F3
:1047A000A04710BD10B501F03DF8F621890500F0D5
:1047B00035FF10BD10B501F035F8F221890500F084
:1047C0002DFFFA21890500F029FF024900F0C2FD02
:1047D00010BDC0460000C84130B583B00C0001AD2B
:1047E00001232A000721FFF7D3FF2B785B07DB0F9C
:1047F000237003B030BD10B582B00C00022301AAB3
:104800000C21FFF7C5FF6B465B7923801B026A46CC
:1048100012799B18238002B010BD30B583B004001C
:104820000D00012301AA2021FFF7B2FF00281CD0B0
:10483000002816D1002D0AD101AA137808218B4334
:1048400013706B461B78082213436A461370012DC0
:1048500012D0022D1BD0012301AA20212000FFF736
:104860009CFF00281FD003B030BD01236A462321DE
:104870002000FFF78DFFDBE701A90B7808229343A7
:104880000B706B461B7893436A461370E1E701AAED
:10489000137808210B4313706B461B78082293434F
:1048A0006A461370D7E701236A4623212000FFF7E9
:1048B00074FFD8E730B583B005000C00012301AACE
:1048C0002021FFF765FF002801D003B030BD0F2382
:1048D0001C4024016A461279134023436A4613712F
:1048E000012301AA20212800FFF757FFEDE730B58B
:1048F00083B004000D00012301AA2321FFF748FF24
:10490000002801D003B030BD03222A4012016B46BB
:104910001B7930218B4313436A461371012301AA8B
:104920000D392000FFF739FFECE730B583B0040004
:104930000D00012301AA2321FFF72AFF002801D03F
:1049400003B030BDED016B461A797F2313402B4332
:104950006A461371012301AA23212000FFF71DFFDE
:10496000EEE770B582B004000D00012301AA1F21FB
:10497000FFF70EFF002801D1002D03D1002806D03B
:1049800002B070BD01212000FFF7CFFFF6E76808F5
:104990000123184001AAC00116787F21314001434C
:1049A00011702B409B01C9B2402081430B4313700F
:1049B00001231F212000FFF7F0FEE1E730B583B0AF
:1049C0000C0001AD01232A002721FFF7E1FE2B781F
:1049D0001B07DB0F237003B030BD10B582B00C0095
:1049E00006236A462821FFF7D3FE6B465B782380B7
:1049F0001B026A4612789B1823806B46DB78638023
:104A00001B026A4692789B1863806B465B79A38091
:104A10001B026A4612799B18A38002B010BD10B524
:104A20000A0001230F21FFF7B3FE10BD0D48854694
:104A30000D480E490E4A002302E0D458C4500433F6
:104A4000C4188C42F9D30B4A0B4C002301E01360CD
:104A50000432A242FBD3FEF72FFF00F011F8FBF760
:104A600075FDFEE70040002000000020DC01002072
:104A7000D45A0008DC0100200C180020FEE70000DA
:104A800070B500260C4D0D4C641BA410A64209D134
:104A9000002600F047FF0A4D0A4C641BA410A642F2
:104AA00005D170BDB300EB5898470136EEE7B3006F
:104AB000EB5898470136F2E7CC5A0008CC5A000868
:104AC000CC5A0008D05A000803008218934200D143
:104AD000704719700133F9E70EB400B50B499CB06B
:104AE0001DAB02900690079104910948094904CB37
:104AF0000591006802A9019300F072F80023029A60
:104B000013701CB008BC03B01847C046FFFFFF7FFE
:104B1000780100200802FFFF70477047F0B58E68EB
:104B200085B007000C00039201939E423CD890236D
:104B30008A89DB001A4234D00969236860695B1AEC
:104B4000029303234343DD0FED18019B02980133C9
:104B50001B186D10AB4200D91D00530532D529003A
:104B6000380000F031FB061E09D10C233B604023C6
:104B70000120A28940421343A38105B0F0BD029AEF
:104B8000216900F0BAFAA389144A1A40802313431A
:104B9000A381029B2661F61826606561019EED1ACD
:104BA000A560019B9E4200D9019E320003992068B6
:104BB00000F0ACFAA36800209B1BA36023689E1939
:104BC0002660DAE72A00380000F05CFB061EE0D120
:104BD0003800216900F0AEFAC7E7C0467FFBFFFF4F
:104BE000F0B5A1B003901D008B890F0016001B06C5
:104BF00011D50B69002B0ED1402100F0E5FA386089
:104C00003861002805D10C23039A0138136021B0C4
:104C1000F0BD40237B61002308AC636120336376E1
:104C20001033A376079535002B78002B01D0252B68
:104C300047D1AB1B0593B5420CD032003900039825
:104C4000FFF76CFF431C00D1AEE06269059B944600
:104C5000634463612B78002B00D1A5E0012200237F
:104C60005242626004A9543252186E1C2360E36001
:104C7000A3601370A36505223178544800F032FA1E
:104C8000751C00281FD12268D30604D5532304A91C
:104C90005B1820211970130704D5532304A95B184E
:104CA0002B21197033782A2B16D0350000210A20C9
:104CB000E3682A786E1C303A092A4ED9002911D1AE
:104CC00017E00135B0E7414B2268C01A0123834049
:104CD00013432E002360CEE7079B191D1B68079125
:104CE000002B01DB0B9304E05B42E36002231343E0
:104CF00023602B782E2B0AD16B782A2B35D1079B7A
:104D000002351A1D1B680792002B2BDB0993304ECE
:104D100003223000297800F0E5F9002806D040236E
:104D2000801B8340226801351343236029780622C3
:104D300028486E1C217600F0D5F900283CD0264B7F
:104D4000002B25D10722079B073393430833079392
:104D50006369049A9B18636165E743433500012149
:104D60009B18A6E701235B42D0E700230A201A0024
:104D70000135636029786E1C3039092903D9002B6D
:104D8000C5D00992C3E74243350001235218F1E729
:104D900007AB00933A002100104B039800E000BFDE
:104DA0000490049B0133D3D1BB890D985B0600D4DA
:104DB0002DE7012040422AE707AB00933A0021008B
:104DC000064B039800F07CF8EAE7C046985A0008C2
:104DD0009E5A0008A25A0008000000001D4B00085F
:104DE000F7B5150001938A680B690C000090934297
:104DF00000DA130022002B6043321278002A01D01F
:104E000001332B6023689B0602D52B6802332B608D
:104E10002268062317001F401A4227D0230043337D
:104E20001B785A1E93412268920630D422000199C1
:104E30000098089E4332B047431C25D006232068C3
:104E40002A68E16800250340042B03D18D1AEB4347
:104E5000DB171D40A3682269934201DD9B1AED1800
:104E60000027BD4220D1002010E00137E3682A6806
:104E70009B1ABB42D2DD2200012301990098089EB3
:104E80001932B047431CF0D101204042FEBD302012
:104E9000E1184331087021005A1C45310978A218E5
:104EA000433202331170C1E72200012301990098B7
:104EB000089E1A32B047431CE6D00137D1E7000004
:104EC000F0B58BB006920A00433207930590049226
:104ED0000A7E0C00109B782A07D8622A09D8002A7B
:104EE00000D1C1E0582A00D18CE026004236327051
:104EF00022E0100063381528F7D8FBF7E9F8160010
:104F00001F00F6FFF6FFF6FFF6FF1F00F6FFF6FFA5
:104F1000F6FFF6FFA80036009A00F6FFF6FFB9008C
:104F2000F6FF3600F6FFF6FF9E0026001A684236AE
:104F3000111D1960136833700123A7E00868196810
:104F40000A1D05060BD50D681A60002D03DA2D2306
:104F5000049A6D421370614B0A2703931BE00D689E
:104F60001A604106F1D52DB2EFE70D681968081DEA
:104F700018602E0601D50D6803E06D06FBD50D689F
:104F8000ADB2564B082703936F2A00D00237230097
:104F9000002243331A706368A360002B03DB0422F2
:104FA000216891432160002D02D1049E002B0CD07A
:104FB000049E28003900FBF7D1F8039B013E5B5C9F
:104FC00033702B0005009F42F3D9082F09D12368C5
:104FD000DB0706D563682269934202DC3023013E79
:104FE0003370049B9B1B2361079B21000093059852
:104FF000069B09AAFFF7F4FE431C4CD10120404256
:105000000BB0F0BD45310A70344A03921A6821682A
:1050100020CA1A60080616D5CB0702D520231943EB
:1050200021601027002DB2D1202322689A432260EC
:10503000ADE7202209680A43226022007821453228
:105040001170274AE1E74806E6D5ADB2E4E71A68F1
:105050000D68101D4969186013682E0601D5196086
:1050600002E06D06FBD519800023049E2361BBE797
:105070001A68111D1960166800213000626800F07E
:1050800031F8002801D0801B606063682361002331
:10509000049A1370A8E72369320006990598079DC2
:1050A000A847431CAAD023689B0715D4099BE06836
:1050B0009842A5DA1800A3E7220001230699059873
:1050C000079E1932B047431C98D00135E368099A0E
:1050D0009B1AAB42F0DCE9E70025F7E7A95A000884
:1050E000BA5A0008C9B28218904201D10020704714
:1050F00003788B42FBD00130F6E7002310B59A42CB
:1051000000D110BDCC5CC4540133F8E710B588421F
:1051100002D98B18984203D3002307E08B5C835499
:10512000013AFBD210BDCC5CC45401339A42FAD18F
:10513000F8E7000070B50500002910D00C1F2368A7
:10514000002B00DAE418280000F0DEF81D4A13688E
:10515000002B05D163601460280000F0DDF870BDFD
:10516000A34208D9216860188342F3D118685B68AC
:1051700041182160EEE71A005B68002B01D0A342C2
:10518000F9D911685018A0420BD12068091850189D
:1051900011608342E0D118685B6841181160536068
:1051A000DAE7A04202D90C232B60D5E7216860180A
:1051B000834203D118685B684118216063605460C2
:1051C000CAE7C046FC170020F8B50323CD1C9D4359
:1051D000083506000C2D1FD20C25A9421ED8300020
:1051E00000F092F825490A681400002C1AD1244FC7
:1051F0003B68002B04D12100300000F073F83860C8
:105200002900300000F06EF8431C2BD10C23300035
:10521000336000F081F803E0002DDEDA0C23336008
:105220000020F8BD23685B1B19D40B2B03D9236026
:10523000E418256003E06368A2420ED10B603000E1
:1052400000F06AF8200007220B30231D9043C21A99
:105250009842E6D01B1AA350E3E75360EFE7220021
:105260006468C2E70323C41C9C43A042E1D0211A16
:10527000300000F037F8431CDBD1C7E7FC170020F3
:1052800000180020F7B507000E001400002905D112
:105290001100FFF799FF05002800FEBD002A03D189
:1052A000FFF748FF2500F7E700F03EF80190844241
:1052B00003D835004308A342EED321003800FFF79E
:1052C00083FF051EE8D0019B22009C4200D91A00F2
:1052D00031002800FFF711FF31003800FFF72AFFE7
:1052E000DAE70000002370B5064D040008002B60CB
:1052F00000F022F8431C03D12B68002B00D0236060
:1053000070BDC0460418002010B50248FFF704FC29
:1053100010BDC046F817002010B50248FFF7FDFB8E
:1053200010BDC046F81700200B1F1B68181F002B6C
:1053300001DA0B58C0187047044A030010680028AF
:1053400002D0C318136070470148FAE7081800201C
:1053500010180020F7B5802743025A0A94464A02E3
:105360004400C50F500A01904800240E000E9B090E
:10537000C90F9209261AFF048D4200D097E0002E33
:1053800047DD002835D1002A12D0661E012C0DD130
:105390009B185A010CD50134FF2C00D12EE10122BB
:1053A0009C491A405B080B40134301E0FF2C23D1BA
:1053B0005A0704D00F221A40042A00D004335A019D
:1053C00005D50134FF2C00D121E1934A1340DB08BD
:1053D000FF2C04D1002B02D08022D2031343FF22E2
:1053E000E005D2055B0210405B0AED071843284335
:1053F000FEBDFF2CDCD03A4301211B2E07DC202010
:10540000801B11008240F140501E824111435B1805
:10541000BFE7002E21D0011B002C0CD1002B00D1A6
:10542000E7E04C1E012902D101249B18B1E7FF29B6
:1054300005D11300A8E0FF28FBD00C003B4301215D
:105440001B2C07DC19002026E140341BA3405C1E06
:10545000A341194304008B189BE7FE20611C014205
:105460001FD1002C0BD1002B00D1C4E0002A9FD00B
:105470009B183B429CD0684A13400C0098E7002BD5
:10548000D7D0FF24002A00D192E780236246DB03B5
:105490001A4203D0019A1A4200D194466346DB00B7
:1054A00072E0FF2900D1A8E09B185B08E5E7002E19
:1054B00023DD00281CD1002A00D179E7661E012CCB
:1054C00006D19B1A5A0100D472E79B019E0973E032
:1054D000FF2C00D16CE701211B2E07DC2020801B54
:1054E00011008240F140501E824111435B1AE9E7EE
:1054F000FF2C00D15CE73A43EDE7002E23D0051BDB
:10550000002C0DD1002B08D06E1E012D03D10D00F3
:10551000D31A0134D6E7FF2D06D113002C001FE06B
:10552000FF286DD02E003B4301241B2E07DC2025D5
:10553000AD1B1C00AB40F4405D1EAB411C43131B74
:105540000D000400BEE7FE26601C30422FD1002C67
:1055500014D1002B06D11D00002A00D128E713002A
:105560000D0025E7002A00D122E7981AD31A384205
:10557000F6D1031E00D01BE71D0019E7002B05D153
:10558000002A40D013000D00FF2411E7FF24002A59
:1055900000D10DE780236246DB031A4200D17DE78C
:1055A000019A1A4200D079E794460D0076E79E1AD8
:1055B0003E4215D00D00D61A3000FAF7DBFD33005D
:1055C00005388340844210DC2022001B0130121A6F
:1055D00019009340C1405A1E934100240B43E7E653
:1055E000002EE9D133003400C6E70B4A241A1340D9
:1055F000DEE6130041E71300DAE60C000023D7E6ED
:1056000013000400ACE71D0080239B04BCE70023CB
:10561000DDE6C046FFFFFF7DFFFFFFFBF0B5C30FD8
:1056200085B04502440001916D0A240E0393029354
:1056300067D0FF2C73D08023ED00DB047F3C1D433B
:1056400000940027019B5C025E00DB0F640A360EAB
:1056500001936AD0FF2E74D080233000E400DB0475
:105660001C437F3800230199039ABE004A400099E9
:105670001E438C4684446146013100910A2E78DC39
:10568000022E64DC013E012E7BD9230CA4B226003D
:10569000280CADB26E4344435D4358432D19330C7F
:1056A0005B199C4202D98021490240181C04B6B201
:1056B000A619B401651EAC411B0CB60E1B18344371
:1056C0009B011C431B0100D47FE0012360081C40A8
:1056D000044300997F31081E00DC79E0630704D0A1
:1056E0000F232340042B00D00434230104D5009958
:1056F0004B4B803108001C40E508FE2849DD0025A1
:105700005FE001270095002D9CD02800FAF732FDBC
:10571000431F9D4076235B421B1A009391E70227AB
:105720000094002D8ED001378CE720000123002C3F
:1057300099D0FAF71FFD431F9C4076235B42181A4D
:1057400090E730000223002C8DD001338BE701203D
:10575000B040A6260100F6003140304233D19026F9
:10576000B600304251D1B93EFF3E30428DD0019A51
:1057700007E00F2E18D0019A0B2E02D02C00039AAE
:105780003B00022BBBD0032B43D000252800012B6C
:105790009FD1FF23C005DB056D0218406D0A284329
:1057A000D207104305B0F0BD8023DB031D4204D0B7
:1057B0001C4202D12500019B02938023029ADB0345
:1057C0001D43FF20E5E72C00DAE76346009380E7FE
:1057D000012300255B1A28001B2BDADC0099250029
:1057E0009E318C40DD40631E9C4125436B0704D0F5
:1057F0000F232B40042B00D0043580232800DB042A
:1058000018401D4208D1ED08C3E780250B00ED03C9
:10581000D2E725000292D0E700250120B9E7C04673
:10582000FFFFFFF770B502000300041E0DD0C31781
:10583000C4185C40C50F2000FAF79CFC9E231B1A7D
:10584000962B09DC083884402A006402D805640AD3
:105850002043D207104370BD992B0ADD0522210099
:10586000121AD1400A0001001B318C40611E8C418C
:105870001443052801DD421F9440220007490A40D5
:10588000660704D00F263440042C00D004325401A3
:1058900002D59F230A401B1AD408D5E7FFFFFFFB60
:1058A000FE2270B54400240E4302611C5D0AC60F3F
:1058B00011420DD0E0229200A4181B0B6D071B03B0
:1058C0001B0B2405F6071C4334432800210070BD40
:1058D000002C18D12300002DF1D02800FAF74AFC43
:1058E0000A280ADC0B232A001B1ADA4013000200E4
:1058F00015329540094C241AE1E703000B3B9D400B
:105900002B002500F6E7002D06D01A0B80231B0381
:105910006D071343024CD2E72B00FBE7890300001D
:10592000FF070000F8B5C046F8BC08BC9E467047AB
:0C593000F8B5C046F8BC08BC9E467047A5
:10593C00446576204E6F7420466F756E64000000CF
:10594C00416363656C65726174696F6E205B6D6732
:10595C005D3A25342E32660925342E3266092534FB
:10596C002E32660D0A00000054656D70657261740C
:10597C00757265205B646567435D3A25362E326629
:10598C000D0A00005374617274696E6720493243CA
:10599C00205363616E6E696E673A200D0A00000039
:1059AC00446F6E6521200D0A0D0A000053544D33CF
:1059BC0032205669727475616C20436F6D506F7232
:1059CC007400000053544D6963726F656C656374A9
:1059DC00726F6E696373000043444320436F6E66BD
:1059EC006967000043444320496E746572666163C5
:1059FC006500000002030405060708090A0B0C0DDC
:105A0C000E0F101000000000010203040506070829
:105A1C00090A0B0C0D0E0F10000000000000000016
:105A2C00000000000102030406070809D63D000827
:105A3C00703C00089E3C0008CC3C0008D63D000899
:105A4C00D63D0008963D0008B43D0008DA3C00083D
:105A5C00F83C0008163D0008343D0008523D000893
:105A6C00703D00081640000822400008284000083D
:105A7C001C4000082840000804400008FE3F0008B5
:105A8C0028400008104000080A400008232D302B45
:105A9C002000686C4C006566674546470030313223
:105AAC00333435363738394142434445460030317A
:105ABC0032333435363738396162636465660000D9
:045ACC00D9010008F4
:045AD000B101000818
