:020000040800F2
:1000000000400020F54000081D0F00081F0F0008E9
:1000100000000000000000000000000000000000E0
:10002000000000000000000000000000210F000898
:100030000000000000000000230F0008250F00084A
:100040004541000845410008454100084541000878
:100050004541000845410008454100084541000868
:100060004541000845410008454100084541000858
:100070004541000845410008454100084541000848
:100080004541000845410008454100084541000838
:100090004541000845410008454100084541000828
:1000A0004541000845410008454100084541000818
:1000B0004541000845410008454100082D0F000852
:1000C000002934D00123002210B488422CD301240B
:1000D0002407A14204D2814202D209011B01F8E7A0
:1000E000E400A14204D2814202D249005B00F8E759
:1000F000884201D3401A1A434C08A04202D3001B85
:100100005C0822438C08A04202D3001B9C082243B7
:10011000CC08A04202D3001BDC082243002803D0F5
:100120001B0901D00909E3E7100010BC704701B5B5
:10013000002000F00BF802BD0029F8D003B5FFF74E
:10014000C1FF0EBC4243891A1847C0467047C046DB
:1001500010B5064C2378002B07D1054B002B02D09D
:10016000044800E000BF0123237010BDDC00002024
:1001700000000000A0410008044B10B5002B03D084
:100180000349044800E000BF10BDC0460000000065
:10019000E0000020A0410008F0B5CE46474680B5FB
:1001A00089B01422002103A803F0F2FF2E4B5A69F4
:1001B000802109030A435A615A690A400092009A51
:1001C0005A69802189020A435A615A690A40019298
:1001D000019A5A698021C9020A435A615B690B403E
:1001E0000293029BE0242402204B99460022210026
:1001F000180002F087FD9025ED050022FF21280060
:1002000002F080FD1A4B98461A4F00221900380060
:1002100002F078FD039401260496002405940694C8
:1002200003A9484602F090FCFF230393049605942B
:10023000069403A9280002F087FC43460393049622
:100240000594069403A9380002F07EFC80239B00ED
:1002500003930494059403A9280002F075FC09B0E7
:10026000C0BCB946B046F0BD0010024000080048CE
:100270003F1F00000004004810B50D4C0D4B2360DB
:100280000D4B63600023A3600122E2602361636180
:10029000A361E3612362200002F09AFB00212000A9
:1002A00002F0FCFB0021200002F024FC10BDC0463F
:1002B000F8000020005400400E09002010B598B04E
:1002C000342200210BA803F063FF1022002107A8AD
:1002D00003F05EFF1C220021684603F059FF222331
:1002E0000B93213B0E9313930F330F930BA801F045
:1002F000D5FE07230793043B0893002409940A942E
:10030000012107A802F0B6F9044B00930494069467
:10031000684602F051FA18B010BDC0462000020035
:1003200070B504000D00012932D0022D61D0032DDB
:1003300000D18FE0042D00D1BDE0052D00D1EBE010
:10034000062D00D119E1072D00D147E1082D00D17C
:1003500075E1092D00D1A3E1012C00D1D1E1022CDE
:1003600000D109E2032C00D13CE2042C00D16FE261
:10037000052C00D1A2E2062C00D1D5E2072C00D139
:1003800008E3082C00D13BE3092C00D16EE370BDDB
:10039000F74E01220221300002F0B4FC00220121BC
:1003A000300002F0AFFC9026F605002280213000DC
:1003B00002F0A8FC00224021300002F0A3FC002241
:1003C0002021300002F09EFC00221021300002F0BB
:1003D00099FC00220821300002F094FC0022042144
:1003E000300002F08FFC00220221300002F08AFC73
:1003F0009BE7DF4E00220221300002F083FC012245
:100400000121300002F07EFC9026F60500228021BA
:10041000300002F077FC00224021300002F072FC34
:1004200000222021300002F06DFC0022102130005B
:1004300002F068FC00220821300002F063FC002278
:100440000421300002F05EFC00220221300002F0A4
:1004500059FC6CE7C64E00220221300002F052FC2B
:1004600000220121300002F04DFC9026F605012209
:100470008021300002F046FC00224021300002F0D2
:1004800041FC00222021300002F03CFC002210211F
:10049000300002F037FC00220821300002F032FC6C
:1004A00000220421300002F02DFC00220221300045
:1004B00002F028FC3EE7AE4E00220221300002F09E
:1004C00021FC00220121300002F01CFC9026F605E0
:1004D00000228021300002F015FC01224021300072
:1004E00002F010FC00222021300002F00BFC002260
:1004F0001021300002F006FC00220821300002F03A
:1005000001FC00220421300002F0FCFB0022022149
:10051000300002F0F7FB10E7954E00220221300078
:1005200002F0F0FB00220121300002F0EBFB9026EC
:10053000F60500228021300002F0E4FB0022402179
:10054000300002F0DFFB01222021300002F0DAFB54
:1005500000221021300002F0D5FB002208213000DB
:1005600002F0D0FB00220421300002F0CBFB00227D
:100570000221300002F0C6FBE2E67D4E002202219D
:10058000300002F0BFFB00220121300002F0BAFB74
:100590009026F60500228021300002F0B3FB0022F5
:1005A0004021300002F0AEFB00222021300002F09A
:1005B000A9FB01221021300002F0A4FB0022082137
:1005C000300002F09FFB00220421300002F09AFB71
:1005D00000220221300002F095FBB4E6644E0022B6
:1005E0000221300002F08EFB00220121300002F0D7
:1005F00089FB9026F60500228021300002F082FB64
:1006000000224021300002F07DFB0022202130003A
:1006100002F078FB00221021300002F073FB01226F
:100620000821300002F06EFB00220421300002F0AD
:1006300069FB00220221300002F064FB86E64C4E8A
:1006400000220221300002F05DFB00220121300077
:1006500002F058FB9026F60500228021300002F0BF
:1006600051FB00224021300002F04CFB00222021EF
:10067000300002F047FB00221021300002F042FB64
:1006800000220821300002F03DFB0122042130004D
:1006900002F038FB00220221300002F033FB58E662
:1006A000334D00220221280002F02CFB0022012100
:1006B000280002F027FB9025ED050022802128006C
:1006C00002F020FB00224021280002F01BFB002248
:1006D0002021280002F016FB00221021280002F041
:1006E00011FB00220821280002F00CFB002204214B
:1006F000280002F007FB01220221280002F002FB81
:100700002AE6902000220121C00502F0FBFA802198
:10071000184D01220902280002F0F4FA802101227A
:10072000C901280002F0EEFA802101228901280087
:1007300002F0E8FA80210E4D01228900280002F023
:10074000E1FA802101224900280002F0DBFA0122AF
:100750002021280002F0D6FA01221021280002F000
:10076000D1FA01220821280002F0CCFAF7E5C046B0
:100770000004004800080048902001220121C00523
:1007800002F0C0FA8021D44D00220902280002F0B4
:10079000B9FA80210122C901280002F0B3FA8021B0
:1007A00001228901280002F0ADFA8021CB4D0122FF
:1007B0008900280002F0A6FA8021012249002800C1
:1007C00002F0A0FA01222021280002F09BFA012267
:1007D0001021280002F096FA01220821280002F0D8
:1007E00091FABFE5902001220121C00502F08AFAAA
:1007F0008021B94D01220902280002F083FA8021EC
:100800000022C901280002F07DFA8021012289011D
:10081000280002F077FA8021B04D012289002800DB
:1008200002F070FA802101224900280002F06AFAE1
:1008300001222021280002F065FA0122102128005F
:1008400002F060FA01220821280002F05BFA8CE530
:10085000902001220121C00502F054FA80219E4D12
:1008600001220902280002F04DFA80210122C9016B
:10087000280002F047FA802100228901280002F0B6
:1008800041FA8021954D01228900280002F03AFAB0
:10089000802101224900280002F034FA012220219F
:1008A000280002F02FFA01221021280002F02AFA73
:1008B00001220821280002F025FA59E590200122A2
:1008C0000121C00502F01EFA8021834D0122090298
:1008D000280002F017FA80210122C901280002F045
:1008E00011FA802101228901280002F00BFA8021EF
:1008F0007A4D00228900280002F004FA80210122AA
:100900004900280002F0FEF901222021280002F00F
:10091000F9F901221021280002F0F4F9012208213E
:10092000280002F0EFF926E5902001220121C00500
:1009300002F0E8F98021684D01220902280002F046
:10094000E1F980210122C901280002F0DBF98021B0
:1009500001228901280002F0D5F980215F4D012292
:100960008900280002F0CEF98021002249002800E9
:1009700002F0C8F901222021280002F0C3F9012267
:100980001021280002F0BEF901220821280002F0FF
:10099000B9F9F3E4902001220121C00502F0B2F977
:1009A00080214D4D01220902280002F0ABF980217F
:1009B0000122C901280002F0A5F980210122890144
:1009C000280002F09FF98021444D0122890028006F
:1009D00002F098F9802101224900280002F092F9E2
:1009E00000222021280002F08DF901221021280088
:1009F00002F088F901220821280002F083F9C0E4FE
:100A0000902001220121C00502F07CF98021324DA5
:100A100001220902280002F075F980210122C90192
:100A2000280002F06FF9802101228901280002F0DC
:100A300069F98021294D01228900280002F062F91C
:100A4000802101224900280002F05CF901222021C6
:100A5000280002F057F900221021280002F052F974
:100A600001220821280002F04DF98DE49020012296
:100A70000121C00502F046F98021174C012209022C
:100A8000200002F03FF980210122C901200002F07C
:100A900039F9802101228901200002F033F98021F7
:100AA0000E4C01228900200002F02CF98021012245
:100AB0004900200002F026F901222021200002F046
:100AC00021F901221021200002F01CF90022082146
:100AD000200002F017F95AE400080048000400481A
:100AE00070B501F041FFFFF7E9FBFFF755FBFFF79A
:100AF000C3FB00F019F8012510E0FA20400001F0D6
:100B000055FF0134092C08DC21002800FFF708FC00
:100B1000092DF2D10134083DEFE70135092DEADC5A
:100B20000124EFE77047000010B512491248002277
:100B300002F047F9002811D110490F4802F05DF981
:100B400000280ED10E490C4803F0CCFA00280BD136
:100B5000094802F05BF9002809D110BDFFF7E2FF58
:100B6000EAE7FFF7DFFFEDE7FFF7DCFFF0E7FFF76E
:100B7000D9FFF2E7000000204401002078000020A7
:100B800050000020022804D005D8002800D0022000
:100B900070470120FCE70220FAE710B5FFF78EFB53
:100BA00010BD000000B583B002680C4B9A4201D022
:100BB00003B000BD0A4BDA69802109040A43DA61F7
:100BC000DB690B400193019B002200211F2002F0F2
:100BD0009FF81F2002F0CCF8EAE7C046005C004016
:100BE0000010024010B501009C239B00C058403B00
:100BF0009C46614402F034F910BD10B503009C22FC
:100C0000920080584A019B183D33FF331A6802F066
:100C100059F910BD10B503009C22920080584A017A
:100C20009B18DA6B02F0A0F910BD10B59C239B0055
:100C3000C05802F05BFA10BD70B504008368022B47
:100C400009D19C25AD006059012102F031FA6059AB
:100C500002F0FFF970BDFFF765FFF2E710B5040081
:100C60009C239B00C05802F027FAA369002B04D0F4
:100C7000024A136906210B43136110BD00ED00E029
:100C800010B504008369002B05D19C239B00E0581C
:100C900002F01EFA10BD044A136906218B4313614A
:100CA000FFF77BFFF1E7C04600ED00E070B5040000
:100CB00013489C239B00C4505033E050114B0360F9
:100CC00008234360063B8360036100238361C361A3
:100CD000036200F061FD00280FD1B025AD0060591E
:100CE00018230022002101F0A9F96059582300229D
:100CF000802101F0A3F9002070BDFFF713FFECE79E
:100D000008040020005C004010B5B0239B00C058D0
:100D100000F0ACFDFFF736FF10BD10B5B0239B000F
:100D2000C05800F0BAFDFFF72DFF10BD10B514003C
:100D30001A00B0239B00C058230000F0DBFDFFF732
:100D400021FF10BD10B5B0239B00C05801F0FCF886
:100D5000FFF718FF10BD10B5B0239B00C05801F07D
:100D600032F9FFF70FFF10BDB0239B00C3584AB202
:100D7000002A07DB7F220A4052019B182B33FF33E6
:100D8000187870477F220A4052019B182A3318783E
:100D9000F7E710B5B0239B00C05800F095FDFFF7B2
:100DA000F1FE10BD10B5B024A400005900F005FEFE
:100DB000FFF7E8FE10BD10B5B024A400005900F004
:100DC000D6FDFFF7DFFE10BD004870477C0600200F
:100DD0007047000012230B80004870471C00002061
:100DE00004230B80004870473000002030B50023FA
:100DF0000AE05D0037344C5500015C0001340C19E9
:100E0000002525700133DBB2934206D2040F092C72
:100E1000EFD85D0030344C55EEE730BD70B50B4B6C
:100E200018680B4B1D680B4B1B68C018002800D1BD
:100E300070BD094CA11C0822FFF7D8FF2100123118
:100E400004222800FFF7D2FFF2E7C046ACF7FF1FED
:100E5000B0F7FF1FB4F7FF1F3400002010B51A23AE
:100E60000B80FFF7DBFF014810BDC04634000020B7
:100E700010B50A00002805D10549064802F0B1FC6A
:100E8000034810BD0249034802F0ABFCF8E7C04636
:100E90009C0A0020B841000810B50A00034C044821
:100EA000210002F09EFC200010BDC0469C0A0020DC
:100EB000D841000810B50A00002805D105490648A8
:100EC00002F08FFC034810BD0249034802F089FC80
:100ED000F8E7C0469C0A0020EC41000810B50A0063
:100EE000002805D10549064802F07BFC034810BDE7
:100EF0000249034802F075FCF8E7C0469C0A00204E
:100F0000F84100080020704700207047002070471B
:100F10000020704700207047002070477047FEE7B0
:100F20007047704710B501F02FFD10BD10B5024895
:100F300000F02EFF10BDC0460804002082B00A4B0E
:100F4000996901221143996199690A400092009AB6
:100F5000DA69802149050A43DA61DB690B400193B4
:100F6000019B02B07047C0460010024010B588B027
:100F700004001422002103A803F00AF92268134B8D
:100F80009A4201D008B010BD114C63698022D20290
:100F900013436361636913400193019BC02303936F
:100FA000AE3B0493113B059303220692079303A9DA
:100FB000084801F0C9FDE369802292031343E3610D
:100FC000E36913400293029BDCE7C04600540040F3
:100FD00000100240000400484022835A02490B439B
:100FE0009BB283520020704780BFFFFF4022835A8C
:100FF00002490B40835200207047C0467F400000EA
:1010000084B010B5039104920593402201238352CA
:1010100000238352043283520C328352FFF7DCFFE9
:10102000002010BC08BC04B018470000F0B5030055
:101030000D78AD0045192A88B2480240C8780228C8
:1010400059D00AD8002852D0012804D18020C000ED
:101050000243002009E0012007E0032804D1C0205A
:10106000C0000243002000E00120A74C224392B2BE
:101070002A800A7896009E1935882DB2A34F3D40EC
:101080002A4392B21443A4B234800A7B002A00D0CF
:101090008BE04A78002A3BD050229C5A1C190A78CF
:1010A000D20012198024E400A4466244CC8864086B
:1010B000640014800A7892009A181488640605D592
:1010C00015883D40924C2C43A4B21480CA78012A62
:1010D00013D00A7892009A1813888E490B40202169
:1010E0004B409BB288490B439BB2138049E080245C
:1010F000A4002243B9E70020B7E70A7892009B18C2
:101100001988844A1140804A0A4392B21A8038E012
:1011100050255C5B1C190A78D20012197E4CA4463B
:101120006244CC886408640014805C5B1C190A78F3
:10113000D2001219794CA44662440C69002C21D1CA
:101140001488774D2C401480764D2C4314800A78F7
:1011500092009A181488640406D515886B4C2540B3
:10116000714C2C43A4B214800A7892009B181A8800
:101170006E490A40C02189015140634A0A4392B234
:101180001A80F0BD3E2C06D86508E40700D501356D
:10119000AD021580DBE76509E40600D1013DAD0233
:1011A000ADB2604C2C431480D1E70A7892009A18B3
:1011B0001588564C25405E4C2C43A4B21480502513
:1011C0005C5B1C190A78D20012198024E400A44642
:1011D00062440C896408640014805C5B1C190A7802
:1011E000D20012194C4CA44662444C896408640035
:1011F00014804A78002A3AD10A7892009A18148802
:10120000640406D51588414C2540474C2C43A4B2B4
:1012100014800A7892009A181488640606D51588F6
:101220003A4C25403A4C2C43A4B214800A789200E0
:101230009A181588354C2540354C2C43A4B214809F
:101240000C78A4001C192588384A1540C022920148
:101250006A402D4D2A4392B222800A7892009B1850
:101260001A882C490A402A4392B21A8089E70A78E0
:1012700092009A181488640406D51588234C2540DA
:10128000294C2C43A4B214800A7892009A1814882E
:10129000640606D515881D4C25401D4C2C43A4B270
:1012A00014800A7892009A181588184C25401E4C14
:1012B0002C43A4B21480CA78012A17D00C78A40059
:1012C0001C192288134D2A4020256A4092B20E4DE7
:1012D0002A4392B222800A7892009B181988134AF6
:1012E0001140094A0A4392B21A804AE70A789200EA
:1012F0009A181588074C2540034C2C43A4B214803F
:10130000E9E7C0468F89FFFF8080FFFF8F8FFFFFD7
:10131000C080FFFFBF8FFFFF040400000604000031
:10132000FF83FFFF0080FFFF80C0FFFF8FBFFFFF35
:101330008081FFFF4B78002B0ED00B789B00C018EC
:1013400003880C4A1340102253409BB20A4A1343AD
:101350009BB20380002070470B789B00C018038865
:10136000064A1340802252015A40034B13439BB25A
:101370000380EFE7BF8FFFFF8080FFFF8FBFFFFF7E
:1013800010B50B7B002B3AD14B78002B1DD00B787E
:101390009B00C3181A88520606D51C88194A1440A7
:1013A000194A224392B21A80CB78012B27D00A78AF
:1013B00092008218138815490B4020214B409BB2A4
:1013C00013490B439BB2138019E00B789B00C318A1
:1013D0001A88520406D51C880A4A14400D4A224332
:1013E00092B21A800B789B00C01803880A4A1340F7
:1013F000C02292015A40064B13439BB20380002047
:1014000010BDC0468F8FFFFFC080FFFFBF8FFFFF63
:101410008080FFFF80C0FFFF8FBFFFFF40230122BE
:10142000C252433200218152413AC25200207047D9
:10143000002902D14C238022C252002070470000B4
:101440005822835A02490B439BB2835200207047B3
:101450000080FFFF4423C05A80B2704700207047CD
:1014600010B501335B0812188020C0008446624426
:1014700007E008784C7824020443148002320231D9
:10148000013B002BF5D110BD70B505000C0049786B
:1014900001292CD0A26923699A4200D8DCE0D21A33
:1014A000A261227B002A00D0EDE05032A95A6918CF
:1014B0002278D2005218A3498C466244002B00D0F7
:1014C000CEE01388A0490B401380A0490B43138042
:1014D00023789B00ED182B889D4A1340C02292016F
:1014E0005A409C4B13439BB22B80002070BDA269D5
:1014F00023699A421ED9D21AA261227B002A1DD0EA
:101500002278900028180088400666D500293AD134
:101510005031695A6918D20052188A498C4662447F
:10152000002B1DD111888848014011808748014354
:10153000118031E00023A3611300DEE79EB2E28850
:10154000616933002800FFF78BFF5023EA5AAA187D
:101550002378DB009B18804A944663441E802EE06B
:101560003E2B06D85908D80700D5013189021180D1
:1015700012E05909D80600D10139890289B27348AD
:101580000143118008E05021695A6918D2005218AD
:101590006C498C466244138062899BB26169280061
:1015A000FFF75EFF6378002B49D123789B00EB188F
:1015B00019886A4A11406A4A0A4392B21A8022780C
:1015C0009200AA18138867490B4030214B409BB208
:1015D00060490B439BB2138087E7002924D1503127
:1015E000695A6918D20052185B498C466244002B34
:1015F00007D111885448014011805448014311809B
:101600001BE03E2B06D85908D80700D501318902C6
:10161000118012E05909D80600D10139890289B236
:101620004A480143118008E05021695A6918D200E4
:10163000521849498C46624413802289ADE7012B38
:10164000BDD123789B00EB181988444A1140464AC3
:101650000A4392B21A80B2E70023A361130020E785
:101660003E2B06D85908DB0700D5013189021180CD
:101670002EE75909DB0600D10139890289B2334BC3
:101680000B43138024E7002911D15022A95A69186D
:101690002278D200521830498C466244002B1CD16B
:1016A000118829480140118028480143118062783F
:1016B000002A38D15032A95A69182278D20052181B
:1016C00020498C466244002B1AD113881E490B40D6
:1016D00013801E490B431380FAE63E2B06D85908A7
:1016E000D80700D5013189021180E0E75909D806F1
:1016F00000D10139890289B2144801431180D6E72B
:101700003E2B06D85908DB0700D50131890211802C
:10171000DEE65909DB0600D10139890289B20B4B9B
:101720000B431380D4E6012A00D0D1E64F32A95AE8
:1017300069182278D200521802498C4662441380FC
:10174000C6E6C04606040000FF83FFFF0080FFFFDF
:101750008FBFFFFF8080FFFF020400008F8FFFFF1D
:10176000C080FFFFBF8FFFFF80C0FFFF30B55D0867
:1017700012188020C0008446624406E014880232B9
:101780000C70240A4C700231013D002DF6D1DB07AC
:1017900001D513880B7030BD70B586B0041E61D0C2
:1017A000314BC35C002B07D02F4B0322E25420683F
:1017B000FFF71CFC00231AE08A239B000022C2547E
:1017C000FFF7F0F9F0E75A01A218110029310120C2
:1017D000087001390B70D38610002B300021017086
:1017E0009163D1639A1C520111510133DBB26068DD
:1017F0008342E8D3002215E05301E3181D002A3587
:10180000FF3500212970013D2A70033529700D35FF
:1018100029603D33FF33196013000A335B0119510E
:101820000132D2B29042E7D82068230010336A46D2
:1018300062CB62C222CB22C26168A268E368FFF772
:10184000DFFB24230022E254074B0132E254E36918
:10185000012B02D0002006B070BD200000F007FC74
:101860000020F8E70120F6E72902000070B5040027
:101870008A239B00C35C012B0DD08A25AD00012378
:1018800043550068FFF7DCFD2068FFF7A5FB002348
:101890006355002070BD0220FCE770B504008A2368
:1018A0009B00C35C012B0DD08A25AD00012343555D
:1018B0000068FFF79BFB2068FFF7B0FD002363552E
:1018C000002070BD0220FCE770B504008A239B0055
:1018D000C35C012B0CD08A25AD0001234355233373
:1018E000C1540068FFF7A4FD00236355002070BDBC
:1018F0000220FCE770B504000D0049B2002926DB88
:1019000007202840400101002931FF3161182018CB
:101910002A30FF30002606700720284008700A6130
:10192000CB704A78002A00D0C881022B1AD08A23B3
:101930009B00E35C012B18D08A25AD000123635581
:101940002068FFF773FB00236355002070BD07205C
:101950002840400101002831611820182930012653
:101960000670D9E700230B71E1E70220EEE770B5BE
:1019700007250D406C0121002931FF314118041960
:1019800026003D36FF3632602A000A32520183506B
:1019900082180023536022002A32FF321370293448
:1019A000FF342570002D04D10068FFF76DFD002085
:1019B00070BD0068FFF768FDF9E770B507250D40B9
:1019C0006C012100283141180419E263AA1C52015C
:1019D00083508218002353602300293301221A7098
:1019E00028342570002D04D10068FFF74DFD00203C
:1019F00070BD0068FFF748FDF9E70000F0B5C64686
:101A000000B5040098E00288D34B1A40D34B13432F
:101A10009BB2038021685023CB5A2822A25CD200BB
:101A20009B185B18CE4A944663441B889B059B0D0C
:101A30006364E26BD318E36300212000FFF7EAF848
:101A40002423E35C002B77D0236C002B74D1242259
:101A5000A35C2068802149420B43DBB2CC31435266
:101A60000023A35468E05023C35A94225200A25C7E
:101A7000D2009B181B18BB4A944663441B889B05E5
:101A80009B0D22002932FF32D3618C21890061181D
:101A9000D288FFF76BFE22681388B3490B40802180
:101AA0000B439BB213802000FFF79CF844E03E2AD2
:101AB00006D85108D20700D501318902198095E076
:101AC0005109D20600D10139890289B2A34A0A43D9
:101AD0001A808BE0AE00801903889FB21BB2002BE6
:101AE00000DA8FE03F0627D52268921911889A4BB9
:101AF00019409A4B0B439BB2138022685023D35A50
:101B000068012018010028310978CE009B199B1824
:101B1000934A944663441B889B059B0D02356D01D7
:101B200062195360C26BD218C2632B59002B00D0CC
:101B300026E12000FFF76EF820684423C35A1BB249
:101B4000002B00DB20E14423C35A99B20F221D0071
:101B500015401342BED1C90600D454E703889AB297
:101B60001B0500D57FE712B2002AE5DA03887E4A1A
:101B70001340802213439BB2038020685023C35A32
:101B800094225200A25CD2009B181B18754A9446FE
:101B900063441B889B059B0D22002932FF32D361D1
:101BA000002B0ED0516900290BD01500D288FFF709
:101BB000DDFDEA696B699B186B6100212000FFF76E
:101BC0001CF8236850229A5A9B18664A944663442C
:101BD00022002932FF321269002A00D067E71A88F2
:101BE00062490A401A805D490A431A8021680B88BD
:101BF0005F4A1340C02292015A405E4B13439BB28E
:101C00000B8099E70388584A1340802213439BB204
:101C100003806B01E3183533FF331B78002B20D191
:101C200020685033C35A6A01A2182932FF32127851
:101C3000D2009B181B184B4A944663441B889B0593
:101C40009A0D9046002B34D06B01E3181A002F3206
:101C5000FF3212883D33FF3319684346FFF786FD94
:101C600027E020686B01E3182933FF331B789A00C3
:101C70008218128852044BD55022825ADB00D318A6
:101C80001B18374A944663441B889B059A0D90465F
:101C9000002B30D122686B01E3182933FF331B7806
:101CA0009B00D2181188344B1940344B0B439BB224
:101CB000138040462B000A335B01E1184A68424416
:101CC0004A60690161183D31FF310A6842440A6087
:101CD0001B59002B06D0690161183931FF310968A1
:101CE000884230D26B01E3182933FF331978200082
:101CF000FEF783FFF6E66B01E3181A003132FF327C
:101D000012883D33FF3319684346FFF72FFDC1E7C3
:101D10005022825ADB00D3181B18124A944663449F
:101D20001B889B059A0D9046002BB3D06B01E318DE
:101D30001A003332FF3212883D33FF3319684346AD
:101D4000FFF714FDA6E7690161182931FF31097811
:101D50002000FFF70CFEC5E60F8FFFFF0080FFFF9E
:101D600002040000060400008F0F0000FF83FFFF45
:101D70008FBFFFFF8080FFFF8F8FFFFFC080FFFFBF
:101D80002000FFF71AFED7E6002080BCB846F0BD61
:101D900070B504000068FFF75DFB000400D57EE02D
:101DA0002068FFF757FB400500D57CE02068FFF76F
:101DB00051FB400405D5216844228B5A5B480340FF
:101DC0008B522068FFF746FB800405D5216844222A
:101DD0008B5A574803408B522068FFF73BFBC004E7
:101DE00018D521684023CA5A04208243CA52216868
:101DF000CA5A04308243CA5298239B00E35C012BE9
:101E00005FD02000FEF73CFF216844228B5A4948EE
:101E100003408B522068FFF71DFB00055AD4206851
:101E2000FFF718FB000629D5216844228B5A802031
:101E300083438B5298239B00E35C002B00D066E029
:101E40002168043A8B5A042003439BB28B522168C9
:101E50008B5A082003439BB28B5298239B003F3A36
:101E6000E25422685423D25A9208183B1340992214
:101E70009200A3500121200000F00EF92068FFF726
:101E8000E9FA800547D42068FFF7E4FAC00505D5D4
:101E9000216844228B5A284803408B5270BD200091
:101EA000FFF7ACFD7CE7216844228B5A23480340AE
:101EB0008B522000FEF7C0FE00212000FFF704FD3A
:101EC00074E798239B000022E2540021200000F0D8
:101ED000E3F896E7216840228B5A082003439BB21F
:101EE0008B5220684421435A154D2B4043522168A0
:101EF0008B5A042003439BB28B522068FFF7AAFA47
:101F0000C00400D58BE72000FEF7A8FE87E720007D
:101F1000FEF7A4FEB2E7216844228B5A0948034029
:101F20008B522000FEF781FEADE7C046FFBFFFFFEA
:101F3000FFDFFFFFFFEFFFFFFFFEFFFFFFFBFFFFE6
:101F4000FFF7FFFFFFFDFFFF70B5040007250D4001
:101F500043689D4233D84BB2002B20DB4B01190064
:101F60002931FF314118C3182A33FF3300221A7078
:101F700001238B700D708A239B00E35C012B20D022
:101F80008A239B000122E2542068FFF7D3F9002D39
:101F90000ED08A239B000022E254002070BD6B010A
:101FA000190028314118C318293301221A70DFE7BC
:101FB00020688C239B00E118FFF750FAE9E7012025
:101FC000ECE70220EAE770B504000B000F220A409C
:101FD00041688A422ED85AB2002A20DB07221A40D2
:101FE000520111002931FF31411882182A32FF3283
:101FF0000020107000228A70073213400B708A2371
:102000009B00E35C012B17D08A25AD0001236355AB
:102010002068FFF7B5F900236355002070BD072243
:102020001A4052011100283141188218293201202A
:102030001070DFE70120F1E70220EFE710B50C0692
:102040000AD507242140490128314018002A08D127
:102050000273C380002010BD49012931FF314018AF
:10206000F4E70122027303811B0C4381F2E701684C
:102070009A239B000122C250083B0022C2545432D2
:102080008B5A012003439BB28B528B5A022003438D
:102090009BB28B52002070477047000070B582B031
:1020A000041E00D17FE20368DB072BD5B34B5A68CF
:1020B0000C231340042B1DD0B04B5A680C23134043
:1020C000082B0ED06368012B41D0002B56D1AB4BAF
:1020D0001A68AB490A401A601A68AA490A401A608D
:1020E0003BE0A64B5B68C0225202134080225202A2
:1020F0009342E7D1A14B1B689B0303D56368002B78
:1021000000D153E223689B0777D59C4B5B680C2278
:102110001A4262D0994B5A680C231340082B53D0B3
:10212000E368002B00D18AE0944A136801210B4335
:10213000136000F035FC0500904B1B689B0775D4BD
:1021400000F02EFC401B0228F6D903202CE28B4A1B
:10215000116880235B020B4313606368002B25D05A
:1021600000F01EFC0500854B1B689B03CAD400F0E1
:1021700017FC401B6428F6D9032015E2052B09D073
:102180007E4B1A687E490A401A601A687D490A40E7
:102190001A60E2E7794B19688022D2020A431A607A
:1021A0001968802252020A431A60D6E700F0F8FB51
:1021B0000500724B1B689B03A4D500F0F1FB401B8C
:1021C0006428F6D90320EFE16C4B5B68C022520211
:1021D0001340802212029342A2D1684B1B689B07D6
:1021E00003D5E368012B00D0E2E164490B68F822D3
:1021F00093432269D20013430B6023681B0744D525
:10220000E369002B2ED05D4A536A01210B435362D0
:1022100000F0C6FB0500594B5B6A9B0735D400F004
:10222000BFFB401B0228F6D90320BDE153490B68D0
:10223000F82293432269D20013430B60DDE74F4A33
:10224000136801218B43136000F0AAFB05004B4B80
:102250001B689B07D1D500F0A3FB401B0228F6D9D1
:102260000320A1E1454A536A01218B43536200F0E8
:1022700097FB0500414B5B6A9B0706D500F090FB7E
:10228000401B0228F6D903208EE123685B0700D4A7
:1022900080E03A4BDB69DB001DD4384BDA698021E2
:1022A00049050A43DA61DB690B400193019B012573
:1022B000354B1B68DB0510D5A368012B21D0002B03
:1022C00036D12E4B1A6A01218A431A621A6A0331E7
:1022D0008A431A621AE00025EAE72B4A1168802334
:1022E0005B000B43136000F05BFB0600264B1B6892
:1022F000DB05E1D400F054FB801B6428F6D90320F1
:1023000052E11E4A136A01210B431362A368002B9A
:1023100024D000F045FB0600184B1B6A9B0737D4FE
:1023200000F03EFB801B194B9842F5D903203BE19E
:10233000052B09D0114B1A6A01218A431A621A6AC5
:1023400003318A431A62E1E70C4B1A6A04210A43FB
:102350001A621A6A03390A431A62D7E700F020FBAF
:102360000600064B1B6A9B0712D500F019FB801B69
:10237000064B9842F5D9032016E1C04600100240F2
:10238000FFFFFEFFFFFFFBFF00700040881300000F
:10239000012D39D02368DB0610D56369012B39D0B4
:1023A000053357D1894A536B04218B435363536BD5
:1023B000F4318B43A169C9000B43536323689B0627
:1023C0006ED5824B5A680C2313400C2B60D07F4B88
:1023D0005A680C231340082B53D0236A002B7ED05D
:1023E0007A4A516B80235B020B43536300F0D8FAA7
:1023F0000500764B5B6BDB0352D400F0D1FA401B37
:102400000228F6D90320CFE0704AD36970490B4007
:10241000D361BFE76D4B5A6B04210A435A635A6B71
:1024200003390A435A6300F0BBFA0500674B5B6B44
:102430009B0706D400F0B4FA401B0228F6D903200B
:10244000B2E062494B6BF8229343A269D200134376
:102450004B63B3E75D4B5A6B04210A435A635A6BD3
:1024600003398A435A6300F09BFA0500574B5B6BB4
:102470009B07A3D500F094FA401B0228F6D903204D
:1024800092E0524B5B68C022520213409342A4D1A7
:102490004E4B5B6BDB0303D5236A012B00D089E035
:1024A000636A002B00D187E0484A51680C220A4039
:1024B000082A60D0022B25D0444A136845490B40B6
:1024C000136000F06DFA0400404B1B689B0150D56F
:1024D00000F066FA001B0228F6D9032064E03B4AAC
:1024E000536B3D490B40536300F05AFA0500374BDC
:1024F0005B6BDB03D4D500F053FA401B0228F6D9FE
:10250000032051E0314A136832490B40136000F058
:1025100047FA05002D4B1B689B0106D500F040FAD9
:10252000401B0228F6D903203EE0284BDA6A0F212F
:102530008A43216B0A43DA625A6828490A40E16AF1
:10254000A06A01430A435A601968802252040A4370
:102550001A6000F025FA04001C4B1B689B0106D48E
:1025600000F01EFA001B0228F6D903201CE0002010
:102570001AE0002018E0012B20D0144B5A68D86ACA
:10258000C0235B021340A16A8B4219D10F23034081
:10259000216B8B4216D1F0239B031A40E36A9A42C7
:1025A00012D1002000E0012002B070BD0120FBE745
:1025B0000120F9E70120F7E70020F5E70120F3E724
:1025C0000120F1E70120EFE70120EDE700100240D4
:1025D000FFFFFFEFFFFFFFFEFFFFFEFFFF7FC2FFDA
:1025E00030B589B004AA1E4B31CB31C21B681360D1
:1025F0006A461C4B31CB31C21B6813601A4B5A68B8
:102600000C231340082B04D00C2B26D1174809B0FB
:1026100030BD910C0F23194004A8445C1249C96ACB
:102620000B406946C95CC0235B021A4080235B02F1
:102630009A4208D0C0235B029A4209D00C48FDF7A9
:102640003FFD6043E3E70A48FDF73AFD6043DEE7FC
:102650000648FDF735FD6043D9E70548D7E7C04692
:10266000684200087C42000800100240006CDC0256
:1026700000127A0070B504000D00002800D186E039
:10268000474B1A68012313408B420AD244490B6816
:10269000012293432B430B600B681A40AA4200D0DF
:1026A00077E023689A070ED55B0705D53D4A516848
:1026B000E023DB000B4353603A4A5368F0218B431D
:1026C000A1680B4353602368DB0735D56368012B92
:1026D00009D0022B24D0032B28D0324A126892074B
:1026E00005D4012052E02F4A1268920353D52D4998
:1026F0004A680320824313434B6000F051F90600FF
:10270000284B5B680C221A4063689B009A4213D0E6
:1027100000F046F9801B244B9842F1D9032035E0A4
:10272000204A12689201E2D401202FE01D4A526B28
:10273000D203DCD4012029E0194B1A68012313408D
:10274000AB4209D916490B68012293432B430B6016
:102750000B681A40AA4220D123685B0706D5114AAC
:10276000536812490B40E1680B435360FFF738FF91
:102770000C4B5A6812090F2313400D4AD35CD84002
:102780000C4B1860002000F0C7F8002070BD01203D
:10279000FCE70120FAE70120F8E70120F6E7C04650
:1027A000002002400010024088130000FFF8FFFFE5
:1027B000904200087400002070B582B004000368E5
:1027C000DB0339D54D4BDB69DB0069D44B4BDA6950
:1027D000802149050A43DA61DB690B400193019BC3
:1027E0000125474B1B68DB055CD5444B1A6AC023A7
:1027F0009B00110019401A4215D06368C022920054
:1028000013408B420FD03D4B1A6A3E4911401E6A5D
:102810008020400230431862186A3B4E30401862F4
:102820001962D20752D4354A136A36490B4061689F
:102830000B431362012D58D02368DB0706D52F4ABE
:10284000136B03218B43A1680B43136323689B071E
:1028500006D52A4A136B2D490B40E1680B431363DD
:1028600023689B0606D5254A136B10218B432169EB
:102870000B43136323689B0306D5204A136B802107
:102880008B43A1690B43136323685B0532D51B4A55
:10289000136B40218B4361690B43136300202AE0D3
:1028A00000259EE7164A116880235B000B431360E6
:1028B00000F076F80600124B1B68DB0595D400F09B
:1028C0006FF8801B6428F6D9032014E000F068F844
:1028D00006000A4B1B6A9B07A5D400F061F8801B19
:1028E0000B4B9842F5D9032005E0D36909490B4009
:1028F000D361A1E7002002B070BDC04600100240C5
:1029000000700040FFFCFFFFFFFFFEFFFFFFFCFF2A
:1029100088130000FFFFFFEF10B504000F4B19787C
:10292000FA208000FDF7CCFB01000D4B1868FDF785
:10293000C7FB00F029FA00280DD1032C01D9012092
:102940000AE0013000222100404200F0E1F9054B8D
:102950001C60002000E0012010BDC0466C0000207B
:10296000740000207000002010B5064A1368102182
:102970000B4313600020FFF7CFFFFEF7DFFA0020C4
:1029800010BDC04600200240034A1168034B1B786B
:102990005B1813607047C0469C0C00206C00002040
:1029A000014B18687047C0469C0C002070B50400AD
:1029B000FFF7F6FF0500631C02D0044B1B78E418F8
:1029C000FFF7EEFF401BA042FAD370BD6C00002061
:1029D00010B5041E59D04123C35C002B43D04123C2
:1029E0002422E2542268136801218B431360636838
:1029F000226827490B4013612268936825490B40E0
:102A00009360E368012B34D0A168226884231B0201
:102A10000B439360E368022B32D0226851681E4B4F
:102A20000B4353602268D3681A490B40D360236973
:102A300062691343A269120221681343CB60E36900
:102A4000216A22680B4313602268136801210B433B
:102A500013600023636441221F31A15423630132B8
:102A6000A354002010BD40330022C254FEF77EFA6A
:102A7000B5E7A168226880231B020B439360C9E776
:102A80002368802212015A60C7E70120EAE7C046A6
:102A9000FFFFFFF0FF7FFFFF00800002F0B5412342
:102AA000C35C202B20D12033C35C012B1ED04024DB
:102AB0000122025541252423435506683368934378
:102AC0003360066833680A4F3B40336006683368FA
:102AD0000B43336001680B6813430B60202343559D
:102AE000002303550020F0BD0220FCE70220FAE796
:102AF000FFEFFFFFF0B54123C35C202B1ED1203335
:102B0000C35C012B1CD04024012202554125242303
:102B10004355066833689343336006683368094F4A
:102B20003B4009021943316001680B6813430B6095
:102B300020234355002303550020F0BD0220FCE76D
:102B40000220FAE7FFF0FFFFF0B5D6464F464646B3
:102B5000C0B582B0002338E0042600E00026A6407D
:102B600034003C43023292005F4E94515F4A176832
:102B70004A46D2433E004C46A6434C68E40302D585
:102B80003E004C462643594C266067683E0016407E
:102B90004C68A40302D53E004C462643534C666065
:102BA000A7683E0016404C68E40202D53E004C4641
:102BB00026434E4CA660E66832404C68A40201D51C
:102BC0004A463243494CE26001330C682200DA4045
:102BD00000D183E001229A4025001540A946144205
:102BE000F2D04C68022C01D0122C10D1DC08083431
:102BF000A400275807261E40B6000F25B540AF4356
:102C0000BC460F69B7403E0065462E432650046817
:102C1000A4465E000324A2462700B740B846FF43FF
:102C200065464446A543AC464C68554625402C00B5
:102C3000B44065462C4304604C68651E012D03D9E1
:102C4000112C01D0122C12D184683C40A446CC68CF
:102C5000B44065462C438460446894434A68120932
:102C60009446012265462A409A4022434260C46845
:102C70003C408A68B2402243C2604A68D200A3D571
:102C80001B4CA66901221643A661A4692240019249
:102C9000019A9A08941CA400134EA75903241C40BF
:102CA000A4000F26A640B7439026F605B04200D1F7
:102CB00054E7104EB0420BD00F4EB0420AD00F4E28
:102CC000B04209D00E4EB04200D145E7052646E796
:102CD000012644E7022642E7032640E702B0E0BCB3
:102CE000BA46B146A846F0BD0000014000040140CC
:102CF000001002400004004800080048000C004892
:102D000000100048002A01D0816170478162FCE711
:102D100070B5002811DB8308134DC0339B005C594C
:102D200003221040C000FC3216008640B4438901E3
:102D30000A40824022435A5170BD0F230340083B92
:102D40009B0806339B00094A944663445C6803224F
:102D50001040C000FC3215008540AC4389010A4098
:102D6000824022435A60E7E700E100E000ED00E026
:102D7000002805DB1F2318401E3B8340014A1360D7
:102D80007047C04600E100E0013880235B049842B0
:102D90000FD2094A50600948036A1B021B0AC0216E
:102DA00009060B430362002393600733136000207E
:102DB00070470120FCE7C04610E000E000ED00E0B5
:102DC000704710B5002816D0AD239B00C358002BC8
:102DD00003D0AD239B000024C450002902D0AC23B3
:102DE0009B00C150A7239B000121C1540270FDF735
:102DF0005DFF002010BD0220FCE7002904D0AD23B8
:102E00009B00C150002070470220FCE710B5FDF781
:102E10007BFF002010BD10B50400AD239B00C358FC
:102E20005B68017998472000FDF777FF002010BD0F
:102E300010B5AD239B00C358002B06D01B689847E4
:102E4000002800D110BD0220FCE70220FAE710B5EF
:102E5000AD239B00C3585B689847002010BD00005D
:102E600070B50400AA239B00C518280000F064F97F
:102E7000A5239B000122E250114BE25A163BE2507F
:102E80001033E15C1F230B40012B0FD0022B12D01B
:102E9000002B05D07F2399432000FDF753FF03E06B
:102EA0002900200000F02CFB002070BD290020002C
:102EB00000F05CFBF8E72900200000F08AFBF3E754
:102EC000AE02000070B505000C001100002C38D1D6
:102ED000A5239B00C358032B03D0052B28D020002B
:102EE0003DE002005532FF32D368126993420DD99A
:102EF0009B1A5530FF30C3609A4205D99AB2280018
:102F000000F0B4FC20002AE092B2F8E7AD239B0069
:102F1000C3581B69002B04D0A7229200825C032AAD
:102F200004D0280000F0AAFC200018E09847F8E739
:102F3000A5239B000022C2500021FDF703FF2000C3
:102F40000DE0AD239B00C3589B69002B08D0A7223E
:102F50009200825C032A05D121009847002070BDB1
:102F60000220FCE70220FAE7F8B505000C0011008A
:102F7000002C5BD1A5239B00C358022B0ED0042B41
:102F800001D0002B03D180212800FDF7DBFEA82310
:102F90009B00EB5C012B43D02000F8BD026A466A1F
:102FA000B24220D8C76931003800FDF7C5F80029C2
:102FB00006D1BE4204D8A6239B00EB589F421ED3E5
:102FC000AD239B00EB58DB68002B04D0A7229200B6
:102FD000AA5C032A21D080212800FDF7B3FE280037
:102FE00000F058FCD3E7921B026292B200F025FC7D
:102FF0000023002200212800FDF7DDFEC7E70022A4
:10300000280000F01AFCA6239B000022EA500023AF
:1030100000212800FDF7CFFEB9E728009847DAE73E
:10302000A8239B000022EA542000B6E7AD239B00B2
:10303000C3585B69002B08D0A7229200825C032A48
:1030400005D1210098470020A7E70220A5E702202C
:10305000A3E770B50400402300220021FDF766FEBF
:103060000125AC235B00E55040260C33E650253BA0
:10307000FF3B002280212000FDF758FEA56166621B
:10308000A7239B00E5540023A5229200A350636070
:103090001032A350AE239B00E358002B06D0AD2383
:1030A0009B00E3585B68002120009847002070BD1A
:1030B0000174002070470000A7239B00C15C034AF5
:1030C00081540422C25400207047C0469D02000073
:1030D000A7239B00C35C042B01D000207047024B48
:1030E000C25C013BC254F8E79D02000010B5A72363
:1030F0009B00C35C032B01D0002010BDAD239B00BF
:10310000C358DB69002BF7D09847F5E70300002090
:1031100002E00130C0B201331A78002AF9D17047B9
:1031200010B54B88012B00D010BDA9239B000122B4
:10313000C25000F0A3FBF7E70B7803704B784370A5
:103140008B78CA7812029B1843800B794A79120255
:103150009B1883808B79CA7912029B18C3807047B1
:1031600010B504008021FDF7EDFD00212000FDF7E2
:10317000E9FD10BD30B583B005000C006B460022A0
:10318000DA8049880B0A072B00D9C0E09B006A4A05
:10319000D3589F46AC239B00C3581B68007C6A46EB
:1031A000911D98476B4606331B88002B03D0E2889D
:1031B000002A00D0B0E0E388002B00D1B8E003B0D3
:1031C00030BD037C002B09D1AD239B00C3589B6A03
:1031D0006A46901D984702234370E3E7AD239B00A6
:1031E000C358DB6A6A46901D984702234370D9E7AB
:1031F000C9B205295DD88900504B5B589F46AC2366
:103200009B00C3585B68002B04D0007C6A46911D6C
:103210009847C7E72100FFF7A3FFD0E7AC239B0047
:10322000C3589B68002B04D0007C6A46911D9847C8
:10323000B8E72100FFF794FFC1E7AC239B00C35818
:10324000DB68002B04D0007C6A46911D9847A9E7F3
:103250002100FFF785FFB2E7AC239B00C3581B6931
:10326000002B04D0007C6A46911D98479AE7210004
:10327000FFF776FFA3E7AC239B00C3585B69002BE5
:1032800004D0007C6A46911D98478BE72100FFF728
:1032900067FF94E7AC239B00C3589B69002B04D0C5
:1032A000007C6A46911D98477CE72100FFF758FF94
:1032B00085E7AD239B00C3589B6B002B03D06A4668
:1032C000063298476EE72100FFF74AFF77E7037C55
:1032D000002B07D1AD239B00C3585B6B6A46901D42
:1032E00098475FE72100FFF73BFF68E7037C002B6F
:1032F00009D1AD239B00C3581B6B6A46901D9847AC
:10330000072343704EE72100FFF72AFF57E721000C
:103310002800FFF725FF52E7191C934200D9111C22
:103320008AB26B46D9800100280000F078FA42E7A3
:10333000280000F0A3FA42E7A0420008C0420008BB
:1033400070B504008B88002B23D1CB88002B20D1B3
:103350004B887F2B1DD87F251D40A7239B00C35C76
:10336000032B0ED00D4BC5542900FDF712FD200094
:1033700000F084FA002D07D0A7239B000222E2541C
:103380000AE0FFF7EDFE07E0A7239B000122E254CD
:1033900002E02000FFF7E4FE70BDC0469E02000080
:1033A00070B504000D0089782A4B197001290FD8D7
:1033B000A7239B00C35C022B0ED0032B23D0290034
:1033C000FFF7CEFE234B19782000FFF740FD02E007
:1033D0002900FFF7C5FE70BD002911D04160A72369
:1033E0009B000322C254FFF723FD022803D02000D4
:1033F00000F044FAEFE729002000FFF7B1FEEAE70A
:1034000000F03CFAE7E7002911D0436899421ED04A
:10341000D9B2FFF71CFD0F4B197861602000FFF750
:1034200007FD02280ED0200000F028FAD3E7A723DA
:103430009B000222C2544160FFF709FD200000F00A
:103440001DFAC8E729002000FFF78AFEC3E700F055
:1034500015FAC0E7A00C002010B5CB88012B0BD1CA
:10346000A7239B00C35C022B09D9032B09D1011DA3
:10347000012200F0D4F901E0FFF772FE10BD002B2D
:1034800002D1FFF76DFEF9E70023836001000831E8
:10349000012200F0C4F9F1E710B5A7239B00C35C3B
:1034A000013B022B14D8CB88022B0ED10123C36021
:1034B000A9239B00C358002B01D00323C360010044
:1034C0000C31022200F0ABF910BDFFF749FEFBE71B
:1034D000FFF746FEF8E710B5A7239B00C35C013B4E
:1034E000022B0AD84B88012B00D010BDA9239B00CA
:1034F0000022C25000F0C2F9F7E7FFF731FEF4E70F
:1035000010B50A7860231340202B06D0402B04D03E
:10351000002B09D0FFF724FE04E0AD239B00C35825
:103520009B689847002010BD4B78092B18D89B004A
:103530000D4AD3589F46FFF71DFEF3E7FFF700FF44
:10354000F0E7FFF72DFFEDE7FFF786FFEAE7FFF76C
:10355000A3FFE7E7FFF7E4FDE4E7FFF7BCFFE1E7E0
:10356000FFF7FEFDDEE7C046D842000870B5050053
:103570000C000A7860231340202B07D0402B05D085
:10358000002B03D0FFF7ECFD002070BDA7239B00AC
:10359000EB5C013B022B17D82379012B0FD8AD230D
:1035A0009B00EB589B68210028009847E388002B7C
:1035B000EAD10028E8D1280000F060F9E4E7210012
:1035C0002800FFF7CDFDDFE721002800FFF7C8FD49
:1035D000DAE770B5050088880A790B7860241C400A
:1035E000202C08D0402C06D0002C0DD02800FFF74E
:1035F000B7FD002406E0AD239B00EB589B68280034
:1036000098470024200070BD202C0AD04E78012E4F
:103610003ED0032E0DD0002E64D02800FFF7A0FD71
:10362000F0E7AD239B00EB589B6828009847040007
:10363000E8E7A7239B00EB5C022B05D0032B14D0FB
:103640002800FFF78DFDDDE7002A01D0802A03D195
:103650002800FFF785FDD5E711002800FDF772FB74
:1036600080212800FDF76EFBCCE74B88002B06D1AC
:10367000002A04D0802A02D0CB88002B03D0280057
:1036800000F0FCF8BEE711002800FDF75BFBF6E751
:10369000A7239B00EB5C022B05D0032B14D0280042
:1036A000FFF75EFDAEE7002A01D0802A03D1280093
:1036B000FFF756FDA6E711002800FDF743FB802128
:1036C0002800FDF73FFB9DE74B88002B9AD153065E
:1036D00003D1280000F0D2F894E711002800FDF78C
:1036E0003AFBF6E7A7239B00EB5C022B06D0032BEB
:1036F00029D02800FFF734FD340083E7002A01D0E9
:10370000802A12D1000615D47F2313409900C918CE
:1037100089005131FF316918043100230B60022206
:10372000280000F07CF834006CE72800FFF718FD53
:10373000340067E77F2313409900C91889001031CE
:1037400069180431E9E744B2000622D40F20104082
:1037500083001B189B00EB185933FF331B68002BA9
:1037600025D0002C28DB7F2313409C00E418A40004
:103770005134FF342C190434002A01D0802A24D17A
:103780000023236002222100280000F048F83400C2
:1037900038E70F20104083001B189B00EB189B6933
:1037A000002BDED12800FFF7DBFC34002AE72800DD
:1037B000FFF7D6FC340025E77F2313409C00E41874
:1037C000A40010342C190434D6E711002800FDF7AA
:1037D000CBFA002802D001232360D3E70023236023
:1037E000D0E770B504000D001600002816D0FFF7D2
:1037F0008DFC013043009BB233802B7003236B7030
:10380000013B08E001345A1CD2B2E8540233DBB267
:10381000AA180021117020780028F3D170BD10B5CE
:103820001300A522920002248450C36103620A009F
:103830000021FDF7B7FA002010BD10B513000A00F3
:103840000021FDF7AFFA002010BD10B51300A5222E
:10385000920003248450393AFF3A83500432835053
:103860000A000021FDF7A7FA002010BD10B51300D3
:103870000A000021FDF79FFA002010BD10B5A52316
:103880009B000422C250002300220021FDF78AFA87
:10389000002010BD10B5A5239B000522C2500023B7
:1038A00000220021FDF787FA002010BD1B230380B2
:1038B00000487047B4000020002070470020704787
:1038C000002070470020704700207047002070479C
:1038D0000A23038000487047D0000020AE239B00DD
:1038E000C3588322D2009A5C0A2A12D00A2183226A
:1038F000D2009954083A0E20985400220E481A54C7
:103900000E481A540E481A540E4819540E495A5467
:10391000704702218322D200995400228220C000E5
:103920001A5405481A5405481A5405481A540548AB
:10393000195405495A54EBE7110400001204000021
:10394000130400001404000015040000AE239B00C3
:10395000C3588322D200995C8A1ED2B2012A05D9AB
:10396000052903D0062901D0092915D10221832276
:10397000D200995400228220C0001A5407481A54D9
:1039800007481A5407481A540748195407495A5403
:1039900015395A5006495A507047C0461104000064
:1039A00012040000130400001404000015040000B9
:1039B0000404000010B5062909D8AF239B00C358A2
:1039C0001868044C2100FFF70CFF200010BD0020F8
:1039D000FCE7C046A40C002010B50400AE239B00F9
:1039E000C358194A00219954184A127D52070DD51F
:1039F00006318322D2009954002215481A541548E2
:103A00001A5415481A54154A995410BD0821832296
:103A1000D200995400220E481A540E481A540E48E7
:103A20001A540E4A99542000FFF7F5F9AF239B0072
:103A3000E3589B689847BFF34F8F094B094ADA60F8
:103A4000BFF34F8FC046FDE719040000B40000200B
:103A5000110400001204000013040000140400000C
:103A600000ED00E00400FA0510B582B0AE239B0023
:103A7000C4586133FF33E35C042B05D0072B00D11E
:103A800078E0002002B010BD8023DB00E15800295F
:103A90005CD12378002B03D1384AA258012A42D0A6
:103AA000212B1FD0412B32D1344BE358052B2ED183
:103AB00063788122D200A350A17809025B18A35039
:103AC000E17809045B18A350217909065B18A3501B
:103AD0004D3AFF3A8258D26818009047002822D009
:103AE0000220CFE7254AA258052ADBD1637881223C
:103AF000D200A350A17809025B18A350E178090411
:103B00005B18A350217909065B18A3500BE0002332
:103B10001A4AA350043AA3506A4613700133D38063
:103B20006946FFF71DFB0023144AA350043AA35033
:103B300003228321C900625411496354114963541B
:103B400011496354114BE25400209BE70129EAD943
:103B5000023989028123DB00E358C918AF239B0097
:103B6000C3581B69054AA258200098470028DAD09C
:103B7000022087E7FFF730FF002083E704040000FE
:103B800011040000120400001304000014040000DB
:103B900070B50500AE239B00C458CB88002B65D0C0
:103BA0008323DB00E35C022B01D0092B56D148882C
:103BB0008023DB00E050CA88334BE25000281BD141
:103BC000032A17D902228323DB00E25400232F4962
:103BD00063542F4963542F4963542F49625423700F
:103BE000213363702033A370032221002800FFF7E4
:103BF00016FE48E00922E6E701281ED909218323A1
:103C0000DB00E1540023214EA355214EA355214E44
:103C1000A355214BE154023880020C3BE358C018F5
:103C2000AF239B00EB585B69210098470100164BBE
:103C3000E25A2800FFF7F3FD25E00F228323DB0083
:103C4000E2540023114823541148235411482354AB
:103C5000114BE2542800FFF783FA14E000230A4ACC
:103C6000A350043AA350FFF77BFA0CE0022283230F
:103C7000DB00E254002305496354054963540549B8
:103C80006354054BE25470BD0404000011040000AD
:103C900012040000130400001404000070B50500B5
:103CA000AE239B00C4586133FF33E35C032B09D080
:103CB000062B46D08223DB00E11806222800FFF7FE
:103CC000AEFD70BD324BE358002B2CD00422832371
:103CD000DB00E25400232F4963542F4963542F49DA
:103CE00063542F4BE254143BE358002B02D123784A
:103CF000412B0CD0AF239B00EB589B698222D20052
:103D0000A2188121C900605801219847D2E7AF234A
:103D10009B00C3589B698222D200A2180B396058BD
:103D200000219847C6E705228323DB00E2540023E5
:103D3000184963541849635418496354184BE254A2
:103D4000B8E7184BE35C012B13D0002BB2D1164B14
:103D50001B7D5B07AED502228323DB00E2540023E8
:103D60000C4963540C4963540C4963540C4BE254A2
:103D7000A0E706338322D200A354064A0121A154AE
:103D800000220549625405496254054AA35491E74B
:103D900004040000110400001204000013040000D9
:103DA0001404000019040000B400002010B5AE2374
:103DB0009B00C1586133FF339C4661440122FFF7E9
:103DC0002EFD10BD10B5AE239B00C358CA88002A33
:103DD0001AD08322D2009A5C022A01D0052A10D17F
:103DE0004C888022D2009C50CA8814495A50032122
:103DF0008324E4001955124C19551900FFF725FDCD
:103E000018E0FFF7ADF915E08322D2009A5C052A8D
:103E100001D0022A0FD10B4A012199540531013AF0
:103E20009954002208481A5408481A5408481A5449
:103E3000034A995410BDFFF793F9FBE7040400000F
:103E40001404000019040000110400001204000012
:103E50001304000070B50400AE239B00C3588322F6
:103E6000D200985C821ED2B2012A05D9052803D05F
:103E7000062801D0092815D102208322D2009854A7
:103E800000228225ED005A550E4D5A550E4D5A55B9
:103E90000E4D5A550E4D58550E481A5415381A5095
:103EA0000D481A500D4B5B7DDB0606D52000FEF752
:103EB000B2FF2000FEF7AAFF70BD4888FEF776FD2E
:103EC000FAE7C046110400001204000013040000C9
:103ED000140400001504000004040000B4000020D5
:103EE00070B582B06B460022DA80AE239B00C658C4
:103EF0000B78603215001D401A4227D0202D77D153
:103F00004D78062D1ED8AB003C4AD3589F46FFF78C
:103F100059FF00256FE0FFF73BFE00256BE0FFF740
:103F2000BDFE002567E0FFF7D9FC002563E0FFF741
:103F30003DFF00255FE0FFF709FD00255BE0FFF78F
:103F400089FF58E0FFF70CF9022554E04C780A2C61
:103F500033D00CD8002C17D0062C45D14B881B0A27
:103F6000212B21D000220021FFF759FC43E00B2C2C
:103F70003AD18D78002D33D1A7239B00C35C032B4E
:103F80002AD11F4BF55036E0A7239B00C35C032BBF
:103F900003D0FFF7E5F802252DE002226B46991DBC
:103FA000FFF73DFC250026E0CB881A1C092B00D921
:103FB000092292B213491231D6E7A7239B00C35CB2
:103FC000032B03D0FFF7CCF8022514E00C4BF118BB
:103FD0000122FFF724FC0EE0FFF7C2F802250AE0F9
:103FE000FFF7BEF8022506E0FFF7BAF8022502E067
:103FF000FFF7B6F80225280002B070BD00430008A4
:104000000C040000B400002070B50400AE2189004B
:10401000435800228020C0001A500D481A50022038
:104020008325ED005855083D5A550A4A985463585F
:10403000002B0BD0AF239B00E3589B689847593D5A
:10404000FF3D6059FCF7C4FE00236351002070BDA2
:10405000040400001404000010B504001848FCF724
:10406000B3FE0300AE229200A050002824D000220C
:1040700014494250043980200005585008395A50DC
:1040800011495A5011495A5402218320C000195431
:1040900008381A540E481A540E481A540E481A5426
:1040A0000E4819540E495A54AF239B00E3585B68DD
:1040B0009847002802D110BD0220FCE70220FAE751
:1040C0001C0400000C04000004040000190400009B
:1040D0001104000012040000130400001404000086
:1040E00015040000002902D0AF239B00C15000201E
:1040F000704700000D4885460D480E490E4A0023C2
:1041000002E0D458C4500433C4188C42F9D30B4A8B
:104110000B4C002301E013600432A242FBD3FEF7F4
:104120004FFE00F011F8FCF7DBFCFEE7004000203A
:1041300000000020DC00002024430008DC000020F8
:10414000A40D0020FEE7000070B500260C4D0D4CBC
:10415000641BA410A64209D1002600F021F80A4DE4
:104160000A4C641BA410A64205D170BDB300EB58E5
:1041700098470136EEE7B300EB5898470136F2E76F
:104180001C4300081C4300081C430008204300088F
:1041900003008218934200D1704719700133F9E788
:1041A000F8B5C046F8BC08BC9E467047F8B5C04696
:0841B000F8BC08BC9E467047F4
:1041B80053544D333220446F776E4C6F6164204600
:1041C80069726D776172652055706461746500006D
:1041D80053544D6963726F656C656374726F6E6971
:1041E8006373000044465520436F6E66696700009C
:1041F80044465520496E7465726661636500000027
:1042080040496E7465726E616C20466C61736820FB
:1042180020202F307830383030303030302F303365
:104228002A3031364B612C30312A3031364B672CED
:1042380030312A3036344B672C30372A3132384BFC
:10424800672C30342A3031364B672C30312A3036DF
:10425800344B672C30372A3132384B670000000066
:1042680002030405060708090A0B0C0D0E0F1010AF
:10427800000000000102030405060708090A0B0CE8
:104288000D0E0F10000000000000000000000000EC
:1042980001020304060708090E33000894310008D8
:1042A800C2310008F03100080E3300080E33000850
:1042B800CE320008EC320008FE3100081C3200083B
:1042C8003A32000858320008763200089432000862
:1042D8004E3500085A350008603500085435000886
:1042E800603500083C3500083635000860350008A0
:1042F80048350008423500083E3F00080E3F0008D8
:10430800163F00081E3F0008263F00082E3F000801
:04431800363F000824
:04431C00790100081B
:04432000510100083F
:10432400D50D0008E10D0008990E0008710E000873
:104334005D0E0008B50E0008DD0E00081201000233
:1043440000000040830411DF0002010203010000A9
:10435400040309041A030000000000000000000028
:104364000000000000000000000000000000000049
:1043740008420008050F0008090F00080D0F000887
:10438400110F0008150F0008190F000801000000A4
:104394000400000000127A00594000080940000897
:1043A400E13E0008693A0008BD380008B938000841
:1043B400CD380008C1380008C5380008C9380008DD
:1043C400AD380008AD380008AD380008D138000811
:1043D400B539000809021B00010102C032090400BA
:1043E4000000FE01020609210BFF0000041A01006F
:0C43F4000A06000200000040010000006A
:04000005080040F5BA
:00000001FF
